{
  "_format": "hh-sol-artifact-1",
  "contractName": "ProvenanceContract",
  "sourceName": "contracts/ProvenanceContract.sol",
  "abi": [
    {
      "inputs": [],
      "stateMutability": "nonpayable",
      "type": "constructor"
    },
    {
      "inputs": [
        {
          "internalType": "address",
          "name": "owner",
          "type": "address"
        }
      ],
      "name": "OwnableInvalidOwner",
      "type": "error"
    },
    {
      "inputs": [
        {
          "internalType": "address",
          "name": "account",
          "type": "address"
        }
      ],
      "name": "OwnableUnauthorizedAccount",
      "type": "error"
    },
    {
      "anonymous": false,
      "inputs": [
        {
          "indexed": true,
          "internalType": "address",
          "name": "previousOwner",
          "type": "address"
        },
        {
          "indexed": true,
          "internalType": "address",
          "name": "newOwner",
          "type": "address"
        }
      ],
      "name": "OwnershipTransferred",
      "type": "event"
    },
    {
      "anonymous": false,
      "inputs": [
        {
          "indexed": true,
          "internalType": "uint256",
          "name": "productId",
          "type": "uint256"
        },
        {
          "indexed": true,
          "internalType": "address",
          "name": "farmer",
          "type": "address"
        },
        {
          "indexed": false,
          "internalType": "string",
          "name": "crop",
          "type": "string"
        },
        {
          "indexed": false,
          "internalType": "string",
          "name": "qrCode",
          "type": "string"
        }
      ],
      "name": "ProductCreated",
      "type": "event"
    },
    {
      "anonymous": false,
      "inputs": [
        {
          "indexed": true,
          "internalType": "uint256",
          "name": "productId",
          "type": "uint256"
        },
        {
          "indexed": false,
          "internalType": "enum ProvenanceContract.Stage",
          "name": "stage",
          "type": "uint8"
        },
        {
          "indexed": false,
          "internalType": "address",
          "name": "actor",
          "type": "address"
        },
        {
          "indexed": false,
          "internalType": "string",
          "name": "location",
          "type": "string"
        }
      ],
      "name": "StageAdded",
      "type": "event"
    },
    {
      "inputs": [
        {
          "internalType": "uint256",
          "name": "_productId",
          "type": "uint256"
        },
        {
          "internalType": "enum ProvenanceContract.Stage",
          "name": "_stage",
          "type": "uint8"
        },
        {
          "internalType": "string",
          "name": "_location",
          "type": "string"
        },
        {
          "internalType": "string",
          "name": "_notes",
          "type": "string"
        }
      ],
      "name": "addStage",
      "outputs": [],
      "stateMutability": "nonpayable",
      "type": "function"
    },
    {
      "inputs": [
        {
          "internalType": "string",
          "name": "_crop",
          "type": "string"
        },
        {
          "internalType": "uint256",
          "name": "_quantity",
          "type": "uint256"
        },
        {
          "internalType": "string",
          "name": "_location",
          "type": "string"
        },
        {
          "internalType": "string",
          "name": "_qrCode",
          "type": "string"
        }
      ],
      "name": "createProduct",
      "outputs": [
        {
          "internalType": "uint256",
          "name": "",
          "type": "uint256"
        }
      ],
      "stateMutability": "nonpayable",
      "type": "function"
    },
    {
      "inputs": [
        {
          "internalType": "string",
          "name": "_qrCode",
          "type": "string"
        }
      ],
      "name": "getProductByQR",
      "outputs": [
        {
          "internalType": "uint256",
          "name": "productId",
          "type": "uint256"
        },
        {
          "internalType": "address",
          "name": "farmer",
          "type": "address"
        },
        {
          "internalType": "string",
          "name": "crop",
          "type": "string"
        },
        {
          "internalType": "uint256",
          "name": "quantity",
          "type": "uint256"
        },
        {
          "internalType": "string",
          "name": "location",
          "type": "string"
        },
        {
          "internalType": "uint256",
          "name": "harvestDate",
          "type": "uint256"
        }
      ],
      "stateMutability": "view",
      "type": "function"
    },
    {
      "inputs": [
        {
          "internalType": "uint256",
          "name": "_productId",
          "type": "uint256"
        }
      ],
      "name": "getProductStages",
      "outputs": [
        {
          "components": [
            {
              "internalType": "enum ProvenanceContract.Stage",
              "name": "stage",
              "type": "uint8"
            },
            {
              "internalType": "address",
              "name": "actor",
              "type": "address"
            },
            {
              "internalType": "uint256",
              "name": "timestamp",
              "type": "uint256"
            },
            {
              "internalType": "string",
              "name": "location",
              "type": "string"
            },
            {
              "internalType": "string",
              "name": "notes",
              "type": "string"
            }
          ],
          "internalType": "struct ProvenanceContract.StageRecord[]",
          "name": "",
          "type": "tuple[]"
        }
      ],
      "stateMutability": "view",
      "type": "function"
    },
    {
      "inputs": [],
      "name": "getTotalProducts",
      "outputs": [
        {
          "internalType": "uint256",
          "name": "",
          "type": "uint256"
        }
      ],
      "stateMutability": "view",
      "type": "function"
    },
    {
      "inputs": [
        {
          "internalType": "address",
          "name": "_user",
          "type": "address"
        }
      ],
      "name": "getUserProducts",
      "outputs": [
        {
          "internalType": "uint256[]",
          "name": "",
          "type": "uint256[]"
        }
      ],
      "stateMutability": "view",
      "type": "function"
    },
    {
      "inputs": [],
      "name": "owner",
      "outputs": [
        {
          "internalType": "address",
          "name": "",
          "type": "address"
        }
      ],
      "stateMutability": "view",
      "type": "function"
    },
    {
      "inputs": [
        {
          "internalType": "uint256",
          "name": "",
          "type": "uint256"
        },
        {
          "internalType": "uint256",
          "name": "",
          "type": "uint256"
        }
      ],
      "name": "productStages",
      "outputs": [
        {
          "internalType": "enum ProvenanceContract.Stage",
          "name": "stage",
          "type": "uint8"
        },
        {
          "internalType": "address",
          "name": "actor",
          "type": "address"
        },
        {
          "internalType": "uint256",
          "name": "timestamp",
          "type": "uint256"
        },
        {
          "internalType": "string",
          "name": "location",
          "type": "string"
        },
        {
          "internalType": "string",
          "name": "notes",
          "type": "string"
        }
      ],
      "stateMutability": "view",
      "type": "function"
    },
    {
      "inputs": [
        {
          "internalType": "uint256",
          "name": "",
          "type": "uint256"
        }
      ],
      "name": "products",
      "outputs": [
        {
          "internalType": "uint256",
          "name": "productId",
          "type": "uint256"
        },
        {
          "internalType": "address",
          "name": "farmer",
          "type": "address"
        },
        {
          "internalType": "string",
          "name": "crop",
          "type": "string"
        },
        {
          "internalType": "uint256",
          "name": "quantity",
          "type": "uint256"
        },
        {
          "internalType": "string",
          "name": "location",
          "type": "string"
        },
        {
          "internalType": "uint256",
          "name": "harvestDate",
          "type": "uint256"
        },
        {
          "internalType": "string",
          "name": "qrCode",
          "type": "string"
        },
        {
          "internalType": "bool",
          "name": "isActive",
          "type": "bool"
        }
      ],
      "stateMutability": "view",
      "type": "function"
    },
    {
      "inputs": [
        {
          "internalType": "string",
          "name": "",
          "type": "string"
        }
      ],
      "name": "qrCodeToProduct",
      "outputs": [
        {
          "internalType": "uint256",
          "name": "",
          "type": "uint256"
        }
      ],
      "stateMutability": "view",
      "type": "function"
    },
    {
      "inputs": [],
      "name": "renounceOwnership",
      "outputs": [],
      "stateMutability": "nonpayable",
      "type": "function"
    },
    {
      "inputs": [
        {
          "internalType": "address",
          "name": "newOwner",
          "type": "address"
        }
      ],
      "name": "transferOwnership",
      "outputs": [],
      "stateMutability": "nonpayable",
      "type": "function"
    },
    {
      "inputs": [
        {
          "internalType": "address",
          "name": "",
          "type": "address"
        },
        {
          "internalType": "uint256",
          "name": "",
          "type": "uint256"
        }
      ],
      "name": "userProducts",
      "outputs": [
        {
          "internalType": "uint256",
          "name": "",
          "type": "uint256"
        }
      ],
      "stateMutability": "view",
      "type": "function"
    }
  ],
  "bytecode": "0x6080806040523461007a5733156100645760008054336001600160a01b03198216811783556040519290916001600160a01b0316907f8be0079c531659141344cd1fd0a4f28419497f9722a3daafe3b4186f6b6457e09080a361181d90816100808239f35b631e4fbdf760e01b815260006004820152602490fd5b600080fdfe6080604052600436101561001257600080fd5b60003560e01c8063031c3154146114e357806307877cff14610b655780632a727af1146107925780633d5278831461073a578063570aea8a1461071c578063715018a6146106c35780637acc0b20146105fe5780638da5cb5b146105d5578063bc765f591461052a578063e80e59c8146103b5578063f2fde38b14610327578063f389e477146101645763fee7f53b146100ab57600080fd5b3461015f5760208060031936011261015f576001600160a01b036100cd6115fd565b1660005260048152604060002060405190818382549182815201908192600052846000209060005b8682821061014b57868661010b82880383611563565b604051928392818401908285525180915260408401929160005b82811061013457505050500390f35b835185528695509381019392810192600101610125565b8354855290930192600192830192016100f5565b600080fd5b3461015f5760208060031936011261015f57600435908160005260019182825260ff9061019a826007604060002001541661179b565b6000526002908183526040600020918254906001600160401b038211610311579391604095939551946101d2848460051b0187611563565b82865283860191829760005284600020916000935b85851061029f57505050505050604051928184019082855251809152604084019160408260051b86010195926000905b8382106102245786880387f35b9091929394838061028e839a603f198b82030186528951610246828251611762565b808401516001600160a01b0316828501526040808201519083015260608082015160a091840182905261027b91840190611721565b9160808092015191818403910152611721565b999701959493919091019101610217565b96600487829b9960409b999b516102b581611548565b87546102c3888216836117db565b60081c6001600160a01b0316818401528785015460408201526102e786890161167b565b60608201526102f86003890161167b565b60808201528152019401940193929896989795976101e7565b634e487b7160e01b600052604160045260246000fd5b3461015f57602036600319011261015f576103406115fd565b61034861176f565b6001600160a01b0390811690811561039c57600054826bffffffffffffffffffffffff60a01b821617600055167f8be0079c531659141344cd1fd0a4f28419497f9722a3daafe3b4186f6b6457e0600080a3005b604051631e4fbdf760e01b815260006004820152602490fd5b3461015f5760208060031936011261015f576004356001600160401b03811161015f57816103ea6103fd923690600401611584565b81604051938285809451938492016115da565b810160038152030190205480156104f1576000526001815260406000206040516104268161152c565b8154815260018201546001600160a01b039081168483019081529290916104e7916104d46104566002830161167b565b9460408401958652600383015490606085019182526104776004850161167b565b946080810195865260ff600760058701549660a0840197885261049c6006820161167b565b60c0850152015416151560e082015251975116955190519351925195604051988998895288015260c0604088015260c0870190611721565b9160608601528482036080860152611721565b9060a08301520390f35b60405162461bcd60e51b815260048101839052601160248201527014548818dbd919481b9bdd08199bdd5b99607a1b6044820152606490fd5b3461015f57604036600319011261015f576024356004356000526002602052604060002090815481101561015f5761056191611746565b5080546105d16001830154926105c361058860036105816002850161167b565b930161167b565b91604051958561059c8860ff819916611762565b60081c6001600160a01b03166020870152604086015260a060608601819052850190611721565b908382036080850152611721565b0390f35b3461015f57600036600319011261015f576000546040516001600160a01b039091168152602090f35b3461015f57602036600319011261015f5760043560005260016020526040600020805460018060a01b03600183015416916106b761063e6002830161167b565b916003810154906106a46106546004830161167b565b9260058301549361069160ff600761066e6006880161167b565b96015416976040519a8b9a8b5260208b01526101008060408c01528a0190611721565b9160608901528782036080890152611721565b9160a086015284820360c0860152611721565b90151560e08301520390f35b3461015f57600036600319011261015f576106dc61176f565b600080546001600160a01b0319811682556001600160a01b03167f8be0079c531659141344cd1fd0a4f28419497f9722a3daafe3b4186f6b6457e08280a3005b3461015f57600036600319011261015f576020600554604051908152f35b3461015f57604036600319011261015f576107536115fd565b6001600160a01b031660009081526004602052604090208054602435919082101561015f5760209161078491611613565b90546040519160031b1c8152f35b3461015f57608036600319011261015f576007602435101561015f576044356001600160401b03811161015f576107cd903690600401611584565b6064356001600160401b03811161015f576107ec903690600401611584565b90600435600052600160205261080c60ff6007604060002001541661179b565b600435600052600260205260406000206040519261082984611548565b610835602435856117db565b60208401913383526040850190428252606086019285845260808701528054600160401b8110156103115761086f91600182018155611746565b939093610b4f578551906007821015610b395784549051610100600160a81b0360089190911b1660ff929092166001600160a81b031990911617178355516001830155518051906001600160401b038211610311576108d16002840154611641565b601f8111610af2575b50602090601f8311600114610a8057918060809492600394600092610a75575b50508160011b9160001990851b1c19161760028201555b019201519182516001600160401b038111610311576109308254611641565b601f8111610a2d575b506020601f82116001146109c757819293946000926109bc575b50508160011b916000199060031b1c19161790555b7fac3e7ee33c0dd06bd92a3da6ad28996195b0516b84c127789df70c1760c7754f60405161099881602435611762565b33602082015260606040820152806109b7600435946060830190611721565b0390a2005b015190508480610953565b601f198216908360005260206000209160005b818110610a15575095836001959697106109fc575b505050811b019055610968565b015160001960f88460031b161c191690558480806109ef565b9192602060018192868b0151815501940192016109da565b826000526020600020601f830160051c81019160208410610a6b575b601f0160051c01905b818110610a5f5750610939565b60008155600101610a52565b9091508190610a49565b0151905087806108fa565b90601f198316916002850160005260206000209260005b818110610ada57509260019285926003966080989610610ac2575b505050811b016002820155610911565b015160001983871b60f8161c19169055878080610ab2565b92936020600181928786015181550195019301610a97565b600284016000526020600020601f840160051c810160208510610b32575b601f830160051c82018110610b265750506108da565b60008155600101610b10565b5080610b10565b634e487b7160e01b600052602160045260246000fd5b634e487b7160e01b600052600060045260246000fd5b3461015f57608036600319011261015f576004356001600160401b03811161015f57610b95903690600401611584565b6044356001600160401b03811161015f57610bb4903690600401611584565b906064356001600160401b03811161015f57610bd4903690600401611584565b908051156114a9576024351561146d576040516020818451610bf981838589016115da565b810160038152030190205461142f576005549160001983146114195760018301600555604051610c288161152c565b60018401815233602082015282604082015260243560608201528460808201524260a08201528160c0820152600160e08201526001840160005260016020526040600020815181556001810160018060a01b036020840151166bffffffffffffffffffffffff60a01b82541617905560408201518051906001600160401b038211610311578190610cbc6002850154611641565b601f81116113c6575b50602090601f831160011461135457600092611349575b50508160011b916000199060031b1c19161760028201555b6060820151600382015560808201518051906001600160401b038211610311578190610d236004850154611641565b601f81116112f6575b50602090601f831160011461128457600092611279575b50508160011b916000199060031b1c19161760048201555b60a0820151600582015560c08201518051906001600160401b03821161031157610d886006840154611641565b601f8111611232575b50602090601f83116001146111bd57918060e094926007946000926111b2575b50508160011b916000199060031b1c19161760068201555b01910151151560ff801983541691161790556040518151610dee8183602086016115da565b810190600382526020816001870193030190205533600052600460205260406000208054600160401b81101561031157610e2d91600182018155611613565b81549060031b9060018601821b91600019901b19161790556040518060408101106001600160401b036040830111176103115760408101604052600f81526e141c9bd91d58dd0818dc99585d1959608a1b602082015260018401600052600260205260406000209060405195610ea287611548565b60008752336020880152426040880152606087015260808601528054600160401b81101561031157610ed991600182018155611746565b610b4f5784516007811015610b395781546020870151610100600160a81b0360089190911b1660ff929092166001600160a81b0319909116171781556040850151600182015560608501518051906001600160401b03821161031157610f426002840154611641565b601f811161116b575b50602090601f83116001146110f7579180608094926003946000926110ec575b50508160011b9160001990851b1c19161760028201555b019401519384516001600160401b03811161031157610fa18254611641565b601f81116110a4575b50806020968790601f831160011461104057600092611035575b50508160011b916000199060031b1c19161790555b7f5b6548625353cfbb6de6bbb313a0b1cf8efbb45f2874f24c9d352590e3e366ff61100f60405193604085526040850190611721565b92808403868201528061102733956001880195611721565b0390a3600160405191018152f35b015190508780610fc4565b60008581528981209350601f198516905b81811061108d5750908460019594939210611074575b505050811b019055610fd9565b015160001960f88460031b161c19169055878080611067565b92938a600181928786015181550195019301611051565b826000526020600020601f830160051c810191602084106110e2575b601f0160051c01905b8181106110d65750610faa565b600081556001016110c9565b90915081906110c0565b015190508980610f6b565b906002840160005260206000209160005b601f19851681106111535750926080949260019260039583601f1981161061113b575b505050811b016002820155610f82565b015160001983871b60f8161c1916905589808061112b565b91926020600181928685015181550194019201611108565b600284016000526020600020601f840160051c8101602085106111ab575b601f830160051c8201811061119f575050610f4b565b60008155600101611189565b5080611189565b015190508a80610db1565b906006840160005260206000209160005b601f198516811061121a57509260e0949260019260079583601f19811610611201575b505050811b016006820155610dc9565b015160001960f88460031b161c191690558a80806111f1565b919260206001819286850151815501940192016111ce565b600684016000526020600020601f840160051c810160208510611272575b601f830160051c82018110611266575050610d91565b60008155600101611250565b5080611250565b015190508880610d43565b9250600484016000526020600020906000935b601f19841685106112db576001945083601f198116106112c2575b505050811b016004820155610d5b565b015160001960f88460031b161c191690558880806112b2565b81810151835560209485019460019093019290910190611297565b909150600484016000526020600020601f840160051c810160208510611342575b90849392915b601f830160051c82018110611333575050610d2c565b6000815585945060010161131d565b5080611317565b015190508880610cdc565b9250600284016000526020600020906000935b601f19841685106113ab576001945083601f19811610611392575b505050811b016002820155610cf4565b015160001960f88460031b161c19169055888080611382565b81810151835560209485019460019093019290910190611367565b909150600284016000526020600020601f840160051c810160208510611412575b90849392915b601f830160051c82018110611403575050610cc5565b600081558594506001016113ed565b50806113e7565b634e487b7160e01b600052601160045260246000fd5b60405162461bcd60e51b8152602060048201526016602482015275515220636f646520616c72656164792065786973747360501b6044820152606490fd5b60405162461bcd60e51b815260206004820152601460248201527305175616e74697479206d757374206265203e20360641b6044820152606490fd5b60405162461bcd60e51b815260206004820152601260248201527110dc9bdc081b985b59481c995c5d5a5c995960721b6044820152606490fd5b3461015f57602036600319011261015f576004356001600160401b03811161015f5761151960206103ea81933690600401611584565b8101600381520301902054604051908152f35b61010081019081106001600160401b0382111761031157604052565b60a081019081106001600160401b0382111761031157604052565b90601f801991011681019081106001600160401b0382111761031157604052565b81601f8201121561015f578035906001600160401b03821161031157604051926115b8601f8401601f191660200185611563565b8284526020838301011161015f57816000926020809301838601378301015290565b60005b8381106115ed5750506000910152565b81810151838201526020016115dd565b600435906001600160a01b038216820361015f57565b805482101561162b5760005260206000200190600090565b634e487b7160e01b600052603260045260246000fd5b90600182811c92168015611671575b602083101461165b57565b634e487b7160e01b600052602260045260246000fd5b91607f1691611650565b906040519182600082549261168f84611641565b9081845260019485811690816000146116fe57506001146116bb575b50506116b992500383611563565b565b9093915060005260209081600020936000915b8183106116e65750506116b9935082010138806116ab565b855488840185015294850194879450918301916116ce565b9150506116b994506020925060ff191682840152151560051b82010138806116ab565b9060209161173a815180928185528580860191016115da565b601f01601f1916010190565b805482101561162b5760005260206000209060021b0190600090565b906007821015610b395752565b6000546001600160a01b0316330361178357565b60405163118cdaa760e01b8152336004820152602490fd5b156117a257565b60405162461bcd60e51b8152602060048201526011602482015270141c9bd91d58dd081b9bdd08199bdd5b99607a1b6044820152606490fd5b6007821015610b39575256fea264697066735822122098e0ea19273f2d840b0b523bb69f6726fc2f4c02c1573e353d3015fbad1c43f364736f6c63430008140033",
  "linkReferences": {},
  "deployedLinkReferences": {}
}