{
  "_format": "hh-sol-artifact-1",
  "contractName": "AuctionContract",
  "sourceName": "contracts/AuctionContract.sol",
  "abi": [
    {
      "inputs": [],
      "stateMutability": "nonpayable",
      "type": "constructor"
    },
    {
      "inputs": [
        {
          "internalType": "address",
          "name": "owner",
          "type": "address"
        }
      ],
      "name": "OwnableInvalidOwner",
      "type": "error"
    },
    {
      "inputs": [
        {
          "internalType": "address",
          "name": "account",
          "type": "address"
        }
      ],
      "name": "OwnableUnauthorizedAccount",
      "type": "error"
    },
    {
      "inputs": [],
      "name": "ReentrancyGuardReentrantCall",
      "type": "error"
    },
    {
      "anonymous": false,
      "inputs": [
        {
          "indexed": true,
          "internalType": "uint256",
          "name": "auctionId",
          "type": "uint256"
        }
      ],
      "name": "AuctionCancelled",
      "type": "event"
    },
    {
      "anonymous": false,
      "inputs": [
        {
          "indexed": true,
          "internalType": "uint256",
          "name": "auctionId",
          "type": "uint256"
        },
        {
          "indexed": true,
          "internalType": "address",
          "name": "farmer",
          "type": "address"
        },
        {
          "indexed": false,
          "internalType": "string",
          "name": "crop",
          "type": "string"
        },
        {
          "indexed": false,
          "internalType": "uint256",
          "name": "quantity",
          "type": "uint256"
        },
        {
          "indexed": false,
          "internalType": "uint256",
          "name": "basePrice",
          "type": "uint256"
        },
        {
          "indexed": false,
          "internalType": "string",
          "name": "qualityGrade",
          "type": "string"
        }
      ],
      "name": "AuctionCreated",
      "type": "event"
    },
    {
      "anonymous": false,
      "inputs": [
        {
          "indexed": true,
          "internalType": "uint256",
          "name": "auctionId",
          "type": "uint256"
        },
        {
          "indexed": true,
          "internalType": "address",
          "name": "winner",
          "type": "address"
        },
        {
          "indexed": false,
          "internalType": "uint256",
          "name": "winningBid",
          "type": "uint256"
        }
      ],
      "name": "AuctionFinalized",
      "type": "event"
    },
    {
      "anonymous": false,
      "inputs": [
        {
          "indexed": true,
          "internalType": "uint256",
          "name": "auctionId",
          "type": "uint256"
        },
        {
          "indexed": true,
          "internalType": "address",
          "name": "bidder",
          "type": "address"
        },
        {
          "indexed": false,
          "internalType": "uint256",
          "name": "amount",
          "type": "uint256"
        },
        {
          "indexed": false,
          "internalType": "uint256",
          "name": "timestamp",
          "type": "uint256"
        }
      ],
      "name": "BidPlaced",
      "type": "event"
    },
    {
      "anonymous": false,
      "inputs": [
        {
          "indexed": true,
          "internalType": "address",
          "name": "previousOwner",
          "type": "address"
        },
        {
          "indexed": true,
          "internalType": "address",
          "name": "newOwner",
          "type": "address"
        }
      ],
      "name": "OwnershipTransferred",
      "type": "event"
    },
    {
      "inputs": [],
      "name": "AUCTION_DURATION",
      "outputs": [
        {
          "internalType": "uint256",
          "name": "",
          "type": "uint256"
        }
      ],
      "stateMutability": "view",
      "type": "function"
    },
    {
      "inputs": [],
      "name": "MIN_BID_INCREMENT",
      "outputs": [
        {
          "internalType": "uint256",
          "name": "",
          "type": "uint256"
        }
      ],
      "stateMutability": "view",
      "type": "function"
    },
    {
      "inputs": [
        {
          "internalType": "uint256",
          "name": "",
          "type": "uint256"
        },
        {
          "internalType": "uint256",
          "name": "",
          "type": "uint256"
        }
      ],
      "name": "auctionBids",
      "outputs": [
        {
          "internalType": "address",
          "name": "bidder",
          "type": "address"
        },
        {
          "internalType": "uint256",
          "name": "amount",
          "type": "uint256"
        },
        {
          "internalType": "uint256",
          "name": "timestamp",
          "type": "uint256"
        }
      ],
      "stateMutability": "view",
      "type": "function"
    },
    {
      "inputs": [
        {
          "internalType": "uint256",
          "name": "",
          "type": "uint256"
        }
      ],
      "name": "auctions",
      "outputs": [
        {
          "internalType": "uint256",
          "name": "id",
          "type": "uint256"
        },
        {
          "internalType": "address",
          "name": "farmer",
          "type": "address"
        },
        {
          "internalType": "string",
          "name": "crop",
          "type": "string"
        },
        {
          "internalType": "string",
          "name": "variety",
          "type": "string"
        },
        {
          "internalType": "uint256",
          "name": "quantity",
          "type": "uint256"
        },
        {
          "internalType": "uint256",
          "name": "basePrice",
          "type": "uint256"
        },
        {
          "internalType": "uint256",
          "name": "currentHighestBid",
          "type": "uint256"
        },
        {
          "internalType": "address",
          "name": "currentHighestBidder",
          "type": "address"
        },
        {
          "internalType": "string",
          "name": "qualityGrade",
          "type": "string"
        },
        {
          "internalType": "uint256",
          "name": "qualityConfidence",
          "type": "uint256"
        },
        {
          "internalType": "uint256",
          "name": "startTime",
          "type": "uint256"
        },
        {
          "internalType": "uint256",
          "name": "endTime",
          "type": "uint256"
        },
        {
          "internalType": "bool",
          "name": "isActive",
          "type": "bool"
        },
        {
          "internalType": "bool",
          "name": "isFinalized",
          "type": "bool"
        },
        {
          "internalType": "string",
          "name": "description",
          "type": "string"
        }
      ],
      "stateMutability": "view",
      "type": "function"
    },
    {
      "inputs": [
        {
          "internalType": "address",
          "name": "",
          "type": "address"
        },
        {
          "internalType": "uint256",
          "name": "",
          "type": "uint256"
        }
      ],
      "name": "bidderAuctions",
      "outputs": [
        {
          "internalType": "uint256",
          "name": "",
          "type": "uint256"
        }
      ],
      "stateMutability": "view",
      "type": "function"
    },
    {
      "inputs": [
        {
          "internalType": "uint256",
          "name": "auctionId",
          "type": "uint256"
        }
      ],
      "name": "cancelAuction",
      "outputs": [],
      "stateMutability": "nonpayable",
      "type": "function"
    },
    {
      "inputs": [
        {
          "internalType": "string",
          "name": "_crop",
          "type": "string"
        },
        {
          "internalType": "string",
          "name": "_variety",
          "type": "string"
        },
        {
          "internalType": "uint256",
          "name": "_quantity",
          "type": "uint256"
        },
        {
          "internalType": "uint256",
          "name": "_basePrice",
          "type": "uint256"
        },
        {
          "internalType": "string",
          "name": "_qualityGrade",
          "type": "string"
        },
        {
          "internalType": "uint256",
          "name": "_qualityConfidence",
          "type": "uint256"
        },
        {
          "internalType": "string",
          "name": "_description",
          "type": "string"
        },
        {
          "internalType": "string[]",
          "name": "_imageHashes",
          "type": "string[]"
        }
      ],
      "name": "createAuction",
      "outputs": [
        {
          "internalType": "uint256",
          "name": "",
          "type": "uint256"
        }
      ],
      "stateMutability": "nonpayable",
      "type": "function"
    },
    {
      "inputs": [
        {
          "internalType": "address",
          "name": "",
          "type": "address"
        },
        {
          "internalType": "uint256",
          "name": "",
          "type": "uint256"
        }
      ],
      "name": "farmerAuctions",
      "outputs": [
        {
          "internalType": "uint256",
          "name": "",
          "type": "uint256"
        }
      ],
      "stateMutability": "view",
      "type": "function"
    },
    {
      "inputs": [
        {
          "internalType": "uint256",
          "name": "auctionId",
          "type": "uint256"
        }
      ],
      "name": "finalizeAuction",
      "outputs": [],
      "stateMutability": "nonpayable",
      "type": "function"
    },
    {
      "inputs": [],
      "name": "getActiveAuctions",
      "outputs": [
        {
          "internalType": "uint256[]",
          "name": "",
          "type": "uint256[]"
        }
      ],
      "stateMutability": "view",
      "type": "function"
    },
    {
      "inputs": [
        {
          "internalType": "uint256",
          "name": "auctionId",
          "type": "uint256"
        }
      ],
      "name": "getAuction",
      "outputs": [
        {
          "components": [
            {
              "internalType": "uint256",
              "name": "id",
              "type": "uint256"
            },
            {
              "internalType": "address",
              "name": "farmer",
              "type": "address"
            },
            {
              "internalType": "string",
              "name": "crop",
              "type": "string"
            },
            {
              "internalType": "string",
              "name": "variety",
              "type": "string"
            },
            {
              "internalType": "uint256",
              "name": "quantity",
              "type": "uint256"
            },
            {
              "internalType": "uint256",
              "name": "basePrice",
              "type": "uint256"
            },
            {
              "internalType": "uint256",
              "name": "currentHighestBid",
              "type": "uint256"
            },
            {
              "internalType": "address",
              "name": "currentHighestBidder",
              "type": "address"
            },
            {
              "internalType": "string",
              "name": "qualityGrade",
              "type": "string"
            },
            {
              "internalType": "uint256",
              "name": "qualityConfidence",
              "type": "uint256"
            },
            {
              "internalType": "uint256",
              "name": "startTime",
              "type": "uint256"
            },
            {
              "internalType": "uint256",
              "name": "endTime",
              "type": "uint256"
            },
            {
              "internalType": "bool",
              "name": "isActive",
              "type": "bool"
            },
            {
              "internalType": "bool",
              "name": "isFinalized",
              "type": "bool"
            },
            {
              "internalType": "string",
              "name": "description",
              "type": "string"
            },
            {
              "internalType": "string[]",
              "name": "imageHashes",
              "type": "string[]"
            }
          ],
          "internalType": "struct AuctionContract.Auction",
          "name": "",
          "type": "tuple"
        }
      ],
      "stateMutability": "view",
      "type": "function"
    },
    {
      "inputs": [
        {
          "internalType": "uint256",
          "name": "auctionId",
          "type": "uint256"
        }
      ],
      "name": "getAuctionBids",
      "outputs": [
        {
          "components": [
            {
              "internalType": "address",
              "name": "bidder",
              "type": "address"
            },
            {
              "internalType": "uint256",
              "name": "amount",
              "type": "uint256"
            },
            {
              "internalType": "uint256",
              "name": "timestamp",
              "type": "uint256"
            }
          ],
          "internalType": "struct AuctionContract.Bid[]",
          "name": "",
          "type": "tuple[]"
        }
      ],
      "stateMutability": "view",
      "type": "function"
    },
    {
      "inputs": [
        {
          "internalType": "address",
          "name": "bidder",
          "type": "address"
        }
      ],
      "name": "getBidderAuctions",
      "outputs": [
        {
          "internalType": "uint256[]",
          "name": "",
          "type": "uint256[]"
        }
      ],
      "stateMutability": "view",
      "type": "function"
    },
    {
      "inputs": [
        {
          "internalType": "address",
          "name": "farmer",
          "type": "address"
        }
      ],
      "name": "getFarmerAuctions",
      "outputs": [
        {
          "internalType": "uint256[]",
          "name": "",
          "type": "uint256[]"
        }
      ],
      "stateMutability": "view",
      "type": "function"
    },
    {
      "inputs": [],
      "name": "getTotalAuctions",
      "outputs": [
        {
          "internalType": "uint256",
          "name": "",
          "type": "uint256"
        }
      ],
      "stateMutability": "view",
      "type": "function"
    },
    {
      "inputs": [],
      "name": "owner",
      "outputs": [
        {
          "internalType": "address",
          "name": "",
          "type": "address"
        }
      ],
      "stateMutability": "view",
      "type": "function"
    },
    {
      "inputs": [
        {
          "internalType": "uint256",
          "name": "auctionId",
          "type": "uint256"
        }
      ],
      "name": "placeBid",
      "outputs": [],
      "stateMutability": "payable",
      "type": "function"
    },
    {
      "inputs": [],
      "name": "renounceOwnership",
      "outputs": [],
      "stateMutability": "nonpayable",
      "type": "function"
    },
    {
      "inputs": [
        {
          "internalType": "address",
          "name": "newOwner",
          "type": "address"
        }
      ],
      "name": "transferOwnership",
      "outputs": [],
      "stateMutability": "nonpayable",
      "type": "function"
    }
  ],
  "bytecode": "0x6080806040523461007e5733156100685760008054336001600160a01b03198216811783556040519290916001600160a01b0316907f8be0079c531659141344cd1fd0a4f28419497f9722a3daafe3b4186f6b6457e09080a360018055611e0190816100848239f35b631e4fbdf760e01b815260006004820152602490fd5b600080fdfe6080604052600436101561001257600080fd5b60003560e01c80631cb8dd1c146119cd5780633ef14cc8146119af578063524b9b6a14610f9f578063571a26a014610e6c5780635f93de4914610e0a57806362910b5914610d9257806370b4768e14610ca7578063715018a614610c4e57806371943bce14610c2c57806378bd7935146108ef5780638da5cb5b146108c657806396b5a755146107895780639979ef45146104bd578063a271e5251461049f578063b030234914610447578063b8c62d32146103c3578063cf44b5d5146102f1578063e80838631461017b5763f2fde38b146100ed57600080fd5b3461017657602036600319011261017657610106611a17565b61010e611c97565b6001600160a01b0390811690811561015d57600054826001600160601b0360a01b821617600055167f8be0079c531659141344cd1fd0a4f28419497f9722a3daafe3b4186f6b6457e0600080a3005b604051631e4fbdf760e01b815260006004820152602490fd5b600080fd5b3461017657602036600319011261017657600435610197611d62565b806000526002602052604060002090600c820180546101b860ff8216611d1e565b600b8401544211156102ac5760ff8160081c166102675761ffff19166101001790556007820180546001600160a01b03919082166101f7575b60018055005b600080808060068660018a01541698019788549082821561025e575bf115610252577f4d9113a1377d665eaa1f9168a9c9080f2e488cb820b10149de3d6d2e0f2780c79160209154169354604051908152a3808080806101f1565b6040513d6000823e3d90fd5b506108fc610213565b60405162461bcd60e51b815260206004820152601960248201527f41756374696f6e20616c72656164792066696e616c697a6564000000000000006044820152606490fd5b60405162461bcd60e51b815260206004820152601960248201527f41756374696f6e20686173206e6f7420656e64656420796574000000000000006044820152606490fd5b346101765760003660031901126101765760065461030e81611d85565b9060009060005b81811061036857505061032781611d85565b9160005b82811061034457604051806103408682611c5c565b0390f35b806103526103639284611db7565b5161035d8287611db7565b52611cc3565b61032b565b806000526002602052604060002060ff600c8201541690816103b4575b50610399575b61039490611cc3565b610315565b916103ac818461035d6103949488611db7565b92905061038b565b600b9150015442111585610385565b3461017657602080600319360112610176576001600160a01b036103e5611a17565b1660005260048152604060002090604051908181845491828152019360005281600020916000905b828210610430576103408561042481890382611a92565b60405191829182611c5c565b83548652948501946001938401939091019061040d565b3461017657604036600319011261017657610460611a17565b6001600160a01b03166000908152600460205260409020805460243591908210156101765760209161049191611a2d565b90546040519160031b1c8152f35b34610176576000366003190112610176576020604051620151808152f35b6020806003193601126101765760043580600052600282526104e960ff600c6040600020015416611d1e565b8060005260028252600b60406000200154421161075057610508611d62565b6000818152600283526040902060018101546001600160a01b0391908216331461070d5760068101805491662386f26fc1000083018084116106735734106106da576007019183835416806106b5575b50503490556001600160601b0360a01b903382825416179055826000526003845260406000206040519161058b83611a77565b3383528583019034825260408401924284528054600160401b81101561069f576105ba91600182018155611c40565b9590956106895760029451169085541617845551600184015551910155336000526005825260406000208054801591821561064a575b505061062f575b6040519134835242908301527f51db8e23b3f4479b162fd48823b8402895442b8f6cfd94f66239391881ec7b6f60403393a360018055005b3360005260058252610645816040600020611ce9565b6105f7565b6000198201925090821161067357829161066391611a2d565b90549060031b1c141583806105f0565b634e487b7160e01b600052601160045260246000fd5b634e487b7160e01b600052600060045260246000fd5b634e487b7160e01b600052604160045260246000fd5b600080809381938282156106d1575bf115610252578580610558565b506108fc6106c4565b60405162461bcd60e51b815260048101879052600b60248201526a42696420746f6f206c6f7760a81b6044820152606490fd5b6064846040519062461bcd60e51b825280600483015260248201527f4661726d65722063616e6e6f7420626964206f6e206f776e2061756374696f6e6044820152fd5b60405162461bcd60e51b8152600481018390526011602482015270105d58dd1a5bdb881a185cc8195b991959607a1b6044820152606490fd5b34610176576020366003190112610176576004356000818152600260205260409020600101546001600160a01b03908116330361086e576107c8611d62565b8160005260026020526040600020600c81019160078354926107ec60ff8516611d1e565b0154166108295761ffff19166101001790557f2809c7e17bf978fbc7194c0a694b638c4215e9140cacc6c38ca36010b45697df600080a260018055005b60405162461bcd60e51b815260206004820152601f60248201527f43616e6e6f742063616e63656c2061756374696f6e20776974682062696473006044820152606490fd5b60405162461bcd60e51b815260206004820152602a60248201527f4f6e6c792061756374696f6e206f776e65722063616e20706572666f726d20746044820152693434b99030b1ba34b7b760b11b6064820152608490fd5b34610176576000366003190112610176576000546040516001600160a01b039091168152602090f35b346101765760203660031901126101765760606101e060405161091181611a5b565b6000815260006020820152826040820152828082015260006080820152600060a0820152600060c0820152600060e082015282610100820152600061012082015260006101408201526000610160820152600061018082015260006101a0820152826101c08201520152600435600052600260205260406000206040519061099882611a5b565b8054825260018101546001600160a01b031660208301526109bb60028201611b5a565b60408301526109cc60038201611b5a565b606083015260048101546080830152600581015460a0830152600681015460c083015260078101546001600160a01b031660e0830152610a0e60088201611b5a565b6101008301526009810154610120830152600a810154610140830152600b81015461016083015260ff600c820154818116151561018085015260081c1615156101a0830152610a5f600d8201611b5a565b6101c0830152600e810154610a7381611b09565b91610a816040519384611a92565b818352600e60208401910160005260206000206000915b838310610c0f5785856101e08201526040518091602082528051602083015260018060a01b0360208201511660408301526101e0610ba5610b4f610b06610af060408601516102006060890152610220880190611c00565b6060860151878203601f19016080890152611c00565b608085015160a087015260a085015160c087015260c085015160e087015260018060a01b0360e086015116610100870152610100850151601f1987830301610120880152611c00565b61012084015161014086015261014084015161016086015261016084015161018086015261018084015115156101a08601526101a084015115156101c08601526101c0840151601f198683030184870152611c00565b91015190601f1983820301610200840152815180825260208201916020808360051b8301019401926000915b838310610bde5786860387f35b919395509193602080610bfd600193601f198682030187528951611c00565b97019301930190928695949293610bd1565b600160208192610c1e85611b5a565b815201920192019190610a98565b34610176576000366003190112610176576020604051662386f26fc100008152f35b3461017657600036600319011261017657610c67611c97565b600080546001600160a01b0319811682556001600160a01b03167f8be0079c531659141344cd1fd0a4f28419497f9722a3daafe3b4186f6b6457e08280a3005b3461017657602080600319360112610176576004356000526003908181526040600020918254610cd681611b09565b91610ce46040519384611a92565b8183528383018095600052846000206000915b848310610d5657604080518881528751818a018190528a928201908a60005b828110610d235784840385f35b855180516001600160a01b0316855280830151858401526040908101519085015294810194606090930192600101610d16565b8387600192604051610d6781611a77565b848060a01b038654168152848601548382015260028601546040820152815201920192019190610cf7565b3461017657602080600319360112610176576001600160a01b03610db4611a17565b1660005260058152604060002090604051908181845491828152019360005281600020916000905b828210610df3576103408561042481890382611a92565b835486529485019460019384019390910190610ddc565b346101765760403660031901126101765760243560043560005260036020526040600020805482101561017657606091610e4391611c40565b5060018060a01b0381541690600260018201549101549060405192835260208301526040820152f35b3461017657602036600319011261017657600435600052600260205260406000208054600160a01b6001900391826001820154169260028201610eae90611b5a565b91610ebb60038201611b5a565b60048201546005830154906006840154946007850154169060088501610ee090611b5a565b91600986015496600a87015494600b88015496600c89015498600d01610f0590611b5a565b9a6040519d8e809e8152602001528c6101e06040819201528d01610f2891611c00565b8c810360608e0152610f3991611c00565b9360808c015260a08b015260c08a015260e0890152878103610100890152610f6091611c00565b9361012087015261014086015261016085015260ff8116151561018085015260081c60ff1615156101a08401528281036101c084015261034091611c00565b3461017657610100366003190112610176576004356001600160401b03811161017657610fd0903690600401611ab3565b6024356001600160401b03811161017657610fef903690600401611ab3565b6084356001600160401b0381116101765761100e903690600401611ab3565b60c4356001600160401b0381116101765761102d903690600401611ab3565b916001600160401b0360e435116101765736602360e4350112156101765760e4356004013561105b81611b09565b906110696040519283611a92565b80825260208201903660248260051b60e43501011161017657602460e43501915b60248260051b60e4350101831061197c5750505084511561193757604435156118f257606435156118a357600654936110c285611cc3565b600655620151804201421161067357604051926110de84611a5b565b8584523360208501528660408501526060840152604435608084015260643560a084015260643560c0840152600060e08401528361010084015260a43561012084015242610140840152620151804201610160840152600161018084015260006101a08401526101c08301526101e0820152826000526002602052604060002090805182556001820160018060a01b036020830151166001600160601b0360a01b82541617905560408101518051906001600160401b03821161069f5781906111aa6002860154611b20565b601f811161186e575b50602090601f83116001146117fc576000926117f1575b50508160011b916000199060031b1c19161760028301555b60608101518051906001600160401b03821161069f5781906112076003860154611b20565b601f81116117bc575b50602090601f831160011461174a5760009261173f575b50508160011b916000199060031b1c19161760038301555b6080810151600483015560a0810151600583015560c081015160068301556007820160018060a01b0360e0830151166001600160601b0360a01b8254161790556101008101518051906001600160401b03821161069f5781906112a56008860154611b20565b601f811161170a575b50602090601f83116001146116985760009261168d575b50508160011b916000199060031b1c19161760088301555b6101208101516009830155610140810151600a830155610160810151600b830155600c82016101808201511515815460ff61ff006101a0860151151560081b1692169061ffff1916171790556101c081015180516001600160401b03811161069f57600d84019161134e8354611b20565b601f811161165b575b50602090601f83116001146115ee576101e094939291600091836115e3575b50508160011b916000199060031b1c19161790555b0151805190600160401b821161069f57600e83015482600e85015580831061156b575b506020600e910192016000526020600020916000905b82821061144b5760208686817f9af75fcee4e7c792ccc7a78a2bee23a0b7c5f7e1929a93bbd95efde5a6794c1d6114228c336000526004875261140b846040600020611ce9565b611440604051928392608084526080840190611c00565b60443589840152606435604084015282810360608401523396611c00565b0390a3604051908152f35b80518051906001600160401b03821161069f576114688654611b20565b601f811161152e575b50602090601f83116001146114be5792826001949360209386956000926114b3575b5050600019600383901b1c191690841b1787555b019401910190926113c4565b015190508c80611493565b908660005260206000209160005b601f1985168110611516575083602093600196938796938794601f198116106114fd575b505050811b0187556114a7565b015160001960f88460031b161c191690558c80806114f0565b919260206001819286850151815501940192016114cc565b61155b90876000526020600020601f850160051c81019160208610611561575b601f0160051c0190611cd2565b89611471565b909150819061154e565b600e84016000526020600020908382015b818301811061158c5750506113ae565b8061159960019254611b20565b806115a6575b500161157c565b601f811183146115bc5750600081555b8a61159f565b6000908282526115da601f60208420920160051c8201858301611cd2565b818355556115b6565b015190508980611376565b90601f198316918460005260206000209260005b81811061164357509160019391856101e0989796941061162a575b505050811b01905561138b565b015160001960f88460031b161c1916905589808061161d565b92936020600181928786015181550195019301611602565b61168790846000526020600020601f850160051c8101916020861061156157601f0160051c0190611cd2565b88611357565b0151905087806112c5565b9250600885016000526020600020906000935b601f19841685106116ef576001945083601f198116106116d6575b505050811b0160088301556112dd565b015160001960f88460031b161c191690558780806116c6565b818101518355602094850194600190930192909101906116ab565b61173990600887016000526020600020601f850160051c8101916020861061156157601f0160051c0190611cd2565b886112ae565b015190508780611227565b9250600385016000526020600020906000935b601f19841685106117a1576001945083601f19811610611788575b505050811b01600383015561123f565b015160001960f88460031b161c19169055878080611778565b8181015183556020948501946001909301929091019061175d565b6117eb90600387016000526020600020601f850160051c8101916020861061156157601f0160051c0190611cd2565b88611210565b0151905087806111ca565b9250600285016000526020600020906000935b601f1984168510611853576001945083601f1981161061183a575b505050811b0160028301556111e2565b015160001960f88460031b161c1916905587808061182a565b8181015183556020948501946001909301929091019061180f565b61189d90600287016000526020600020601f850160051c8101916020861061156157601f0160051c0190611cd2565b886111b3565b60405162461bcd60e51b815260206004820152602160248201527f42617365207072696365206d7573742062652067726561746572207468616e206044820152600360fc1b6064820152608490fd5b60405162461bcd60e51b815260206004820152601f60248201527f5175616e74697479206d7573742062652067726561746572207468616e2030006044820152606490fd5b60405162461bcd60e51b815260206004820152601960248201527f43726f70206e616d652063616e6e6f7420626520656d707479000000000000006044820152606490fd5b6001600160401b03833511610176576020806024926119a23685883560e4350101611ab3565b815201930192905061108a565b34610176576000366003190112610176576020600654604051908152f35b34610176576040366003190112610176576119e6611a17565b6001600160a01b03166000908152600560205260409020805460243591908210156101765760209161049191611a2d565b600435906001600160a01b038216820361017657565b8054821015611a455760005260206000200190600090565b634e487b7160e01b600052603260045260246000fd5b61020081019081106001600160401b0382111761069f57604052565b606081019081106001600160401b0382111761069f57604052565b90601f801991011681019081106001600160401b0382111761069f57604052565b81601f82011215610176578035906001600160401b03821161069f5760405192611ae7601f8401601f191660200185611a92565b8284526020838301011161017657816000926020809301838601378301015290565b6001600160401b03811161069f5760051b60200190565b90600182811c92168015611b50575b6020831014611b3a57565b634e487b7160e01b600052602260045260246000fd5b91607f1691611b2f565b9060405191826000825492611b6e84611b20565b908184526001948581169081600014611bdd5750600114611b9a575b5050611b9892500383611a92565b565b9093915060005260209081600020936000915b818310611bc5575050611b9893508201013880611b8a565b85548884018501529485019487945091830191611bad565b915050611b9894506020925060ff191682840152151560051b8201013880611b8a565b919082519283825260005b848110611c2c575050826000602080949584010152601f8019910116010190565b602081830181015184830182015201611c0b565b8054821015611a45576000526003602060002091020190600090565b6020908160408183019282815285518094520193019160005b828110611c83575050505090565b835185529381019392810192600101611c75565b6000546001600160a01b03163303611cab57565b60405163118cdaa760e01b8152336004820152602490fd5b60001981146106735760010190565b818110611cdd575050565b60008155600101611cd2565b8054600160401b81101561069f57611d0691600182018155611a2d565b819291549060031b91821b91600019901b1916179055565b15611d2557565b60405162461bcd60e51b815260206004820152601560248201527441756374696f6e206973206e6f742061637469766560581b6044820152606490fd5b600260015414611d73576002600155565b604051633ee5aeb560e01b8152600490fd5b90611d8f82611b09565b611d9c6040519182611a92565b8281528092611dad601f1991611b09565b0190602036910137565b8051821015611a455760209160051b01019056fea2646970667358221220b531e7d70d05ead6f84aba48431d3045d6208ccfbe49489c34a345ae2ac61a7264736f6c63430008140033",
  "linkReferences": {},
  "deployedLinkReferences": {}
}