{"contracts/ProvenanceContract.sol":{"ProvenanceContract":{"abi":[{"inputs":[],"stateMutability":"nonpayable","type":"constructor"},{"inputs":[{"internalType":"address","name":"owner","type":"address"}],"name":"OwnableInvalidOwner","type":"error"},{"inputs":[{"internalType":"address","name":"account","type":"address"}],"name":"OwnableUnauthorizedAccount","type":"error"},{"anonymous":false,"inputs":[{"indexed":true,"internalType":"address","name":"previousOwner","type":"address"},{"indexed":true,"internalType":"address","name":"newOwner","type":"address"}],"name":"OwnershipTransferred","type":"event"},{"anonymous":false,"inputs":[{"indexed":true,"internalType":"uint256","name":"productId","type":"uint256"},{"indexed":true,"internalType":"address","name":"from","type":"address"},{"indexed":true,"internalType":"address","name":"to","type":"address"},{"indexed":false,"internalType":"enum ProvenanceContract.Stage","name":"stage","type":"uint8"}],"name":"OwnershipTransferred","type":"event"},{"anonymous":false,"inputs":[{"indexed":true,"internalType":"uint256","name":"productId","type":"uint256"},{"indexed":true,"internalType":"address","name":"farmer","type":"address"},{"indexed":false,"internalType":"string","name":"crop","type":"string"},{"indexed":false,"internalType":"uint256","name":"auctionId","type":"uint256"},{"indexed":false,"internalType":"string","name":"qrCodeHash","type":"string"}],"name":"ProductCreated","type":"event"},{"anonymous":false,"inputs":[{"indexed":true,"internalType":"uint256","name":"productId","type":"uint256"},{"indexed":false,"internalType":"string","name":"qualityGrade","type":"string"},{"indexed":false,"internalType":"uint256","name":"confidence","type":"uint256"},{"indexed":false,"internalType":"address","name":"verifier","type":"address"}],"name":"QualityVerified","type":"event"},{"anonymous":false,"inputs":[{"indexed":true,"internalType":"uint256","name":"productId","type":"uint256"},{"indexed":true,"internalType":"enum ProvenanceContract.Stage","name":"stage","type":"uint8"},{"indexed":true,"internalType":"address","name":"actor","type":"address"},{"indexed":false,"internalType":"uint256","name":"timestamp","type":"uint256"}],"name":"StageUpdated","type":"event"},{"inputs":[{"internalType":"address","name":"","type":"address"},{"internalType":"uint256","name":"","type":"uint256"}],"name":"actorProducts","outputs":[{"internalType":"uint256","name":"","type":"uint256"}],"stateMutability":"view","type":"function"},{"inputs":[{"internalType":"uint256","name":"_productId","type":"uint256"},{"internalType":"enum ProvenanceContract.Stage","name":"_stage","type":"uint8"},{"internalType":"string","name":"_location","type":"string"},{"internalType":"string","name":"_notes","type":"string"},{"internalType":"string[]","name":"_evidenceHashes","type":"string[]"},{"internalType":"string","name":"_temperature","type":"string"},{"internalType":"string","name":"_humidity","type":"string"}],"name":"addStageRecord","outputs":[],"stateMutability":"nonpayable","type":"function"},{"inputs":[{"internalType":"uint256","name":"_auctionId","type":"uint256"},{"internalType":"string","name":"_crop","type":"string"},{"internalType":"string","name":"_variety","type":"string"},{"internalType":"uint256","name":"_quantity","type":"uint256"},{"internalType":"string","name":"_qualityGrade","type":"string"},{"internalType":"uint256","name":"_qualityConfidence","type":"uint256"},{"internalType":"string","name":"_farmLocation","type":"string"},{"internalType":"uint256","name":"_harvestDate","type":"uint256"},{"internalType":"uint256","name":"_expiryDate","type":"uint256"},{"internalType":"string[]","name":"_certifications","type":"string[]"},{"internalType":"string","name":"_qrCodeHash","type":"string"}],"name":"createProduct","outputs":[{"internalType":"uint256","name":"","type":"uint256"}],"stateMutability":"nonpayable","type":"function"},{"inputs":[{"internalType":"address","name":"_actor","type":"address"}],"name":"getActorProducts","outputs":[{"internalType":"uint256[]","name":"","type":"uint256[]"}],"stateMutability":"view","type":"function"},{"inputs":[{"internalType":"uint256","name":"_productId","type":"uint256"}],"name":"getCurrentStage","outputs":[{"internalType":"enum ProvenanceContract.Stage","name":"","type":"uint8"}],"stateMutability":"view","type":"function"},{"inputs":[{"internalType":"string","name":"_qrCodeHash","type":"string"}],"name":"getProductByQR","outputs":[{"components":[{"internalType":"uint256","name":"productId","type":"uint256"},{"internalType":"uint256","name":"auctionId","type":"uint256"},{"internalType":"uint256","name":"shipmentId","type":"uint256"},{"internalType":"address","name":"farmer","type":"address"},{"internalType":"address","name":"distributor","type":"address"},{"internalType":"address","name":"retailer","type":"address"},{"internalType":"string","name":"crop","type":"string"},{"internalType":"string","name":"variety","type":"string"},{"internalType":"uint256","name":"quantity","type":"uint256"},{"internalType":"string","name":"qualityGrade","type":"string"},{"internalType":"uint256","name":"qualityConfidence","type":"uint256"},{"internalType":"string","name":"farmLocation","type":"string"},{"internalType":"uint256","name":"harvestDate","type":"uint256"},{"internalType":"uint256","name":"expiryDate","type":"uint256"},{"internalType":"string[]","name":"certifications","type":"string[]"},{"internalType":"string","name":"qrCodeHash","type":"string"},{"internalType":"bool","name":"isActive","type":"bool"}],"internalType":"struct ProvenanceContract.ProvenanceRecord","name":"","type":"tuple"}],"stateMutability":"view","type":"function"},{"inputs":[{"internalType":"uint256","name":"_productId","type":"uint256"}],"name":"getProductHistory","outputs":[{"components":[{"internalType":"enum ProvenanceContract.Stage","name":"stage","type":"uint8"},{"internalType":"address","name":"actor","type":"address"},{"internalType":"uint256","name":"timestamp","type":"uint256"},{"internalType":"string","name":"location","type":"string"},{"internalType":"string","name":"notes","type":"string"},{"internalType":"string[]","name":"evidenceHashes","type":"string[]"},{"internalType":"string","name":"temperature","type":"string"},{"internalType":"string","name":"humidity","type":"string"}],"internalType":"struct ProvenanceContract.StageRecord[]","name":"","type":"tuple[]"}],"stateMutability":"view","type":"function"},{"inputs":[{"internalType":"enum ProvenanceContract.Stage","name":"_stage","type":"uint8"}],"name":"getStageString","outputs":[{"internalType":"string","name":"","type":"string"}],"stateMutability":"pure","type":"function"},{"inputs":[],"name":"getTotalProducts","outputs":[{"internalType":"uint256","name":"","type":"uint256"}],"stateMutability":"view","type":"function"},{"inputs":[{"internalType":"uint256","name":"_productId","type":"uint256"}],"name":"isProductExpired","outputs":[{"internalType":"bool","name":"","type":"bool"}],"stateMutability":"view","type":"function"},{"inputs":[{"internalType":"uint256","name":"_productId","type":"uint256"},{"internalType":"string","name":"_location","type":"string"},{"internalType":"string","name":"_notes","type":"string"},{"internalType":"string[]","name":"_evidenceHashes","type":"string[]"}],"name":"markHarvested","outputs":[],"stateMutability":"nonpayable","type":"function"},{"inputs":[{"internalType":"uint256","name":"_productId","type":"uint256"},{"internalType":"string","name":"_location","type":"string"},{"internalType":"string","name":"_notes","type":"string"},{"internalType":"string[]","name":"_evidenceHashes","type":"string[]"}],"name":"markPackaged","outputs":[],"stateMutability":"nonpayable","type":"function"},{"inputs":[{"internalType":"uint256","name":"_productId","type":"uint256"},{"internalType":"string","name":"_location","type":"string"},{"internalType":"string","name":"_notes","type":"string"},{"internalType":"string[]","name":"_evidenceHashes","type":"string[]"},{"internalType":"string","name":"_temperature","type":"string"}],"name":"markProcessed","outputs":[],"stateMutability":"nonpayable","type":"function"},{"inputs":[{"internalType":"uint256","name":"_productId","type":"uint256"},{"internalType":"string","name":"_retailLocation","type":"string"},{"internalType":"string","name":"_notes","type":"string"}],"name":"markRetailAvailable","outputs":[],"stateMutability":"nonpayable","type":"function"},{"inputs":[],"name":"owner","outputs":[{"internalType":"address","name":"","type":"address"}],"stateMutability":"view","type":"function"},{"inputs":[{"internalType":"uint256","name":"","type":"uint256"},{"internalType":"uint256","name":"","type":"uint256"}],"name":"productStageHistory","outputs":[{"internalType":"enum ProvenanceContract.Stage","name":"stage","type":"uint8"},{"internalType":"address","name":"actor","type":"address"},{"internalType":"uint256","name":"timestamp","type":"uint256"},{"internalType":"string","name":"location","type":"string"},{"internalType":"string","name":"notes","type":"string"},{"internalType":"string","name":"temperature","type":"string"},{"internalType":"string","name":"humidity","type":"string"}],"stateMutability":"view","type":"function"},{"inputs":[{"internalType":"uint256","name":"","type":"uint256"}],"name":"products","outputs":[{"internalType":"uint256","name":"productId","type":"uint256"},{"internalType":"uint256","name":"auctionId","type":"uint256"},{"internalType":"uint256","name":"shipmentId","type":"uint256"},{"internalType":"address","name":"farmer","type":"address"},{"internalType":"address","name":"distributor","type":"address"},{"internalType":"address","name":"retailer","type":"address"},{"internalType":"string","name":"crop","type":"string"},{"internalType":"string","name":"variety","type":"string"},{"internalType":"uint256","name":"quantity","type":"uint256"},{"internalType":"string","name":"qualityGrade","type":"string"},{"internalType":"uint256","name":"qualityConfidence","type":"uint256"},{"internalType":"string","name":"farmLocation","type":"string"},{"internalType":"uint256","name":"harvestDate","type":"uint256"},{"internalType":"uint256","name":"expiryDate","type":"uint256"},{"internalType":"string","name":"qrCodeHash","type":"string"},{"internalType":"bool","name":"isActive","type":"bool"}],"stateMutability":"view","type":"function"},{"inputs":[{"internalType":"string","name":"","type":"string"}],"name":"qrCodeToProduct","outputs":[{"internalType":"uint256","name":"","type":"uint256"}],"stateMutability":"view","type":"function"},{"inputs":[],"name":"renounceOwnership","outputs":[],"stateMutability":"nonpayable","type":"function"},{"inputs":[{"internalType":"address","name":"newOwner","type":"address"}],"name":"transferOwnership","outputs":[],"stateMutability":"nonpayable","type":"function"},{"inputs":[{"internalType":"uint256","name":"_productId","type":"uint256"},{"internalType":"address","name":"_distributor","type":"address"},{"internalType":"uint256","name":"_shipmentId","type":"uint256"},{"internalType":"string","name":"_notes","type":"string"}],"name":"transferToDistributor","outputs":[],"stateMutability":"nonpayable","type":"function"},{"inputs":[{"internalType":"uint256","name":"_productId","type":"uint256"},{"internalType":"address","name":"_retailer","type":"address"},{"internalType":"string","name":"_deliveryLocation","type":"string"},{"internalType":"string","name":"_notes","type":"string"}],"name":"transferToRetailer","outputs":[],"stateMutability":"nonpayable","type":"function"},{"inputs":[{"internalType":"uint256","name":"_productId","type":"uint256"},{"internalType":"string","name":"_newQualityGrade","type":"string"},{"internalType":"uint256","name":"_newConfidence","type":"uint256"},{"internalType":"string","name":"_notes","type":"string"}],"name":"verifyQuality","outputs":[],"stateMutability":"nonpayable","type":"function"}],"evm":{"bytecode":{"linkReferences":{},"object":"608080604052346200007d573315620000675760008054336001600160a01b03198216811783556040519290916001600160a01b0316907f8be0079c531659141344cd1fd0a4f28419497f9722a3daafe3b4186f6b6457e09080a36177299081620000838239f35b631e4fbdf760e01b815260006004820152602490fd5b600080fdfe60a0604052600436101561001257600080fd5b60003560e01c806207217214616281578063031c3154146162255780630d4e343e146159235780630d7c280414614ed65780632458d47214614ea95780632da00e8b1461461557806332b5e93b146131a55780634af9b89b146130c357806354a65e4d1461279d578063570aea8a1461277f578063572a4aff14611eef57806357a096a114611d0e5780636102b37e14611cc057806370648d271461133e578063715018a6146112e55780637acc0b20146111675780638a93a6dc146110b35780638da5cb5b1461108a5780639276ec7d14611032578063cc49225414610581578063e80e59c8146101e7578063f2fde38b1461015e5763ffd8ddb01461011857600080fd5b34610159576020366003190112610159576004356007811015610159576101416101559161758c565b604051918291602083526020830190617209565b0390f35b600080fd5b3461015957602036600319011261015957610177617071565b61017f6172a2565b6001600160a01b039081169081156101ce57600054826001600160601b0360a01b821617600055167f8be0079c531659141344cd1fd0a4f28419497f9722a3daafe3b4186f6b6457e0600080a3005b604051631e4fbdf760e01b815260006004820152602490fd5b34610159576020366003190112610159576004356001600160401b03811161015957602061021c6102ac923690600401616f4b565b600061020060405161022d81616ebc565b82815282858201528260408201528260608201528260808201528260a0820152606060c0820152606060e082015282610100820152606061012082015282610140820152606061016082015282610180820152826101a082015260606101c082015260606101e082015201528160405193828580945193849201616fa1565b810160038152030190205480158080159161053f575b5015610506576000526001602052604060002060ff6010604051926102e684616ebc565b80548452600181015460208501526002810154604085015260038101546001600160a01b03908116606086015260048201548116608086015260058201541660a085015261033660068201617163565b60c085015261034760078201617163565b60e0850152600881015461010085015261036360098201617163565b610120850152600a810154610140850152610380600b8201617163565b610160850152600c810154610180850152600d8101546101a08501526103a8600e820161735f565b6101c08501526103ba600f8201617163565b6101e0850152015416151561020082015260405180916020825280516020830152602081015160408301526040810151606083015260018060a01b03606082015116608083015260018060a01b0360808201511660a083015260018060a01b0360a08201511660c08301526102006104f76104e16104b161048d61046961045260c088015161022060e08b01526102408a0190617209565b60e0880151898203601f19016101008b0152617209565b610100870151610120890152610120870151601f19898303016101408a0152617209565b610140860151610160880152610160860151601f1988830301610180890152617209565b6101808501516101a08701526101a08501516101c08701526101c0850151601f19878303016101e088015261722e565b6101e0840151858203601f190184870152617209565b91015115156102208301520390f35b60405162461bcd60e51b8152602060048201526011602482015270141c9bd91d58dd081b9bdd08199bdd5b99607a1b6044820152606490fd5b90508061054d575b826102c2565b506000805260016020527fa6eef7e35abe7026729641147f7915573c7e97b47efa546f5f6e3230263bcb595460ff16610547565b346101595760803660031901126101595761059a61705b565b6044356001600160401b038111610159576105b9903690600401616f4b565b6064356001600160401b038111610159576105d8903690600401616f4b565b60043560005260016020526105f760ff6010604060002001541661731a565b60048035600090815260016020526040902001546001600160a01b03163303610fdb576001600160a01b03831615610f965760048035600081815260016020908152604080832060050180546001600160a01b0319166001600160a01b038a1690811790915583529390529190912061067091906172e5565b60405161067c81616f0f565b600081526040519061068d82616f0f565b600082526040519261069e84616f0f565b6000845260043560005260016020526106c160ff6010604060002001541661731a565b60043560005260016020526040600020604051906106de82616ebc565b80548252600181015460208301526002810154604083015260038101546001600160a01b03908116606084019081526004830154821660808501908152600584015490921660a08501908152919391929091906102009060ff9060109061074760068201617163565b60c086015261075860078201617163565b60e0860152600881015461010086015261077460098201617163565b610120860152600a810154610140860152610791600b8201617163565b610160860152600c810154610180860152600d8101546101a08601526107b9600e820161735f565b6101c08601526107cb600f8201617163565b6101e08601520154161515910152516001600160a01b03163314918215610f82575b508115610f6e575b508015610f5a575b610806906173b4565b6040519461081386616ed8565b600586523360208701524260408701526060860152608085015260a084015260c083015260e0820152600435600052600260205260406000208054600160401b811015610b8257610869916001820181556170f7565b919091610f445780516007811015610f2e5782546020830151610100600160a81b0360089190911b1660ff929092166001600160a81b03199091161717825560408101516001830155606081015180519093906001600160401b038111610b82576108d76002850154617129565b601f8111610ef9575b506020601f8211600114610e8a578192939495600092610e7f575b50508160011b916000199060031b1c19161760028401555b60808201519283516001600160401b038111610b82576109366003830154617129565b601f8111610e4a575b506020601f8211600114610ddb578192939495600092610dd0575b50508160011b916000199060031b1c19161760038201555b60a0830151805190600160401b8211610b82576004830154826004850155808310610d58575b5060200190600483016000526020600020916000905b828210610c4357505050506005810160c08401518051906001600160401b038211610b82576109dd8354617129565b601f8111610c11575b50602090601f8311600114610ba35791806006949260e09694600092610b98575b50508160011b916000199060031b1c19161790555b019201519182516001600160401b038111610b8257610a3b8254617129565b601f8111610b45575b506020601f8211600114610adf5781929394600092610ad4575b50508160011b916000199060031b1c19161790555b604051428152600533916000805160206176d4833981519152602060043592a4604051600581526001600160a01b03909116903390600435907f0d9d3ad1299833596bec6138aae47314cbb71fb92c7582abed06e22840593ad490602090a4005b015190508480610a5e565b601f198216908360005260206000209160005b818110610b2d57509583600195969710610b14575b505050811b019055610a73565b015160001960f88460031b161c19169055848080610b07565b9192602060018192868b015181550194019201610af2565b610b7290836000526020600020601f840160051c81019160208510610b78575b601f0160051c01906172ce565b84610a44565b9091508190610b65565b634e487b7160e01b600052604160045260246000fd5b015190508880610a07565b90601f198316918460005260206000209260005b818110610bf9575092600192859260e098966006989610610be0575b505050811b019055610a1c565b015160001960f88460031b161c19169055888080610bd3565b92936020600181928786015181550195019301610bb7565b610c3d90846000526020600020601f850160051c81019160208610610b7857601f0160051c01906172ce565b866109e6565b80518051906001600160401b038211610b8257610c608654617129565b601f8111610d26575b50602090601f8311600114610cb6579282600194936020938695600092610cab575b5050600019600383901b1c191690841b1787555b019401910190926109ae565b015190508c80610c8b565b908660005260206000209160005b601f1985168110610d0e575083602093600196938796938794601f19811610610cf5575b505050811b018755610c9f565b015160001960f88460031b161c191690558c8080610ce8565b91926020600181928685015181550194019201610cc4565b610d5290876000526020600020601f850160051c81019160208610610b7857601f0160051c01906172ce565b89610c69565b600484016000526020600020908382015b8183018110610d79575050610998565b80610d8660019254617129565b80610d93575b5001610d69565b601f81118314610da95750600081555b89610d8c565b600090828252610dc7601f60208420920160051c82018583016172ce565b81835555610da3565b01519050858061095a565b6003830160005260206000209060005b601f1984168110610e32575060019394959683601f19811610610e19575b505050811b016003820155610972565b015160001960f88460031b161c19169055858080610e09565b9091602060018192858b015181550193019101610deb565b610e7990600384016000526020600020601f840160051c81019160208510610b7857601f0160051c01906172ce565b8561093f565b0151905085806108fb565b6002850160005260206000209060005b601f1984168110610ee1575060019394959683601f19811610610ec8575b505050811b016002840155610913565b015160001960f88460031b161c19169055858080610eb8565b9091602060018192858b015181550193019101610e9a565b610f2890600286016000526020600020601f840160051c81019160208510610b7857601f0160051c01906172ce565b856108e0565b634e487b7160e01b600052602160045260246000fd5b634e487b7160e01b600052600060045260246000fd5b506000546001600160a01b031633146107fd565b516001600160a01b031633149050876107f5565b516001600160a01b031633149150886107ed565b60405162461bcd60e51b815260206004820152601860248201527f496e76616c69642072657461696c6572206164647265737300000000000000006044820152606490fd5b60405162461bcd60e51b815260206004820152602960248201527f4f6e6c79206469737472696275746f722063616e207472616e7366657220746f604482015268103932ba30b4b632b960b91b6064820152608490fd5b346101595760403660031901126101595761104b617071565b6001600160a01b03166000908152600460205260409020805460243591908210156101595760209161107c9161728a565b90546040519160031b1c8152f35b34610159576000366003190112610159576000546040516001600160a01b039091168152602090f35b3461015957602080600319360112610159576001600160a01b036110d5617071565b1660005260048152604060002060405190818382549182815201908192600052846000209060005b8682821061115357868661111382880383616f2a565b604051928392818401908285525180915260408401929160005b82811061113c57505050500390f35b83518552869550938101939281019260010161112d565b8354855290930192600192830192016110fd565b3461015957602036600319011261015957600435600052600160205260406000208054906001810154816002810154600160a01b6001900380600384015416908060048501541690600585015416600685016111c290617163565b6111ce60078701617163565b90600887015492600988016111e290617163565b94600a89015496600b8a016111f690617163565b98600c8b01549b600d8c01549b600f0161120f90617163565b9d6010015460ff169e60405180608052526080516020015260805160400152608051606001526080516080015260805160a001526102008060805160c001526080510161125b91617209565b6080518082039060e0015261126f91617209565b90608051610100015260805180820390610120015261128d91617209565b9060805161014001526080518082039061016001526112ab91617209565b9160805161018001526080516101a00152608051808203906101c001526112d191617209565b9015156080516101e0015260805180910390f35b34610159576000366003190112610159576112fe6172a2565b600080546001600160a01b0319811682556001600160a01b03167f8be0079c531659141344cd1fd0a4f28419497f9722a3daafe3b4186f6b6457e08280a3005b34610159576060366003190112610159576024356001600160401b0381116101595761136e903690600401616f4b565b6044356001600160401b0381116101595761138d903690600401616f4b565b60043560005260016020526113ac60ff6010604060002001541661731a565b6004356000908152600160205260409020600501546001600160a01b03163303611c6b576040516113dc81616f0f565b60008152604051906113ed82616f0f565b60008252604051926113fe84616f0f565b60008452600435600052600160205261142160ff6010604060002001541661731a565b600435600052600160205260406000206040519061143e82616ebc565b80548252600181015460208301526002810154604083015260038101546001600160a01b03908116606084019081526004830154821660808501908152600584015490921660a08501908152919391929091906102009060ff906010906114a760068201617163565b60c08601526114b860078201617163565b60e086015260088101546101008601526114d460098201617163565b610120860152600a8101546101408601526114f1600b8201617163565b610160860152600c810154610180860152600d8101546101a0860152611519600e820161735f565b6101c086015261152b600f8201617163565b6101e08601520154161515910152516001600160a01b03163314918215611c57575b508115611c43575b508015611c2f575b611566906173b4565b6040519461157386616ed8565b600686523360208701524260408701526060860152608085015260a084015260c083015260e0820152600435600052600260205260406000208054600160401b811015610b82576115c9916001820181556170f7565b610f445781516007811015610f2e5781546020840151610100600160a81b0360089190911b1660ff929092166001600160a81b03199091161717815560408201516001820155606082015180519092906001600160401b038111610b82576116346002840154617129565b601f8111611bfa575b506020601f8211600114611b8c5781929394600092611b81575b50508160011b916000199060031b1c19161760028301555b60808101519182516001600160401b038111610b82576116926003830154617129565b601f8111611b4c575b506020601f8211600114611ade5781929394600092611ad3575b50508160011b916000199060031b1c19161760038201555b60a0820151805190600160401b8211610b82576004830154826004850155808310611a5b575b5060200190600483016000526020600020916000905b82821061194657858560c08201518051906001600160401b038211610b82576117356005840154617129565b601f8111611911575b50602090601f831160011461189c57918060e09492600694600092611891575b50508160011b916000199060031b1c19161760058201555b019101519081516001600160401b038111610b82576117958254617129565b601f811161185f575b50602092601f82116001146117fb57928192936000926117f0575b50508160011b916000199060031b1c19161790555b604051428152600633916000805160206176d4833981519152602060043592a4005b0151905083806117b9565b601f198216938360005260206000209160005b868110611847575083600195961061182e575b505050811b0190556117ce565b015160001960f88460031b161c19169055838080611821565b9192602060018192868501518155019401920161180e565b61188b90836000526020600020601f840160051c81019160208510610b7857601f0160051c01906172ce565b8361179e565b01519050868061175e565b906005840160005260206000209160005b601f19851681106118f957509260e0949260019260069583601f198116106118e0575b505050811b016005820155611776565b015160001960f88460031b161c191690558680806118d0565b919260206001819286850151815501940192016118ad565b61194090600585016000526020600020601f850160051c81019160208610610b7857601f0160051c01906172ce565b8461173e565b80518051906001600160401b038211610b82576119638654617129565b601f8111611a29575b50602090601f83116001146119b95792826001949360209386956000926119ae575b5050600019600383901b1c191690841b1787555b01940191019092611709565b015190508b8061198e565b908660005260206000209160005b601f1985168110611a11575083602093600196938796938794601f198116106119f8575b505050811b0187556119a2565b015160001960f88460031b161c191690558b80806119eb565b919260206001819286850151815501940192016119c7565b611a5590876000526020600020601f850160051c81019160208610610b7857601f0160051c01906172ce565b8861196c565b600484016000526020600020908382015b8183018110611a7c5750506116f3565b80611a8960019254617129565b80611a96575b5001611a6c565b601f81118314611aac5750600081555b88611a8f565b600090828252611aca601f60208420920160051c82018583016172ce565b81835555611aa6565b0151905084806116b5565b6003830160005260206000209060005b601f1984168110611b345750600193949583601f19811610611b1b575b505050811b0160038201556116cd565b015160001960f88460031b161c19169055848080611b0b565b9091602060018192858a015181550193019101611aee565b611b7b90600384016000526020600020601f840160051c81019160208510610b7857601f0160051c01906172ce565b8461169b565b015190508480611657565b6002840160005260206000209060005b601f1984168110611be25750600193949583601f19811610611bc9575b505050811b01600283015561166f565b015160001960f88460031b161c19169055848080611bb9565b9091602060018192858a015181550193019101611b9c565b611c2990600285016000526020600020601f840160051c81019160208510610b7857601f0160051c01906172ce565b8461163d565b506000546001600160a01b0316331461155d565b516001600160a01b03163314905086611555565b516001600160a01b0316331491508761154d565b60405162461bcd60e51b815260206004820152602760248201527f4f6e6c792072657461696c65722063616e206d61726b2072657461696c20617660448201526661696c61626c6560c81b6064820152608490fd5b3461015957602036600319011261015957600435806000526001602052611cf160ff6010604060002001541661731a565b60005260016020526020600d604060002001544211604051908152f35b34610159576020806003193601126101595760043560005260029081815260406000208054611d3c81616fc4565b93611d4a6040519586616f2a565b81855260009283528383208486019391845b848410611e4e57604080518881528951818a01819052600092600582901b83018101918a918c9085015b828710611d935785850386f35b909192938280611e3e600193603f198a8203018652885190611db6818351617087565b858060a01b038483015116848201526040820151604082015260e0611e2d611e1a611e07611df4606080880151906101008091890152870190617209565b6080808801519087830390880152617209565b60a080870151908683039087015261722e565b60c0808601519085830390860152617209565b9201519060e0818403910152617209565b9601920196019592919092611d86565b60078760019260409a999a51611e6381616ed8565b8654611e7260ff821683617400565b858060a01b039060081c1683820152848701546040820152611e95868801617163565b6060820152611ea660038801617163565b6080820152611eb76004880161735f565b60a0820152611ec860058801617163565b60c0820152611ed960068801617163565b60e0820152815201930193019291969596611d5c565b3461015957611efd36617094565b9160405191611f0b83616f0f565b60008352604051611f1b81616f0f565b60008152856000526001602052611f3c60ff6010604060002001541661731a565b856000526001602052604060002060405190611f5782616ebc565b80548252600181015460208301526002810154604083015260038101546001600160a01b03908116606084015260048201548116608084015260058201541660a083019081529060ff90601090611fb060068201617163565b60c0860152611fc160078201617163565b60e08601526008810154610100860152611fdd60098201617163565b610120860152600a810154610140860152611ffa600b8201617163565b610160860152600c810154610180860152600d8101546101a0860152612022600e820161735f565b6101c0860152612034600f8201617163565b6101e0860152015416151561020083015260608201516001600160a01b03163314918215612768575b508115612754575b508015612740575b612076906173b4565b6040519361208385616ed8565b600185526020850195338752604086019342855260608701958652608087015260a086015260c085015260e084015284600052600260205260406000208054600160401b811015610b82576120dd916001820181556170f7565b949094610f44578351906007821015610f2e5785549051610100600160a81b0360089190911b1660ff929092166001600160a81b0319909116171784555160018401555180519093906001600160401b038111610b82576121416002850154617129565b601f811161270b575b506020601f821160011461269c578192939495600092612691575b50508160011b916000199060031b1c19161760028401555b60808201519283516001600160401b038111610b82576121a06003830154617129565b601f811161265c575b506020601f82116001146125ed5781929394956000926125e2575b50508160011b916000199060031b1c19161760038201555b60a0830151805190600160401b8211610b8257600483015482600485015580831061256a575b5060200190600483016000526020600020916000905b828210612455575050505060c08301518051906001600160401b038211610b82576122466005840154617129565b601f8111612420575b50602090601f83116001146123ab57918060e094926006946000926123a0575b50508160011b916000199060031b1c19161760058201555b019201519182516001600160401b038111610b82576122a68254617129565b601f811161236e575b506020601f821160011461230857819293946000926122fd575b50508160011b916000199060031b1c19161790555b6001604051914283526000805160206176d483398151915260203394a4005b0151905084806122c9565b601f198216908360005260206000209160005b8181106123565750958360019596971061233d575b505050811b0190556122de565b015160001960f88460031b161c19169055848080612330565b9192602060018192868b01518155019401920161231b565b61239a90836000526020600020601f840160051c81019160208510610b7857601f0160051c01906172ce565b846122af565b01519050878061226f565b906005840160005260206000209160005b601f198516811061240857509260e0949260019260069583601f198116106123ef575b505050811b016005820155612287565b015160001960f88460031b161c191690558780806123df565b919260206001819286850151815501940192016123bc565b61244f90600585016000526020600020601f850160051c81019160208610610b7857601f0160051c01906172ce565b8561224f565b80518051906001600160401b038211610b82576124728654617129565b601f8111612538575b50602090601f83116001146124c85792826001949360209386956000926124bd575b5050600019600383901b1c191690841b1787555b01940191019092612218565b015190508c8061249d565b908660005260206000209160005b601f1985168110612520575083602093600196938796938794601f19811610612507575b505050811b0187556124b1565b015160001960f88460031b161c191690558c80806124fa565b919260206001819286850151815501940192016124d6565b61256490876000526020600020601f850160051c81019160208610610b7857601f0160051c01906172ce565b8961247b565b600484016000526020600020908382015b818301811061258b575050612202565b8061259860019254617129565b806125a5575b500161257b565b601f811183146125bb5750600081555b8961259e565b6000908282526125d9601f60208420920160051c82018583016172ce565b818355556125b5565b0151905085806121c4565b6003830160005260206000209060005b601f1984168110612644575060019394959683601f1981161061262b575b505050811b0160038201556121dc565b015160001960f88460031b161c1916905585808061261b565b9091602060018192858b0151815501930191016125fd565b61268b90600384016000526020600020601f840160051c81019160208510610b7857601f0160051c01906172ce565b856121a9565b015190508580612165565b6002850160005260206000209060005b601f19841681106126f3575060019394959683601f198116106126da575b505050811b01600284015561217d565b015160001960f88460031b161c191690558580806126ca565b9091602060018192858b0151815501930191016126ac565b61273a90600286016000526020600020601f840160051c81019160208510610b7857601f0160051c01906172ce565b8561214a565b506000546001600160a01b0316331461206d565b516001600160a01b03163314905087612065565b608001516001600160a01b0316331491508861205d565b34610159576000366003190112610159576020600554604051908152f35b346101595760e03660031901126101595760076024351015610159576044356001600160401b038111610159576127d8903690600401616f4b565b6064356001600160401b038111610159576127f7903690600401616f4b565b6084356001600160401b03811161015957612816903690600401616fdb565b60a4356001600160401b03811161015957612835903690600401616f4b565b9060c4356001600160401b03811161015957612855903690600401616f4b565b92600435600052600160205261287560ff6010604060002001541661731a565b600435600052600160205260406000206040519061289282616ebc565b80548252600181015460208301526002810154604083015260038101546001600160a01b03908116606084015260048201548116608084015260058201541660a083019081529060ff906010906128eb60068201617163565b60c08601526128fc60078201617163565b60e0860152600881015461010086015261291860098201617163565b610120860152600a810154610140860152612935600b8201617163565b610160860152600c810154610180860152600d8101546101a086015261295d600e820161735f565b6101c086015261296f600f8201617163565b6101e0860152015416151561020083015260608201516001600160a01b031633149182156130ac575b508115613098575b508015613084575b6129b1906173b4565b604051946129be86616ed8565b6129ca60243587617400565b3360208701524260408701526060860152608085015260a084015260c083015260e0820152600435600052600260205260406000208054600160401b811015610b8257612a1c916001820181556170f7565b610f445781516007811015610f2e5781546020840151610100600160a81b0360089190911b1660ff929092166001600160a81b03199091161717815560408201516001820155606082015180519092906001600160401b038111610b8257612a876002840154617129565b601f811161304f575b506020601f8211600114612fe15781929394600092612fd6575b50508160011b916000199060031b1c19161760028301555b60808101519182516001600160401b038111610b8257612ae56003830154617129565b601f8111612fa1575b506020601f8211600114612f335781929394600092612f28575b50508160011b916000199060031b1c19161760038201555b60a0820151805190600160401b8211610b82576004830154826004850155808310612eb0575b5060200190600483016000526020600020916000905b828210612d9b57858560c08201518051906001600160401b038211610b8257612b886005840154617129565b601f8111612d66575b50602090601f8311600114612cf157918060e09492600694600092612ce6575b50508160011b916000199060031b1c19161760058201555b019101519081516001600160401b038111610b8257612be88254617129565b601f8111612cb4575b50602092601f8211600114612c505792819293600092612c45575b50508160011b916000199060031b1c19161790555b6040514281523390602435906000805160206176d4833981519152602060043592a4005b015190508380612c0c565b601f198216938360005260206000209160005b868110612c9c5750836001959610612c83575b505050811b019055612c21565b015160001960f88460031b161c19169055838080612c76565b91926020600181928685015181550194019201612c63565b612ce090836000526020600020601f840160051c81019160208510610b7857601f0160051c01906172ce565b83612bf1565b015190508680612bb1565b906005840160005260206000209160005b601f1985168110612d4e57509260e0949260019260069583601f19811610612d35575b505050811b016005820155612bc9565b015160001960f88460031b161c19169055868080612d25565b91926020600181928685015181550194019201612d02565b612d9590600585016000526020600020601f850160051c81019160208610610b7857601f0160051c01906172ce565b84612b91565b80518051906001600160401b038211610b8257612db88654617129565b601f8111612e7e575b50602090601f8311600114612e0e579282600194936020938695600092612e03575b5050600019600383901b1c191690841b1787555b01940191019092612b5c565b015190508b80612de3565b908660005260206000209160005b601f1985168110612e66575083602093600196938796938794601f19811610612e4d575b505050811b018755612df7565b015160001960f88460031b161c191690558b8080612e40565b91926020600181928685015181550194019201612e1c565b612eaa90876000526020600020601f850160051c81019160208610610b7857601f0160051c01906172ce565b88612dc1565b600484016000526020600020908382015b8183018110612ed1575050612b46565b80612ede60019254617129565b80612eeb575b5001612ec1565b601f81118314612f015750600081555b88612ee4565b600090828252612f1f601f60208420920160051c82018583016172ce565b81835555612efb565b015190508480612b08565b6003830160005260206000209060005b601f1984168110612f895750600193949583601f19811610612f70575b505050811b016003820155612b20565b015160001960f88460031b161c19169055848080612f60565b9091602060018192858a015181550193019101612f43565b612fd090600384016000526020600020601f840160051c81019160208510610b7857601f0160051c01906172ce565b84612aee565b015190508480612aaa565b6002840160005260206000209060005b601f19841681106130375750600193949583601f1981161061301e575b505050811b016002830155612ac2565b015160001960f88460031b161c1916905584808061300e565b9091602060018192858a015181550193019101612ff1565b61307e90600285016000526020600020601f840160051c81019160208510610b7857601f0160051c01906172ce565b84612a90565b506000546001600160a01b031633146129a8565b516001600160a01b031633149050866129a0565b608001516001600160a01b03163314915087612998565b346101595760403660031901126101595760243560043560005260026020526040600020908154811015610159576130fa916170f7565b50805461015560018301549261319761311560028301617163565b9161318961312560038301617163565b61317b613140600661313960058701617163565b9501617163565b9560405199896131548c60ff819d16617087565b60081c6001600160a01b031660208b015260408a015260e060608a01819052890190617209565b908782036080890152617209565b9085820360a0870152617209565b9083820360c0850152617209565b3461015957610160366003190112610159576024356001600160401b038111610159576131d6903690600401616f4b565b6044356001600160401b038111610159576131f5903690600401616f4b565b6084356001600160401b03811161015957613214903690600401616f4b565b9060c4356001600160401b03811161015957613234903690600401616f4b565b92610124356001600160401b03811161015957613255903690600401616fdb565b91610144356001600160401b03811161015957613276903690600401616f4b565b928251156145d0576064351561458b578351156145465760405160208186516132a28183858b01616fa1565b8101600381520301902054614508576005549460001986146144f25760018601600555604051926132d284616ebc565b86845260043560208501526000604085015233606085015260006080850152600060a08501528460c085015260e084015260643561010084015261012083015260a4356101408301528561016083015260e435610180830152610104356101a08301526101c0820152826101e0820152600161020082015283600052600160205260406000209080518255602081015160018301556040810151600283015560018060a01b03606082015116600383016001600160601b0360a01b91828254161790556004830160018060a01b0360808401511682825416179055600583019060018060a01b0360a0840151169082541617905560c08101518051906001600160401b038211610b825781906133eb6006860154617129565b601f81116144bd575b50602090601f831160011461444b57600092614440575b50508160011b916000199060031b1c19161760068301555b60e08101518051906001600160401b038211610b825781906134486007860154617129565b601f811161440b575b50602090601f83116001146143995760009261438e575b50508160011b916000199060031b1c19161760078301555b61010081015160088301556101208101518051906001600160401b038211610b825781906134b16009860154617129565b601f8111614359575b50602090601f83116001146142e7576000926142dc575b50508160011b916000199060031b1c19161760098301555b610140810151600a8301556101608101518051906001600160401b038211610b8257819061351a600b860154617129565b601f81116142a7575b50602090601f83116001146142355760009261422a575b50508160011b916000199060031b1c191617600b8301555b610180810151600c8301556101a0810151600d8301556101c0810151805190600160401b8211610b8257600e84015482600e8601558083106141b2575b5060200190600e84016000526020600020916000905b82821061409d57505050506101e08101518051906001600160401b038211610b82576135d4600f850154617129565b601f8111614068575b50602090601f8311600114613ff25791806010949261020094600092613fe7575b50508160011b916000199060031b1c191617600f8501555b0151151560ff8019838501541691161791015582604051602081855161363f8183858a01616fa1565b81016003815203019020553360005260046020526136618360406000206172e5565b60405161366d81616f0f565b60008152604051908160608101106001600160401b03606084011117610b825760608201604052602b82527f50726f64756374206372656174656420616e64206661726d696e67207374616760208301526a19481a5b9a5d1a585d195960aa1b6040830152604051906136df82616f0f565b60008252604051926136f084616f0f565b6000845286600052600160205261371160ff6010604060002001541661731a565b866000526001602052604060002060ff60106040519261373084616ebc565b80548452600181015460208501526002810154604085015260038101546001600160a01b03908116606086015260048201548116608086015260058201541660a085015261378060068201617163565b60c085015261379160078201617163565b60e085015260088101546101008501526137ad60098201617163565b610120850152600a8101546101408501526137ca600b8201617163565b610160850152600c810154610180850152600d8101546101a08501526137f2600e820161735f565b6101c0850152613804600f8201617163565b6101e0850152015416151561020082015260608101516001600160a01b03163314908115613fd0575b8115613fb9575b508015613fa5575b613845906173b4565b6040519761385289616ed8565b600089523360208a01524260408a01526060890152608088015260a087015260c086015260e085015282600052600260205260406000208054600160401b811015610b82576138a6916001820181556170f7565b949094610f445780516007811015610f2e5785546020830151610100600160a81b0360089190911b1660ff929092166001600160a81b0319909116171785556040810151600186015560608101518051906001600160401b038211610b825781906139146002890154617129565b601f8111613f70575b50602090601f8311600114613efe57600092613ef3575b50508160011b916000199060031b1c19161760028601555b60808101518051906001600160401b038211610b825781906139716003890154617129565b601f8111613ebe575b50602090601f8311600114613e4c57600092613e41575b50508160011b916000199060031b1c19161760038601555b60a0810151805190600160401b8211610b82576004870154826004890155808310613dc9575b5060200190600487016000526020600020916000905b828210613cb4575050505060c08101518051906001600160401b038211610b8257613a136005880154617129565b601f8111613c7f575b50602090601f8311600114613c0c5760e093929160009183613c01575b50508160011b916000199060031b1c19161760058701555b0151908151946001600160401b038611610b82576020958593613a776006840154617129565b601f8111613bce575b508790601f8311600114613b3757827f34854a6a88c16fc1b8c8e7ec924a44b14d32b3b126b466a3054b2b636fe480909593613b0b9593600693600092613b2c575b50508160011b916000199060031b1c1916179101555b6040514281526000856000805160206176d48339815191528a3394a4613b21604051928392606084526060840190617209565b6004358984015282810360408401523396617209565b0390a3604051908152f35b015190508b80613ac2565b9060068401600052886000209160005b601f1985168110613bb4575083613b0b95936006936001937f34854a6a88c16fc1b8c8e7ec924a44b14d32b3b126b466a3054b2b636fe480909997601f19811610613b9b575b505050811b01910155613ad8565b015160001960f88460031b161c191690558b8080613b8d565b818301518455899750600190930192918a01918a01613b47565b613bfb906006850160005289600020601f850160051c8101918b8610610b7857601f0160051c01906172ce565b88613a80565b015190508880613a39565b906005880160005260206000209160005b601f1985168110613c67575091839160019360e09695601f19811610613c4e575b505050811b016005870155613a51565b015160001960f88460031b161c19169055888080613c3e565b91926020600181928685015181550194019201613c1d565b613cae90600589016000526020600020601f850160051c81019160208610610b7857601f0160051c01906172ce565b87613a1c565b80518051906001600160401b038211610b8257613cd18654617129565b601f8111613d97575b50602090601f8311600114613d27579282600194936020938695600092613d1c575b5050600019600383901b1c191690841b1787555b019401910190926139e5565b015190508e80613cfc565b908660005260206000209160005b601f1985168110613d7f575083602093600196938796938794601f19811610613d66575b505050811b018755613d10565b015160001960f88460031b161c191690558e8080613d59565b91926020600181928685015181550194019201613d35565b613dc390876000526020600020601f850160051c81019160208610610b7857601f0160051c01906172ce565b8b613cda565b600488016000526020600020908382015b8183018110613dea5750506139cf565b80613df760019254617129565b80613e04575b5001613dda565b601f81118314613e1a5750600081555b8b613dfd565b600090828252613e38601f60208420920160051c82018583016172ce565b81835555613e14565b015190508780613991565b9250600388016000526020600020906000935b601f1984168510613ea3576001945083601f19811610613e8a575b505050811b0160038601556139a9565b015160001960f88460031b161c19169055878080613e7a565b81810151835560209485019460019093019290910190613e5f565b613eed9060038a016000526020600020601f850160051c81019160208610610b7857601f0160051c01906172ce565b8861397a565b015190508780613934565b9250600288016000526020600020906000935b601f1984168510613f55576001945083601f19811610613f3c575b505050811b01600286015561394c565b015160001960f88460031b161c19169055878080613f2c565b81810151835560209485019460019093019290910190613f11565b613f9f9060028a016000526020600020601f850160051c81019160208610610b7857601f0160051c01906172ce565b8861391d565b506000546001600160a01b0316331461383c565b60a001516001600160a01b03163314905089613834565b60808101516001600160a01b03163314915061382d565b015190508a806135fe565b90600f850160005260206000209160005b601f1985168110614050575092601094926001926102009583601f19811610614037575b505050811b01600f850155613616565b015160001960f88460031b161c191690558a8080614027565b91926020600181928685015181550194019201614003565b61409790600f86016000526020600020601f850160051c81019160208610610b7857601f0160051c01906172ce565b886135dd565b80518051906001600160401b038211610b82576140ba8654617129565b601f8111614180575b50602090601f8311600114614110579282600194936020938695600092614105575b5050600019600383901b1c191690841b1787555b019401910190926135a5565b015190508f806140e5565b908660005260206000209160005b601f1985168110614168575083602093600196938796938794601f1981161061414f575b505050811b0187556140f9565b015160001960f88460031b161c191690558f8080614142565b9192602060018192868501518155019401920161411e565b6141ac90876000526020600020601f850160051c81019160208610610b7857601f0160051c01906172ce565b8c6140c3565b600e85016000526020600020908382015b81830181106141d357505061358f565b806141e060019254617129565b806141ed575b50016141c3565b601f811183146142035750600081555b8c6141e6565b600090828252614221601f60208420920160051c82018583016172ce565b818355556141fd565b01519050888061353a565b9250600b85016000526020600020906000935b601f198416851061428c576001945083601f19811610614273575b505050811b01600b830155613552565b015160001960f88460031b161c19169055888080614263565b81810151835560209485019460019093019290910190614248565b6142d690600b87016000526020600020601f850160051c81019160208610610b7857601f0160051c01906172ce565b89613523565b0151905088806134d1565b9250600985016000526020600020906000935b601f198416851061433e576001945083601f19811610614325575b505050811b0160098301556134e9565b015160001960f88460031b161c19169055888080614315565b818101518355602094850194600190930192909101906142fa565b61438890600987016000526020600020601f850160051c81019160208610610b7857601f0160051c01906172ce565b896134ba565b015190508880613468565b9250600785016000526020600020906000935b601f19841685106143f0576001945083601f198116106143d7575b505050811b016007830155613480565b015160001960f88460031b161c191690558880806143c7565b818101518355602094850194600190930192909101906143ac565b61443a90600787016000526020600020601f850160051c81019160208610610b7857601f0160051c01906172ce565b89613451565b01519050888061340b565b9250600685016000526020600020906000935b601f19841685106144a2576001945083601f19811610614489575b505050811b016006830155613423565b015160001960f88460031b161c19169055888080614479565b8181015183556020948501946001909301929091019061445e565b6144ec90600687016000526020600020601f850160051c81019160208610610b7857601f0160051c01906172ce565b896133f4565b634e487b7160e01b600052601160045260246000fd5b60405162461bcd60e51b8152602060048201526016602482015275515220636f646520616c72656164792065786973747360501b6044820152606490fd5b60405162461bcd60e51b815260206004820152601c60248201527f515220636f646520686173682063616e6e6f7420626520656d707479000000006044820152606490fd5b60405162461bcd60e51b815260206004820152601f60248201527f5175616e74697479206d7573742062652067726561746572207468616e2030006044820152606490fd5b60405162461bcd60e51b815260206004820152601960248201527f43726f70206e616d652063616e6e6f7420626520656d707479000000000000006044820152606490fd5b346101595761462336617094565b6040519061463082616f0f565b600082526040519261464184616f0f565b6000845285600052600160205261466260ff6010604060002001541661731a565b85600052600160205260406000206040519061467d82616ebc565b80548252600181015460208301526002810154604083015260038101546001600160a01b03908116606084015260048201548116608084015260058201541660a083019081529060ff906010906146d660068201617163565b60c08601526146e760078201617163565b60e0860152600881015461010086015261470360098201617163565b610120860152600a810154610140860152614720600b8201617163565b610160860152600c810154610180860152600d8101546101a0860152614748600e820161735f565b6101c086015261475a600f8201617163565b6101e0860152015416151561020083015260608201516001600160a01b03163314918215614e92575b508115614e7e575b508015614e6a575b61479c906173b4565b604051946147a986616ed8565b600386523360208701524260408701526060860152608085015260a084015260c083015260e082015281600052600260205260406000208054600160401b811015610b82576147fd916001820181556170f7565b919091610f445780516007811015610f2e5782546020830151610100600160a81b0360089190911b1660ff929092166001600160a81b03199091161717825560408101516001830155606081015180519093906001600160401b038111610b825761486b6002850154617129565b601f8111614e35575b506020601f8211600114614dc6578192939495600092614dbb575b50508160011b916000199060031b1c19161760028401555b60808201519283516001600160401b038111610b82576148ca6003830154617129565b601f8111614d86575b506020601f8211600114614d17578192939495600092614d0c575b50508160011b916000199060031b1c19161760038201555b60a0830151805190600160401b8211610b82576004830154826004850155808310614c94575b5060200190600483016000526020600020916000905b828210614b7f575050505060c08301518051906001600160401b038211610b82576149706005840154617129565b601f8111614b4a575b50602090601f8311600114614ad557918060e09492600694600092614aca575b50508160011b916000199060031b1c19161760058201555b019201519182516001600160401b038111610b82576149d08254617129565b601f8111614a98575b506020601f8211600114614a325781929394600092614a27575b50508160011b916000199060031b1c19161790555b6003604051914283526000805160206176d483398151915260203394a4005b0151905084806149f3565b601f198216908360005260206000209160005b818110614a8057509583600195969710614a67575b505050811b019055614a08565b015160001960f88460031b161c19169055848080614a5a565b9192602060018192868b015181550194019201614a45565b614ac490836000526020600020601f840160051c81019160208510610b7857601f0160051c01906172ce565b846149d9565b015190508780614999565b906005840160005260206000209160005b601f1985168110614b3257509260e0949260019260069583601f19811610614b19575b505050811b0160058201556149b1565b015160001960f88460031b161c19169055878080614b09565b91926020600181928685015181550194019201614ae6565b614b7990600585016000526020600020601f850160051c81019160208610610b7857601f0160051c01906172ce565b85614979565b80518051906001600160401b038211610b8257614b9c8654617129565b601f8111614c62575b50602090601f8311600114614bf2579282600194936020938695600092614be7575b5050600019600383901b1c191690841b1787555b01940191019092614942565b015190508c80614bc7565b908660005260206000209160005b601f1985168110614c4a575083602093600196938796938794601f19811610614c31575b505050811b018755614bdb565b015160001960f88460031b161c191690558c8080614c24565b91926020600181928685015181550194019201614c00565b614c8e90876000526020600020601f850160051c81019160208610610b7857601f0160051c01906172ce565b89614ba5565b600484016000526020600020908382015b8183018110614cb557505061492c565b80614cc260019254617129565b80614ccf575b5001614ca5565b601f81118314614ce55750600081555b89614cc8565b600090828252614d03601f60208420920160051c82018583016172ce565b81835555614cdf565b0151905085806148ee565b6003830160005260206000209060005b601f1984168110614d6e575060019394959683601f19811610614d55575b505050811b016003820155614906565b015160001960f88460031b161c19169055858080614d45565b9091602060018192858b015181550193019101614d27565b614db590600384016000526020600020601f840160051c81019160208510610b7857601f0160051c01906172ce565b856148d3565b01519050858061488f565b6002850160005260206000209060005b601f1984168110614e1d575060019394959683601f19811610614e04575b505050811b0160028401556148a7565b015160001960f88460031b161c19169055858080614df4565b9091602060018192858b015181550193019101614dd6565b614e6490600286016000526020600020601f840160051c81019160208510610b7857601f0160051c01906172ce565b85614874565b506000546001600160a01b03163314614793565b516001600160a01b0316331490508761478b565b608001516001600160a01b03163314915088614783565b34610159576020366003190112610159576020614ec7600435617432565b614ed46040518092617087565bf35b3461015957608036600319011261015957614eef61705b565b6064356001600160401b03811161015957614f0e903690600401616f4b565b6004356000526001602052614f2d60ff6010604060002001541661731a565b6004356000908152600160205260409020600301546001600160a01b031633036158ce576001600160a01b0382161561588957600435600052600160205260406000206004810160018060a01b0384166001600160601b0360a01b825416179055600260443591015560018060a01b0382166000526004602052614fb760043560406000206172e5565b60405190614fc482616f0f565b60008252614fd061740c565b60405191614fdd83616f0f565b60008352604051614fed81616f0f565b60008152600435600052600160205261501060ff6010604060002001541661731a565b600435600052600160205260406000206040519061502d82616ebc565b80548252600181015460208301526002810154604083015260038101546001600160a01b03908116606084015260048201548116608084015260058201541660a083019081529060ff9060109061508660068201617163565b60c086015261509760078201617163565b60e086015260088101546101008601526150b360098201617163565b610120860152600a8101546101408601526150d0600b8201617163565b610160860152600c810154610180860152600d8101546101a08601526150f8600e820161735f565b6101c086015261510a600f8201617163565b6101e0860152015416151561020083015260608201516001600160a01b03163314918215615872575b50811561585e575b50801561584a575b61514c906173b4565b6040519361515985616ed8565b600485526020850195338752604086019342855260608701958652608087015260a086015260c085015260e0840152600435600052600260205260406000208054600160401b811015610b82576151b5916001820181556170f7565b949094610f44578351906007821015610f2e5785549051610100600160a81b0360089190911b1660ff929092166001600160a81b0319909116171784555160018401555180519093906001600160401b038111610b82576152196002850154617129565b601f8111615815575b506020601f82116001146157a657819293949560009261579b575b50508160011b916000199060031b1c19161760028401555b60808201519283516001600160401b038111610b82576152786003830154617129565b601f8111615766575b506020601f82116001146156f75781929394956000926156ec575b50508160011b916000199060031b1c19161760038201555b60a0830151805190600160401b8211610b82576004830154826004850155808310615674575b5060200190600483016000526020600020916000905b82821061555f57505050506005810160c08401518051906001600160401b038211610b825761531f8354617129565b601f811161552d575b50602090601f83116001146154bf5791806006949260e096946000926154b4575b50508160011b916000199060031b1c19161790555b019201519182516001600160401b038111610b825761537d8254617129565b601f8111615482575b506020601f821160011461541c5781929394600092615411575b50508160011b916000199060031b1c19161790555b604051428152600433916000805160206176d48339815191526020833592a4604051906004825260018060a01b03169033907f0d9d3ad1299833596bec6138aae47314cbb71fb92c7582abed06e22840593ad4602060043592a4005b0151905084806153a0565b601f198216908360005260206000209160005b81811061546a57509583600195969710615451575b505050811b0190556153b5565b015160001960f88460031b161c19169055848080615444565b9192602060018192868b01518155019401920161542f565b6154ae90836000526020600020601f840160051c81019160208510610b7857601f0160051c01906172ce565b84615386565b015190508880615349565b90601f198316918460005260206000209260005b818110615515575092600192859260e0989660069896106154fc575b505050811b01905561535e565b015160001960f88460031b161c191690558880806154ef565b929360206001819287860151815501950193016154d3565b61555990846000526020600020601f850160051c81019160208610610b7857601f0160051c01906172ce565b86615328565b80518051906001600160401b038211610b825761557c8654617129565b601f8111615642575b50602090601f83116001146155d25792826001949360209386956000926155c7575b5050600019600383901b1c191690841b1787555b019401910190926152f0565b015190508c806155a7565b908660005260206000209160005b601f198516811061562a575083602093600196938796938794601f19811610615611575b505050811b0187556155bb565b015160001960f88460031b161c191690558c8080615604565b919260206001819286850151815501940192016155e0565b61566e90876000526020600020601f850160051c81019160208610610b7857601f0160051c01906172ce565b89615585565b600484016000526020600020908382015b81830181106156955750506152da565b806156a260019254617129565b806156af575b5001615685565b601f811183146156c55750600081555b896156a8565b6000908282526156e3601f60208420920160051c82018583016172ce565b818355556156bf565b01519050858061529c565b6003830160005260206000209060005b601f198416811061574e575060019394959683601f19811610615735575b505050811b0160038201556152b4565b015160001960f88460031b161c19169055858080615725565b9091602060018192858b015181550193019101615707565b61579590600384016000526020600020601f840160051c81019160208510610b7857601f0160051c01906172ce565b85615281565b01519050858061523d565b6002850160005260206000209060005b601f19841681106157fd575060019394959683601f198116106157e4575b505050811b016002840155615255565b015160001960f88460031b161c191690558580806157d4565b9091602060018192858b0151815501930191016157b6565b61584490600286016000526020600020601f840160051c81019160208510610b7857601f0160051c01906172ce565b85615222565b506000546001600160a01b03163314615143565b516001600160a01b0316331490508761513b565b608001516001600160a01b03163314915088615133565b60405162461bcd60e51b815260206004820152601b60248201527f496e76616c6964206469737472696275746f72206164647265737300000000006044820152606490fd5b60405162461bcd60e51b815260206004820152602760248201527f4f6e6c79206661726d65722063616e207472616e7366657220746f20646973746044820152663934b13aba37b960c91b6064820152608490fd5b346101595760a0366003190112610159576024356001600160401b03811161015957615953903690600401616f4b565b6044356001600160401b03811161015957615972903690600401616f4b565b6064356001600160401b03811161015957615991903690600401616fdb565b6084356001600160401b038111610159576159b0903690600401616f4b565b90604051926159be84616f0f565b6000845260043560005260016020526159e160ff6010604060002001541661731a565b60043560005260016020526040600020604051906159fe82616ebc565b80548252600181015460208301526002810154604083015260038101546001600160a01b03908116606084015260048201548116608084015260058201541660a083019081529060ff90601090615a5760068201617163565b60c0860152615a6860078201617163565b60e08601526008810154610100860152615a8460098201617163565b610120860152600a810154610140860152615aa1600b8201617163565b610160860152600c810154610180860152600d8101546101a0860152615ac9600e820161735f565b6101c0860152615adb600f8201617163565b6101e0860152015416151561020083015260608201516001600160a01b0316331491821561620e575b5081156161fa575b5080156161e6575b615b1d906173b4565b60405194615b2a86616ed8565b600286523360208701524260408701526060860152608085015260a084015260c083015260e0820152600435600052600260205260406000208054600160401b811015610b8257615b80916001820181556170f7565b610f445781516007811015610f2e5781546020840151610100600160a81b0360089190911b1660ff929092166001600160a81b03199091161717815560408201516001820155606082015180519092906001600160401b038111610b8257615beb6002840154617129565b601f81116161b1575b506020601f82116001146161435781929394600092616138575b50508160011b916000199060031b1c19161760028301555b60808101519182516001600160401b038111610b8257615c496003830154617129565b601f8111616103575b506020601f8211600114616095578192939460009261608a575b50508160011b916000199060031b1c19161760038201555b60a0820151805190600160401b8211610b82576004830154826004850155808310616012575b5060200190600483016000526020600020916000905b828210615efd57858560c08201518051906001600160401b038211610b8257615cec6005840154617129565b601f8111615ec8575b50602090601f8311600114615e5357918060e09492600694600092615e48575b50508160011b916000199060031b1c19161760058201555b019101519081516001600160401b038111610b8257615d4c8254617129565b601f8111615e16575b50602092601f8211600114615db25792819293600092615da7575b50508160011b916000199060031b1c19161790555b604051428152600233916000805160206176d4833981519152602060043592a4005b015190508380615d70565b601f198216938360005260206000209160005b868110615dfe5750836001959610615de5575b505050811b019055615d85565b015160001960f88460031b161c19169055838080615dd8565b91926020600181928685015181550194019201615dc5565b615e4290836000526020600020601f840160051c81019160208510610b7857601f0160051c01906172ce565b83615d55565b015190508680615d15565b906005840160005260206000209160005b601f1985168110615eb057509260e0949260019260069583601f19811610615e97575b505050811b016005820155615d2d565b015160001960f88460031b161c19169055868080615e87565b91926020600181928685015181550194019201615e64565b615ef790600585016000526020600020601f850160051c81019160208610610b7857601f0160051c01906172ce565b84615cf5565b80518051906001600160401b038211610b8257615f1a8654617129565b601f8111615fe0575b50602090601f8311600114615f70579282600194936020938695600092615f65575b5050600019600383901b1c191690841b1787555b01940191019092615cc0565b015190508b80615f45565b908660005260206000209160005b601f1985168110615fc8575083602093600196938796938794601f19811610615faf575b505050811b018755615f59565b015160001960f88460031b161c191690558b8080615fa2565b91926020600181928685015181550194019201615f7e565b61600c90876000526020600020601f850160051c81019160208610610b7857601f0160051c01906172ce565b88615f23565b600484016000526020600020908382015b8183018110616033575050615caa565b8061604060019254617129565b8061604d575b5001616023565b601f811183146160635750600081555b88616046565b600090828252616081601f60208420920160051c82018583016172ce565b8183555561605d565b015190508480615c6c565b6003830160005260206000209060005b601f19841681106160eb5750600193949583601f198116106160d2575b505050811b016003820155615c84565b015160001960f88460031b161c191690558480806160c2565b9091602060018192858a0151815501930191016160a5565b61613290600384016000526020600020601f840160051c81019160208510610b7857601f0160051c01906172ce565b84615c52565b015190508480615c0e565b6002840160005260206000209060005b601f19841681106161995750600193949583601f19811610616180575b505050811b016002830155615c26565b015160001960f88460031b161c19169055848080616170565b9091602060018192858a015181550193019101616153565b6161e090600285016000526020600020601f840160051c81019160208510610b7857601f0160051c01906172ce565b84615bf4565b506000546001600160a01b03163314615b14565b516001600160a01b03163314905086615b0c565b608001516001600160a01b03163314915087615b04565b34610159576020366003190112610159576004356001600160401b0381116101595761626e602061625b81933690600401616f4b565b8160405193828580945193849201616fa1565b8101600381520301902054604051908152f35b34610159576080366003190112610159576024356001600160401b038111610159576162b1903690600401616f4b565b6064356001600160401b038111610159576162d0903690600401616f4b565b60043560005260016020526162ef60ff6010604060002001541661731a565b6004356000526001602052604060002060ff60106040519261631084616ebc565b80548452600181015460208501526002810154604085015260038101546001600160a01b03908116606086015260048201548116608086015260058201541660a085015261636060068201617163565b60c085015261637160078201617163565b60e0850152600881015461010085015261638d60098201617163565b610120850152600a8101546101408501526163aa600b8201617163565b610160850152600c810154610180850152600d8101546101a08501526163d2600e820161735f565b6101c08501526163e4600f8201617163565b6101e0850152015416151561020082015260608101516001600160a01b03163314908115616ea5575b8115616e8e575b508015616e7a575b616425906173b4565b60043560005260016020526009604060002001918051926001600160401b038411610b82576164548154617129565b601f8111616e48575b50602093601f8111600114616de1578091929394600091616dd6575b508160011b916000199060031b1c19161790555b6004356000526001602052604435600a60406000200155604051916164b183616f0f565b600083526164c0600435617432565b90604051936164ce85616ef4565b601485527328bab0b634ba3c902b32b934b334b1b0ba34b7b760611b6020860152604051906164fc82616f0f565b600082526040519261650d84616f0f565b60008452600435600052600160205261653060ff6010604060002001541661731a565b6004356000526001602052604060002060ff60106040519261655184616ebc565b80548452600181015460208501526002810154604085015260038101546001600160a01b03908116606086015260048201548116608086015260058201541660a08501526165a160068201617163565b60c08501526165b260078201617163565b60e085015260088101546101008501526165ce60098201617163565b610120850152600a8101546101408501526165eb600b8201617163565b610160850152600c810154610180850152600d8101546101a0850152616613600e820161735f565b6101c0850152616625600f8201617163565b6101e0850152015416151561020082015260608101516001600160a01b03163314908115616dbf575b8115616da8575b508015616d94575b616666906173b4565b6040519661667388616ed8565b61667d8689617400565b3360208901524260408901526060880152608087015260a086015260c085015260e0840152600435600052600260205260406000208054600160401b811015610b82576166cf916001820181556170f7565b610f445783516007811015610f2e5781546020860151610100600160a81b0360089190911b1660ff929092166001600160a81b0319909116171781556040840151600182015560608401518051906001600160401b038211610b8257819061673a6002850154617129565b601f8111616d5f575b50602090601f8311600114616ced57600092616ce2575b50508160011b916000199060031b1c19161760028201555b60808401518051906001600160401b038211610b825781906167976003850154617129565b601f8111616cad575b50602090601f8311600114616c3b57600092616c30575b50508160011b916000199060031b1c19161760038201555b60a0840151805190600160401b8211610b82576004830154826004850155808310616bb8575b5060200190600483016000526020600020916000905b828210616aa3575050505060c08401518051906001600160401b038211610b82576168396005840154617129565b601f8111616a6e575b50602090601f83116001146169f957918060e094926006946000926169ee575b50508160011b916000199060031b1c19161760058201555b019301519283516001600160401b038111610b82576168998254617129565b601f81116169bc575b50602094601f82116001146169565794819293949560009261694b575b50508160011b916000199060031b1c19161790555b6007811015610f2e576040519042825233916000805160206176d4833981519152602060043592a47f4d755ddfc04cf247b6accfadd1c80c5ed9d0483140166c98ae243c3bcb337fbb61693260405192606084526060840190617209565b91604435602082015233604082015280600435930390a2005b0151905085806168bf565b601f198216958360005260206000209160005b8881106169a45750836001959697981061698b575b505050811b0190556168d4565b015160001960f88460031b161c1916905585808061697e565b91926020600181928685015181550194019201616969565b6169e890836000526020600020601f840160051c81019160208510610b7857601f0160051c01906172ce565b856168a2565b015190508880616862565b906005840160005260206000209160005b601f1985168110616a5657509260e0949260019260069583601f19811610616a3d575b505050811b01600582015561687a565b015160001960f88460031b161c19169055888080616a2d565b91926020600181928685015181550194019201616a0a565b616a9d90600585016000526020600020601f850160051c81019160208610610b7857601f0160051c01906172ce565b86616842565b80518051906001600160401b038211610b8257616ac08654617129565b601f8111616b86575b50602090601f8311600114616b16579282600194936020938695600092616b0b575b5050600019600383901b1c191690841b1787555b0194019101909261680b565b015190508d80616aeb565b908660005260206000209160005b601f1985168110616b6e575083602093600196938796938794601f19811610616b55575b505050811b018755616aff565b015160001960f88460031b161c191690558d8080616b48565b91926020600181928685015181550194019201616b24565b616bb290876000526020600020601f850160051c81019160208610610b7857601f0160051c01906172ce565b8a616ac9565b600484016000526020600020908382015b8183018110616bd95750506167f5565b80616be660019254617129565b80616bf3575b5001616bc9565b601f81118314616c095750600081555b8a616bec565b600090828252616c27601f60208420920160051c82018583016172ce565b81835555616c03565b0151905086806167b7565b9250600384016000526020600020906000935b601f1984168510616c92576001945083601f19811610616c79575b505050811b0160038201556167cf565b015160001960f88460031b161c19169055868080616c69565b81810151835560209485019460019093019290910190616c4e565b616cdc90600386016000526020600020601f850160051c81019160208610610b7857601f0160051c01906172ce565b876167a0565b01519050868061675a565b9250600284016000526020600020906000935b601f1984168510616d44576001945083601f19811610616d2b575b505050811b016002820155616772565b015160001960f88460031b161c19169055868080616d1b565b81810151835560209485019460019093019290910190616d00565b616d8e90600286016000526020600020601f850160051c81019160208610610b7857601f0160051c01906172ce565b87616743565b506000546001600160a01b0316331461665d565b60a001516001600160a01b03163314905088616655565b60808101516001600160a01b03163314915061664e565b905083015185616479565b81600052602060002060005b601f1983168110616e30575060019293949582601f19811610616e17575b5050811b01905561648d565b85015160001960f88460031b161c191690558580616e0b565b84870151825560209687019660019092019101616ded565b616e7490826000526020600020601f870160051c81019160208810610b7857601f0160051c01906172ce565b8461645d565b506000546001600160a01b0316331461641c565b60a001516001600160a01b03163314905083616414565b60808101516001600160a01b03163314915061640d565b61022081019081106001600160401b03821117610b8257604052565b61010081019081106001600160401b03821117610b8257604052565b604081019081106001600160401b03821117610b8257604052565b602081019081106001600160401b03821117610b8257604052565b90601f801991011681019081106001600160401b03821117610b8257604052565b81601f82011215610159578035906001600160401b038211610b825760405192616f7f601f8401601f191660200185616f2a565b8284526020838301011161015957816000926020809301838601378301015290565b60005b838110616fb45750506000910152565b8181015183820152602001616fa4565b6001600160401b038111610b825760051b60200190565b9080601f8301121561015957813590616ff382616fc4565b926170016040519485616f2a565b828452602092838086019160051b8301019280841161015957848301915b84831061702f5750505050505090565b82356001600160401b03811161015957869161705084848094890101616f4b565b81520192019161701f565b602435906001600160a01b038216820361015957565b600435906001600160a01b038216820361015957565b906007821015610f2e5752565b90608060031983011261015957600435916001600160401b039160243583811161015957826170c591600401616f4b565b9260443581811161015957836170dd91600401616f4b565b92606435918211610159576170f491600401616fdb565b90565b8054821015617113576000526007602060002091020190600090565b634e487b7160e01b600052603260045260246000fd5b90600182811c92168015617159575b602083101461714357565b634e487b7160e01b600052602260045260246000fd5b91607f1691617138565b906040519182600082549261717784617129565b9081845260019485811690816000146171e657506001146171a3575b50506171a192500383616f2a565b565b9093915060005260209081600020936000915b8183106171ce5750506171a193508201013880617193565b855488840185015294850194879450918301916171b6565b9150506171a194506020925060ff191682840152151560051b8201013880617193565b9060209161722281518092818552858086019101616fa1565b601f01601f1916010190565b908082519081815260208091019281808460051b8301019501936000915b84831061725c5750505050505090565b909192939495848061727a600193601f198682030187528a51617209565b980193019301919493929061724c565b80548210156171135760005260206000200190600090565b6000546001600160a01b031633036172b657565b60405163118cdaa760e01b8152336004820152602490fd5b8181106172d9575050565b600081556001016172ce565b8054600160401b811015610b82576173029160018201815561728a565b819291549060031b91821b91600019901b1916179055565b1561732157565b60405162461bcd60e51b8152602060048201526016602482015275141c9bd91d58dd08191bd95cc81b9bdd08195e1a5cdd60521b6044820152606490fd5b90815461736b81616fc4565b926173796040519485616f2a565b818452600090815260208082208186015b848410617398575050505050565b60018381926173a685617163565b81520192019301929061738a565b156173bb57565b60405162461bcd60e51b815260206004820152601f60248201527f4e6f7420617574686f72697a656420666f7220746869732070726f64756374006044820152606490fd5b6007821015610f2e5752565b6040519061741982616ef4565b600a825269125b88151c985b9cda5d60b21b6020830152565b6000908152600260209080825260409081842080549161745183616fc4565b9361745e81519586616f2a565b838552858501928752858720918688945b8686106174f15750505050505050805180156174eb5760001981019081116174d75781518110156174c35760051b010151519060078210156174af575090565b634e487b7160e01b81526021600452602490fd5b634e487b7160e01b84526032600452602484fd5b634e487b7160e01b84526011600452602484fd5b50505090565b600191600791855161750281616ed8565b875461751160ff821683617400565b858060a01b039060081c16838201528488015487820152617533868901617163565b606082015261754460038901617163565b60808201526175556004890161735f565b60a082015261756660058901617163565b60c082015261757760068901617163565b60e0820152815201940194019392879061746f565b6007811015610f2e5780156176af57600181146176895760028114617663576003811461763e5760048114617635576005811461760f576006146175ed576040516175d681616ef4565b60078152662ab735b737bbb760c91b602082015290565b6040516175f981616ef4565b600681526514995d185a5b60d21b602082015290565b5060405161761c81616ef4565b600981526811195b1a5d995c995960ba1b602082015290565b506170f461740c565b5060405161764b81616ef4565b6008815267141858dad859d95960c21b602082015290565b5060405161767081616ef4565b6009815268141c9bd8d95cdcd95960ba1b602082015290565b5060405161769681616ef4565b600981526812185c9d995cdd195960ba1b602082015290565b506040516176bc81616ef4565b60078152664661726d696e6760c81b60208201529056fed35079bd9f0d87556b38c1165117ccd975a6b3c2dd3c85342d8c02343bde1d9fa26469706673582212202098c25f1bffaf46b3da83aa4175ec8f54cd10abb61eb504d3f1661367763a5a64736f6c63430008140033","opcodes":"PUSH1 0x80 DUP1 PUSH1 0x40 MSTORE CALLVALUE PUSH3 0x7D JUMPI CALLER ISZERO PUSH3 0x67 JUMPI PUSH1 0x0 DUP1 SLOAD CALLER PUSH1 0x1 PUSH1 0x1 PUSH1 0xA0 SHL SUB NOT DUP3 AND DUP2 OR DUP4 SSTORE PUSH1 0x40 MLOAD SWAP3 SWAP1 SWAP2 PUSH1 0x1 PUSH1 0x1 PUSH1 0xA0 SHL SUB AND SWAP1 PUSH32 0x8BE0079C531659141344CD1FD0A4F28419497F9722A3DAAFE3B4186F6B6457E0 SWAP1 DUP1 LOG3 PUSH2 0x7729 SWAP1 DUP2 PUSH3 0x83 DUP3 CODECOPY RETURN JUMPDEST PUSH4 0x1E4FBDF7 PUSH1 0xE0 SHL DUP2 MSTORE PUSH1 0x0 PUSH1 0x4 DUP3 ADD MSTORE PUSH1 0x24 SWAP1 REVERT JUMPDEST PUSH1 0x0 DUP1 REVERT INVALID PUSH1 0xA0 PUSH1 0x40 MSTORE PUSH1 0x4 CALLDATASIZE LT ISZERO PUSH2 0x12 JUMPI PUSH1 0x0 DUP1 REVERT JUMPDEST PUSH1 0x0 CALLDATALOAD PUSH1 0xE0 SHR DUP1 PUSH3 0x72172 EQ PUSH2 0x6281 JUMPI DUP1 PUSH4 0x31C3154 EQ PUSH2 0x6225 JUMPI DUP1 PUSH4 0xD4E343E EQ PUSH2 0x5923 JUMPI DUP1 PUSH4 0xD7C2804 EQ PUSH2 0x4ED6 JUMPI DUP1 PUSH4 0x2458D472 EQ PUSH2 0x4EA9 JUMPI DUP1 PUSH4 0x2DA00E8B EQ PUSH2 0x4615 JUMPI DUP1 PUSH4 0x32B5E93B EQ PUSH2 0x31A5 JUMPI DUP1 PUSH4 0x4AF9B89B EQ PUSH2 0x30C3 JUMPI DUP1 PUSH4 0x54A65E4D EQ PUSH2 0x279D JUMPI DUP1 PUSH4 0x570AEA8A EQ PUSH2 0x277F JUMPI DUP1 PUSH4 0x572A4AFF EQ PUSH2 0x1EEF JUMPI DUP1 PUSH4 0x57A096A1 EQ PUSH2 0x1D0E JUMPI DUP1 PUSH4 0x6102B37E EQ PUSH2 0x1CC0 JUMPI DUP1 PUSH4 0x70648D27 EQ PUSH2 0x133E JUMPI DUP1 PUSH4 0x715018A6 EQ PUSH2 0x12E5 JUMPI DUP1 PUSH4 0x7ACC0B20 EQ PUSH2 0x1167 JUMPI DUP1 PUSH4 0x8A93A6DC EQ PUSH2 0x10B3 JUMPI DUP1 PUSH4 0x8DA5CB5B EQ PUSH2 0x108A JUMPI DUP1 PUSH4 0x9276EC7D EQ PUSH2 0x1032 JUMPI DUP1 PUSH4 0xCC492254 EQ PUSH2 0x581 JUMPI DUP1 PUSH4 0xE80E59C8 EQ PUSH2 0x1E7 JUMPI DUP1 PUSH4 0xF2FDE38B EQ PUSH2 0x15E JUMPI PUSH4 0xFFD8DDB0 EQ PUSH2 0x118 JUMPI PUSH1 0x0 DUP1 REVERT JUMPDEST CALLVALUE PUSH2 0x159 JUMPI PUSH1 0x20 CALLDATASIZE PUSH1 0x3 NOT ADD SLT PUSH2 0x159 JUMPI PUSH1 0x4 CALLDATALOAD PUSH1 0x7 DUP2 LT ISZERO PUSH2 0x159 JUMPI PUSH2 0x141 PUSH2 0x155 SWAP2 PUSH2 0x758C JUMP JUMPDEST PUSH1 0x40 MLOAD SWAP2 DUP3 SWAP2 PUSH1 0x20 DUP4 MSTORE PUSH1 0x20 DUP4 ADD SWAP1 PUSH2 0x7209 JUMP JUMPDEST SUB SWAP1 RETURN JUMPDEST PUSH1 0x0 DUP1 REVERT JUMPDEST CALLVALUE PUSH2 0x159 JUMPI PUSH1 0x20 CALLDATASIZE PUSH1 0x3 NOT ADD SLT PUSH2 0x159 JUMPI PUSH2 0x177 PUSH2 0x7071 JUMP JUMPDEST PUSH2 0x17F PUSH2 0x72A2 JUMP JUMPDEST PUSH1 0x1 PUSH1 0x1 PUSH1 0xA0 SHL SUB SWAP1 DUP2 AND SWAP1 DUP2 ISZERO PUSH2 0x1CE JUMPI PUSH1 0x0 SLOAD DUP3 PUSH1 0x1 PUSH1 0x1 PUSH1 0x60 SHL SUB PUSH1 0xA0 SHL DUP3 AND OR PUSH1 0x0 SSTORE AND PUSH32 0x8BE0079C531659141344CD1FD0A4F28419497F9722A3DAAFE3B4186F6B6457E0 PUSH1 0x0 DUP1 LOG3 STOP JUMPDEST PUSH1 0x40 MLOAD PUSH4 0x1E4FBDF7 PUSH1 0xE0 SHL DUP2 MSTORE PUSH1 0x0 PUSH1 0x4 DUP3 ADD MSTORE PUSH1 0x24 SWAP1 REVERT JUMPDEST CALLVALUE PUSH2 0x159 JUMPI PUSH1 0x20 CALLDATASIZE PUSH1 0x3 NOT ADD SLT PUSH2 0x159 JUMPI PUSH1 0x4 CALLDATALOAD PUSH1 0x1 PUSH1 0x1 PUSH1 0x40 SHL SUB DUP2 GT PUSH2 0x159 JUMPI PUSH1 0x20 PUSH2 0x21C PUSH2 0x2AC SWAP3 CALLDATASIZE SWAP1 PUSH1 0x4 ADD PUSH2 0x6F4B JUMP JUMPDEST PUSH1 0x0 PUSH2 0x200 PUSH1 0x40 MLOAD PUSH2 0x22D DUP2 PUSH2 0x6EBC JUMP JUMPDEST DUP3 DUP2 MSTORE DUP3 DUP6 DUP3 ADD MSTORE DUP3 PUSH1 0x40 DUP3 ADD MSTORE DUP3 PUSH1 0x60 DUP3 ADD MSTORE DUP3 PUSH1 0x80 DUP3 ADD MSTORE DUP3 PUSH1 0xA0 DUP3 ADD MSTORE PUSH1 0x60 PUSH1 0xC0 DUP3 ADD MSTORE PUSH1 0x60 PUSH1 0xE0 DUP3 ADD MSTORE DUP3 PUSH2 0x100 DUP3 ADD MSTORE PUSH1 0x60 PUSH2 0x120 DUP3 ADD MSTORE DUP3 PUSH2 0x140 DUP3 ADD MSTORE PUSH1 0x60 PUSH2 0x160 DUP3 ADD MSTORE DUP3 PUSH2 0x180 DUP3 ADD MSTORE DUP3 PUSH2 0x1A0 DUP3 ADD MSTORE PUSH1 0x60 PUSH2 0x1C0 DUP3 ADD MSTORE PUSH1 0x60 PUSH2 0x1E0 DUP3 ADD MSTORE ADD MSTORE DUP2 PUSH1 0x40 MLOAD SWAP4 DUP3 DUP6 DUP1 SWAP5 MLOAD SWAP4 DUP5 SWAP3 ADD PUSH2 0x6FA1 JUMP JUMPDEST DUP2 ADD PUSH1 0x3 DUP2 MSTORE SUB ADD SWAP1 KECCAK256 SLOAD DUP1 ISZERO DUP1 DUP1 ISZERO SWAP2 PUSH2 0x53F JUMPI JUMPDEST POP ISZERO PUSH2 0x506 JUMPI PUSH1 0x0 MSTORE PUSH1 0x1 PUSH1 0x20 MSTORE PUSH1 0x40 PUSH1 0x0 KECCAK256 PUSH1 0xFF PUSH1 0x10 PUSH1 0x40 MLOAD SWAP3 PUSH2 0x2E6 DUP5 PUSH2 0x6EBC JUMP JUMPDEST DUP1 SLOAD DUP5 MSTORE PUSH1 0x1 DUP2 ADD SLOAD PUSH1 0x20 DUP6 ADD MSTORE PUSH1 0x2 DUP2 ADD SLOAD PUSH1 0x40 DUP6 ADD MSTORE PUSH1 0x3 DUP2 ADD SLOAD PUSH1 0x1 PUSH1 0x1 PUSH1 0xA0 SHL SUB SWAP1 DUP2 AND PUSH1 0x60 DUP7 ADD MSTORE PUSH1 0x4 DUP3 ADD SLOAD DUP2 AND PUSH1 0x80 DUP7 ADD MSTORE PUSH1 0x5 DUP3 ADD SLOAD AND PUSH1 0xA0 DUP6 ADD MSTORE PUSH2 0x336 PUSH1 0x6 DUP3 ADD PUSH2 0x7163 JUMP JUMPDEST PUSH1 0xC0 DUP6 ADD MSTORE PUSH2 0x347 PUSH1 0x7 DUP3 ADD PUSH2 0x7163 JUMP JUMPDEST PUSH1 0xE0 DUP6 ADD MSTORE PUSH1 0x8 DUP2 ADD SLOAD PUSH2 0x100 DUP6 ADD MSTORE PUSH2 0x363 PUSH1 0x9 DUP3 ADD PUSH2 0x7163 JUMP JUMPDEST PUSH2 0x120 DUP6 ADD MSTORE PUSH1 0xA DUP2 ADD SLOAD PUSH2 0x140 DUP6 ADD MSTORE PUSH2 0x380 PUSH1 0xB DUP3 ADD PUSH2 0x7163 JUMP JUMPDEST PUSH2 0x160 DUP6 ADD MSTORE PUSH1 0xC DUP2 ADD SLOAD PUSH2 0x180 DUP6 ADD MSTORE PUSH1 0xD DUP2 ADD SLOAD PUSH2 0x1A0 DUP6 ADD MSTORE PUSH2 0x3A8 PUSH1 0xE DUP3 ADD PUSH2 0x735F JUMP JUMPDEST PUSH2 0x1C0 DUP6 ADD MSTORE PUSH2 0x3BA PUSH1 0xF DUP3 ADD PUSH2 0x7163 JUMP JUMPDEST PUSH2 0x1E0 DUP6 ADD MSTORE ADD SLOAD AND ISZERO ISZERO PUSH2 0x200 DUP3 ADD MSTORE PUSH1 0x40 MLOAD DUP1 SWAP2 PUSH1 0x20 DUP3 MSTORE DUP1 MLOAD PUSH1 0x20 DUP4 ADD MSTORE PUSH1 0x20 DUP2 ADD MLOAD PUSH1 0x40 DUP4 ADD MSTORE PUSH1 0x40 DUP2 ADD MLOAD PUSH1 0x60 DUP4 ADD MSTORE PUSH1 0x1 DUP1 PUSH1 0xA0 SHL SUB PUSH1 0x60 DUP3 ADD MLOAD AND PUSH1 0x80 DUP4 ADD MSTORE PUSH1 0x1 DUP1 PUSH1 0xA0 SHL SUB PUSH1 0x80 DUP3 ADD MLOAD AND PUSH1 0xA0 DUP4 ADD MSTORE PUSH1 0x1 DUP1 PUSH1 0xA0 SHL SUB PUSH1 0xA0 DUP3 ADD MLOAD AND PUSH1 0xC0 DUP4 ADD MSTORE PUSH2 0x200 PUSH2 0x4F7 PUSH2 0x4E1 PUSH2 0x4B1 PUSH2 0x48D PUSH2 0x469 PUSH2 0x452 PUSH1 0xC0 DUP9 ADD MLOAD PUSH2 0x220 PUSH1 0xE0 DUP12 ADD MSTORE PUSH2 0x240 DUP11 ADD SWAP1 PUSH2 0x7209 JUMP JUMPDEST PUSH1 0xE0 DUP9 ADD MLOAD DUP10 DUP3 SUB PUSH1 0x1F NOT ADD PUSH2 0x100 DUP12 ADD MSTORE PUSH2 0x7209 JUMP JUMPDEST PUSH2 0x100 DUP8 ADD MLOAD PUSH2 0x120 DUP10 ADD MSTORE PUSH2 0x120 DUP8 ADD MLOAD PUSH1 0x1F NOT DUP10 DUP4 SUB ADD PUSH2 0x140 DUP11 ADD MSTORE PUSH2 0x7209 JUMP JUMPDEST PUSH2 0x140 DUP7 ADD MLOAD PUSH2 0x160 DUP9 ADD MSTORE PUSH2 0x160 DUP7 ADD MLOAD PUSH1 0x1F NOT DUP9 DUP4 SUB ADD PUSH2 0x180 DUP10 ADD MSTORE PUSH2 0x7209 JUMP JUMPDEST PUSH2 0x180 DUP6 ADD MLOAD PUSH2 0x1A0 DUP8 ADD MSTORE PUSH2 0x1A0 DUP6 ADD MLOAD PUSH2 0x1C0 DUP8 ADD MSTORE PUSH2 0x1C0 DUP6 ADD MLOAD PUSH1 0x1F NOT DUP8 DUP4 SUB ADD PUSH2 0x1E0 DUP9 ADD MSTORE PUSH2 0x722E JUMP JUMPDEST PUSH2 0x1E0 DUP5 ADD MLOAD DUP6 DUP3 SUB PUSH1 0x1F NOT ADD DUP5 DUP8 ADD MSTORE PUSH2 0x7209 JUMP JUMPDEST SWAP2 ADD MLOAD ISZERO ISZERO PUSH2 0x220 DUP4 ADD MSTORE SUB SWAP1 RETURN JUMPDEST PUSH1 0x40 MLOAD PUSH3 0x461BCD PUSH1 0xE5 SHL DUP2 MSTORE PUSH1 0x20 PUSH1 0x4 DUP3 ADD MSTORE PUSH1 0x11 PUSH1 0x24 DUP3 ADD MSTORE PUSH17 0x141C9BD91D58DD081B9BDD08199BDD5B99 PUSH1 0x7A SHL PUSH1 0x44 DUP3 ADD MSTORE PUSH1 0x64 SWAP1 REVERT JUMPDEST SWAP1 POP DUP1 PUSH2 0x54D JUMPI JUMPDEST DUP3 PUSH2 0x2C2 JUMP JUMPDEST POP PUSH1 0x0 DUP1 MSTORE PUSH1 0x1 PUSH1 0x20 MSTORE PUSH32 0xA6EEF7E35ABE7026729641147F7915573C7E97B47EFA546F5F6E3230263BCB59 SLOAD PUSH1 0xFF AND PUSH2 0x547 JUMP JUMPDEST CALLVALUE PUSH2 0x159 JUMPI PUSH1 0x80 CALLDATASIZE PUSH1 0x3 NOT ADD SLT PUSH2 0x159 JUMPI PUSH2 0x59A PUSH2 0x705B JUMP JUMPDEST PUSH1 0x44 CALLDATALOAD PUSH1 0x1 PUSH1 0x1 PUSH1 0x40 SHL SUB DUP2 GT PUSH2 0x159 JUMPI PUSH2 0x5B9 SWAP1 CALLDATASIZE SWAP1 PUSH1 0x4 ADD PUSH2 0x6F4B JUMP JUMPDEST PUSH1 0x64 CALLDATALOAD PUSH1 0x1 PUSH1 0x1 PUSH1 0x40 SHL SUB DUP2 GT PUSH2 0x159 JUMPI PUSH2 0x5D8 SWAP1 CALLDATASIZE SWAP1 PUSH1 0x4 ADD PUSH2 0x6F4B JUMP JUMPDEST PUSH1 0x4 CALLDATALOAD PUSH1 0x0 MSTORE PUSH1 0x1 PUSH1 0x20 MSTORE PUSH2 0x5F7 PUSH1 0xFF PUSH1 0x10 PUSH1 0x40 PUSH1 0x0 KECCAK256 ADD SLOAD AND PUSH2 0x731A JUMP JUMPDEST PUSH1 0x4 DUP1 CALLDATALOAD PUSH1 0x0 SWAP1 DUP2 MSTORE PUSH1 0x1 PUSH1 0x20 MSTORE PUSH1 0x40 SWAP1 KECCAK256 ADD SLOAD PUSH1 0x1 PUSH1 0x1 PUSH1 0xA0 SHL SUB AND CALLER SUB PUSH2 0xFDB JUMPI PUSH1 0x1 PUSH1 0x1 PUSH1 0xA0 SHL SUB DUP4 AND ISZERO PUSH2 0xF96 JUMPI PUSH1 0x4 DUP1 CALLDATALOAD PUSH1 0x0 DUP2 DUP2 MSTORE PUSH1 0x1 PUSH1 0x20 SWAP1 DUP2 MSTORE PUSH1 0x40 DUP1 DUP4 KECCAK256 PUSH1 0x5 ADD DUP1 SLOAD PUSH1 0x1 PUSH1 0x1 PUSH1 0xA0 SHL SUB NOT AND PUSH1 0x1 PUSH1 0x1 PUSH1 0xA0 SHL SUB DUP11 AND SWAP1 DUP2 OR SWAP1 SWAP2 SSTORE DUP4 MSTORE SWAP4 SWAP1 MSTORE SWAP2 SWAP1 SWAP2 KECCAK256 PUSH2 0x670 SWAP2 SWAP1 PUSH2 0x72E5 JUMP JUMPDEST PUSH1 0x40 MLOAD PUSH2 0x67C DUP2 PUSH2 0x6F0F JUMP JUMPDEST PUSH1 0x0 DUP2 MSTORE PUSH1 0x40 MLOAD SWAP1 PUSH2 0x68D DUP3 PUSH2 0x6F0F JUMP JUMPDEST PUSH1 0x0 DUP3 MSTORE PUSH1 0x40 MLOAD SWAP3 PUSH2 0x69E DUP5 PUSH2 0x6F0F JUMP JUMPDEST PUSH1 0x0 DUP5 MSTORE PUSH1 0x4 CALLDATALOAD PUSH1 0x0 MSTORE PUSH1 0x1 PUSH1 0x20 MSTORE PUSH2 0x6C1 PUSH1 0xFF PUSH1 0x10 PUSH1 0x40 PUSH1 0x0 KECCAK256 ADD SLOAD AND PUSH2 0x731A JUMP JUMPDEST PUSH1 0x4 CALLDATALOAD PUSH1 0x0 MSTORE PUSH1 0x1 PUSH1 0x20 MSTORE PUSH1 0x40 PUSH1 0x0 KECCAK256 PUSH1 0x40 MLOAD SWAP1 PUSH2 0x6DE DUP3 PUSH2 0x6EBC JUMP JUMPDEST DUP1 SLOAD DUP3 MSTORE PUSH1 0x1 DUP2 ADD SLOAD PUSH1 0x20 DUP4 ADD MSTORE PUSH1 0x2 DUP2 ADD SLOAD PUSH1 0x40 DUP4 ADD MSTORE PUSH1 0x3 DUP2 ADD SLOAD PUSH1 0x1 PUSH1 0x1 PUSH1 0xA0 SHL SUB SWAP1 DUP2 AND PUSH1 0x60 DUP5 ADD SWAP1 DUP2 MSTORE PUSH1 0x4 DUP4 ADD SLOAD DUP3 AND PUSH1 0x80 DUP6 ADD SWAP1 DUP2 MSTORE PUSH1 0x5 DUP5 ADD SLOAD SWAP1 SWAP3 AND PUSH1 0xA0 DUP6 ADD SWAP1 DUP2 MSTORE SWAP2 SWAP4 SWAP2 SWAP3 SWAP1 SWAP2 SWAP1 PUSH2 0x200 SWAP1 PUSH1 0xFF SWAP1 PUSH1 0x10 SWAP1 PUSH2 0x747 PUSH1 0x6 DUP3 ADD PUSH2 0x7163 JUMP JUMPDEST PUSH1 0xC0 DUP7 ADD MSTORE PUSH2 0x758 PUSH1 0x7 DUP3 ADD PUSH2 0x7163 JUMP JUMPDEST PUSH1 0xE0 DUP7 ADD MSTORE PUSH1 0x8 DUP2 ADD SLOAD PUSH2 0x100 DUP7 ADD MSTORE PUSH2 0x774 PUSH1 0x9 DUP3 ADD PUSH2 0x7163 JUMP JUMPDEST PUSH2 0x120 DUP7 ADD MSTORE PUSH1 0xA DUP2 ADD SLOAD PUSH2 0x140 DUP7 ADD MSTORE PUSH2 0x791 PUSH1 0xB DUP3 ADD PUSH2 0x7163 JUMP JUMPDEST PUSH2 0x160 DUP7 ADD MSTORE PUSH1 0xC DUP2 ADD SLOAD PUSH2 0x180 DUP7 ADD MSTORE PUSH1 0xD DUP2 ADD SLOAD PUSH2 0x1A0 DUP7 ADD MSTORE PUSH2 0x7B9 PUSH1 0xE DUP3 ADD PUSH2 0x735F JUMP JUMPDEST PUSH2 0x1C0 DUP7 ADD MSTORE PUSH2 0x7CB PUSH1 0xF DUP3 ADD PUSH2 0x7163 JUMP JUMPDEST PUSH2 0x1E0 DUP7 ADD MSTORE ADD SLOAD AND ISZERO ISZERO SWAP2 ADD MSTORE MLOAD PUSH1 0x1 PUSH1 0x1 PUSH1 0xA0 SHL SUB AND CALLER EQ SWAP2 DUP3 ISZERO PUSH2 0xF82 JUMPI JUMPDEST POP DUP2 ISZERO PUSH2 0xF6E JUMPI JUMPDEST POP DUP1 ISZERO PUSH2 0xF5A JUMPI JUMPDEST PUSH2 0x806 SWAP1 PUSH2 0x73B4 JUMP JUMPDEST PUSH1 0x40 MLOAD SWAP5 PUSH2 0x813 DUP7 PUSH2 0x6ED8 JUMP JUMPDEST PUSH1 0x5 DUP7 MSTORE CALLER PUSH1 0x20 DUP8 ADD MSTORE TIMESTAMP PUSH1 0x40 DUP8 ADD MSTORE PUSH1 0x60 DUP7 ADD MSTORE PUSH1 0x80 DUP6 ADD MSTORE PUSH1 0xA0 DUP5 ADD MSTORE PUSH1 0xC0 DUP4 ADD MSTORE PUSH1 0xE0 DUP3 ADD MSTORE PUSH1 0x4 CALLDATALOAD PUSH1 0x0 MSTORE PUSH1 0x2 PUSH1 0x20 MSTORE PUSH1 0x40 PUSH1 0x0 KECCAK256 DUP1 SLOAD PUSH1 0x1 PUSH1 0x40 SHL DUP2 LT ISZERO PUSH2 0xB82 JUMPI PUSH2 0x869 SWAP2 PUSH1 0x1 DUP3 ADD DUP2 SSTORE PUSH2 0x70F7 JUMP JUMPDEST SWAP2 SWAP1 SWAP2 PUSH2 0xF44 JUMPI DUP1 MLOAD PUSH1 0x7 DUP2 LT ISZERO PUSH2 0xF2E JUMPI DUP3 SLOAD PUSH1 0x20 DUP4 ADD MLOAD PUSH2 0x100 PUSH1 0x1 PUSH1 0xA8 SHL SUB PUSH1 0x8 SWAP2 SWAP1 SWAP2 SHL AND PUSH1 0xFF SWAP3 SWAP1 SWAP3 AND PUSH1 0x1 PUSH1 0x1 PUSH1 0xA8 SHL SUB NOT SWAP1 SWAP2 AND OR OR DUP3 SSTORE PUSH1 0x40 DUP2 ADD MLOAD PUSH1 0x1 DUP4 ADD SSTORE PUSH1 0x60 DUP2 ADD MLOAD DUP1 MLOAD SWAP1 SWAP4 SWAP1 PUSH1 0x1 PUSH1 0x1 PUSH1 0x40 SHL SUB DUP2 GT PUSH2 0xB82 JUMPI PUSH2 0x8D7 PUSH1 0x2 DUP6 ADD SLOAD PUSH2 0x7129 JUMP JUMPDEST PUSH1 0x1F DUP2 GT PUSH2 0xEF9 JUMPI JUMPDEST POP PUSH1 0x20 PUSH1 0x1F DUP3 GT PUSH1 0x1 EQ PUSH2 0xE8A JUMPI DUP2 SWAP3 SWAP4 SWAP5 SWAP6 PUSH1 0x0 SWAP3 PUSH2 0xE7F JUMPI JUMPDEST POP POP DUP2 PUSH1 0x1 SHL SWAP2 PUSH1 0x0 NOT SWAP1 PUSH1 0x3 SHL SHR NOT AND OR PUSH1 0x2 DUP5 ADD SSTORE JUMPDEST PUSH1 0x80 DUP3 ADD MLOAD SWAP3 DUP4 MLOAD PUSH1 0x1 PUSH1 0x1 PUSH1 0x40 SHL SUB DUP2 GT PUSH2 0xB82 JUMPI PUSH2 0x936 PUSH1 0x3 DUP4 ADD SLOAD PUSH2 0x7129 JUMP JUMPDEST PUSH1 0x1F DUP2 GT PUSH2 0xE4A JUMPI JUMPDEST POP PUSH1 0x20 PUSH1 0x1F DUP3 GT PUSH1 0x1 EQ PUSH2 0xDDB JUMPI DUP2 SWAP3 SWAP4 SWAP5 SWAP6 PUSH1 0x0 SWAP3 PUSH2 0xDD0 JUMPI JUMPDEST POP POP DUP2 PUSH1 0x1 SHL SWAP2 PUSH1 0x0 NOT SWAP1 PUSH1 0x3 SHL SHR NOT AND OR PUSH1 0x3 DUP3 ADD SSTORE JUMPDEST PUSH1 0xA0 DUP4 ADD MLOAD DUP1 MLOAD SWAP1 PUSH1 0x1 PUSH1 0x40 SHL DUP3 GT PUSH2 0xB82 JUMPI PUSH1 0x4 DUP4 ADD SLOAD DUP3 PUSH1 0x4 DUP6 ADD SSTORE DUP1 DUP4 LT PUSH2 0xD58 JUMPI JUMPDEST POP PUSH1 0x20 ADD SWAP1 PUSH1 0x4 DUP4 ADD PUSH1 0x0 MSTORE PUSH1 0x20 PUSH1 0x0 KECCAK256 SWAP2 PUSH1 0x0 SWAP1 JUMPDEST DUP3 DUP3 LT PUSH2 0xC43 JUMPI POP POP POP POP PUSH1 0x5 DUP2 ADD PUSH1 0xC0 DUP5 ADD MLOAD DUP1 MLOAD SWAP1 PUSH1 0x1 PUSH1 0x1 PUSH1 0x40 SHL SUB DUP3 GT PUSH2 0xB82 JUMPI PUSH2 0x9DD DUP4 SLOAD PUSH2 0x7129 JUMP JUMPDEST PUSH1 0x1F DUP2 GT PUSH2 0xC11 JUMPI JUMPDEST POP PUSH1 0x20 SWAP1 PUSH1 0x1F DUP4 GT PUSH1 0x1 EQ PUSH2 0xBA3 JUMPI SWAP2 DUP1 PUSH1 0x6 SWAP5 SWAP3 PUSH1 0xE0 SWAP7 SWAP5 PUSH1 0x0 SWAP3 PUSH2 0xB98 JUMPI JUMPDEST POP POP DUP2 PUSH1 0x1 SHL SWAP2 PUSH1 0x0 NOT SWAP1 PUSH1 0x3 SHL SHR NOT AND OR SWAP1 SSTORE JUMPDEST ADD SWAP3 ADD MLOAD SWAP2 DUP3 MLOAD PUSH1 0x1 PUSH1 0x1 PUSH1 0x40 SHL SUB DUP2 GT PUSH2 0xB82 JUMPI PUSH2 0xA3B DUP3 SLOAD PUSH2 0x7129 JUMP JUMPDEST PUSH1 0x1F DUP2 GT PUSH2 0xB45 JUMPI JUMPDEST POP PUSH1 0x20 PUSH1 0x1F DUP3 GT PUSH1 0x1 EQ PUSH2 0xADF JUMPI DUP2 SWAP3 SWAP4 SWAP5 PUSH1 0x0 SWAP3 PUSH2 0xAD4 JUMPI JUMPDEST POP POP DUP2 PUSH1 0x1 SHL SWAP2 PUSH1 0x0 NOT SWAP1 PUSH1 0x3 SHL SHR NOT AND OR SWAP1 SSTORE JUMPDEST PUSH1 0x40 MLOAD TIMESTAMP DUP2 MSTORE PUSH1 0x5 CALLER SWAP2 PUSH1 0x0 DUP1 MLOAD PUSH1 0x20 PUSH2 0x76D4 DUP4 CODECOPY DUP2 MLOAD SWAP2 MSTORE PUSH1 0x20 PUSH1 0x4 CALLDATALOAD SWAP3 LOG4 PUSH1 0x40 MLOAD PUSH1 0x5 DUP2 MSTORE PUSH1 0x1 PUSH1 0x1 PUSH1 0xA0 SHL SUB SWAP1 SWAP2 AND SWAP1 CALLER SWAP1 PUSH1 0x4 CALLDATALOAD SWAP1 PUSH32 0xD9D3AD1299833596BEC6138AAE47314CBB71FB92C7582ABED06E22840593AD4 SWAP1 PUSH1 0x20 SWAP1 LOG4 STOP JUMPDEST ADD MLOAD SWAP1 POP DUP5 DUP1 PUSH2 0xA5E JUMP JUMPDEST PUSH1 0x1F NOT DUP3 AND SWAP1 DUP4 PUSH1 0x0 MSTORE PUSH1 0x20 PUSH1 0x0 KECCAK256 SWAP2 PUSH1 0x0 JUMPDEST DUP2 DUP2 LT PUSH2 0xB2D JUMPI POP SWAP6 DUP4 PUSH1 0x1 SWAP6 SWAP7 SWAP8 LT PUSH2 0xB14 JUMPI JUMPDEST POP POP POP DUP2 SHL ADD SWAP1 SSTORE PUSH2 0xA73 JUMP JUMPDEST ADD MLOAD PUSH1 0x0 NOT PUSH1 0xF8 DUP5 PUSH1 0x3 SHL AND SHR NOT AND SWAP1 SSTORE DUP5 DUP1 DUP1 PUSH2 0xB07 JUMP JUMPDEST SWAP2 SWAP3 PUSH1 0x20 PUSH1 0x1 DUP2 SWAP3 DUP7 DUP12 ADD MLOAD DUP2 SSTORE ADD SWAP5 ADD SWAP3 ADD PUSH2 0xAF2 JUMP JUMPDEST PUSH2 0xB72 SWAP1 DUP4 PUSH1 0x0 MSTORE PUSH1 0x20 PUSH1 0x0 KECCAK256 PUSH1 0x1F DUP5 ADD PUSH1 0x5 SHR DUP2 ADD SWAP2 PUSH1 0x20 DUP6 LT PUSH2 0xB78 JUMPI JUMPDEST PUSH1 0x1F ADD PUSH1 0x5 SHR ADD SWAP1 PUSH2 0x72CE JUMP JUMPDEST DUP5 PUSH2 0xA44 JUMP JUMPDEST SWAP1 SWAP2 POP DUP2 SWAP1 PUSH2 0xB65 JUMP JUMPDEST PUSH4 0x4E487B71 PUSH1 0xE0 SHL PUSH1 0x0 MSTORE PUSH1 0x41 PUSH1 0x4 MSTORE PUSH1 0x24 PUSH1 0x0 REVERT JUMPDEST ADD MLOAD SWAP1 POP DUP9 DUP1 PUSH2 0xA07 JUMP JUMPDEST SWAP1 PUSH1 0x1F NOT DUP4 AND SWAP2 DUP5 PUSH1 0x0 MSTORE PUSH1 0x20 PUSH1 0x0 KECCAK256 SWAP3 PUSH1 0x0 JUMPDEST DUP2 DUP2 LT PUSH2 0xBF9 JUMPI POP SWAP3 PUSH1 0x1 SWAP3 DUP6 SWAP3 PUSH1 0xE0 SWAP9 SWAP7 PUSH1 0x6 SWAP9 SWAP7 LT PUSH2 0xBE0 JUMPI JUMPDEST POP POP POP DUP2 SHL ADD SWAP1 SSTORE PUSH2 0xA1C JUMP JUMPDEST ADD MLOAD PUSH1 0x0 NOT PUSH1 0xF8 DUP5 PUSH1 0x3 SHL AND SHR NOT AND SWAP1 SSTORE DUP9 DUP1 DUP1 PUSH2 0xBD3 JUMP JUMPDEST SWAP3 SWAP4 PUSH1 0x20 PUSH1 0x1 DUP2 SWAP3 DUP8 DUP7 ADD MLOAD DUP2 SSTORE ADD SWAP6 ADD SWAP4 ADD PUSH2 0xBB7 JUMP JUMPDEST PUSH2 0xC3D SWAP1 DUP5 PUSH1 0x0 MSTORE PUSH1 0x20 PUSH1 0x0 KECCAK256 PUSH1 0x1F DUP6 ADD PUSH1 0x5 SHR DUP2 ADD SWAP2 PUSH1 0x20 DUP7 LT PUSH2 0xB78 JUMPI PUSH1 0x1F ADD PUSH1 0x5 SHR ADD SWAP1 PUSH2 0x72CE JUMP JUMPDEST DUP7 PUSH2 0x9E6 JUMP JUMPDEST DUP1 MLOAD DUP1 MLOAD SWAP1 PUSH1 0x1 PUSH1 0x1 PUSH1 0x40 SHL SUB DUP3 GT PUSH2 0xB82 JUMPI PUSH2 0xC60 DUP7 SLOAD PUSH2 0x7129 JUMP JUMPDEST PUSH1 0x1F DUP2 GT PUSH2 0xD26 JUMPI JUMPDEST POP PUSH1 0x20 SWAP1 PUSH1 0x1F DUP4 GT PUSH1 0x1 EQ PUSH2 0xCB6 JUMPI SWAP3 DUP3 PUSH1 0x1 SWAP5 SWAP4 PUSH1 0x20 SWAP4 DUP7 SWAP6 PUSH1 0x0 SWAP3 PUSH2 0xCAB JUMPI JUMPDEST POP POP PUSH1 0x0 NOT PUSH1 0x3 DUP4 SWAP1 SHL SHR NOT AND SWAP1 DUP5 SHL OR DUP8 SSTORE JUMPDEST ADD SWAP5 ADD SWAP2 ADD SWAP1 SWAP3 PUSH2 0x9AE JUMP JUMPDEST ADD MLOAD SWAP1 POP DUP13 DUP1 PUSH2 0xC8B JUMP JUMPDEST SWAP1 DUP7 PUSH1 0x0 MSTORE PUSH1 0x20 PUSH1 0x0 KECCAK256 SWAP2 PUSH1 0x0 JUMPDEST PUSH1 0x1F NOT DUP6 AND DUP2 LT PUSH2 0xD0E JUMPI POP DUP4 PUSH1 0x20 SWAP4 PUSH1 0x1 SWAP7 SWAP4 DUP8 SWAP7 SWAP4 DUP8 SWAP5 PUSH1 0x1F NOT DUP2 AND LT PUSH2 0xCF5 JUMPI JUMPDEST POP POP POP DUP2 SHL ADD DUP8 SSTORE PUSH2 0xC9F JUMP JUMPDEST ADD MLOAD PUSH1 0x0 NOT PUSH1 0xF8 DUP5 PUSH1 0x3 SHL AND SHR NOT AND SWAP1 SSTORE DUP13 DUP1 DUP1 PUSH2 0xCE8 JUMP JUMPDEST SWAP2 SWAP3 PUSH1 0x20 PUSH1 0x1 DUP2 SWAP3 DUP7 DUP6 ADD MLOAD DUP2 SSTORE ADD SWAP5 ADD SWAP3 ADD PUSH2 0xCC4 JUMP JUMPDEST PUSH2 0xD52 SWAP1 DUP8 PUSH1 0x0 MSTORE PUSH1 0x20 PUSH1 0x0 KECCAK256 PUSH1 0x1F DUP6 ADD PUSH1 0x5 SHR DUP2 ADD SWAP2 PUSH1 0x20 DUP7 LT PUSH2 0xB78 JUMPI PUSH1 0x1F ADD PUSH1 0x5 SHR ADD SWAP1 PUSH2 0x72CE JUMP JUMPDEST DUP10 PUSH2 0xC69 JUMP JUMPDEST PUSH1 0x4 DUP5 ADD PUSH1 0x0 MSTORE PUSH1 0x20 PUSH1 0x0 KECCAK256 SWAP1 DUP4 DUP3 ADD JUMPDEST DUP2 DUP4 ADD DUP2 LT PUSH2 0xD79 JUMPI POP POP PUSH2 0x998 JUMP JUMPDEST DUP1 PUSH2 0xD86 PUSH1 0x1 SWAP3 SLOAD PUSH2 0x7129 JUMP JUMPDEST DUP1 PUSH2 0xD93 JUMPI JUMPDEST POP ADD PUSH2 0xD69 JUMP JUMPDEST PUSH1 0x1F DUP2 GT DUP4 EQ PUSH2 0xDA9 JUMPI POP PUSH1 0x0 DUP2 SSTORE JUMPDEST DUP10 PUSH2 0xD8C JUMP JUMPDEST PUSH1 0x0 SWAP1 DUP3 DUP3 MSTORE PUSH2 0xDC7 PUSH1 0x1F PUSH1 0x20 DUP5 KECCAK256 SWAP3 ADD PUSH1 0x5 SHR DUP3 ADD DUP6 DUP4 ADD PUSH2 0x72CE JUMP JUMPDEST DUP2 DUP4 SSTORE SSTORE PUSH2 0xDA3 JUMP JUMPDEST ADD MLOAD SWAP1 POP DUP6 DUP1 PUSH2 0x95A JUMP JUMPDEST PUSH1 0x3 DUP4 ADD PUSH1 0x0 MSTORE PUSH1 0x20 PUSH1 0x0 KECCAK256 SWAP1 PUSH1 0x0 JUMPDEST PUSH1 0x1F NOT DUP5 AND DUP2 LT PUSH2 0xE32 JUMPI POP PUSH1 0x1 SWAP4 SWAP5 SWAP6 SWAP7 DUP4 PUSH1 0x1F NOT DUP2 AND LT PUSH2 0xE19 JUMPI JUMPDEST POP POP POP DUP2 SHL ADD PUSH1 0x3 DUP3 ADD SSTORE PUSH2 0x972 JUMP JUMPDEST ADD MLOAD PUSH1 0x0 NOT PUSH1 0xF8 DUP5 PUSH1 0x3 SHL AND SHR NOT AND SWAP1 SSTORE DUP6 DUP1 DUP1 PUSH2 0xE09 JUMP JUMPDEST SWAP1 SWAP2 PUSH1 0x20 PUSH1 0x1 DUP2 SWAP3 DUP6 DUP12 ADD MLOAD DUP2 SSTORE ADD SWAP4 ADD SWAP2 ADD PUSH2 0xDEB JUMP JUMPDEST PUSH2 0xE79 SWAP1 PUSH1 0x3 DUP5 ADD PUSH1 0x0 MSTORE PUSH1 0x20 PUSH1 0x0 KECCAK256 PUSH1 0x1F DUP5 ADD PUSH1 0x5 SHR DUP2 ADD SWAP2 PUSH1 0x20 DUP6 LT PUSH2 0xB78 JUMPI PUSH1 0x1F ADD PUSH1 0x5 SHR ADD SWAP1 PUSH2 0x72CE JUMP JUMPDEST DUP6 PUSH2 0x93F JUMP JUMPDEST ADD MLOAD SWAP1 POP DUP6 DUP1 PUSH2 0x8FB JUMP JUMPDEST PUSH1 0x2 DUP6 ADD PUSH1 0x0 MSTORE PUSH1 0x20 PUSH1 0x0 KECCAK256 SWAP1 PUSH1 0x0 JUMPDEST PUSH1 0x1F NOT DUP5 AND DUP2 LT PUSH2 0xEE1 JUMPI POP PUSH1 0x1 SWAP4 SWAP5 SWAP6 SWAP7 DUP4 PUSH1 0x1F NOT DUP2 AND LT PUSH2 0xEC8 JUMPI JUMPDEST POP POP POP DUP2 SHL ADD PUSH1 0x2 DUP5 ADD SSTORE PUSH2 0x913 JUMP JUMPDEST ADD MLOAD PUSH1 0x0 NOT PUSH1 0xF8 DUP5 PUSH1 0x3 SHL AND SHR NOT AND SWAP1 SSTORE DUP6 DUP1 DUP1 PUSH2 0xEB8 JUMP JUMPDEST SWAP1 SWAP2 PUSH1 0x20 PUSH1 0x1 DUP2 SWAP3 DUP6 DUP12 ADD MLOAD DUP2 SSTORE ADD SWAP4 ADD SWAP2 ADD PUSH2 0xE9A JUMP JUMPDEST PUSH2 0xF28 SWAP1 PUSH1 0x2 DUP7 ADD PUSH1 0x0 MSTORE PUSH1 0x20 PUSH1 0x0 KECCAK256 PUSH1 0x1F DUP5 ADD PUSH1 0x5 SHR DUP2 ADD SWAP2 PUSH1 0x20 DUP6 LT PUSH2 0xB78 JUMPI PUSH1 0x1F ADD PUSH1 0x5 SHR ADD SWAP1 PUSH2 0x72CE JUMP JUMPDEST DUP6 PUSH2 0x8E0 JUMP JUMPDEST PUSH4 0x4E487B71 PUSH1 0xE0 SHL PUSH1 0x0 MSTORE PUSH1 0x21 PUSH1 0x4 MSTORE PUSH1 0x24 PUSH1 0x0 REVERT JUMPDEST PUSH4 0x4E487B71 PUSH1 0xE0 SHL PUSH1 0x0 MSTORE PUSH1 0x0 PUSH1 0x4 MSTORE PUSH1 0x24 PUSH1 0x0 REVERT JUMPDEST POP PUSH1 0x0 SLOAD PUSH1 0x1 PUSH1 0x1 PUSH1 0xA0 SHL SUB AND CALLER EQ PUSH2 0x7FD JUMP JUMPDEST MLOAD PUSH1 0x1 PUSH1 0x1 PUSH1 0xA0 SHL SUB AND CALLER EQ SWAP1 POP DUP8 PUSH2 0x7F5 JUMP JUMPDEST MLOAD PUSH1 0x1 PUSH1 0x1 PUSH1 0xA0 SHL SUB AND CALLER EQ SWAP2 POP DUP9 PUSH2 0x7ED JUMP JUMPDEST PUSH1 0x40 MLOAD PUSH3 0x461BCD PUSH1 0xE5 SHL DUP2 MSTORE PUSH1 0x20 PUSH1 0x4 DUP3 ADD MSTORE PUSH1 0x18 PUSH1 0x24 DUP3 ADD MSTORE PUSH32 0x496E76616C69642072657461696C657220616464726573730000000000000000 PUSH1 0x44 DUP3 ADD MSTORE PUSH1 0x64 SWAP1 REVERT JUMPDEST PUSH1 0x40 MLOAD PUSH3 0x461BCD PUSH1 0xE5 SHL DUP2 MSTORE PUSH1 0x20 PUSH1 0x4 DUP3 ADD MSTORE PUSH1 0x29 PUSH1 0x24 DUP3 ADD MSTORE PUSH32 0x4F6E6C79206469737472696275746F722063616E207472616E7366657220746F PUSH1 0x44 DUP3 ADD MSTORE PUSH9 0x103932BA30B4B632B9 PUSH1 0xB9 SHL PUSH1 0x64 DUP3 ADD MSTORE PUSH1 0x84 SWAP1 REVERT JUMPDEST CALLVALUE PUSH2 0x159 JUMPI PUSH1 0x40 CALLDATASIZE PUSH1 0x3 NOT ADD SLT PUSH2 0x159 JUMPI PUSH2 0x104B PUSH2 0x7071 JUMP JUMPDEST PUSH1 0x1 PUSH1 0x1 PUSH1 0xA0 SHL SUB AND PUSH1 0x0 SWAP1 DUP2 MSTORE PUSH1 0x4 PUSH1 0x20 MSTORE PUSH1 0x40 SWAP1 KECCAK256 DUP1 SLOAD PUSH1 0x24 CALLDATALOAD SWAP2 SWAP1 DUP3 LT ISZERO PUSH2 0x159 JUMPI PUSH1 0x20 SWAP2 PUSH2 0x107C SWAP2 PUSH2 0x728A JUMP JUMPDEST SWAP1 SLOAD PUSH1 0x40 MLOAD SWAP2 PUSH1 0x3 SHL SHR DUP2 MSTORE RETURN JUMPDEST CALLVALUE PUSH2 0x159 JUMPI PUSH1 0x0 CALLDATASIZE PUSH1 0x3 NOT ADD SLT PUSH2 0x159 JUMPI PUSH1 0x0 SLOAD PUSH1 0x40 MLOAD PUSH1 0x1 PUSH1 0x1 PUSH1 0xA0 SHL SUB SWAP1 SWAP2 AND DUP2 MSTORE PUSH1 0x20 SWAP1 RETURN JUMPDEST CALLVALUE PUSH2 0x159 JUMPI PUSH1 0x20 DUP1 PUSH1 0x3 NOT CALLDATASIZE ADD SLT PUSH2 0x159 JUMPI PUSH1 0x1 PUSH1 0x1 PUSH1 0xA0 SHL SUB PUSH2 0x10D5 PUSH2 0x7071 JUMP JUMPDEST AND PUSH1 0x0 MSTORE PUSH1 0x4 DUP2 MSTORE PUSH1 0x40 PUSH1 0x0 KECCAK256 PUSH1 0x40 MLOAD SWAP1 DUP2 DUP4 DUP3 SLOAD SWAP2 DUP3 DUP2 MSTORE ADD SWAP1 DUP2 SWAP3 PUSH1 0x0 MSTORE DUP5 PUSH1 0x0 KECCAK256 SWAP1 PUSH1 0x0 JUMPDEST DUP7 DUP3 DUP3 LT PUSH2 0x1153 JUMPI DUP7 DUP7 PUSH2 0x1113 DUP3 DUP9 SUB DUP4 PUSH2 0x6F2A JUMP JUMPDEST PUSH1 0x40 MLOAD SWAP3 DUP4 SWAP3 DUP2 DUP5 ADD SWAP1 DUP3 DUP6 MSTORE MLOAD DUP1 SWAP2 MSTORE PUSH1 0x40 DUP5 ADD SWAP3 SWAP2 PUSH1 0x0 JUMPDEST DUP3 DUP2 LT PUSH2 0x113C JUMPI POP POP POP POP SUB SWAP1 RETURN JUMPDEST DUP4 MLOAD DUP6 MSTORE DUP7 SWAP6 POP SWAP4 DUP2 ADD SWAP4 SWAP3 DUP2 ADD SWAP3 PUSH1 0x1 ADD PUSH2 0x112D JUMP JUMPDEST DUP4 SLOAD DUP6 MSTORE SWAP1 SWAP4 ADD SWAP3 PUSH1 0x1 SWAP3 DUP4 ADD SWAP3 ADD PUSH2 0x10FD JUMP JUMPDEST CALLVALUE PUSH2 0x159 JUMPI PUSH1 0x20 CALLDATASIZE PUSH1 0x3 NOT ADD SLT PUSH2 0x159 JUMPI PUSH1 0x4 CALLDATALOAD PUSH1 0x0 MSTORE PUSH1 0x1 PUSH1 0x20 MSTORE PUSH1 0x40 PUSH1 0x0 KECCAK256 DUP1 SLOAD SWAP1 PUSH1 0x1 DUP2 ADD SLOAD DUP2 PUSH1 0x2 DUP2 ADD SLOAD PUSH1 0x1 PUSH1 0xA0 SHL PUSH1 0x1 SWAP1 SUB DUP1 PUSH1 0x3 DUP5 ADD SLOAD AND SWAP1 DUP1 PUSH1 0x4 DUP6 ADD SLOAD AND SWAP1 PUSH1 0x5 DUP6 ADD SLOAD AND PUSH1 0x6 DUP6 ADD PUSH2 0x11C2 SWAP1 PUSH2 0x7163 JUMP JUMPDEST PUSH2 0x11CE PUSH1 0x7 DUP8 ADD PUSH2 0x7163 JUMP JUMPDEST SWAP1 PUSH1 0x8 DUP8 ADD SLOAD SWAP3 PUSH1 0x9 DUP9 ADD PUSH2 0x11E2 SWAP1 PUSH2 0x7163 JUMP JUMPDEST SWAP5 PUSH1 0xA DUP10 ADD SLOAD SWAP7 PUSH1 0xB DUP11 ADD PUSH2 0x11F6 SWAP1 PUSH2 0x7163 JUMP JUMPDEST SWAP9 PUSH1 0xC DUP12 ADD SLOAD SWAP12 PUSH1 0xD DUP13 ADD SLOAD SWAP12 PUSH1 0xF ADD PUSH2 0x120F SWAP1 PUSH2 0x7163 JUMP JUMPDEST SWAP14 PUSH1 0x10 ADD SLOAD PUSH1 0xFF AND SWAP15 PUSH1 0x40 MLOAD DUP1 PUSH1 0x80 MSTORE MSTORE PUSH1 0x80 MLOAD PUSH1 0x20 ADD MSTORE PUSH1 0x80 MLOAD PUSH1 0x40 ADD MSTORE PUSH1 0x80 MLOAD PUSH1 0x60 ADD MSTORE PUSH1 0x80 MLOAD PUSH1 0x80 ADD MSTORE PUSH1 0x80 MLOAD PUSH1 0xA0 ADD MSTORE PUSH2 0x200 DUP1 PUSH1 0x80 MLOAD PUSH1 0xC0 ADD MSTORE PUSH1 0x80 MLOAD ADD PUSH2 0x125B SWAP2 PUSH2 0x7209 JUMP JUMPDEST PUSH1 0x80 MLOAD DUP1 DUP3 SUB SWAP1 PUSH1 0xE0 ADD MSTORE PUSH2 0x126F SWAP2 PUSH2 0x7209 JUMP JUMPDEST SWAP1 PUSH1 0x80 MLOAD PUSH2 0x100 ADD MSTORE PUSH1 0x80 MLOAD DUP1 DUP3 SUB SWAP1 PUSH2 0x120 ADD MSTORE PUSH2 0x128D SWAP2 PUSH2 0x7209 JUMP JUMPDEST SWAP1 PUSH1 0x80 MLOAD PUSH2 0x140 ADD MSTORE PUSH1 0x80 MLOAD DUP1 DUP3 SUB SWAP1 PUSH2 0x160 ADD MSTORE PUSH2 0x12AB SWAP2 PUSH2 0x7209 JUMP JUMPDEST SWAP2 PUSH1 0x80 MLOAD PUSH2 0x180 ADD MSTORE PUSH1 0x80 MLOAD PUSH2 0x1A0 ADD MSTORE PUSH1 0x80 MLOAD DUP1 DUP3 SUB SWAP1 PUSH2 0x1C0 ADD MSTORE PUSH2 0x12D1 SWAP2 PUSH2 0x7209 JUMP JUMPDEST SWAP1 ISZERO ISZERO PUSH1 0x80 MLOAD PUSH2 0x1E0 ADD MSTORE PUSH1 0x80 MLOAD DUP1 SWAP2 SUB SWAP1 RETURN JUMPDEST CALLVALUE PUSH2 0x159 JUMPI PUSH1 0x0 CALLDATASIZE PUSH1 0x3 NOT ADD SLT PUSH2 0x159 JUMPI PUSH2 0x12FE PUSH2 0x72A2 JUMP JUMPDEST PUSH1 0x0 DUP1 SLOAD PUSH1 0x1 PUSH1 0x1 PUSH1 0xA0 SHL SUB NOT DUP2 AND DUP3 SSTORE PUSH1 0x1 PUSH1 0x1 PUSH1 0xA0 SHL SUB AND PUSH32 0x8BE0079C531659141344CD1FD0A4F28419497F9722A3DAAFE3B4186F6B6457E0 DUP3 DUP1 LOG3 STOP JUMPDEST CALLVALUE PUSH2 0x159 JUMPI PUSH1 0x60 CALLDATASIZE PUSH1 0x3 NOT ADD SLT PUSH2 0x159 JUMPI PUSH1 0x24 CALLDATALOAD PUSH1 0x1 PUSH1 0x1 PUSH1 0x40 SHL SUB DUP2 GT PUSH2 0x159 JUMPI PUSH2 0x136E SWAP1 CALLDATASIZE SWAP1 PUSH1 0x4 ADD PUSH2 0x6F4B JUMP JUMPDEST PUSH1 0x44 CALLDATALOAD PUSH1 0x1 PUSH1 0x1 PUSH1 0x40 SHL SUB DUP2 GT PUSH2 0x159 JUMPI PUSH2 0x138D SWAP1 CALLDATASIZE SWAP1 PUSH1 0x4 ADD PUSH2 0x6F4B JUMP JUMPDEST PUSH1 0x4 CALLDATALOAD PUSH1 0x0 MSTORE PUSH1 0x1 PUSH1 0x20 MSTORE PUSH2 0x13AC PUSH1 0xFF PUSH1 0x10 PUSH1 0x40 PUSH1 0x0 KECCAK256 ADD SLOAD AND PUSH2 0x731A JUMP JUMPDEST PUSH1 0x4 CALLDATALOAD PUSH1 0x0 SWAP1 DUP2 MSTORE PUSH1 0x1 PUSH1 0x20 MSTORE PUSH1 0x40 SWAP1 KECCAK256 PUSH1 0x5 ADD SLOAD PUSH1 0x1 PUSH1 0x1 PUSH1 0xA0 SHL SUB AND CALLER SUB PUSH2 0x1C6B JUMPI PUSH1 0x40 MLOAD PUSH2 0x13DC DUP2 PUSH2 0x6F0F JUMP JUMPDEST PUSH1 0x0 DUP2 MSTORE PUSH1 0x40 MLOAD SWAP1 PUSH2 0x13ED DUP3 PUSH2 0x6F0F JUMP JUMPDEST PUSH1 0x0 DUP3 MSTORE PUSH1 0x40 MLOAD SWAP3 PUSH2 0x13FE DUP5 PUSH2 0x6F0F JUMP JUMPDEST PUSH1 0x0 DUP5 MSTORE PUSH1 0x4 CALLDATALOAD PUSH1 0x0 MSTORE PUSH1 0x1 PUSH1 0x20 MSTORE PUSH2 0x1421 PUSH1 0xFF PUSH1 0x10 PUSH1 0x40 PUSH1 0x0 KECCAK256 ADD SLOAD AND PUSH2 0x731A JUMP JUMPDEST PUSH1 0x4 CALLDATALOAD PUSH1 0x0 MSTORE PUSH1 0x1 PUSH1 0x20 MSTORE PUSH1 0x40 PUSH1 0x0 KECCAK256 PUSH1 0x40 MLOAD SWAP1 PUSH2 0x143E DUP3 PUSH2 0x6EBC JUMP JUMPDEST DUP1 SLOAD DUP3 MSTORE PUSH1 0x1 DUP2 ADD SLOAD PUSH1 0x20 DUP4 ADD MSTORE PUSH1 0x2 DUP2 ADD SLOAD PUSH1 0x40 DUP4 ADD MSTORE PUSH1 0x3 DUP2 ADD SLOAD PUSH1 0x1 PUSH1 0x1 PUSH1 0xA0 SHL SUB SWAP1 DUP2 AND PUSH1 0x60 DUP5 ADD SWAP1 DUP2 MSTORE PUSH1 0x4 DUP4 ADD SLOAD DUP3 AND PUSH1 0x80 DUP6 ADD SWAP1 DUP2 MSTORE PUSH1 0x5 DUP5 ADD SLOAD SWAP1 SWAP3 AND PUSH1 0xA0 DUP6 ADD SWAP1 DUP2 MSTORE SWAP2 SWAP4 SWAP2 SWAP3 SWAP1 SWAP2 SWAP1 PUSH2 0x200 SWAP1 PUSH1 0xFF SWAP1 PUSH1 0x10 SWAP1 PUSH2 0x14A7 PUSH1 0x6 DUP3 ADD PUSH2 0x7163 JUMP JUMPDEST PUSH1 0xC0 DUP7 ADD MSTORE PUSH2 0x14B8 PUSH1 0x7 DUP3 ADD PUSH2 0x7163 JUMP JUMPDEST PUSH1 0xE0 DUP7 ADD MSTORE PUSH1 0x8 DUP2 ADD SLOAD PUSH2 0x100 DUP7 ADD MSTORE PUSH2 0x14D4 PUSH1 0x9 DUP3 ADD PUSH2 0x7163 JUMP JUMPDEST PUSH2 0x120 DUP7 ADD MSTORE PUSH1 0xA DUP2 ADD SLOAD PUSH2 0x140 DUP7 ADD MSTORE PUSH2 0x14F1 PUSH1 0xB DUP3 ADD PUSH2 0x7163 JUMP JUMPDEST PUSH2 0x160 DUP7 ADD MSTORE PUSH1 0xC DUP2 ADD SLOAD PUSH2 0x180 DUP7 ADD MSTORE PUSH1 0xD DUP2 ADD SLOAD PUSH2 0x1A0 DUP7 ADD MSTORE PUSH2 0x1519 PUSH1 0xE DUP3 ADD PUSH2 0x735F JUMP JUMPDEST PUSH2 0x1C0 DUP7 ADD MSTORE PUSH2 0x152B PUSH1 0xF DUP3 ADD PUSH2 0x7163 JUMP JUMPDEST PUSH2 0x1E0 DUP7 ADD MSTORE ADD SLOAD AND ISZERO ISZERO SWAP2 ADD MSTORE MLOAD PUSH1 0x1 PUSH1 0x1 PUSH1 0xA0 SHL SUB AND CALLER EQ SWAP2 DUP3 ISZERO PUSH2 0x1C57 JUMPI JUMPDEST POP DUP2 ISZERO PUSH2 0x1C43 JUMPI JUMPDEST POP DUP1 ISZERO PUSH2 0x1C2F JUMPI JUMPDEST PUSH2 0x1566 SWAP1 PUSH2 0x73B4 JUMP JUMPDEST PUSH1 0x40 MLOAD SWAP5 PUSH2 0x1573 DUP7 PUSH2 0x6ED8 JUMP JUMPDEST PUSH1 0x6 DUP7 MSTORE CALLER PUSH1 0x20 DUP8 ADD MSTORE TIMESTAMP PUSH1 0x40 DUP8 ADD MSTORE PUSH1 0x60 DUP7 ADD MSTORE PUSH1 0x80 DUP6 ADD MSTORE PUSH1 0xA0 DUP5 ADD MSTORE PUSH1 0xC0 DUP4 ADD MSTORE PUSH1 0xE0 DUP3 ADD MSTORE PUSH1 0x4 CALLDATALOAD PUSH1 0x0 MSTORE PUSH1 0x2 PUSH1 0x20 MSTORE PUSH1 0x40 PUSH1 0x0 KECCAK256 DUP1 SLOAD PUSH1 0x1 PUSH1 0x40 SHL DUP2 LT ISZERO PUSH2 0xB82 JUMPI PUSH2 0x15C9 SWAP2 PUSH1 0x1 DUP3 ADD DUP2 SSTORE PUSH2 0x70F7 JUMP JUMPDEST PUSH2 0xF44 JUMPI DUP2 MLOAD PUSH1 0x7 DUP2 LT ISZERO PUSH2 0xF2E JUMPI DUP2 SLOAD PUSH1 0x20 DUP5 ADD MLOAD PUSH2 0x100 PUSH1 0x1 PUSH1 0xA8 SHL SUB PUSH1 0x8 SWAP2 SWAP1 SWAP2 SHL AND PUSH1 0xFF SWAP3 SWAP1 SWAP3 AND PUSH1 0x1 PUSH1 0x1 PUSH1 0xA8 SHL SUB NOT SWAP1 SWAP2 AND OR OR DUP2 SSTORE PUSH1 0x40 DUP3 ADD MLOAD PUSH1 0x1 DUP3 ADD SSTORE PUSH1 0x60 DUP3 ADD MLOAD DUP1 MLOAD SWAP1 SWAP3 SWAP1 PUSH1 0x1 PUSH1 0x1 PUSH1 0x40 SHL SUB DUP2 GT PUSH2 0xB82 JUMPI PUSH2 0x1634 PUSH1 0x2 DUP5 ADD SLOAD PUSH2 0x7129 JUMP JUMPDEST PUSH1 0x1F DUP2 GT PUSH2 0x1BFA JUMPI JUMPDEST POP PUSH1 0x20 PUSH1 0x1F DUP3 GT PUSH1 0x1 EQ PUSH2 0x1B8C JUMPI DUP2 SWAP3 SWAP4 SWAP5 PUSH1 0x0 SWAP3 PUSH2 0x1B81 JUMPI JUMPDEST POP POP DUP2 PUSH1 0x1 SHL SWAP2 PUSH1 0x0 NOT SWAP1 PUSH1 0x3 SHL SHR NOT AND OR PUSH1 0x2 DUP4 ADD SSTORE JUMPDEST PUSH1 0x80 DUP2 ADD MLOAD SWAP2 DUP3 MLOAD PUSH1 0x1 PUSH1 0x1 PUSH1 0x40 SHL SUB DUP2 GT PUSH2 0xB82 JUMPI PUSH2 0x1692 PUSH1 0x3 DUP4 ADD SLOAD PUSH2 0x7129 JUMP JUMPDEST PUSH1 0x1F DUP2 GT PUSH2 0x1B4C JUMPI JUMPDEST POP PUSH1 0x20 PUSH1 0x1F DUP3 GT PUSH1 0x1 EQ PUSH2 0x1ADE JUMPI DUP2 SWAP3 SWAP4 SWAP5 PUSH1 0x0 SWAP3 PUSH2 0x1AD3 JUMPI JUMPDEST POP POP DUP2 PUSH1 0x1 SHL SWAP2 PUSH1 0x0 NOT SWAP1 PUSH1 0x3 SHL SHR NOT AND OR PUSH1 0x3 DUP3 ADD SSTORE JUMPDEST PUSH1 0xA0 DUP3 ADD MLOAD DUP1 MLOAD SWAP1 PUSH1 0x1 PUSH1 0x40 SHL DUP3 GT PUSH2 0xB82 JUMPI PUSH1 0x4 DUP4 ADD SLOAD DUP3 PUSH1 0x4 DUP6 ADD SSTORE DUP1 DUP4 LT PUSH2 0x1A5B JUMPI JUMPDEST POP PUSH1 0x20 ADD SWAP1 PUSH1 0x4 DUP4 ADD PUSH1 0x0 MSTORE PUSH1 0x20 PUSH1 0x0 KECCAK256 SWAP2 PUSH1 0x0 SWAP1 JUMPDEST DUP3 DUP3 LT PUSH2 0x1946 JUMPI DUP6 DUP6 PUSH1 0xC0 DUP3 ADD MLOAD DUP1 MLOAD SWAP1 PUSH1 0x1 PUSH1 0x1 PUSH1 0x40 SHL SUB DUP3 GT PUSH2 0xB82 JUMPI PUSH2 0x1735 PUSH1 0x5 DUP5 ADD SLOAD PUSH2 0x7129 JUMP JUMPDEST PUSH1 0x1F DUP2 GT PUSH2 0x1911 JUMPI JUMPDEST POP PUSH1 0x20 SWAP1 PUSH1 0x1F DUP4 GT PUSH1 0x1 EQ PUSH2 0x189C JUMPI SWAP2 DUP1 PUSH1 0xE0 SWAP5 SWAP3 PUSH1 0x6 SWAP5 PUSH1 0x0 SWAP3 PUSH2 0x1891 JUMPI JUMPDEST POP POP DUP2 PUSH1 0x1 SHL SWAP2 PUSH1 0x0 NOT SWAP1 PUSH1 0x3 SHL SHR NOT AND OR PUSH1 0x5 DUP3 ADD SSTORE JUMPDEST ADD SWAP2 ADD MLOAD SWAP1 DUP2 MLOAD PUSH1 0x1 PUSH1 0x1 PUSH1 0x40 SHL SUB DUP2 GT PUSH2 0xB82 JUMPI PUSH2 0x1795 DUP3 SLOAD PUSH2 0x7129 JUMP JUMPDEST PUSH1 0x1F DUP2 GT PUSH2 0x185F JUMPI JUMPDEST POP PUSH1 0x20 SWAP3 PUSH1 0x1F DUP3 GT PUSH1 0x1 EQ PUSH2 0x17FB JUMPI SWAP3 DUP2 SWAP3 SWAP4 PUSH1 0x0 SWAP3 PUSH2 0x17F0 JUMPI JUMPDEST POP POP DUP2 PUSH1 0x1 SHL SWAP2 PUSH1 0x0 NOT SWAP1 PUSH1 0x3 SHL SHR NOT AND OR SWAP1 SSTORE JUMPDEST PUSH1 0x40 MLOAD TIMESTAMP DUP2 MSTORE PUSH1 0x6 CALLER SWAP2 PUSH1 0x0 DUP1 MLOAD PUSH1 0x20 PUSH2 0x76D4 DUP4 CODECOPY DUP2 MLOAD SWAP2 MSTORE PUSH1 0x20 PUSH1 0x4 CALLDATALOAD SWAP3 LOG4 STOP JUMPDEST ADD MLOAD SWAP1 POP DUP4 DUP1 PUSH2 0x17B9 JUMP JUMPDEST PUSH1 0x1F NOT DUP3 AND SWAP4 DUP4 PUSH1 0x0 MSTORE PUSH1 0x20 PUSH1 0x0 KECCAK256 SWAP2 PUSH1 0x0 JUMPDEST DUP7 DUP2 LT PUSH2 0x1847 JUMPI POP DUP4 PUSH1 0x1 SWAP6 SWAP7 LT PUSH2 0x182E JUMPI JUMPDEST POP POP POP DUP2 SHL ADD SWAP1 SSTORE PUSH2 0x17CE JUMP JUMPDEST ADD MLOAD PUSH1 0x0 NOT PUSH1 0xF8 DUP5 PUSH1 0x3 SHL AND SHR NOT AND SWAP1 SSTORE DUP4 DUP1 DUP1 PUSH2 0x1821 JUMP JUMPDEST SWAP2 SWAP3 PUSH1 0x20 PUSH1 0x1 DUP2 SWAP3 DUP7 DUP6 ADD MLOAD DUP2 SSTORE ADD SWAP5 ADD SWAP3 ADD PUSH2 0x180E JUMP JUMPDEST PUSH2 0x188B SWAP1 DUP4 PUSH1 0x0 MSTORE PUSH1 0x20 PUSH1 0x0 KECCAK256 PUSH1 0x1F DUP5 ADD PUSH1 0x5 SHR DUP2 ADD SWAP2 PUSH1 0x20 DUP6 LT PUSH2 0xB78 JUMPI PUSH1 0x1F ADD PUSH1 0x5 SHR ADD SWAP1 PUSH2 0x72CE JUMP JUMPDEST DUP4 PUSH2 0x179E JUMP JUMPDEST ADD MLOAD SWAP1 POP DUP7 DUP1 PUSH2 0x175E JUMP JUMPDEST SWAP1 PUSH1 0x5 DUP5 ADD PUSH1 0x0 MSTORE PUSH1 0x20 PUSH1 0x0 KECCAK256 SWAP2 PUSH1 0x0 JUMPDEST PUSH1 0x1F NOT DUP6 AND DUP2 LT PUSH2 0x18F9 JUMPI POP SWAP3 PUSH1 0xE0 SWAP5 SWAP3 PUSH1 0x1 SWAP3 PUSH1 0x6 SWAP6 DUP4 PUSH1 0x1F NOT DUP2 AND LT PUSH2 0x18E0 JUMPI JUMPDEST POP POP POP DUP2 SHL ADD PUSH1 0x5 DUP3 ADD SSTORE PUSH2 0x1776 JUMP JUMPDEST ADD MLOAD PUSH1 0x0 NOT PUSH1 0xF8 DUP5 PUSH1 0x3 SHL AND SHR NOT AND SWAP1 SSTORE DUP7 DUP1 DUP1 PUSH2 0x18D0 JUMP JUMPDEST SWAP2 SWAP3 PUSH1 0x20 PUSH1 0x1 DUP2 SWAP3 DUP7 DUP6 ADD MLOAD DUP2 SSTORE ADD SWAP5 ADD SWAP3 ADD PUSH2 0x18AD JUMP JUMPDEST PUSH2 0x1940 SWAP1 PUSH1 0x5 DUP6 ADD PUSH1 0x0 MSTORE PUSH1 0x20 PUSH1 0x0 KECCAK256 PUSH1 0x1F DUP6 ADD PUSH1 0x5 SHR DUP2 ADD SWAP2 PUSH1 0x20 DUP7 LT PUSH2 0xB78 JUMPI PUSH1 0x1F ADD PUSH1 0x5 SHR ADD SWAP1 PUSH2 0x72CE JUMP JUMPDEST DUP5 PUSH2 0x173E JUMP JUMPDEST DUP1 MLOAD DUP1 MLOAD SWAP1 PUSH1 0x1 PUSH1 0x1 PUSH1 0x40 SHL SUB DUP3 GT PUSH2 0xB82 JUMPI PUSH2 0x1963 DUP7 SLOAD PUSH2 0x7129 JUMP JUMPDEST PUSH1 0x1F DUP2 GT PUSH2 0x1A29 JUMPI JUMPDEST POP PUSH1 0x20 SWAP1 PUSH1 0x1F DUP4 GT PUSH1 0x1 EQ PUSH2 0x19B9 JUMPI SWAP3 DUP3 PUSH1 0x1 SWAP5 SWAP4 PUSH1 0x20 SWAP4 DUP7 SWAP6 PUSH1 0x0 SWAP3 PUSH2 0x19AE JUMPI JUMPDEST POP POP PUSH1 0x0 NOT PUSH1 0x3 DUP4 SWAP1 SHL SHR NOT AND SWAP1 DUP5 SHL OR DUP8 SSTORE JUMPDEST ADD SWAP5 ADD SWAP2 ADD SWAP1 SWAP3 PUSH2 0x1709 JUMP JUMPDEST ADD MLOAD SWAP1 POP DUP12 DUP1 PUSH2 0x198E JUMP JUMPDEST SWAP1 DUP7 PUSH1 0x0 MSTORE PUSH1 0x20 PUSH1 0x0 KECCAK256 SWAP2 PUSH1 0x0 JUMPDEST PUSH1 0x1F NOT DUP6 AND DUP2 LT PUSH2 0x1A11 JUMPI POP DUP4 PUSH1 0x20 SWAP4 PUSH1 0x1 SWAP7 SWAP4 DUP8 SWAP7 SWAP4 DUP8 SWAP5 PUSH1 0x1F NOT DUP2 AND LT PUSH2 0x19F8 JUMPI JUMPDEST POP POP POP DUP2 SHL ADD DUP8 SSTORE PUSH2 0x19A2 JUMP JUMPDEST ADD MLOAD PUSH1 0x0 NOT PUSH1 0xF8 DUP5 PUSH1 0x3 SHL AND SHR NOT AND SWAP1 SSTORE DUP12 DUP1 DUP1 PUSH2 0x19EB JUMP JUMPDEST SWAP2 SWAP3 PUSH1 0x20 PUSH1 0x1 DUP2 SWAP3 DUP7 DUP6 ADD MLOAD DUP2 SSTORE ADD SWAP5 ADD SWAP3 ADD PUSH2 0x19C7 JUMP JUMPDEST PUSH2 0x1A55 SWAP1 DUP8 PUSH1 0x0 MSTORE PUSH1 0x20 PUSH1 0x0 KECCAK256 PUSH1 0x1F DUP6 ADD PUSH1 0x5 SHR DUP2 ADD SWAP2 PUSH1 0x20 DUP7 LT PUSH2 0xB78 JUMPI PUSH1 0x1F ADD PUSH1 0x5 SHR ADD SWAP1 PUSH2 0x72CE JUMP JUMPDEST DUP9 PUSH2 0x196C JUMP JUMPDEST PUSH1 0x4 DUP5 ADD PUSH1 0x0 MSTORE PUSH1 0x20 PUSH1 0x0 KECCAK256 SWAP1 DUP4 DUP3 ADD JUMPDEST DUP2 DUP4 ADD DUP2 LT PUSH2 0x1A7C JUMPI POP POP PUSH2 0x16F3 JUMP JUMPDEST DUP1 PUSH2 0x1A89 PUSH1 0x1 SWAP3 SLOAD PUSH2 0x7129 JUMP JUMPDEST DUP1 PUSH2 0x1A96 JUMPI JUMPDEST POP ADD PUSH2 0x1A6C JUMP JUMPDEST PUSH1 0x1F DUP2 GT DUP4 EQ PUSH2 0x1AAC JUMPI POP PUSH1 0x0 DUP2 SSTORE JUMPDEST DUP9 PUSH2 0x1A8F JUMP JUMPDEST PUSH1 0x0 SWAP1 DUP3 DUP3 MSTORE PUSH2 0x1ACA PUSH1 0x1F PUSH1 0x20 DUP5 KECCAK256 SWAP3 ADD PUSH1 0x5 SHR DUP3 ADD DUP6 DUP4 ADD PUSH2 0x72CE JUMP JUMPDEST DUP2 DUP4 SSTORE SSTORE PUSH2 0x1AA6 JUMP JUMPDEST ADD MLOAD SWAP1 POP DUP5 DUP1 PUSH2 0x16B5 JUMP JUMPDEST PUSH1 0x3 DUP4 ADD PUSH1 0x0 MSTORE PUSH1 0x20 PUSH1 0x0 KECCAK256 SWAP1 PUSH1 0x0 JUMPDEST PUSH1 0x1F NOT DUP5 AND DUP2 LT PUSH2 0x1B34 JUMPI POP PUSH1 0x1 SWAP4 SWAP5 SWAP6 DUP4 PUSH1 0x1F NOT DUP2 AND LT PUSH2 0x1B1B JUMPI JUMPDEST POP POP POP DUP2 SHL ADD PUSH1 0x3 DUP3 ADD SSTORE PUSH2 0x16CD JUMP JUMPDEST ADD MLOAD PUSH1 0x0 NOT PUSH1 0xF8 DUP5 PUSH1 0x3 SHL AND SHR NOT AND SWAP1 SSTORE DUP5 DUP1 DUP1 PUSH2 0x1B0B JUMP JUMPDEST SWAP1 SWAP2 PUSH1 0x20 PUSH1 0x1 DUP2 SWAP3 DUP6 DUP11 ADD MLOAD DUP2 SSTORE ADD SWAP4 ADD SWAP2 ADD PUSH2 0x1AEE JUMP JUMPDEST PUSH2 0x1B7B SWAP1 PUSH1 0x3 DUP5 ADD PUSH1 0x0 MSTORE PUSH1 0x20 PUSH1 0x0 KECCAK256 PUSH1 0x1F DUP5 ADD PUSH1 0x5 SHR DUP2 ADD SWAP2 PUSH1 0x20 DUP6 LT PUSH2 0xB78 JUMPI PUSH1 0x1F ADD PUSH1 0x5 SHR ADD SWAP1 PUSH2 0x72CE JUMP JUMPDEST DUP5 PUSH2 0x169B JUMP JUMPDEST ADD MLOAD SWAP1 POP DUP5 DUP1 PUSH2 0x1657 JUMP JUMPDEST PUSH1 0x2 DUP5 ADD PUSH1 0x0 MSTORE PUSH1 0x20 PUSH1 0x0 KECCAK256 SWAP1 PUSH1 0x0 JUMPDEST PUSH1 0x1F NOT DUP5 AND DUP2 LT PUSH2 0x1BE2 JUMPI POP PUSH1 0x1 SWAP4 SWAP5 SWAP6 DUP4 PUSH1 0x1F NOT DUP2 AND LT PUSH2 0x1BC9 JUMPI JUMPDEST POP POP POP DUP2 SHL ADD PUSH1 0x2 DUP4 ADD SSTORE PUSH2 0x166F JUMP JUMPDEST ADD MLOAD PUSH1 0x0 NOT PUSH1 0xF8 DUP5 PUSH1 0x3 SHL AND SHR NOT AND SWAP1 SSTORE DUP5 DUP1 DUP1 PUSH2 0x1BB9 JUMP JUMPDEST SWAP1 SWAP2 PUSH1 0x20 PUSH1 0x1 DUP2 SWAP3 DUP6 DUP11 ADD MLOAD DUP2 SSTORE ADD SWAP4 ADD SWAP2 ADD PUSH2 0x1B9C JUMP JUMPDEST PUSH2 0x1C29 SWAP1 PUSH1 0x2 DUP6 ADD PUSH1 0x0 MSTORE PUSH1 0x20 PUSH1 0x0 KECCAK256 PUSH1 0x1F DUP5 ADD PUSH1 0x5 SHR DUP2 ADD SWAP2 PUSH1 0x20 DUP6 LT PUSH2 0xB78 JUMPI PUSH1 0x1F ADD PUSH1 0x5 SHR ADD SWAP1 PUSH2 0x72CE JUMP JUMPDEST DUP5 PUSH2 0x163D JUMP JUMPDEST POP PUSH1 0x0 SLOAD PUSH1 0x1 PUSH1 0x1 PUSH1 0xA0 SHL SUB AND CALLER EQ PUSH2 0x155D JUMP JUMPDEST MLOAD PUSH1 0x1 PUSH1 0x1 PUSH1 0xA0 SHL SUB AND CALLER EQ SWAP1 POP DUP7 PUSH2 0x1555 JUMP JUMPDEST MLOAD PUSH1 0x1 PUSH1 0x1 PUSH1 0xA0 SHL SUB AND CALLER EQ SWAP2 POP DUP8 PUSH2 0x154D JUMP JUMPDEST PUSH1 0x40 MLOAD PUSH3 0x461BCD PUSH1 0xE5 SHL DUP2 MSTORE PUSH1 0x20 PUSH1 0x4 DUP3 ADD MSTORE PUSH1 0x27 PUSH1 0x24 DUP3 ADD MSTORE PUSH32 0x4F6E6C792072657461696C65722063616E206D61726B2072657461696C206176 PUSH1 0x44 DUP3 ADD MSTORE PUSH7 0x61696C61626C65 PUSH1 0xC8 SHL PUSH1 0x64 DUP3 ADD MSTORE PUSH1 0x84 SWAP1 REVERT JUMPDEST CALLVALUE PUSH2 0x159 JUMPI PUSH1 0x20 CALLDATASIZE PUSH1 0x3 NOT ADD SLT PUSH2 0x159 JUMPI PUSH1 0x4 CALLDATALOAD DUP1 PUSH1 0x0 MSTORE PUSH1 0x1 PUSH1 0x20 MSTORE PUSH2 0x1CF1 PUSH1 0xFF PUSH1 0x10 PUSH1 0x40 PUSH1 0x0 KECCAK256 ADD SLOAD AND PUSH2 0x731A JUMP JUMPDEST PUSH1 0x0 MSTORE PUSH1 0x1 PUSH1 0x20 MSTORE PUSH1 0x20 PUSH1 0xD PUSH1 0x40 PUSH1 0x0 KECCAK256 ADD SLOAD TIMESTAMP GT PUSH1 0x40 MLOAD SWAP1 DUP2 MSTORE RETURN JUMPDEST CALLVALUE PUSH2 0x159 JUMPI PUSH1 0x20 DUP1 PUSH1 0x3 NOT CALLDATASIZE ADD SLT PUSH2 0x159 JUMPI PUSH1 0x4 CALLDATALOAD PUSH1 0x0 MSTORE PUSH1 0x2 SWAP1 DUP2 DUP2 MSTORE PUSH1 0x40 PUSH1 0x0 KECCAK256 DUP1 SLOAD PUSH2 0x1D3C DUP2 PUSH2 0x6FC4 JUMP JUMPDEST SWAP4 PUSH2 0x1D4A PUSH1 0x40 MLOAD SWAP6 DUP7 PUSH2 0x6F2A JUMP JUMPDEST DUP2 DUP6 MSTORE PUSH1 0x0 SWAP3 DUP4 MSTORE DUP4 DUP4 KECCAK256 DUP5 DUP7 ADD SWAP4 SWAP2 DUP5 JUMPDEST DUP5 DUP5 LT PUSH2 0x1E4E JUMPI PUSH1 0x40 DUP1 MLOAD DUP9 DUP2 MSTORE DUP10 MLOAD DUP2 DUP11 ADD DUP2 SWAP1 MSTORE PUSH1 0x0 SWAP3 PUSH1 0x5 DUP3 SWAP1 SHL DUP4 ADD DUP2 ADD SWAP2 DUP11 SWAP2 DUP13 SWAP1 DUP6 ADD JUMPDEST DUP3 DUP8 LT PUSH2 0x1D93 JUMPI DUP6 DUP6 SUB DUP7 RETURN JUMPDEST SWAP1 SWAP2 SWAP3 SWAP4 DUP3 DUP1 PUSH2 0x1E3E PUSH1 0x1 SWAP4 PUSH1 0x3F NOT DUP11 DUP3 SUB ADD DUP7 MSTORE DUP9 MLOAD SWAP1 PUSH2 0x1DB6 DUP2 DUP4 MLOAD PUSH2 0x7087 JUMP JUMPDEST DUP6 DUP1 PUSH1 0xA0 SHL SUB DUP5 DUP4 ADD MLOAD AND DUP5 DUP3 ADD MSTORE PUSH1 0x40 DUP3 ADD MLOAD PUSH1 0x40 DUP3 ADD MSTORE PUSH1 0xE0 PUSH2 0x1E2D PUSH2 0x1E1A PUSH2 0x1E07 PUSH2 0x1DF4 PUSH1 0x60 DUP1 DUP9 ADD MLOAD SWAP1 PUSH2 0x100 DUP1 SWAP2 DUP10 ADD MSTORE DUP8 ADD SWAP1 PUSH2 0x7209 JUMP JUMPDEST PUSH1 0x80 DUP1 DUP9 ADD MLOAD SWAP1 DUP8 DUP4 SUB SWAP1 DUP9 ADD MSTORE PUSH2 0x7209 JUMP JUMPDEST PUSH1 0xA0 DUP1 DUP8 ADD MLOAD SWAP1 DUP7 DUP4 SUB SWAP1 DUP8 ADD MSTORE PUSH2 0x722E JUMP JUMPDEST PUSH1 0xC0 DUP1 DUP7 ADD MLOAD SWAP1 DUP6 DUP4 SUB SWAP1 DUP7 ADD MSTORE PUSH2 0x7209 JUMP JUMPDEST SWAP3 ADD MLOAD SWAP1 PUSH1 0xE0 DUP2 DUP5 SUB SWAP2 ADD MSTORE PUSH2 0x7209 JUMP JUMPDEST SWAP7 ADD SWAP3 ADD SWAP7 ADD SWAP6 SWAP3 SWAP2 SWAP1 SWAP3 PUSH2 0x1D86 JUMP JUMPDEST PUSH1 0x7 DUP8 PUSH1 0x1 SWAP3 PUSH1 0x40 SWAP11 SWAP10 SWAP11 MLOAD PUSH2 0x1E63 DUP2 PUSH2 0x6ED8 JUMP JUMPDEST DUP7 SLOAD PUSH2 0x1E72 PUSH1 0xFF DUP3 AND DUP4 PUSH2 0x7400 JUMP JUMPDEST DUP6 DUP1 PUSH1 0xA0 SHL SUB SWAP1 PUSH1 0x8 SHR AND DUP4 DUP3 ADD MSTORE DUP5 DUP8 ADD SLOAD PUSH1 0x40 DUP3 ADD MSTORE PUSH2 0x1E95 DUP7 DUP9 ADD PUSH2 0x7163 JUMP JUMPDEST PUSH1 0x60 DUP3 ADD MSTORE PUSH2 0x1EA6 PUSH1 0x3 DUP9 ADD PUSH2 0x7163 JUMP JUMPDEST PUSH1 0x80 DUP3 ADD MSTORE PUSH2 0x1EB7 PUSH1 0x4 DUP9 ADD PUSH2 0x735F JUMP JUMPDEST PUSH1 0xA0 DUP3 ADD MSTORE PUSH2 0x1EC8 PUSH1 0x5 DUP9 ADD PUSH2 0x7163 JUMP JUMPDEST PUSH1 0xC0 DUP3 ADD MSTORE PUSH2 0x1ED9 PUSH1 0x6 DUP9 ADD PUSH2 0x7163 JUMP JUMPDEST PUSH1 0xE0 DUP3 ADD MSTORE DUP2 MSTORE ADD SWAP4 ADD SWAP4 ADD SWAP3 SWAP2 SWAP7 SWAP6 SWAP7 PUSH2 0x1D5C JUMP JUMPDEST CALLVALUE PUSH2 0x159 JUMPI PUSH2 0x1EFD CALLDATASIZE PUSH2 0x7094 JUMP JUMPDEST SWAP2 PUSH1 0x40 MLOAD SWAP2 PUSH2 0x1F0B DUP4 PUSH2 0x6F0F JUMP JUMPDEST PUSH1 0x0 DUP4 MSTORE PUSH1 0x40 MLOAD PUSH2 0x1F1B DUP2 PUSH2 0x6F0F JUMP JUMPDEST PUSH1 0x0 DUP2 MSTORE DUP6 PUSH1 0x0 MSTORE PUSH1 0x1 PUSH1 0x20 MSTORE PUSH2 0x1F3C PUSH1 0xFF PUSH1 0x10 PUSH1 0x40 PUSH1 0x0 KECCAK256 ADD SLOAD AND PUSH2 0x731A JUMP JUMPDEST DUP6 PUSH1 0x0 MSTORE PUSH1 0x1 PUSH1 0x20 MSTORE PUSH1 0x40 PUSH1 0x0 KECCAK256 PUSH1 0x40 MLOAD SWAP1 PUSH2 0x1F57 DUP3 PUSH2 0x6EBC JUMP JUMPDEST DUP1 SLOAD DUP3 MSTORE PUSH1 0x1 DUP2 ADD SLOAD PUSH1 0x20 DUP4 ADD MSTORE PUSH1 0x2 DUP2 ADD SLOAD PUSH1 0x40 DUP4 ADD MSTORE PUSH1 0x3 DUP2 ADD SLOAD PUSH1 0x1 PUSH1 0x1 PUSH1 0xA0 SHL SUB SWAP1 DUP2 AND PUSH1 0x60 DUP5 ADD MSTORE PUSH1 0x4 DUP3 ADD SLOAD DUP2 AND PUSH1 0x80 DUP5 ADD MSTORE PUSH1 0x5 DUP3 ADD SLOAD AND PUSH1 0xA0 DUP4 ADD SWAP1 DUP2 MSTORE SWAP1 PUSH1 0xFF SWAP1 PUSH1 0x10 SWAP1 PUSH2 0x1FB0 PUSH1 0x6 DUP3 ADD PUSH2 0x7163 JUMP JUMPDEST PUSH1 0xC0 DUP7 ADD MSTORE PUSH2 0x1FC1 PUSH1 0x7 DUP3 ADD PUSH2 0x7163 JUMP JUMPDEST PUSH1 0xE0 DUP7 ADD MSTORE PUSH1 0x8 DUP2 ADD SLOAD PUSH2 0x100 DUP7 ADD MSTORE PUSH2 0x1FDD PUSH1 0x9 DUP3 ADD PUSH2 0x7163 JUMP JUMPDEST PUSH2 0x120 DUP7 ADD MSTORE PUSH1 0xA DUP2 ADD SLOAD PUSH2 0x140 DUP7 ADD MSTORE PUSH2 0x1FFA PUSH1 0xB DUP3 ADD PUSH2 0x7163 JUMP JUMPDEST PUSH2 0x160 DUP7 ADD MSTORE PUSH1 0xC DUP2 ADD SLOAD PUSH2 0x180 DUP7 ADD MSTORE PUSH1 0xD DUP2 ADD SLOAD PUSH2 0x1A0 DUP7 ADD MSTORE PUSH2 0x2022 PUSH1 0xE DUP3 ADD PUSH2 0x735F JUMP JUMPDEST PUSH2 0x1C0 DUP7 ADD MSTORE PUSH2 0x2034 PUSH1 0xF DUP3 ADD PUSH2 0x7163 JUMP JUMPDEST PUSH2 0x1E0 DUP7 ADD MSTORE ADD SLOAD AND ISZERO ISZERO PUSH2 0x200 DUP4 ADD MSTORE PUSH1 0x60 DUP3 ADD MLOAD PUSH1 0x1 PUSH1 0x1 PUSH1 0xA0 SHL SUB AND CALLER EQ SWAP2 DUP3 ISZERO PUSH2 0x2768 JUMPI JUMPDEST POP DUP2 ISZERO PUSH2 0x2754 JUMPI JUMPDEST POP DUP1 ISZERO PUSH2 0x2740 JUMPI JUMPDEST PUSH2 0x2076 SWAP1 PUSH2 0x73B4 JUMP JUMPDEST PUSH1 0x40 MLOAD SWAP4 PUSH2 0x2083 DUP6 PUSH2 0x6ED8 JUMP JUMPDEST PUSH1 0x1 DUP6 MSTORE PUSH1 0x20 DUP6 ADD SWAP6 CALLER DUP8 MSTORE PUSH1 0x40 DUP7 ADD SWAP4 TIMESTAMP DUP6 MSTORE PUSH1 0x60 DUP8 ADD SWAP6 DUP7 MSTORE PUSH1 0x80 DUP8 ADD MSTORE PUSH1 0xA0 DUP7 ADD MSTORE PUSH1 0xC0 DUP6 ADD MSTORE PUSH1 0xE0 DUP5 ADD MSTORE DUP5 PUSH1 0x0 MSTORE PUSH1 0x2 PUSH1 0x20 MSTORE PUSH1 0x40 PUSH1 0x0 KECCAK256 DUP1 SLOAD PUSH1 0x1 PUSH1 0x40 SHL DUP2 LT ISZERO PUSH2 0xB82 JUMPI PUSH2 0x20DD SWAP2 PUSH1 0x1 DUP3 ADD DUP2 SSTORE PUSH2 0x70F7 JUMP JUMPDEST SWAP5 SWAP1 SWAP5 PUSH2 0xF44 JUMPI DUP4 MLOAD SWAP1 PUSH1 0x7 DUP3 LT ISZERO PUSH2 0xF2E JUMPI DUP6 SLOAD SWAP1 MLOAD PUSH2 0x100 PUSH1 0x1 PUSH1 0xA8 SHL SUB PUSH1 0x8 SWAP2 SWAP1 SWAP2 SHL AND PUSH1 0xFF SWAP3 SWAP1 SWAP3 AND PUSH1 0x1 PUSH1 0x1 PUSH1 0xA8 SHL SUB NOT SWAP1 SWAP2 AND OR OR DUP5 SSTORE MLOAD PUSH1 0x1 DUP5 ADD SSTORE MLOAD DUP1 MLOAD SWAP1 SWAP4 SWAP1 PUSH1 0x1 PUSH1 0x1 PUSH1 0x40 SHL SUB DUP2 GT PUSH2 0xB82 JUMPI PUSH2 0x2141 PUSH1 0x2 DUP6 ADD SLOAD PUSH2 0x7129 JUMP JUMPDEST PUSH1 0x1F DUP2 GT PUSH2 0x270B JUMPI JUMPDEST POP PUSH1 0x20 PUSH1 0x1F DUP3 GT PUSH1 0x1 EQ PUSH2 0x269C JUMPI DUP2 SWAP3 SWAP4 SWAP5 SWAP6 PUSH1 0x0 SWAP3 PUSH2 0x2691 JUMPI JUMPDEST POP POP DUP2 PUSH1 0x1 SHL SWAP2 PUSH1 0x0 NOT SWAP1 PUSH1 0x3 SHL SHR NOT AND OR PUSH1 0x2 DUP5 ADD SSTORE JUMPDEST PUSH1 0x80 DUP3 ADD MLOAD SWAP3 DUP4 MLOAD PUSH1 0x1 PUSH1 0x1 PUSH1 0x40 SHL SUB DUP2 GT PUSH2 0xB82 JUMPI PUSH2 0x21A0 PUSH1 0x3 DUP4 ADD SLOAD PUSH2 0x7129 JUMP JUMPDEST PUSH1 0x1F DUP2 GT PUSH2 0x265C JUMPI JUMPDEST POP PUSH1 0x20 PUSH1 0x1F DUP3 GT PUSH1 0x1 EQ PUSH2 0x25ED JUMPI DUP2 SWAP3 SWAP4 SWAP5 SWAP6 PUSH1 0x0 SWAP3 PUSH2 0x25E2 JUMPI JUMPDEST POP POP DUP2 PUSH1 0x1 SHL SWAP2 PUSH1 0x0 NOT SWAP1 PUSH1 0x3 SHL SHR NOT AND OR PUSH1 0x3 DUP3 ADD SSTORE JUMPDEST PUSH1 0xA0 DUP4 ADD MLOAD DUP1 MLOAD SWAP1 PUSH1 0x1 PUSH1 0x40 SHL DUP3 GT PUSH2 0xB82 JUMPI PUSH1 0x4 DUP4 ADD SLOAD DUP3 PUSH1 0x4 DUP6 ADD SSTORE DUP1 DUP4 LT PUSH2 0x256A JUMPI JUMPDEST POP PUSH1 0x20 ADD SWAP1 PUSH1 0x4 DUP4 ADD PUSH1 0x0 MSTORE PUSH1 0x20 PUSH1 0x0 KECCAK256 SWAP2 PUSH1 0x0 SWAP1 JUMPDEST DUP3 DUP3 LT PUSH2 0x2455 JUMPI POP POP POP POP PUSH1 0xC0 DUP4 ADD MLOAD DUP1 MLOAD SWAP1 PUSH1 0x1 PUSH1 0x1 PUSH1 0x40 SHL SUB DUP3 GT PUSH2 0xB82 JUMPI PUSH2 0x2246 PUSH1 0x5 DUP5 ADD SLOAD PUSH2 0x7129 JUMP JUMPDEST PUSH1 0x1F DUP2 GT PUSH2 0x2420 JUMPI JUMPDEST POP PUSH1 0x20 SWAP1 PUSH1 0x1F DUP4 GT PUSH1 0x1 EQ PUSH2 0x23AB JUMPI SWAP2 DUP1 PUSH1 0xE0 SWAP5 SWAP3 PUSH1 0x6 SWAP5 PUSH1 0x0 SWAP3 PUSH2 0x23A0 JUMPI JUMPDEST POP POP DUP2 PUSH1 0x1 SHL SWAP2 PUSH1 0x0 NOT SWAP1 PUSH1 0x3 SHL SHR NOT AND OR PUSH1 0x5 DUP3 ADD SSTORE JUMPDEST ADD SWAP3 ADD MLOAD SWAP2 DUP3 MLOAD PUSH1 0x1 PUSH1 0x1 PUSH1 0x40 SHL SUB DUP2 GT PUSH2 0xB82 JUMPI PUSH2 0x22A6 DUP3 SLOAD PUSH2 0x7129 JUMP JUMPDEST PUSH1 0x1F DUP2 GT PUSH2 0x236E JUMPI JUMPDEST POP PUSH1 0x20 PUSH1 0x1F DUP3 GT PUSH1 0x1 EQ PUSH2 0x2308 JUMPI DUP2 SWAP3 SWAP4 SWAP5 PUSH1 0x0 SWAP3 PUSH2 0x22FD JUMPI JUMPDEST POP POP DUP2 PUSH1 0x1 SHL SWAP2 PUSH1 0x0 NOT SWAP1 PUSH1 0x3 SHL SHR NOT AND OR SWAP1 SSTORE JUMPDEST PUSH1 0x1 PUSH1 0x40 MLOAD SWAP2 TIMESTAMP DUP4 MSTORE PUSH1 0x0 DUP1 MLOAD PUSH1 0x20 PUSH2 0x76D4 DUP4 CODECOPY DUP2 MLOAD SWAP2 MSTORE PUSH1 0x20 CALLER SWAP5 LOG4 STOP JUMPDEST ADD MLOAD SWAP1 POP DUP5 DUP1 PUSH2 0x22C9 JUMP JUMPDEST PUSH1 0x1F NOT DUP3 AND SWAP1 DUP4 PUSH1 0x0 MSTORE PUSH1 0x20 PUSH1 0x0 KECCAK256 SWAP2 PUSH1 0x0 JUMPDEST DUP2 DUP2 LT PUSH2 0x2356 JUMPI POP SWAP6 DUP4 PUSH1 0x1 SWAP6 SWAP7 SWAP8 LT PUSH2 0x233D JUMPI JUMPDEST POP POP POP DUP2 SHL ADD SWAP1 SSTORE PUSH2 0x22DE JUMP JUMPDEST ADD MLOAD PUSH1 0x0 NOT PUSH1 0xF8 DUP5 PUSH1 0x3 SHL AND SHR NOT AND SWAP1 SSTORE DUP5 DUP1 DUP1 PUSH2 0x2330 JUMP JUMPDEST SWAP2 SWAP3 PUSH1 0x20 PUSH1 0x1 DUP2 SWAP3 DUP7 DUP12 ADD MLOAD DUP2 SSTORE ADD SWAP5 ADD SWAP3 ADD PUSH2 0x231B JUMP JUMPDEST PUSH2 0x239A SWAP1 DUP4 PUSH1 0x0 MSTORE PUSH1 0x20 PUSH1 0x0 KECCAK256 PUSH1 0x1F DUP5 ADD PUSH1 0x5 SHR DUP2 ADD SWAP2 PUSH1 0x20 DUP6 LT PUSH2 0xB78 JUMPI PUSH1 0x1F ADD PUSH1 0x5 SHR ADD SWAP1 PUSH2 0x72CE JUMP JUMPDEST DUP5 PUSH2 0x22AF JUMP JUMPDEST ADD MLOAD SWAP1 POP DUP8 DUP1 PUSH2 0x226F JUMP JUMPDEST SWAP1 PUSH1 0x5 DUP5 ADD PUSH1 0x0 MSTORE PUSH1 0x20 PUSH1 0x0 KECCAK256 SWAP2 PUSH1 0x0 JUMPDEST PUSH1 0x1F NOT DUP6 AND DUP2 LT PUSH2 0x2408 JUMPI POP SWAP3 PUSH1 0xE0 SWAP5 SWAP3 PUSH1 0x1 SWAP3 PUSH1 0x6 SWAP6 DUP4 PUSH1 0x1F NOT DUP2 AND LT PUSH2 0x23EF JUMPI JUMPDEST POP POP POP DUP2 SHL ADD PUSH1 0x5 DUP3 ADD SSTORE PUSH2 0x2287 JUMP JUMPDEST ADD MLOAD PUSH1 0x0 NOT PUSH1 0xF8 DUP5 PUSH1 0x3 SHL AND SHR NOT AND SWAP1 SSTORE DUP8 DUP1 DUP1 PUSH2 0x23DF JUMP JUMPDEST SWAP2 SWAP3 PUSH1 0x20 PUSH1 0x1 DUP2 SWAP3 DUP7 DUP6 ADD MLOAD DUP2 SSTORE ADD SWAP5 ADD SWAP3 ADD PUSH2 0x23BC JUMP JUMPDEST PUSH2 0x244F SWAP1 PUSH1 0x5 DUP6 ADD PUSH1 0x0 MSTORE PUSH1 0x20 PUSH1 0x0 KECCAK256 PUSH1 0x1F DUP6 ADD PUSH1 0x5 SHR DUP2 ADD SWAP2 PUSH1 0x20 DUP7 LT PUSH2 0xB78 JUMPI PUSH1 0x1F ADD PUSH1 0x5 SHR ADD SWAP1 PUSH2 0x72CE JUMP JUMPDEST DUP6 PUSH2 0x224F JUMP JUMPDEST DUP1 MLOAD DUP1 MLOAD SWAP1 PUSH1 0x1 PUSH1 0x1 PUSH1 0x40 SHL SUB DUP3 GT PUSH2 0xB82 JUMPI PUSH2 0x2472 DUP7 SLOAD PUSH2 0x7129 JUMP JUMPDEST PUSH1 0x1F DUP2 GT PUSH2 0x2538 JUMPI JUMPDEST POP PUSH1 0x20 SWAP1 PUSH1 0x1F DUP4 GT PUSH1 0x1 EQ PUSH2 0x24C8 JUMPI SWAP3 DUP3 PUSH1 0x1 SWAP5 SWAP4 PUSH1 0x20 SWAP4 DUP7 SWAP6 PUSH1 0x0 SWAP3 PUSH2 0x24BD JUMPI JUMPDEST POP POP PUSH1 0x0 NOT PUSH1 0x3 DUP4 SWAP1 SHL SHR NOT AND SWAP1 DUP5 SHL OR DUP8 SSTORE JUMPDEST ADD SWAP5 ADD SWAP2 ADD SWAP1 SWAP3 PUSH2 0x2218 JUMP JUMPDEST ADD MLOAD SWAP1 POP DUP13 DUP1 PUSH2 0x249D JUMP JUMPDEST SWAP1 DUP7 PUSH1 0x0 MSTORE PUSH1 0x20 PUSH1 0x0 KECCAK256 SWAP2 PUSH1 0x0 JUMPDEST PUSH1 0x1F NOT DUP6 AND DUP2 LT PUSH2 0x2520 JUMPI POP DUP4 PUSH1 0x20 SWAP4 PUSH1 0x1 SWAP7 SWAP4 DUP8 SWAP7 SWAP4 DUP8 SWAP5 PUSH1 0x1F NOT DUP2 AND LT PUSH2 0x2507 JUMPI JUMPDEST POP POP POP DUP2 SHL ADD DUP8 SSTORE PUSH2 0x24B1 JUMP JUMPDEST ADD MLOAD PUSH1 0x0 NOT PUSH1 0xF8 DUP5 PUSH1 0x3 SHL AND SHR NOT AND SWAP1 SSTORE DUP13 DUP1 DUP1 PUSH2 0x24FA JUMP JUMPDEST SWAP2 SWAP3 PUSH1 0x20 PUSH1 0x1 DUP2 SWAP3 DUP7 DUP6 ADD MLOAD DUP2 SSTORE ADD SWAP5 ADD SWAP3 ADD PUSH2 0x24D6 JUMP JUMPDEST PUSH2 0x2564 SWAP1 DUP8 PUSH1 0x0 MSTORE PUSH1 0x20 PUSH1 0x0 KECCAK256 PUSH1 0x1F DUP6 ADD PUSH1 0x5 SHR DUP2 ADD SWAP2 PUSH1 0x20 DUP7 LT PUSH2 0xB78 JUMPI PUSH1 0x1F ADD PUSH1 0x5 SHR ADD SWAP1 PUSH2 0x72CE JUMP JUMPDEST DUP10 PUSH2 0x247B JUMP JUMPDEST PUSH1 0x4 DUP5 ADD PUSH1 0x0 MSTORE PUSH1 0x20 PUSH1 0x0 KECCAK256 SWAP1 DUP4 DUP3 ADD JUMPDEST DUP2 DUP4 ADD DUP2 LT PUSH2 0x258B JUMPI POP POP PUSH2 0x2202 JUMP JUMPDEST DUP1 PUSH2 0x2598 PUSH1 0x1 SWAP3 SLOAD PUSH2 0x7129 JUMP JUMPDEST DUP1 PUSH2 0x25A5 JUMPI JUMPDEST POP ADD PUSH2 0x257B JUMP JUMPDEST PUSH1 0x1F DUP2 GT DUP4 EQ PUSH2 0x25BB JUMPI POP PUSH1 0x0 DUP2 SSTORE JUMPDEST DUP10 PUSH2 0x259E JUMP JUMPDEST PUSH1 0x0 SWAP1 DUP3 DUP3 MSTORE PUSH2 0x25D9 PUSH1 0x1F PUSH1 0x20 DUP5 KECCAK256 SWAP3 ADD PUSH1 0x5 SHR DUP3 ADD DUP6 DUP4 ADD PUSH2 0x72CE JUMP JUMPDEST DUP2 DUP4 SSTORE SSTORE PUSH2 0x25B5 JUMP JUMPDEST ADD MLOAD SWAP1 POP DUP6 DUP1 PUSH2 0x21C4 JUMP JUMPDEST PUSH1 0x3 DUP4 ADD PUSH1 0x0 MSTORE PUSH1 0x20 PUSH1 0x0 KECCAK256 SWAP1 PUSH1 0x0 JUMPDEST PUSH1 0x1F NOT DUP5 AND DUP2 LT PUSH2 0x2644 JUMPI POP PUSH1 0x1 SWAP4 SWAP5 SWAP6 SWAP7 DUP4 PUSH1 0x1F NOT DUP2 AND LT PUSH2 0x262B JUMPI JUMPDEST POP POP POP DUP2 SHL ADD PUSH1 0x3 DUP3 ADD SSTORE PUSH2 0x21DC JUMP JUMPDEST ADD MLOAD PUSH1 0x0 NOT PUSH1 0xF8 DUP5 PUSH1 0x3 SHL AND SHR NOT AND SWAP1 SSTORE DUP6 DUP1 DUP1 PUSH2 0x261B JUMP JUMPDEST SWAP1 SWAP2 PUSH1 0x20 PUSH1 0x1 DUP2 SWAP3 DUP6 DUP12 ADD MLOAD DUP2 SSTORE ADD SWAP4 ADD SWAP2 ADD PUSH2 0x25FD JUMP JUMPDEST PUSH2 0x268B SWAP1 PUSH1 0x3 DUP5 ADD PUSH1 0x0 MSTORE PUSH1 0x20 PUSH1 0x0 KECCAK256 PUSH1 0x1F DUP5 ADD PUSH1 0x5 SHR DUP2 ADD SWAP2 PUSH1 0x20 DUP6 LT PUSH2 0xB78 JUMPI PUSH1 0x1F ADD PUSH1 0x5 SHR ADD SWAP1 PUSH2 0x72CE JUMP JUMPDEST DUP6 PUSH2 0x21A9 JUMP JUMPDEST ADD MLOAD SWAP1 POP DUP6 DUP1 PUSH2 0x2165 JUMP JUMPDEST PUSH1 0x2 DUP6 ADD PUSH1 0x0 MSTORE PUSH1 0x20 PUSH1 0x0 KECCAK256 SWAP1 PUSH1 0x0 JUMPDEST PUSH1 0x1F NOT DUP5 AND DUP2 LT PUSH2 0x26F3 JUMPI POP PUSH1 0x1 SWAP4 SWAP5 SWAP6 SWAP7 DUP4 PUSH1 0x1F NOT DUP2 AND LT PUSH2 0x26DA JUMPI JUMPDEST POP POP POP DUP2 SHL ADD PUSH1 0x2 DUP5 ADD SSTORE PUSH2 0x217D JUMP JUMPDEST ADD MLOAD PUSH1 0x0 NOT PUSH1 0xF8 DUP5 PUSH1 0x3 SHL AND SHR NOT AND SWAP1 SSTORE DUP6 DUP1 DUP1 PUSH2 0x26CA JUMP JUMPDEST SWAP1 SWAP2 PUSH1 0x20 PUSH1 0x1 DUP2 SWAP3 DUP6 DUP12 ADD MLOAD DUP2 SSTORE ADD SWAP4 ADD SWAP2 ADD PUSH2 0x26AC JUMP JUMPDEST PUSH2 0x273A SWAP1 PUSH1 0x2 DUP7 ADD PUSH1 0x0 MSTORE PUSH1 0x20 PUSH1 0x0 KECCAK256 PUSH1 0x1F DUP5 ADD PUSH1 0x5 SHR DUP2 ADD SWAP2 PUSH1 0x20 DUP6 LT PUSH2 0xB78 JUMPI PUSH1 0x1F ADD PUSH1 0x5 SHR ADD SWAP1 PUSH2 0x72CE JUMP JUMPDEST DUP6 PUSH2 0x214A JUMP JUMPDEST POP PUSH1 0x0 SLOAD PUSH1 0x1 PUSH1 0x1 PUSH1 0xA0 SHL SUB AND CALLER EQ PUSH2 0x206D JUMP JUMPDEST MLOAD PUSH1 0x1 PUSH1 0x1 PUSH1 0xA0 SHL SUB AND CALLER EQ SWAP1 POP DUP8 PUSH2 0x2065 JUMP JUMPDEST PUSH1 0x80 ADD MLOAD PUSH1 0x1 PUSH1 0x1 PUSH1 0xA0 SHL SUB AND CALLER EQ SWAP2 POP DUP9 PUSH2 0x205D JUMP JUMPDEST CALLVALUE PUSH2 0x159 JUMPI PUSH1 0x0 CALLDATASIZE PUSH1 0x3 NOT ADD SLT PUSH2 0x159 JUMPI PUSH1 0x20 PUSH1 0x5 SLOAD PUSH1 0x40 MLOAD SWAP1 DUP2 MSTORE RETURN JUMPDEST CALLVALUE PUSH2 0x159 JUMPI PUSH1 0xE0 CALLDATASIZE PUSH1 0x3 NOT ADD SLT PUSH2 0x159 JUMPI PUSH1 0x7 PUSH1 0x24 CALLDATALOAD LT ISZERO PUSH2 0x159 JUMPI PUSH1 0x44 CALLDATALOAD PUSH1 0x1 PUSH1 0x1 PUSH1 0x40 SHL SUB DUP2 GT PUSH2 0x159 JUMPI PUSH2 0x27D8 SWAP1 CALLDATASIZE SWAP1 PUSH1 0x4 ADD PUSH2 0x6F4B JUMP JUMPDEST PUSH1 0x64 CALLDATALOAD PUSH1 0x1 PUSH1 0x1 PUSH1 0x40 SHL SUB DUP2 GT PUSH2 0x159 JUMPI PUSH2 0x27F7 SWAP1 CALLDATASIZE SWAP1 PUSH1 0x4 ADD PUSH2 0x6F4B JUMP JUMPDEST PUSH1 0x84 CALLDATALOAD PUSH1 0x1 PUSH1 0x1 PUSH1 0x40 SHL SUB DUP2 GT PUSH2 0x159 JUMPI PUSH2 0x2816 SWAP1 CALLDATASIZE SWAP1 PUSH1 0x4 ADD PUSH2 0x6FDB JUMP JUMPDEST PUSH1 0xA4 CALLDATALOAD PUSH1 0x1 PUSH1 0x1 PUSH1 0x40 SHL SUB DUP2 GT PUSH2 0x159 JUMPI PUSH2 0x2835 SWAP1 CALLDATASIZE SWAP1 PUSH1 0x4 ADD PUSH2 0x6F4B JUMP JUMPDEST SWAP1 PUSH1 0xC4 CALLDATALOAD PUSH1 0x1 PUSH1 0x1 PUSH1 0x40 SHL SUB DUP2 GT PUSH2 0x159 JUMPI PUSH2 0x2855 SWAP1 CALLDATASIZE SWAP1 PUSH1 0x4 ADD PUSH2 0x6F4B JUMP JUMPDEST SWAP3 PUSH1 0x4 CALLDATALOAD PUSH1 0x0 MSTORE PUSH1 0x1 PUSH1 0x20 MSTORE PUSH2 0x2875 PUSH1 0xFF PUSH1 0x10 PUSH1 0x40 PUSH1 0x0 KECCAK256 ADD SLOAD AND PUSH2 0x731A JUMP JUMPDEST PUSH1 0x4 CALLDATALOAD PUSH1 0x0 MSTORE PUSH1 0x1 PUSH1 0x20 MSTORE PUSH1 0x40 PUSH1 0x0 KECCAK256 PUSH1 0x40 MLOAD SWAP1 PUSH2 0x2892 DUP3 PUSH2 0x6EBC JUMP JUMPDEST DUP1 SLOAD DUP3 MSTORE PUSH1 0x1 DUP2 ADD SLOAD PUSH1 0x20 DUP4 ADD MSTORE PUSH1 0x2 DUP2 ADD SLOAD PUSH1 0x40 DUP4 ADD MSTORE PUSH1 0x3 DUP2 ADD SLOAD PUSH1 0x1 PUSH1 0x1 PUSH1 0xA0 SHL SUB SWAP1 DUP2 AND PUSH1 0x60 DUP5 ADD MSTORE PUSH1 0x4 DUP3 ADD SLOAD DUP2 AND PUSH1 0x80 DUP5 ADD MSTORE PUSH1 0x5 DUP3 ADD SLOAD AND PUSH1 0xA0 DUP4 ADD SWAP1 DUP2 MSTORE SWAP1 PUSH1 0xFF SWAP1 PUSH1 0x10 SWAP1 PUSH2 0x28EB PUSH1 0x6 DUP3 ADD PUSH2 0x7163 JUMP JUMPDEST PUSH1 0xC0 DUP7 ADD MSTORE PUSH2 0x28FC PUSH1 0x7 DUP3 ADD PUSH2 0x7163 JUMP JUMPDEST PUSH1 0xE0 DUP7 ADD MSTORE PUSH1 0x8 DUP2 ADD SLOAD PUSH2 0x100 DUP7 ADD MSTORE PUSH2 0x2918 PUSH1 0x9 DUP3 ADD PUSH2 0x7163 JUMP JUMPDEST PUSH2 0x120 DUP7 ADD MSTORE PUSH1 0xA DUP2 ADD SLOAD PUSH2 0x140 DUP7 ADD MSTORE PUSH2 0x2935 PUSH1 0xB DUP3 ADD PUSH2 0x7163 JUMP JUMPDEST PUSH2 0x160 DUP7 ADD MSTORE PUSH1 0xC DUP2 ADD SLOAD PUSH2 0x180 DUP7 ADD MSTORE PUSH1 0xD DUP2 ADD SLOAD PUSH2 0x1A0 DUP7 ADD MSTORE PUSH2 0x295D PUSH1 0xE DUP3 ADD PUSH2 0x735F JUMP JUMPDEST PUSH2 0x1C0 DUP7 ADD MSTORE PUSH2 0x296F PUSH1 0xF DUP3 ADD PUSH2 0x7163 JUMP JUMPDEST PUSH2 0x1E0 DUP7 ADD MSTORE ADD SLOAD AND ISZERO ISZERO PUSH2 0x200 DUP4 ADD MSTORE PUSH1 0x60 DUP3 ADD MLOAD PUSH1 0x1 PUSH1 0x1 PUSH1 0xA0 SHL SUB AND CALLER EQ SWAP2 DUP3 ISZERO PUSH2 0x30AC JUMPI JUMPDEST POP DUP2 ISZERO PUSH2 0x3098 JUMPI JUMPDEST POP DUP1 ISZERO PUSH2 0x3084 JUMPI JUMPDEST PUSH2 0x29B1 SWAP1 PUSH2 0x73B4 JUMP JUMPDEST PUSH1 0x40 MLOAD SWAP5 PUSH2 0x29BE DUP7 PUSH2 0x6ED8 JUMP JUMPDEST PUSH2 0x29CA PUSH1 0x24 CALLDATALOAD DUP8 PUSH2 0x7400 JUMP JUMPDEST CALLER PUSH1 0x20 DUP8 ADD MSTORE TIMESTAMP PUSH1 0x40 DUP8 ADD MSTORE PUSH1 0x60 DUP7 ADD MSTORE PUSH1 0x80 DUP6 ADD MSTORE PUSH1 0xA0 DUP5 ADD MSTORE PUSH1 0xC0 DUP4 ADD MSTORE PUSH1 0xE0 DUP3 ADD MSTORE PUSH1 0x4 CALLDATALOAD PUSH1 0x0 MSTORE PUSH1 0x2 PUSH1 0x20 MSTORE PUSH1 0x40 PUSH1 0x0 KECCAK256 DUP1 SLOAD PUSH1 0x1 PUSH1 0x40 SHL DUP2 LT ISZERO PUSH2 0xB82 JUMPI PUSH2 0x2A1C SWAP2 PUSH1 0x1 DUP3 ADD DUP2 SSTORE PUSH2 0x70F7 JUMP JUMPDEST PUSH2 0xF44 JUMPI DUP2 MLOAD PUSH1 0x7 DUP2 LT ISZERO PUSH2 0xF2E JUMPI DUP2 SLOAD PUSH1 0x20 DUP5 ADD MLOAD PUSH2 0x100 PUSH1 0x1 PUSH1 0xA8 SHL SUB PUSH1 0x8 SWAP2 SWAP1 SWAP2 SHL AND PUSH1 0xFF SWAP3 SWAP1 SWAP3 AND PUSH1 0x1 PUSH1 0x1 PUSH1 0xA8 SHL SUB NOT SWAP1 SWAP2 AND OR OR DUP2 SSTORE PUSH1 0x40 DUP3 ADD MLOAD PUSH1 0x1 DUP3 ADD SSTORE PUSH1 0x60 DUP3 ADD MLOAD DUP1 MLOAD SWAP1 SWAP3 SWAP1 PUSH1 0x1 PUSH1 0x1 PUSH1 0x40 SHL SUB DUP2 GT PUSH2 0xB82 JUMPI PUSH2 0x2A87 PUSH1 0x2 DUP5 ADD SLOAD PUSH2 0x7129 JUMP JUMPDEST PUSH1 0x1F DUP2 GT PUSH2 0x304F JUMPI JUMPDEST POP PUSH1 0x20 PUSH1 0x1F DUP3 GT PUSH1 0x1 EQ PUSH2 0x2FE1 JUMPI DUP2 SWAP3 SWAP4 SWAP5 PUSH1 0x0 SWAP3 PUSH2 0x2FD6 JUMPI JUMPDEST POP POP DUP2 PUSH1 0x1 SHL SWAP2 PUSH1 0x0 NOT SWAP1 PUSH1 0x3 SHL SHR NOT AND OR PUSH1 0x2 DUP4 ADD SSTORE JUMPDEST PUSH1 0x80 DUP2 ADD MLOAD SWAP2 DUP3 MLOAD PUSH1 0x1 PUSH1 0x1 PUSH1 0x40 SHL SUB DUP2 GT PUSH2 0xB82 JUMPI PUSH2 0x2AE5 PUSH1 0x3 DUP4 ADD SLOAD PUSH2 0x7129 JUMP JUMPDEST PUSH1 0x1F DUP2 GT PUSH2 0x2FA1 JUMPI JUMPDEST POP PUSH1 0x20 PUSH1 0x1F DUP3 GT PUSH1 0x1 EQ PUSH2 0x2F33 JUMPI DUP2 SWAP3 SWAP4 SWAP5 PUSH1 0x0 SWAP3 PUSH2 0x2F28 JUMPI JUMPDEST POP POP DUP2 PUSH1 0x1 SHL SWAP2 PUSH1 0x0 NOT SWAP1 PUSH1 0x3 SHL SHR NOT AND OR PUSH1 0x3 DUP3 ADD SSTORE JUMPDEST PUSH1 0xA0 DUP3 ADD MLOAD DUP1 MLOAD SWAP1 PUSH1 0x1 PUSH1 0x40 SHL DUP3 GT PUSH2 0xB82 JUMPI PUSH1 0x4 DUP4 ADD SLOAD DUP3 PUSH1 0x4 DUP6 ADD SSTORE DUP1 DUP4 LT PUSH2 0x2EB0 JUMPI JUMPDEST POP PUSH1 0x20 ADD SWAP1 PUSH1 0x4 DUP4 ADD PUSH1 0x0 MSTORE PUSH1 0x20 PUSH1 0x0 KECCAK256 SWAP2 PUSH1 0x0 SWAP1 JUMPDEST DUP3 DUP3 LT PUSH2 0x2D9B JUMPI DUP6 DUP6 PUSH1 0xC0 DUP3 ADD MLOAD DUP1 MLOAD SWAP1 PUSH1 0x1 PUSH1 0x1 PUSH1 0x40 SHL SUB DUP3 GT PUSH2 0xB82 JUMPI PUSH2 0x2B88 PUSH1 0x5 DUP5 ADD SLOAD PUSH2 0x7129 JUMP JUMPDEST PUSH1 0x1F DUP2 GT PUSH2 0x2D66 JUMPI JUMPDEST POP PUSH1 0x20 SWAP1 PUSH1 0x1F DUP4 GT PUSH1 0x1 EQ PUSH2 0x2CF1 JUMPI SWAP2 DUP1 PUSH1 0xE0 SWAP5 SWAP3 PUSH1 0x6 SWAP5 PUSH1 0x0 SWAP3 PUSH2 0x2CE6 JUMPI JUMPDEST POP POP DUP2 PUSH1 0x1 SHL SWAP2 PUSH1 0x0 NOT SWAP1 PUSH1 0x3 SHL SHR NOT AND OR PUSH1 0x5 DUP3 ADD SSTORE JUMPDEST ADD SWAP2 ADD MLOAD SWAP1 DUP2 MLOAD PUSH1 0x1 PUSH1 0x1 PUSH1 0x40 SHL SUB DUP2 GT PUSH2 0xB82 JUMPI PUSH2 0x2BE8 DUP3 SLOAD PUSH2 0x7129 JUMP JUMPDEST PUSH1 0x1F DUP2 GT PUSH2 0x2CB4 JUMPI JUMPDEST POP PUSH1 0x20 SWAP3 PUSH1 0x1F DUP3 GT PUSH1 0x1 EQ PUSH2 0x2C50 JUMPI SWAP3 DUP2 SWAP3 SWAP4 PUSH1 0x0 SWAP3 PUSH2 0x2C45 JUMPI JUMPDEST POP POP DUP2 PUSH1 0x1 SHL SWAP2 PUSH1 0x0 NOT SWAP1 PUSH1 0x3 SHL SHR NOT AND OR SWAP1 SSTORE JUMPDEST PUSH1 0x40 MLOAD TIMESTAMP DUP2 MSTORE CALLER SWAP1 PUSH1 0x24 CALLDATALOAD SWAP1 PUSH1 0x0 DUP1 MLOAD PUSH1 0x20 PUSH2 0x76D4 DUP4 CODECOPY DUP2 MLOAD SWAP2 MSTORE PUSH1 0x20 PUSH1 0x4 CALLDATALOAD SWAP3 LOG4 STOP JUMPDEST ADD MLOAD SWAP1 POP DUP4 DUP1 PUSH2 0x2C0C JUMP JUMPDEST PUSH1 0x1F NOT DUP3 AND SWAP4 DUP4 PUSH1 0x0 MSTORE PUSH1 0x20 PUSH1 0x0 KECCAK256 SWAP2 PUSH1 0x0 JUMPDEST DUP7 DUP2 LT PUSH2 0x2C9C JUMPI POP DUP4 PUSH1 0x1 SWAP6 SWAP7 LT PUSH2 0x2C83 JUMPI JUMPDEST POP POP POP DUP2 SHL ADD SWAP1 SSTORE PUSH2 0x2C21 JUMP JUMPDEST ADD MLOAD PUSH1 0x0 NOT PUSH1 0xF8 DUP5 PUSH1 0x3 SHL AND SHR NOT AND SWAP1 SSTORE DUP4 DUP1 DUP1 PUSH2 0x2C76 JUMP JUMPDEST SWAP2 SWAP3 PUSH1 0x20 PUSH1 0x1 DUP2 SWAP3 DUP7 DUP6 ADD MLOAD DUP2 SSTORE ADD SWAP5 ADD SWAP3 ADD PUSH2 0x2C63 JUMP JUMPDEST PUSH2 0x2CE0 SWAP1 DUP4 PUSH1 0x0 MSTORE PUSH1 0x20 PUSH1 0x0 KECCAK256 PUSH1 0x1F DUP5 ADD PUSH1 0x5 SHR DUP2 ADD SWAP2 PUSH1 0x20 DUP6 LT PUSH2 0xB78 JUMPI PUSH1 0x1F ADD PUSH1 0x5 SHR ADD SWAP1 PUSH2 0x72CE JUMP JUMPDEST DUP4 PUSH2 0x2BF1 JUMP JUMPDEST ADD MLOAD SWAP1 POP DUP7 DUP1 PUSH2 0x2BB1 JUMP JUMPDEST SWAP1 PUSH1 0x5 DUP5 ADD PUSH1 0x0 MSTORE PUSH1 0x20 PUSH1 0x0 KECCAK256 SWAP2 PUSH1 0x0 JUMPDEST PUSH1 0x1F NOT DUP6 AND DUP2 LT PUSH2 0x2D4E JUMPI POP SWAP3 PUSH1 0xE0 SWAP5 SWAP3 PUSH1 0x1 SWAP3 PUSH1 0x6 SWAP6 DUP4 PUSH1 0x1F NOT DUP2 AND LT PUSH2 0x2D35 JUMPI JUMPDEST POP POP POP DUP2 SHL ADD PUSH1 0x5 DUP3 ADD SSTORE PUSH2 0x2BC9 JUMP JUMPDEST ADD MLOAD PUSH1 0x0 NOT PUSH1 0xF8 DUP5 PUSH1 0x3 SHL AND SHR NOT AND SWAP1 SSTORE DUP7 DUP1 DUP1 PUSH2 0x2D25 JUMP JUMPDEST SWAP2 SWAP3 PUSH1 0x20 PUSH1 0x1 DUP2 SWAP3 DUP7 DUP6 ADD MLOAD DUP2 SSTORE ADD SWAP5 ADD SWAP3 ADD PUSH2 0x2D02 JUMP JUMPDEST PUSH2 0x2D95 SWAP1 PUSH1 0x5 DUP6 ADD PUSH1 0x0 MSTORE PUSH1 0x20 PUSH1 0x0 KECCAK256 PUSH1 0x1F DUP6 ADD PUSH1 0x5 SHR DUP2 ADD SWAP2 PUSH1 0x20 DUP7 LT PUSH2 0xB78 JUMPI PUSH1 0x1F ADD PUSH1 0x5 SHR ADD SWAP1 PUSH2 0x72CE JUMP JUMPDEST DUP5 PUSH2 0x2B91 JUMP JUMPDEST DUP1 MLOAD DUP1 MLOAD SWAP1 PUSH1 0x1 PUSH1 0x1 PUSH1 0x40 SHL SUB DUP3 GT PUSH2 0xB82 JUMPI PUSH2 0x2DB8 DUP7 SLOAD PUSH2 0x7129 JUMP JUMPDEST PUSH1 0x1F DUP2 GT PUSH2 0x2E7E JUMPI JUMPDEST POP PUSH1 0x20 SWAP1 PUSH1 0x1F DUP4 GT PUSH1 0x1 EQ PUSH2 0x2E0E JUMPI SWAP3 DUP3 PUSH1 0x1 SWAP5 SWAP4 PUSH1 0x20 SWAP4 DUP7 SWAP6 PUSH1 0x0 SWAP3 PUSH2 0x2E03 JUMPI JUMPDEST POP POP PUSH1 0x0 NOT PUSH1 0x3 DUP4 SWAP1 SHL SHR NOT AND SWAP1 DUP5 SHL OR DUP8 SSTORE JUMPDEST ADD SWAP5 ADD SWAP2 ADD SWAP1 SWAP3 PUSH2 0x2B5C JUMP JUMPDEST ADD MLOAD SWAP1 POP DUP12 DUP1 PUSH2 0x2DE3 JUMP JUMPDEST SWAP1 DUP7 PUSH1 0x0 MSTORE PUSH1 0x20 PUSH1 0x0 KECCAK256 SWAP2 PUSH1 0x0 JUMPDEST PUSH1 0x1F NOT DUP6 AND DUP2 LT PUSH2 0x2E66 JUMPI POP DUP4 PUSH1 0x20 SWAP4 PUSH1 0x1 SWAP7 SWAP4 DUP8 SWAP7 SWAP4 DUP8 SWAP5 PUSH1 0x1F NOT DUP2 AND LT PUSH2 0x2E4D JUMPI JUMPDEST POP POP POP DUP2 SHL ADD DUP8 SSTORE PUSH2 0x2DF7 JUMP JUMPDEST ADD MLOAD PUSH1 0x0 NOT PUSH1 0xF8 DUP5 PUSH1 0x3 SHL AND SHR NOT AND SWAP1 SSTORE DUP12 DUP1 DUP1 PUSH2 0x2E40 JUMP JUMPDEST SWAP2 SWAP3 PUSH1 0x20 PUSH1 0x1 DUP2 SWAP3 DUP7 DUP6 ADD MLOAD DUP2 SSTORE ADD SWAP5 ADD SWAP3 ADD PUSH2 0x2E1C JUMP JUMPDEST PUSH2 0x2EAA SWAP1 DUP8 PUSH1 0x0 MSTORE PUSH1 0x20 PUSH1 0x0 KECCAK256 PUSH1 0x1F DUP6 ADD PUSH1 0x5 SHR DUP2 ADD SWAP2 PUSH1 0x20 DUP7 LT PUSH2 0xB78 JUMPI PUSH1 0x1F ADD PUSH1 0x5 SHR ADD SWAP1 PUSH2 0x72CE JUMP JUMPDEST DUP9 PUSH2 0x2DC1 JUMP JUMPDEST PUSH1 0x4 DUP5 ADD PUSH1 0x0 MSTORE PUSH1 0x20 PUSH1 0x0 KECCAK256 SWAP1 DUP4 DUP3 ADD JUMPDEST DUP2 DUP4 ADD DUP2 LT PUSH2 0x2ED1 JUMPI POP POP PUSH2 0x2B46 JUMP JUMPDEST DUP1 PUSH2 0x2EDE PUSH1 0x1 SWAP3 SLOAD PUSH2 0x7129 JUMP JUMPDEST DUP1 PUSH2 0x2EEB JUMPI JUMPDEST POP ADD PUSH2 0x2EC1 JUMP JUMPDEST PUSH1 0x1F DUP2 GT DUP4 EQ PUSH2 0x2F01 JUMPI POP PUSH1 0x0 DUP2 SSTORE JUMPDEST DUP9 PUSH2 0x2EE4 JUMP JUMPDEST PUSH1 0x0 SWAP1 DUP3 DUP3 MSTORE PUSH2 0x2F1F PUSH1 0x1F PUSH1 0x20 DUP5 KECCAK256 SWAP3 ADD PUSH1 0x5 SHR DUP3 ADD DUP6 DUP4 ADD PUSH2 0x72CE JUMP JUMPDEST DUP2 DUP4 SSTORE SSTORE PUSH2 0x2EFB JUMP JUMPDEST ADD MLOAD SWAP1 POP DUP5 DUP1 PUSH2 0x2B08 JUMP JUMPDEST PUSH1 0x3 DUP4 ADD PUSH1 0x0 MSTORE PUSH1 0x20 PUSH1 0x0 KECCAK256 SWAP1 PUSH1 0x0 JUMPDEST PUSH1 0x1F NOT DUP5 AND DUP2 LT PUSH2 0x2F89 JUMPI POP PUSH1 0x1 SWAP4 SWAP5 SWAP6 DUP4 PUSH1 0x1F NOT DUP2 AND LT PUSH2 0x2F70 JUMPI JUMPDEST POP POP POP DUP2 SHL ADD PUSH1 0x3 DUP3 ADD SSTORE PUSH2 0x2B20 JUMP JUMPDEST ADD MLOAD PUSH1 0x0 NOT PUSH1 0xF8 DUP5 PUSH1 0x3 SHL AND SHR NOT AND SWAP1 SSTORE DUP5 DUP1 DUP1 PUSH2 0x2F60 JUMP JUMPDEST SWAP1 SWAP2 PUSH1 0x20 PUSH1 0x1 DUP2 SWAP3 DUP6 DUP11 ADD MLOAD DUP2 SSTORE ADD SWAP4 ADD SWAP2 ADD PUSH2 0x2F43 JUMP JUMPDEST PUSH2 0x2FD0 SWAP1 PUSH1 0x3 DUP5 ADD PUSH1 0x0 MSTORE PUSH1 0x20 PUSH1 0x0 KECCAK256 PUSH1 0x1F DUP5 ADD PUSH1 0x5 SHR DUP2 ADD SWAP2 PUSH1 0x20 DUP6 LT PUSH2 0xB78 JUMPI PUSH1 0x1F ADD PUSH1 0x5 SHR ADD SWAP1 PUSH2 0x72CE JUMP JUMPDEST DUP5 PUSH2 0x2AEE JUMP JUMPDEST ADD MLOAD SWAP1 POP DUP5 DUP1 PUSH2 0x2AAA JUMP JUMPDEST PUSH1 0x2 DUP5 ADD PUSH1 0x0 MSTORE PUSH1 0x20 PUSH1 0x0 KECCAK256 SWAP1 PUSH1 0x0 JUMPDEST PUSH1 0x1F NOT DUP5 AND DUP2 LT PUSH2 0x3037 JUMPI POP PUSH1 0x1 SWAP4 SWAP5 SWAP6 DUP4 PUSH1 0x1F NOT DUP2 AND LT PUSH2 0x301E JUMPI JUMPDEST POP POP POP DUP2 SHL ADD PUSH1 0x2 DUP4 ADD SSTORE PUSH2 0x2AC2 JUMP JUMPDEST ADD MLOAD PUSH1 0x0 NOT PUSH1 0xF8 DUP5 PUSH1 0x3 SHL AND SHR NOT AND SWAP1 SSTORE DUP5 DUP1 DUP1 PUSH2 0x300E JUMP JUMPDEST SWAP1 SWAP2 PUSH1 0x20 PUSH1 0x1 DUP2 SWAP3 DUP6 DUP11 ADD MLOAD DUP2 SSTORE ADD SWAP4 ADD SWAP2 ADD PUSH2 0x2FF1 JUMP JUMPDEST PUSH2 0x307E SWAP1 PUSH1 0x2 DUP6 ADD PUSH1 0x0 MSTORE PUSH1 0x20 PUSH1 0x0 KECCAK256 PUSH1 0x1F DUP5 ADD PUSH1 0x5 SHR DUP2 ADD SWAP2 PUSH1 0x20 DUP6 LT PUSH2 0xB78 JUMPI PUSH1 0x1F ADD PUSH1 0x5 SHR ADD SWAP1 PUSH2 0x72CE JUMP JUMPDEST DUP5 PUSH2 0x2A90 JUMP JUMPDEST POP PUSH1 0x0 SLOAD PUSH1 0x1 PUSH1 0x1 PUSH1 0xA0 SHL SUB AND CALLER EQ PUSH2 0x29A8 JUMP JUMPDEST MLOAD PUSH1 0x1 PUSH1 0x1 PUSH1 0xA0 SHL SUB AND CALLER EQ SWAP1 POP DUP7 PUSH2 0x29A0 JUMP JUMPDEST PUSH1 0x80 ADD MLOAD PUSH1 0x1 PUSH1 0x1 PUSH1 0xA0 SHL SUB AND CALLER EQ SWAP2 POP DUP8 PUSH2 0x2998 JUMP JUMPDEST CALLVALUE PUSH2 0x159 JUMPI PUSH1 0x40 CALLDATASIZE PUSH1 0x3 NOT ADD SLT PUSH2 0x159 JUMPI PUSH1 0x24 CALLDATALOAD PUSH1 0x4 CALLDATALOAD PUSH1 0x0 MSTORE PUSH1 0x2 PUSH1 0x20 MSTORE PUSH1 0x40 PUSH1 0x0 KECCAK256 SWAP1 DUP2 SLOAD DUP2 LT ISZERO PUSH2 0x159 JUMPI PUSH2 0x30FA SWAP2 PUSH2 0x70F7 JUMP JUMPDEST POP DUP1 SLOAD PUSH2 0x155 PUSH1 0x1 DUP4 ADD SLOAD SWAP3 PUSH2 0x3197 PUSH2 0x3115 PUSH1 0x2 DUP4 ADD PUSH2 0x7163 JUMP JUMPDEST SWAP2 PUSH2 0x3189 PUSH2 0x3125 PUSH1 0x3 DUP4 ADD PUSH2 0x7163 JUMP JUMPDEST PUSH2 0x317B PUSH2 0x3140 PUSH1 0x6 PUSH2 0x3139 PUSH1 0x5 DUP8 ADD PUSH2 0x7163 JUMP JUMPDEST SWAP6 ADD PUSH2 0x7163 JUMP JUMPDEST SWAP6 PUSH1 0x40 MLOAD SWAP10 DUP10 PUSH2 0x3154 DUP13 PUSH1 0xFF DUP2 SWAP14 AND PUSH2 0x7087 JUMP JUMPDEST PUSH1 0x8 SHR PUSH1 0x1 PUSH1 0x1 PUSH1 0xA0 SHL SUB AND PUSH1 0x20 DUP12 ADD MSTORE PUSH1 0x40 DUP11 ADD MSTORE PUSH1 0xE0 PUSH1 0x60 DUP11 ADD DUP2 SWAP1 MSTORE DUP10 ADD SWAP1 PUSH2 0x7209 JUMP JUMPDEST SWAP1 DUP8 DUP3 SUB PUSH1 0x80 DUP10 ADD MSTORE PUSH2 0x7209 JUMP JUMPDEST SWAP1 DUP6 DUP3 SUB PUSH1 0xA0 DUP8 ADD MSTORE PUSH2 0x7209 JUMP JUMPDEST SWAP1 DUP4 DUP3 SUB PUSH1 0xC0 DUP6 ADD MSTORE PUSH2 0x7209 JUMP JUMPDEST CALLVALUE PUSH2 0x159 JUMPI PUSH2 0x160 CALLDATASIZE PUSH1 0x3 NOT ADD SLT PUSH2 0x159 JUMPI PUSH1 0x24 CALLDATALOAD PUSH1 0x1 PUSH1 0x1 PUSH1 0x40 SHL SUB DUP2 GT PUSH2 0x159 JUMPI PUSH2 0x31D6 SWAP1 CALLDATASIZE SWAP1 PUSH1 0x4 ADD PUSH2 0x6F4B JUMP JUMPDEST PUSH1 0x44 CALLDATALOAD PUSH1 0x1 PUSH1 0x1 PUSH1 0x40 SHL SUB DUP2 GT PUSH2 0x159 JUMPI PUSH2 0x31F5 SWAP1 CALLDATASIZE SWAP1 PUSH1 0x4 ADD PUSH2 0x6F4B JUMP JUMPDEST PUSH1 0x84 CALLDATALOAD PUSH1 0x1 PUSH1 0x1 PUSH1 0x40 SHL SUB DUP2 GT PUSH2 0x159 JUMPI PUSH2 0x3214 SWAP1 CALLDATASIZE SWAP1 PUSH1 0x4 ADD PUSH2 0x6F4B JUMP JUMPDEST SWAP1 PUSH1 0xC4 CALLDATALOAD PUSH1 0x1 PUSH1 0x1 PUSH1 0x40 SHL SUB DUP2 GT PUSH2 0x159 JUMPI PUSH2 0x3234 SWAP1 CALLDATASIZE SWAP1 PUSH1 0x4 ADD PUSH2 0x6F4B JUMP JUMPDEST SWAP3 PUSH2 0x124 CALLDATALOAD PUSH1 0x1 PUSH1 0x1 PUSH1 0x40 SHL SUB DUP2 GT PUSH2 0x159 JUMPI PUSH2 0x3255 SWAP1 CALLDATASIZE SWAP1 PUSH1 0x4 ADD PUSH2 0x6FDB JUMP JUMPDEST SWAP2 PUSH2 0x144 CALLDATALOAD PUSH1 0x1 PUSH1 0x1 PUSH1 0x40 SHL SUB DUP2 GT PUSH2 0x159 JUMPI PUSH2 0x3276 SWAP1 CALLDATASIZE SWAP1 PUSH1 0x4 ADD PUSH2 0x6F4B JUMP JUMPDEST SWAP3 DUP3 MLOAD ISZERO PUSH2 0x45D0 JUMPI PUSH1 0x64 CALLDATALOAD ISZERO PUSH2 0x458B JUMPI DUP4 MLOAD ISZERO PUSH2 0x4546 JUMPI PUSH1 0x40 MLOAD PUSH1 0x20 DUP2 DUP7 MLOAD PUSH2 0x32A2 DUP2 DUP4 DUP6 DUP12 ADD PUSH2 0x6FA1 JUMP JUMPDEST DUP2 ADD PUSH1 0x3 DUP2 MSTORE SUB ADD SWAP1 KECCAK256 SLOAD PUSH2 0x4508 JUMPI PUSH1 0x5 SLOAD SWAP5 PUSH1 0x0 NOT DUP7 EQ PUSH2 0x44F2 JUMPI PUSH1 0x1 DUP7 ADD PUSH1 0x5 SSTORE PUSH1 0x40 MLOAD SWAP3 PUSH2 0x32D2 DUP5 PUSH2 0x6EBC JUMP JUMPDEST DUP7 DUP5 MSTORE PUSH1 0x4 CALLDATALOAD PUSH1 0x20 DUP6 ADD MSTORE PUSH1 0x0 PUSH1 0x40 DUP6 ADD MSTORE CALLER PUSH1 0x60 DUP6 ADD MSTORE PUSH1 0x0 PUSH1 0x80 DUP6 ADD MSTORE PUSH1 0x0 PUSH1 0xA0 DUP6 ADD MSTORE DUP5 PUSH1 0xC0 DUP6 ADD MSTORE PUSH1 0xE0 DUP5 ADD MSTORE PUSH1 0x64 CALLDATALOAD PUSH2 0x100 DUP5 ADD MSTORE PUSH2 0x120 DUP4 ADD MSTORE PUSH1 0xA4 CALLDATALOAD PUSH2 0x140 DUP4 ADD MSTORE DUP6 PUSH2 0x160 DUP4 ADD MSTORE PUSH1 0xE4 CALLDATALOAD PUSH2 0x180 DUP4 ADD MSTORE PUSH2 0x104 CALLDATALOAD PUSH2 0x1A0 DUP4 ADD MSTORE PUSH2 0x1C0 DUP3 ADD MSTORE DUP3 PUSH2 0x1E0 DUP3 ADD MSTORE PUSH1 0x1 PUSH2 0x200 DUP3 ADD MSTORE DUP4 PUSH1 0x0 MSTORE PUSH1 0x1 PUSH1 0x20 MSTORE PUSH1 0x40 PUSH1 0x0 KECCAK256 SWAP1 DUP1 MLOAD DUP3 SSTORE PUSH1 0x20 DUP2 ADD MLOAD PUSH1 0x1 DUP4 ADD SSTORE PUSH1 0x40 DUP2 ADD MLOAD PUSH1 0x2 DUP4 ADD SSTORE PUSH1 0x1 DUP1 PUSH1 0xA0 SHL SUB PUSH1 0x60 DUP3 ADD MLOAD AND PUSH1 0x3 DUP4 ADD PUSH1 0x1 PUSH1 0x1 PUSH1 0x60 SHL SUB PUSH1 0xA0 SHL SWAP2 DUP3 DUP3 SLOAD AND OR SWAP1 SSTORE PUSH1 0x4 DUP4 ADD PUSH1 0x1 DUP1 PUSH1 0xA0 SHL SUB PUSH1 0x80 DUP5 ADD MLOAD AND DUP3 DUP3 SLOAD AND OR SWAP1 SSTORE PUSH1 0x5 DUP4 ADD SWAP1 PUSH1 0x1 DUP1 PUSH1 0xA0 SHL SUB PUSH1 0xA0 DUP5 ADD MLOAD AND SWAP1 DUP3 SLOAD AND OR SWAP1 SSTORE PUSH1 0xC0 DUP2 ADD MLOAD DUP1 MLOAD SWAP1 PUSH1 0x1 PUSH1 0x1 PUSH1 0x40 SHL SUB DUP3 GT PUSH2 0xB82 JUMPI DUP2 SWAP1 PUSH2 0x33EB PUSH1 0x6 DUP7 ADD SLOAD PUSH2 0x7129 JUMP JUMPDEST PUSH1 0x1F DUP2 GT PUSH2 0x44BD JUMPI JUMPDEST POP PUSH1 0x20 SWAP1 PUSH1 0x1F DUP4 GT PUSH1 0x1 EQ PUSH2 0x444B JUMPI PUSH1 0x0 SWAP3 PUSH2 0x4440 JUMPI JUMPDEST POP POP DUP2 PUSH1 0x1 SHL SWAP2 PUSH1 0x0 NOT SWAP1 PUSH1 0x3 SHL SHR NOT AND OR PUSH1 0x6 DUP4 ADD SSTORE JUMPDEST PUSH1 0xE0 DUP2 ADD MLOAD DUP1 MLOAD SWAP1 PUSH1 0x1 PUSH1 0x1 PUSH1 0x40 SHL SUB DUP3 GT PUSH2 0xB82 JUMPI DUP2 SWAP1 PUSH2 0x3448 PUSH1 0x7 DUP7 ADD SLOAD PUSH2 0x7129 JUMP JUMPDEST PUSH1 0x1F DUP2 GT PUSH2 0x440B JUMPI JUMPDEST POP PUSH1 0x20 SWAP1 PUSH1 0x1F DUP4 GT PUSH1 0x1 EQ PUSH2 0x4399 JUMPI PUSH1 0x0 SWAP3 PUSH2 0x438E JUMPI JUMPDEST POP POP DUP2 PUSH1 0x1 SHL SWAP2 PUSH1 0x0 NOT SWAP1 PUSH1 0x3 SHL SHR NOT AND OR PUSH1 0x7 DUP4 ADD SSTORE JUMPDEST PUSH2 0x100 DUP2 ADD MLOAD PUSH1 0x8 DUP4 ADD SSTORE PUSH2 0x120 DUP2 ADD MLOAD DUP1 MLOAD SWAP1 PUSH1 0x1 PUSH1 0x1 PUSH1 0x40 SHL SUB DUP3 GT PUSH2 0xB82 JUMPI DUP2 SWAP1 PUSH2 0x34B1 PUSH1 0x9 DUP7 ADD SLOAD PUSH2 0x7129 JUMP JUMPDEST PUSH1 0x1F DUP2 GT PUSH2 0x4359 JUMPI JUMPDEST POP PUSH1 0x20 SWAP1 PUSH1 0x1F DUP4 GT PUSH1 0x1 EQ PUSH2 0x42E7 JUMPI PUSH1 0x0 SWAP3 PUSH2 0x42DC JUMPI JUMPDEST POP POP DUP2 PUSH1 0x1 SHL SWAP2 PUSH1 0x0 NOT SWAP1 PUSH1 0x3 SHL SHR NOT AND OR PUSH1 0x9 DUP4 ADD SSTORE JUMPDEST PUSH2 0x140 DUP2 ADD MLOAD PUSH1 0xA DUP4 ADD SSTORE PUSH2 0x160 DUP2 ADD MLOAD DUP1 MLOAD SWAP1 PUSH1 0x1 PUSH1 0x1 PUSH1 0x40 SHL SUB DUP3 GT PUSH2 0xB82 JUMPI DUP2 SWAP1 PUSH2 0x351A PUSH1 0xB DUP7 ADD SLOAD PUSH2 0x7129 JUMP JUMPDEST PUSH1 0x1F DUP2 GT PUSH2 0x42A7 JUMPI JUMPDEST POP PUSH1 0x20 SWAP1 PUSH1 0x1F DUP4 GT PUSH1 0x1 EQ PUSH2 0x4235 JUMPI PUSH1 0x0 SWAP3 PUSH2 0x422A JUMPI JUMPDEST POP POP DUP2 PUSH1 0x1 SHL SWAP2 PUSH1 0x0 NOT SWAP1 PUSH1 0x3 SHL SHR NOT AND OR PUSH1 0xB DUP4 ADD SSTORE JUMPDEST PUSH2 0x180 DUP2 ADD MLOAD PUSH1 0xC DUP4 ADD SSTORE PUSH2 0x1A0 DUP2 ADD MLOAD PUSH1 0xD DUP4 ADD SSTORE PUSH2 0x1C0 DUP2 ADD MLOAD DUP1 MLOAD SWAP1 PUSH1 0x1 PUSH1 0x40 SHL DUP3 GT PUSH2 0xB82 JUMPI PUSH1 0xE DUP5 ADD SLOAD DUP3 PUSH1 0xE DUP7 ADD SSTORE DUP1 DUP4 LT PUSH2 0x41B2 JUMPI JUMPDEST POP PUSH1 0x20 ADD SWAP1 PUSH1 0xE DUP5 ADD PUSH1 0x0 MSTORE PUSH1 0x20 PUSH1 0x0 KECCAK256 SWAP2 PUSH1 0x0 SWAP1 JUMPDEST DUP3 DUP3 LT PUSH2 0x409D JUMPI POP POP POP POP PUSH2 0x1E0 DUP2 ADD MLOAD DUP1 MLOAD SWAP1 PUSH1 0x1 PUSH1 0x1 PUSH1 0x40 SHL SUB DUP3 GT PUSH2 0xB82 JUMPI PUSH2 0x35D4 PUSH1 0xF DUP6 ADD SLOAD PUSH2 0x7129 JUMP JUMPDEST PUSH1 0x1F DUP2 GT PUSH2 0x4068 JUMPI JUMPDEST POP PUSH1 0x20 SWAP1 PUSH1 0x1F DUP4 GT PUSH1 0x1 EQ PUSH2 0x3FF2 JUMPI SWAP2 DUP1 PUSH1 0x10 SWAP5 SWAP3 PUSH2 0x200 SWAP5 PUSH1 0x0 SWAP3 PUSH2 0x3FE7 JUMPI JUMPDEST POP POP DUP2 PUSH1 0x1 SHL SWAP2 PUSH1 0x0 NOT SWAP1 PUSH1 0x3 SHL SHR NOT AND OR PUSH1 0xF DUP6 ADD SSTORE JUMPDEST ADD MLOAD ISZERO ISZERO PUSH1 0xFF DUP1 NOT DUP4 DUP6 ADD SLOAD AND SWAP2 AND OR SWAP2 ADD SSTORE DUP3 PUSH1 0x40 MLOAD PUSH1 0x20 DUP2 DUP6 MLOAD PUSH2 0x363F DUP2 DUP4 DUP6 DUP11 ADD PUSH2 0x6FA1 JUMP JUMPDEST DUP2 ADD PUSH1 0x3 DUP2 MSTORE SUB ADD SWAP1 KECCAK256 SSTORE CALLER PUSH1 0x0 MSTORE PUSH1 0x4 PUSH1 0x20 MSTORE PUSH2 0x3661 DUP4 PUSH1 0x40 PUSH1 0x0 KECCAK256 PUSH2 0x72E5 JUMP JUMPDEST PUSH1 0x40 MLOAD PUSH2 0x366D DUP2 PUSH2 0x6F0F JUMP JUMPDEST PUSH1 0x0 DUP2 MSTORE PUSH1 0x40 MLOAD SWAP1 DUP2 PUSH1 0x60 DUP2 ADD LT PUSH1 0x1 PUSH1 0x1 PUSH1 0x40 SHL SUB PUSH1 0x60 DUP5 ADD GT OR PUSH2 0xB82 JUMPI PUSH1 0x60 DUP3 ADD PUSH1 0x40 MSTORE PUSH1 0x2B DUP3 MSTORE PUSH32 0x50726F64756374206372656174656420616E64206661726D696E672073746167 PUSH1 0x20 DUP4 ADD MSTORE PUSH11 0x19481A5B9A5D1A585D1959 PUSH1 0xAA SHL PUSH1 0x40 DUP4 ADD MSTORE PUSH1 0x40 MLOAD SWAP1 PUSH2 0x36DF DUP3 PUSH2 0x6F0F JUMP JUMPDEST PUSH1 0x0 DUP3 MSTORE PUSH1 0x40 MLOAD SWAP3 PUSH2 0x36F0 DUP5 PUSH2 0x6F0F JUMP JUMPDEST PUSH1 0x0 DUP5 MSTORE DUP7 PUSH1 0x0 MSTORE PUSH1 0x1 PUSH1 0x20 MSTORE PUSH2 0x3711 PUSH1 0xFF PUSH1 0x10 PUSH1 0x40 PUSH1 0x0 KECCAK256 ADD SLOAD AND PUSH2 0x731A JUMP JUMPDEST DUP7 PUSH1 0x0 MSTORE PUSH1 0x1 PUSH1 0x20 MSTORE PUSH1 0x40 PUSH1 0x0 KECCAK256 PUSH1 0xFF PUSH1 0x10 PUSH1 0x40 MLOAD SWAP3 PUSH2 0x3730 DUP5 PUSH2 0x6EBC JUMP JUMPDEST DUP1 SLOAD DUP5 MSTORE PUSH1 0x1 DUP2 ADD SLOAD PUSH1 0x20 DUP6 ADD MSTORE PUSH1 0x2 DUP2 ADD SLOAD PUSH1 0x40 DUP6 ADD MSTORE PUSH1 0x3 DUP2 ADD SLOAD PUSH1 0x1 PUSH1 0x1 PUSH1 0xA0 SHL SUB SWAP1 DUP2 AND PUSH1 0x60 DUP7 ADD MSTORE PUSH1 0x4 DUP3 ADD SLOAD DUP2 AND PUSH1 0x80 DUP7 ADD MSTORE PUSH1 0x5 DUP3 ADD SLOAD AND PUSH1 0xA0 DUP6 ADD MSTORE PUSH2 0x3780 PUSH1 0x6 DUP3 ADD PUSH2 0x7163 JUMP JUMPDEST PUSH1 0xC0 DUP6 ADD MSTORE PUSH2 0x3791 PUSH1 0x7 DUP3 ADD PUSH2 0x7163 JUMP JUMPDEST PUSH1 0xE0 DUP6 ADD MSTORE PUSH1 0x8 DUP2 ADD SLOAD PUSH2 0x100 DUP6 ADD MSTORE PUSH2 0x37AD PUSH1 0x9 DUP3 ADD PUSH2 0x7163 JUMP JUMPDEST PUSH2 0x120 DUP6 ADD MSTORE PUSH1 0xA DUP2 ADD SLOAD PUSH2 0x140 DUP6 ADD MSTORE PUSH2 0x37CA PUSH1 0xB DUP3 ADD PUSH2 0x7163 JUMP JUMPDEST PUSH2 0x160 DUP6 ADD MSTORE PUSH1 0xC DUP2 ADD SLOAD PUSH2 0x180 DUP6 ADD MSTORE PUSH1 0xD DUP2 ADD SLOAD PUSH2 0x1A0 DUP6 ADD MSTORE PUSH2 0x37F2 PUSH1 0xE DUP3 ADD PUSH2 0x735F JUMP JUMPDEST PUSH2 0x1C0 DUP6 ADD MSTORE PUSH2 0x3804 PUSH1 0xF DUP3 ADD PUSH2 0x7163 JUMP JUMPDEST PUSH2 0x1E0 DUP6 ADD MSTORE ADD SLOAD AND ISZERO ISZERO PUSH2 0x200 DUP3 ADD MSTORE PUSH1 0x60 DUP2 ADD MLOAD PUSH1 0x1 PUSH1 0x1 PUSH1 0xA0 SHL SUB AND CALLER EQ SWAP1 DUP2 ISZERO PUSH2 0x3FD0 JUMPI JUMPDEST DUP2 ISZERO PUSH2 0x3FB9 JUMPI JUMPDEST POP DUP1 ISZERO PUSH2 0x3FA5 JUMPI JUMPDEST PUSH2 0x3845 SWAP1 PUSH2 0x73B4 JUMP JUMPDEST PUSH1 0x40 MLOAD SWAP8 PUSH2 0x3852 DUP10 PUSH2 0x6ED8 JUMP JUMPDEST PUSH1 0x0 DUP10 MSTORE CALLER PUSH1 0x20 DUP11 ADD MSTORE TIMESTAMP PUSH1 0x40 DUP11 ADD MSTORE PUSH1 0x60 DUP10 ADD MSTORE PUSH1 0x80 DUP9 ADD MSTORE PUSH1 0xA0 DUP8 ADD MSTORE PUSH1 0xC0 DUP7 ADD MSTORE PUSH1 0xE0 DUP6 ADD MSTORE DUP3 PUSH1 0x0 MSTORE PUSH1 0x2 PUSH1 0x20 MSTORE PUSH1 0x40 PUSH1 0x0 KECCAK256 DUP1 SLOAD PUSH1 0x1 PUSH1 0x40 SHL DUP2 LT ISZERO PUSH2 0xB82 JUMPI PUSH2 0x38A6 SWAP2 PUSH1 0x1 DUP3 ADD DUP2 SSTORE PUSH2 0x70F7 JUMP JUMPDEST SWAP5 SWAP1 SWAP5 PUSH2 0xF44 JUMPI DUP1 MLOAD PUSH1 0x7 DUP2 LT ISZERO PUSH2 0xF2E JUMPI DUP6 SLOAD PUSH1 0x20 DUP4 ADD MLOAD PUSH2 0x100 PUSH1 0x1 PUSH1 0xA8 SHL SUB PUSH1 0x8 SWAP2 SWAP1 SWAP2 SHL AND PUSH1 0xFF SWAP3 SWAP1 SWAP3 AND PUSH1 0x1 PUSH1 0x1 PUSH1 0xA8 SHL SUB NOT SWAP1 SWAP2 AND OR OR DUP6 SSTORE PUSH1 0x40 DUP2 ADD MLOAD PUSH1 0x1 DUP7 ADD SSTORE PUSH1 0x60 DUP2 ADD MLOAD DUP1 MLOAD SWAP1 PUSH1 0x1 PUSH1 0x1 PUSH1 0x40 SHL SUB DUP3 GT PUSH2 0xB82 JUMPI DUP2 SWAP1 PUSH2 0x3914 PUSH1 0x2 DUP10 ADD SLOAD PUSH2 0x7129 JUMP JUMPDEST PUSH1 0x1F DUP2 GT PUSH2 0x3F70 JUMPI JUMPDEST POP PUSH1 0x20 SWAP1 PUSH1 0x1F DUP4 GT PUSH1 0x1 EQ PUSH2 0x3EFE JUMPI PUSH1 0x0 SWAP3 PUSH2 0x3EF3 JUMPI JUMPDEST POP POP DUP2 PUSH1 0x1 SHL SWAP2 PUSH1 0x0 NOT SWAP1 PUSH1 0x3 SHL SHR NOT AND OR PUSH1 0x2 DUP7 ADD SSTORE JUMPDEST PUSH1 0x80 DUP2 ADD MLOAD DUP1 MLOAD SWAP1 PUSH1 0x1 PUSH1 0x1 PUSH1 0x40 SHL SUB DUP3 GT PUSH2 0xB82 JUMPI DUP2 SWAP1 PUSH2 0x3971 PUSH1 0x3 DUP10 ADD SLOAD PUSH2 0x7129 JUMP JUMPDEST PUSH1 0x1F DUP2 GT PUSH2 0x3EBE JUMPI JUMPDEST POP PUSH1 0x20 SWAP1 PUSH1 0x1F DUP4 GT PUSH1 0x1 EQ PUSH2 0x3E4C JUMPI PUSH1 0x0 SWAP3 PUSH2 0x3E41 JUMPI JUMPDEST POP POP DUP2 PUSH1 0x1 SHL SWAP2 PUSH1 0x0 NOT SWAP1 PUSH1 0x3 SHL SHR NOT AND OR PUSH1 0x3 DUP7 ADD SSTORE JUMPDEST PUSH1 0xA0 DUP2 ADD MLOAD DUP1 MLOAD SWAP1 PUSH1 0x1 PUSH1 0x40 SHL DUP3 GT PUSH2 0xB82 JUMPI PUSH1 0x4 DUP8 ADD SLOAD DUP3 PUSH1 0x4 DUP10 ADD SSTORE DUP1 DUP4 LT PUSH2 0x3DC9 JUMPI JUMPDEST POP PUSH1 0x20 ADD SWAP1 PUSH1 0x4 DUP8 ADD PUSH1 0x0 MSTORE PUSH1 0x20 PUSH1 0x0 KECCAK256 SWAP2 PUSH1 0x0 SWAP1 JUMPDEST DUP3 DUP3 LT PUSH2 0x3CB4 JUMPI POP POP POP POP PUSH1 0xC0 DUP2 ADD MLOAD DUP1 MLOAD SWAP1 PUSH1 0x1 PUSH1 0x1 PUSH1 0x40 SHL SUB DUP3 GT PUSH2 0xB82 JUMPI PUSH2 0x3A13 PUSH1 0x5 DUP9 ADD SLOAD PUSH2 0x7129 JUMP JUMPDEST PUSH1 0x1F DUP2 GT PUSH2 0x3C7F JUMPI JUMPDEST POP PUSH1 0x20 SWAP1 PUSH1 0x1F DUP4 GT PUSH1 0x1 EQ PUSH2 0x3C0C JUMPI PUSH1 0xE0 SWAP4 SWAP3 SWAP2 PUSH1 0x0 SWAP2 DUP4 PUSH2 0x3C01 JUMPI JUMPDEST POP POP DUP2 PUSH1 0x1 SHL SWAP2 PUSH1 0x0 NOT SWAP1 PUSH1 0x3 SHL SHR NOT AND OR PUSH1 0x5 DUP8 ADD SSTORE JUMPDEST ADD MLOAD SWAP1 DUP2 MLOAD SWAP5 PUSH1 0x1 PUSH1 0x1 PUSH1 0x40 SHL SUB DUP7 GT PUSH2 0xB82 JUMPI PUSH1 0x20 SWAP6 DUP6 SWAP4 PUSH2 0x3A77 PUSH1 0x6 DUP5 ADD SLOAD PUSH2 0x7129 JUMP JUMPDEST PUSH1 0x1F DUP2 GT PUSH2 0x3BCE JUMPI JUMPDEST POP DUP8 SWAP1 PUSH1 0x1F DUP4 GT PUSH1 0x1 EQ PUSH2 0x3B37 JUMPI DUP3 PUSH32 0x34854A6A88C16FC1B8C8E7EC924A44B14D32B3B126B466A3054B2B636FE48090 SWAP6 SWAP4 PUSH2 0x3B0B SWAP6 SWAP4 PUSH1 0x6 SWAP4 PUSH1 0x0 SWAP3 PUSH2 0x3B2C JUMPI JUMPDEST POP POP DUP2 PUSH1 0x1 SHL SWAP2 PUSH1 0x0 NOT SWAP1 PUSH1 0x3 SHL SHR NOT AND OR SWAP2 ADD SSTORE JUMPDEST PUSH1 0x40 MLOAD TIMESTAMP DUP2 MSTORE PUSH1 0x0 DUP6 PUSH1 0x0 DUP1 MLOAD PUSH1 0x20 PUSH2 0x76D4 DUP4 CODECOPY DUP2 MLOAD SWAP2 MSTORE DUP11 CALLER SWAP5 LOG4 PUSH2 0x3B21 PUSH1 0x40 MLOAD SWAP3 DUP4 SWAP3 PUSH1 0x60 DUP5 MSTORE PUSH1 0x60 DUP5 ADD SWAP1 PUSH2 0x7209 JUMP JUMPDEST PUSH1 0x4 CALLDATALOAD DUP10 DUP5 ADD MSTORE DUP3 DUP2 SUB PUSH1 0x40 DUP5 ADD MSTORE CALLER SWAP7 PUSH2 0x7209 JUMP JUMPDEST SUB SWAP1 LOG3 PUSH1 0x40 MLOAD SWAP1 DUP2 MSTORE RETURN JUMPDEST ADD MLOAD SWAP1 POP DUP12 DUP1 PUSH2 0x3AC2 JUMP JUMPDEST SWAP1 PUSH1 0x6 DUP5 ADD PUSH1 0x0 MSTORE DUP9 PUSH1 0x0 KECCAK256 SWAP2 PUSH1 0x0 JUMPDEST PUSH1 0x1F NOT DUP6 AND DUP2 LT PUSH2 0x3BB4 JUMPI POP DUP4 PUSH2 0x3B0B SWAP6 SWAP4 PUSH1 0x6 SWAP4 PUSH1 0x1 SWAP4 PUSH32 0x34854A6A88C16FC1B8C8E7EC924A44B14D32B3B126B466A3054B2B636FE48090 SWAP10 SWAP8 PUSH1 0x1F NOT DUP2 AND LT PUSH2 0x3B9B JUMPI JUMPDEST POP POP POP DUP2 SHL ADD SWAP2 ADD SSTORE PUSH2 0x3AD8 JUMP JUMPDEST ADD MLOAD PUSH1 0x0 NOT PUSH1 0xF8 DUP5 PUSH1 0x3 SHL AND SHR NOT AND SWAP1 SSTORE DUP12 DUP1 DUP1 PUSH2 0x3B8D JUMP JUMPDEST DUP2 DUP4 ADD MLOAD DUP5 SSTORE DUP10 SWAP8 POP PUSH1 0x1 SWAP1 SWAP4 ADD SWAP3 SWAP2 DUP11 ADD SWAP2 DUP11 ADD PUSH2 0x3B47 JUMP JUMPDEST PUSH2 0x3BFB SWAP1 PUSH1 0x6 DUP6 ADD PUSH1 0x0 MSTORE DUP10 PUSH1 0x0 KECCAK256 PUSH1 0x1F DUP6 ADD PUSH1 0x5 SHR DUP2 ADD SWAP2 DUP12 DUP7 LT PUSH2 0xB78 JUMPI PUSH1 0x1F ADD PUSH1 0x5 SHR ADD SWAP1 PUSH2 0x72CE JUMP JUMPDEST DUP9 PUSH2 0x3A80 JUMP JUMPDEST ADD MLOAD SWAP1 POP DUP9 DUP1 PUSH2 0x3A39 JUMP JUMPDEST SWAP1 PUSH1 0x5 DUP9 ADD PUSH1 0x0 MSTORE PUSH1 0x20 PUSH1 0x0 KECCAK256 SWAP2 PUSH1 0x0 JUMPDEST PUSH1 0x1F NOT DUP6 AND DUP2 LT PUSH2 0x3C67 JUMPI POP SWAP2 DUP4 SWAP2 PUSH1 0x1 SWAP4 PUSH1 0xE0 SWAP7 SWAP6 PUSH1 0x1F NOT DUP2 AND LT PUSH2 0x3C4E JUMPI JUMPDEST POP POP POP DUP2 SHL ADD PUSH1 0x5 DUP8 ADD SSTORE PUSH2 0x3A51 JUMP JUMPDEST ADD MLOAD PUSH1 0x0 NOT PUSH1 0xF8 DUP5 PUSH1 0x3 SHL AND SHR NOT AND SWAP1 SSTORE DUP9 DUP1 DUP1 PUSH2 0x3C3E JUMP JUMPDEST SWAP2 SWAP3 PUSH1 0x20 PUSH1 0x1 DUP2 SWAP3 DUP7 DUP6 ADD MLOAD DUP2 SSTORE ADD SWAP5 ADD SWAP3 ADD PUSH2 0x3C1D JUMP JUMPDEST PUSH2 0x3CAE SWAP1 PUSH1 0x5 DUP10 ADD PUSH1 0x0 MSTORE PUSH1 0x20 PUSH1 0x0 KECCAK256 PUSH1 0x1F DUP6 ADD PUSH1 0x5 SHR DUP2 ADD SWAP2 PUSH1 0x20 DUP7 LT PUSH2 0xB78 JUMPI PUSH1 0x1F ADD PUSH1 0x5 SHR ADD SWAP1 PUSH2 0x72CE JUMP JUMPDEST DUP8 PUSH2 0x3A1C JUMP JUMPDEST DUP1 MLOAD DUP1 MLOAD SWAP1 PUSH1 0x1 PUSH1 0x1 PUSH1 0x40 SHL SUB DUP3 GT PUSH2 0xB82 JUMPI PUSH2 0x3CD1 DUP7 SLOAD PUSH2 0x7129 JUMP JUMPDEST PUSH1 0x1F DUP2 GT PUSH2 0x3D97 JUMPI JUMPDEST POP PUSH1 0x20 SWAP1 PUSH1 0x1F DUP4 GT PUSH1 0x1 EQ PUSH2 0x3D27 JUMPI SWAP3 DUP3 PUSH1 0x1 SWAP5 SWAP4 PUSH1 0x20 SWAP4 DUP7 SWAP6 PUSH1 0x0 SWAP3 PUSH2 0x3D1C JUMPI JUMPDEST POP POP PUSH1 0x0 NOT PUSH1 0x3 DUP4 SWAP1 SHL SHR NOT AND SWAP1 DUP5 SHL OR DUP8 SSTORE JUMPDEST ADD SWAP5 ADD SWAP2 ADD SWAP1 SWAP3 PUSH2 0x39E5 JUMP JUMPDEST ADD MLOAD SWAP1 POP DUP15 DUP1 PUSH2 0x3CFC JUMP JUMPDEST SWAP1 DUP7 PUSH1 0x0 MSTORE PUSH1 0x20 PUSH1 0x0 KECCAK256 SWAP2 PUSH1 0x0 JUMPDEST PUSH1 0x1F NOT DUP6 AND DUP2 LT PUSH2 0x3D7F JUMPI POP DUP4 PUSH1 0x20 SWAP4 PUSH1 0x1 SWAP7 SWAP4 DUP8 SWAP7 SWAP4 DUP8 SWAP5 PUSH1 0x1F NOT DUP2 AND LT PUSH2 0x3D66 JUMPI JUMPDEST POP POP POP DUP2 SHL ADD DUP8 SSTORE PUSH2 0x3D10 JUMP JUMPDEST ADD MLOAD PUSH1 0x0 NOT PUSH1 0xF8 DUP5 PUSH1 0x3 SHL AND SHR NOT AND SWAP1 SSTORE DUP15 DUP1 DUP1 PUSH2 0x3D59 JUMP JUMPDEST SWAP2 SWAP3 PUSH1 0x20 PUSH1 0x1 DUP2 SWAP3 DUP7 DUP6 ADD MLOAD DUP2 SSTORE ADD SWAP5 ADD SWAP3 ADD PUSH2 0x3D35 JUMP JUMPDEST PUSH2 0x3DC3 SWAP1 DUP8 PUSH1 0x0 MSTORE PUSH1 0x20 PUSH1 0x0 KECCAK256 PUSH1 0x1F DUP6 ADD PUSH1 0x5 SHR DUP2 ADD SWAP2 PUSH1 0x20 DUP7 LT PUSH2 0xB78 JUMPI PUSH1 0x1F ADD PUSH1 0x5 SHR ADD SWAP1 PUSH2 0x72CE JUMP JUMPDEST DUP12 PUSH2 0x3CDA JUMP JUMPDEST PUSH1 0x4 DUP9 ADD PUSH1 0x0 MSTORE PUSH1 0x20 PUSH1 0x0 KECCAK256 SWAP1 DUP4 DUP3 ADD JUMPDEST DUP2 DUP4 ADD DUP2 LT PUSH2 0x3DEA JUMPI POP POP PUSH2 0x39CF JUMP JUMPDEST DUP1 PUSH2 0x3DF7 PUSH1 0x1 SWAP3 SLOAD PUSH2 0x7129 JUMP JUMPDEST DUP1 PUSH2 0x3E04 JUMPI JUMPDEST POP ADD PUSH2 0x3DDA JUMP JUMPDEST PUSH1 0x1F DUP2 GT DUP4 EQ PUSH2 0x3E1A JUMPI POP PUSH1 0x0 DUP2 SSTORE JUMPDEST DUP12 PUSH2 0x3DFD JUMP JUMPDEST PUSH1 0x0 SWAP1 DUP3 DUP3 MSTORE PUSH2 0x3E38 PUSH1 0x1F PUSH1 0x20 DUP5 KECCAK256 SWAP3 ADD PUSH1 0x5 SHR DUP3 ADD DUP6 DUP4 ADD PUSH2 0x72CE JUMP JUMPDEST DUP2 DUP4 SSTORE SSTORE PUSH2 0x3E14 JUMP JUMPDEST ADD MLOAD SWAP1 POP DUP8 DUP1 PUSH2 0x3991 JUMP JUMPDEST SWAP3 POP PUSH1 0x3 DUP9 ADD PUSH1 0x0 MSTORE PUSH1 0x20 PUSH1 0x0 KECCAK256 SWAP1 PUSH1 0x0 SWAP4 JUMPDEST PUSH1 0x1F NOT DUP5 AND DUP6 LT PUSH2 0x3EA3 JUMPI PUSH1 0x1 SWAP5 POP DUP4 PUSH1 0x1F NOT DUP2 AND LT PUSH2 0x3E8A JUMPI JUMPDEST POP POP POP DUP2 SHL ADD PUSH1 0x3 DUP7 ADD SSTORE PUSH2 0x39A9 JUMP JUMPDEST ADD MLOAD PUSH1 0x0 NOT PUSH1 0xF8 DUP5 PUSH1 0x3 SHL AND SHR NOT AND SWAP1 SSTORE DUP8 DUP1 DUP1 PUSH2 0x3E7A JUMP JUMPDEST DUP2 DUP2 ADD MLOAD DUP4 SSTORE PUSH1 0x20 SWAP5 DUP6 ADD SWAP5 PUSH1 0x1 SWAP1 SWAP4 ADD SWAP3 SWAP1 SWAP2 ADD SWAP1 PUSH2 0x3E5F JUMP JUMPDEST PUSH2 0x3EED SWAP1 PUSH1 0x3 DUP11 ADD PUSH1 0x0 MSTORE PUSH1 0x20 PUSH1 0x0 KECCAK256 PUSH1 0x1F DUP6 ADD PUSH1 0x5 SHR DUP2 ADD SWAP2 PUSH1 0x20 DUP7 LT PUSH2 0xB78 JUMPI PUSH1 0x1F ADD PUSH1 0x5 SHR ADD SWAP1 PUSH2 0x72CE JUMP JUMPDEST DUP9 PUSH2 0x397A JUMP JUMPDEST ADD MLOAD SWAP1 POP DUP8 DUP1 PUSH2 0x3934 JUMP JUMPDEST SWAP3 POP PUSH1 0x2 DUP9 ADD PUSH1 0x0 MSTORE PUSH1 0x20 PUSH1 0x0 KECCAK256 SWAP1 PUSH1 0x0 SWAP4 JUMPDEST PUSH1 0x1F NOT DUP5 AND DUP6 LT PUSH2 0x3F55 JUMPI PUSH1 0x1 SWAP5 POP DUP4 PUSH1 0x1F NOT DUP2 AND LT PUSH2 0x3F3C JUMPI JUMPDEST POP POP POP DUP2 SHL ADD PUSH1 0x2 DUP7 ADD SSTORE PUSH2 0x394C JUMP JUMPDEST ADD MLOAD PUSH1 0x0 NOT PUSH1 0xF8 DUP5 PUSH1 0x3 SHL AND SHR NOT AND SWAP1 SSTORE DUP8 DUP1 DUP1 PUSH2 0x3F2C JUMP JUMPDEST DUP2 DUP2 ADD MLOAD DUP4 SSTORE PUSH1 0x20 SWAP5 DUP6 ADD SWAP5 PUSH1 0x1 SWAP1 SWAP4 ADD SWAP3 SWAP1 SWAP2 ADD SWAP1 PUSH2 0x3F11 JUMP JUMPDEST PUSH2 0x3F9F SWAP1 PUSH1 0x2 DUP11 ADD PUSH1 0x0 MSTORE PUSH1 0x20 PUSH1 0x0 KECCAK256 PUSH1 0x1F DUP6 ADD PUSH1 0x5 SHR DUP2 ADD SWAP2 PUSH1 0x20 DUP7 LT PUSH2 0xB78 JUMPI PUSH1 0x1F ADD PUSH1 0x5 SHR ADD SWAP1 PUSH2 0x72CE JUMP JUMPDEST DUP9 PUSH2 0x391D JUMP JUMPDEST POP PUSH1 0x0 SLOAD PUSH1 0x1 PUSH1 0x1 PUSH1 0xA0 SHL SUB AND CALLER EQ PUSH2 0x383C JUMP JUMPDEST PUSH1 0xA0 ADD MLOAD PUSH1 0x1 PUSH1 0x1 PUSH1 0xA0 SHL SUB AND CALLER EQ SWAP1 POP DUP10 PUSH2 0x3834 JUMP JUMPDEST PUSH1 0x80 DUP2 ADD MLOAD PUSH1 0x1 PUSH1 0x1 PUSH1 0xA0 SHL SUB AND CALLER EQ SWAP2 POP PUSH2 0x382D JUMP JUMPDEST ADD MLOAD SWAP1 POP DUP11 DUP1 PUSH2 0x35FE JUMP JUMPDEST SWAP1 PUSH1 0xF DUP6 ADD PUSH1 0x0 MSTORE PUSH1 0x20 PUSH1 0x0 KECCAK256 SWAP2 PUSH1 0x0 JUMPDEST PUSH1 0x1F NOT DUP6 AND DUP2 LT PUSH2 0x4050 JUMPI POP SWAP3 PUSH1 0x10 SWAP5 SWAP3 PUSH1 0x1 SWAP3 PUSH2 0x200 SWAP6 DUP4 PUSH1 0x1F NOT DUP2 AND LT PUSH2 0x4037 JUMPI JUMPDEST POP POP POP DUP2 SHL ADD PUSH1 0xF DUP6 ADD SSTORE PUSH2 0x3616 JUMP JUMPDEST ADD MLOAD PUSH1 0x0 NOT PUSH1 0xF8 DUP5 PUSH1 0x3 SHL AND SHR NOT AND SWAP1 SSTORE DUP11 DUP1 DUP1 PUSH2 0x4027 JUMP JUMPDEST SWAP2 SWAP3 PUSH1 0x20 PUSH1 0x1 DUP2 SWAP3 DUP7 DUP6 ADD MLOAD DUP2 SSTORE ADD SWAP5 ADD SWAP3 ADD PUSH2 0x4003 JUMP JUMPDEST PUSH2 0x4097 SWAP1 PUSH1 0xF DUP7 ADD PUSH1 0x0 MSTORE PUSH1 0x20 PUSH1 0x0 KECCAK256 PUSH1 0x1F DUP6 ADD PUSH1 0x5 SHR DUP2 ADD SWAP2 PUSH1 0x20 DUP7 LT PUSH2 0xB78 JUMPI PUSH1 0x1F ADD PUSH1 0x5 SHR ADD SWAP1 PUSH2 0x72CE JUMP JUMPDEST DUP9 PUSH2 0x35DD JUMP JUMPDEST DUP1 MLOAD DUP1 MLOAD SWAP1 PUSH1 0x1 PUSH1 0x1 PUSH1 0x40 SHL SUB DUP3 GT PUSH2 0xB82 JUMPI PUSH2 0x40BA DUP7 SLOAD PUSH2 0x7129 JUMP JUMPDEST PUSH1 0x1F DUP2 GT PUSH2 0x4180 JUMPI JUMPDEST POP PUSH1 0x20 SWAP1 PUSH1 0x1F DUP4 GT PUSH1 0x1 EQ PUSH2 0x4110 JUMPI SWAP3 DUP3 PUSH1 0x1 SWAP5 SWAP4 PUSH1 0x20 SWAP4 DUP7 SWAP6 PUSH1 0x0 SWAP3 PUSH2 0x4105 JUMPI JUMPDEST POP POP PUSH1 0x0 NOT PUSH1 0x3 DUP4 SWAP1 SHL SHR NOT AND SWAP1 DUP5 SHL OR DUP8 SSTORE JUMPDEST ADD SWAP5 ADD SWAP2 ADD SWAP1 SWAP3 PUSH2 0x35A5 JUMP JUMPDEST ADD MLOAD SWAP1 POP DUP16 DUP1 PUSH2 0x40E5 JUMP JUMPDEST SWAP1 DUP7 PUSH1 0x0 MSTORE PUSH1 0x20 PUSH1 0x0 KECCAK256 SWAP2 PUSH1 0x0 JUMPDEST PUSH1 0x1F NOT DUP6 AND DUP2 LT PUSH2 0x4168 JUMPI POP DUP4 PUSH1 0x20 SWAP4 PUSH1 0x1 SWAP7 SWAP4 DUP8 SWAP7 SWAP4 DUP8 SWAP5 PUSH1 0x1F NOT DUP2 AND LT PUSH2 0x414F JUMPI JUMPDEST POP POP POP DUP2 SHL ADD DUP8 SSTORE PUSH2 0x40F9 JUMP JUMPDEST ADD MLOAD PUSH1 0x0 NOT PUSH1 0xF8 DUP5 PUSH1 0x3 SHL AND SHR NOT AND SWAP1 SSTORE DUP16 DUP1 DUP1 PUSH2 0x4142 JUMP JUMPDEST SWAP2 SWAP3 PUSH1 0x20 PUSH1 0x1 DUP2 SWAP3 DUP7 DUP6 ADD MLOAD DUP2 SSTORE ADD SWAP5 ADD SWAP3 ADD PUSH2 0x411E JUMP JUMPDEST PUSH2 0x41AC SWAP1 DUP8 PUSH1 0x0 MSTORE PUSH1 0x20 PUSH1 0x0 KECCAK256 PUSH1 0x1F DUP6 ADD PUSH1 0x5 SHR DUP2 ADD SWAP2 PUSH1 0x20 DUP7 LT PUSH2 0xB78 JUMPI PUSH1 0x1F ADD PUSH1 0x5 SHR ADD SWAP1 PUSH2 0x72CE JUMP JUMPDEST DUP13 PUSH2 0x40C3 JUMP JUMPDEST PUSH1 0xE DUP6 ADD PUSH1 0x0 MSTORE PUSH1 0x20 PUSH1 0x0 KECCAK256 SWAP1 DUP4 DUP3 ADD JUMPDEST DUP2 DUP4 ADD DUP2 LT PUSH2 0x41D3 JUMPI POP POP PUSH2 0x358F JUMP JUMPDEST DUP1 PUSH2 0x41E0 PUSH1 0x1 SWAP3 SLOAD PUSH2 0x7129 JUMP JUMPDEST DUP1 PUSH2 0x41ED JUMPI JUMPDEST POP ADD PUSH2 0x41C3 JUMP JUMPDEST PUSH1 0x1F DUP2 GT DUP4 EQ PUSH2 0x4203 JUMPI POP PUSH1 0x0 DUP2 SSTORE JUMPDEST DUP13 PUSH2 0x41E6 JUMP JUMPDEST PUSH1 0x0 SWAP1 DUP3 DUP3 MSTORE PUSH2 0x4221 PUSH1 0x1F PUSH1 0x20 DUP5 KECCAK256 SWAP3 ADD PUSH1 0x5 SHR DUP3 ADD DUP6 DUP4 ADD PUSH2 0x72CE JUMP JUMPDEST DUP2 DUP4 SSTORE SSTORE PUSH2 0x41FD JUMP JUMPDEST ADD MLOAD SWAP1 POP DUP9 DUP1 PUSH2 0x353A JUMP JUMPDEST SWAP3 POP PUSH1 0xB DUP6 ADD PUSH1 0x0 MSTORE PUSH1 0x20 PUSH1 0x0 KECCAK256 SWAP1 PUSH1 0x0 SWAP4 JUMPDEST PUSH1 0x1F NOT DUP5 AND DUP6 LT PUSH2 0x428C JUMPI PUSH1 0x1 SWAP5 POP DUP4 PUSH1 0x1F NOT DUP2 AND LT PUSH2 0x4273 JUMPI JUMPDEST POP POP POP DUP2 SHL ADD PUSH1 0xB DUP4 ADD SSTORE PUSH2 0x3552 JUMP JUMPDEST ADD MLOAD PUSH1 0x0 NOT PUSH1 0xF8 DUP5 PUSH1 0x3 SHL AND SHR NOT AND SWAP1 SSTORE DUP9 DUP1 DUP1 PUSH2 0x4263 JUMP JUMPDEST DUP2 DUP2 ADD MLOAD DUP4 SSTORE PUSH1 0x20 SWAP5 DUP6 ADD SWAP5 PUSH1 0x1 SWAP1 SWAP4 ADD SWAP3 SWAP1 SWAP2 ADD SWAP1 PUSH2 0x4248 JUMP JUMPDEST PUSH2 0x42D6 SWAP1 PUSH1 0xB DUP8 ADD PUSH1 0x0 MSTORE PUSH1 0x20 PUSH1 0x0 KECCAK256 PUSH1 0x1F DUP6 ADD PUSH1 0x5 SHR DUP2 ADD SWAP2 PUSH1 0x20 DUP7 LT PUSH2 0xB78 JUMPI PUSH1 0x1F ADD PUSH1 0x5 SHR ADD SWAP1 PUSH2 0x72CE JUMP JUMPDEST DUP10 PUSH2 0x3523 JUMP JUMPDEST ADD MLOAD SWAP1 POP DUP9 DUP1 PUSH2 0x34D1 JUMP JUMPDEST SWAP3 POP PUSH1 0x9 DUP6 ADD PUSH1 0x0 MSTORE PUSH1 0x20 PUSH1 0x0 KECCAK256 SWAP1 PUSH1 0x0 SWAP4 JUMPDEST PUSH1 0x1F NOT DUP5 AND DUP6 LT PUSH2 0x433E JUMPI PUSH1 0x1 SWAP5 POP DUP4 PUSH1 0x1F NOT DUP2 AND LT PUSH2 0x4325 JUMPI JUMPDEST POP POP POP DUP2 SHL ADD PUSH1 0x9 DUP4 ADD SSTORE PUSH2 0x34E9 JUMP JUMPDEST ADD MLOAD PUSH1 0x0 NOT PUSH1 0xF8 DUP5 PUSH1 0x3 SHL AND SHR NOT AND SWAP1 SSTORE DUP9 DUP1 DUP1 PUSH2 0x4315 JUMP JUMPDEST DUP2 DUP2 ADD MLOAD DUP4 SSTORE PUSH1 0x20 SWAP5 DUP6 ADD SWAP5 PUSH1 0x1 SWAP1 SWAP4 ADD SWAP3 SWAP1 SWAP2 ADD SWAP1 PUSH2 0x42FA JUMP JUMPDEST PUSH2 0x4388 SWAP1 PUSH1 0x9 DUP8 ADD PUSH1 0x0 MSTORE PUSH1 0x20 PUSH1 0x0 KECCAK256 PUSH1 0x1F DUP6 ADD PUSH1 0x5 SHR DUP2 ADD SWAP2 PUSH1 0x20 DUP7 LT PUSH2 0xB78 JUMPI PUSH1 0x1F ADD PUSH1 0x5 SHR ADD SWAP1 PUSH2 0x72CE JUMP JUMPDEST DUP10 PUSH2 0x34BA JUMP JUMPDEST ADD MLOAD SWAP1 POP DUP9 DUP1 PUSH2 0x3468 JUMP JUMPDEST SWAP3 POP PUSH1 0x7 DUP6 ADD PUSH1 0x0 MSTORE PUSH1 0x20 PUSH1 0x0 KECCAK256 SWAP1 PUSH1 0x0 SWAP4 JUMPDEST PUSH1 0x1F NOT DUP5 AND DUP6 LT PUSH2 0x43F0 JUMPI PUSH1 0x1 SWAP5 POP DUP4 PUSH1 0x1F NOT DUP2 AND LT PUSH2 0x43D7 JUMPI JUMPDEST POP POP POP DUP2 SHL ADD PUSH1 0x7 DUP4 ADD SSTORE PUSH2 0x3480 JUMP JUMPDEST ADD MLOAD PUSH1 0x0 NOT PUSH1 0xF8 DUP5 PUSH1 0x3 SHL AND SHR NOT AND SWAP1 SSTORE DUP9 DUP1 DUP1 PUSH2 0x43C7 JUMP JUMPDEST DUP2 DUP2 ADD MLOAD DUP4 SSTORE PUSH1 0x20 SWAP5 DUP6 ADD SWAP5 PUSH1 0x1 SWAP1 SWAP4 ADD SWAP3 SWAP1 SWAP2 ADD SWAP1 PUSH2 0x43AC JUMP JUMPDEST PUSH2 0x443A SWAP1 PUSH1 0x7 DUP8 ADD PUSH1 0x0 MSTORE PUSH1 0x20 PUSH1 0x0 KECCAK256 PUSH1 0x1F DUP6 ADD PUSH1 0x5 SHR DUP2 ADD SWAP2 PUSH1 0x20 DUP7 LT PUSH2 0xB78 JUMPI PUSH1 0x1F ADD PUSH1 0x5 SHR ADD SWAP1 PUSH2 0x72CE JUMP JUMPDEST DUP10 PUSH2 0x3451 JUMP JUMPDEST ADD MLOAD SWAP1 POP DUP9 DUP1 PUSH2 0x340B JUMP JUMPDEST SWAP3 POP PUSH1 0x6 DUP6 ADD PUSH1 0x0 MSTORE PUSH1 0x20 PUSH1 0x0 KECCAK256 SWAP1 PUSH1 0x0 SWAP4 JUMPDEST PUSH1 0x1F NOT DUP5 AND DUP6 LT PUSH2 0x44A2 JUMPI PUSH1 0x1 SWAP5 POP DUP4 PUSH1 0x1F NOT DUP2 AND LT PUSH2 0x4489 JUMPI JUMPDEST POP POP POP DUP2 SHL ADD PUSH1 0x6 DUP4 ADD SSTORE PUSH2 0x3423 JUMP JUMPDEST ADD MLOAD PUSH1 0x0 NOT PUSH1 0xF8 DUP5 PUSH1 0x3 SHL AND SHR NOT AND SWAP1 SSTORE DUP9 DUP1 DUP1 PUSH2 0x4479 JUMP JUMPDEST DUP2 DUP2 ADD MLOAD DUP4 SSTORE PUSH1 0x20 SWAP5 DUP6 ADD SWAP5 PUSH1 0x1 SWAP1 SWAP4 ADD SWAP3 SWAP1 SWAP2 ADD SWAP1 PUSH2 0x445E JUMP JUMPDEST PUSH2 0x44EC SWAP1 PUSH1 0x6 DUP8 ADD PUSH1 0x0 MSTORE PUSH1 0x20 PUSH1 0x0 KECCAK256 PUSH1 0x1F DUP6 ADD PUSH1 0x5 SHR DUP2 ADD SWAP2 PUSH1 0x20 DUP7 LT PUSH2 0xB78 JUMPI PUSH1 0x1F ADD PUSH1 0x5 SHR ADD SWAP1 PUSH2 0x72CE JUMP JUMPDEST DUP10 PUSH2 0x33F4 JUMP JUMPDEST PUSH4 0x4E487B71 PUSH1 0xE0 SHL PUSH1 0x0 MSTORE PUSH1 0x11 PUSH1 0x4 MSTORE PUSH1 0x24 PUSH1 0x0 REVERT JUMPDEST PUSH1 0x40 MLOAD PUSH3 0x461BCD PUSH1 0xE5 SHL DUP2 MSTORE PUSH1 0x20 PUSH1 0x4 DUP3 ADD MSTORE PUSH1 0x16 PUSH1 0x24 DUP3 ADD MSTORE PUSH22 0x515220636F646520616C726561647920657869737473 PUSH1 0x50 SHL PUSH1 0x44 DUP3 ADD MSTORE PUSH1 0x64 SWAP1 REVERT JUMPDEST PUSH1 0x40 MLOAD PUSH3 0x461BCD PUSH1 0xE5 SHL DUP2 MSTORE PUSH1 0x20 PUSH1 0x4 DUP3 ADD MSTORE PUSH1 0x1C PUSH1 0x24 DUP3 ADD MSTORE PUSH32 0x515220636F646520686173682063616E6E6F7420626520656D70747900000000 PUSH1 0x44 DUP3 ADD MSTORE PUSH1 0x64 SWAP1 REVERT JUMPDEST PUSH1 0x40 MLOAD PUSH3 0x461BCD PUSH1 0xE5 SHL DUP2 MSTORE PUSH1 0x20 PUSH1 0x4 DUP3 ADD MSTORE PUSH1 0x1F PUSH1 0x24 DUP3 ADD MSTORE PUSH32 0x5175616E74697479206D7573742062652067726561746572207468616E203000 PUSH1 0x44 DUP3 ADD MSTORE PUSH1 0x64 SWAP1 REVERT JUMPDEST PUSH1 0x40 MLOAD PUSH3 0x461BCD PUSH1 0xE5 SHL DUP2 MSTORE PUSH1 0x20 PUSH1 0x4 DUP3 ADD MSTORE PUSH1 0x19 PUSH1 0x24 DUP3 ADD MSTORE PUSH32 0x43726F70206E616D652063616E6E6F7420626520656D70747900000000000000 PUSH1 0x44 DUP3 ADD MSTORE PUSH1 0x64 SWAP1 REVERT JUMPDEST CALLVALUE PUSH2 0x159 JUMPI PUSH2 0x4623 CALLDATASIZE PUSH2 0x7094 JUMP JUMPDEST PUSH1 0x40 MLOAD SWAP1 PUSH2 0x4630 DUP3 PUSH2 0x6F0F JUMP JUMPDEST PUSH1 0x0 DUP3 MSTORE PUSH1 0x40 MLOAD SWAP3 PUSH2 0x4641 DUP5 PUSH2 0x6F0F JUMP JUMPDEST PUSH1 0x0 DUP5 MSTORE DUP6 PUSH1 0x0 MSTORE PUSH1 0x1 PUSH1 0x20 MSTORE PUSH2 0x4662 PUSH1 0xFF PUSH1 0x10 PUSH1 0x40 PUSH1 0x0 KECCAK256 ADD SLOAD AND PUSH2 0x731A JUMP JUMPDEST DUP6 PUSH1 0x0 MSTORE PUSH1 0x1 PUSH1 0x20 MSTORE PUSH1 0x40 PUSH1 0x0 KECCAK256 PUSH1 0x40 MLOAD SWAP1 PUSH2 0x467D DUP3 PUSH2 0x6EBC JUMP JUMPDEST DUP1 SLOAD DUP3 MSTORE PUSH1 0x1 DUP2 ADD SLOAD PUSH1 0x20 DUP4 ADD MSTORE PUSH1 0x2 DUP2 ADD SLOAD PUSH1 0x40 DUP4 ADD MSTORE PUSH1 0x3 DUP2 ADD SLOAD PUSH1 0x1 PUSH1 0x1 PUSH1 0xA0 SHL SUB SWAP1 DUP2 AND PUSH1 0x60 DUP5 ADD MSTORE PUSH1 0x4 DUP3 ADD SLOAD DUP2 AND PUSH1 0x80 DUP5 ADD MSTORE PUSH1 0x5 DUP3 ADD SLOAD AND PUSH1 0xA0 DUP4 ADD SWAP1 DUP2 MSTORE SWAP1 PUSH1 0xFF SWAP1 PUSH1 0x10 SWAP1 PUSH2 0x46D6 PUSH1 0x6 DUP3 ADD PUSH2 0x7163 JUMP JUMPDEST PUSH1 0xC0 DUP7 ADD MSTORE PUSH2 0x46E7 PUSH1 0x7 DUP3 ADD PUSH2 0x7163 JUMP JUMPDEST PUSH1 0xE0 DUP7 ADD MSTORE PUSH1 0x8 DUP2 ADD SLOAD PUSH2 0x100 DUP7 ADD MSTORE PUSH2 0x4703 PUSH1 0x9 DUP3 ADD PUSH2 0x7163 JUMP JUMPDEST PUSH2 0x120 DUP7 ADD MSTORE PUSH1 0xA DUP2 ADD SLOAD PUSH2 0x140 DUP7 ADD MSTORE PUSH2 0x4720 PUSH1 0xB DUP3 ADD PUSH2 0x7163 JUMP JUMPDEST PUSH2 0x160 DUP7 ADD MSTORE PUSH1 0xC DUP2 ADD SLOAD PUSH2 0x180 DUP7 ADD MSTORE PUSH1 0xD DUP2 ADD SLOAD PUSH2 0x1A0 DUP7 ADD MSTORE PUSH2 0x4748 PUSH1 0xE DUP3 ADD PUSH2 0x735F JUMP JUMPDEST PUSH2 0x1C0 DUP7 ADD MSTORE PUSH2 0x475A PUSH1 0xF DUP3 ADD PUSH2 0x7163 JUMP JUMPDEST PUSH2 0x1E0 DUP7 ADD MSTORE ADD SLOAD AND ISZERO ISZERO PUSH2 0x200 DUP4 ADD MSTORE PUSH1 0x60 DUP3 ADD MLOAD PUSH1 0x1 PUSH1 0x1 PUSH1 0xA0 SHL SUB AND CALLER EQ SWAP2 DUP3 ISZERO PUSH2 0x4E92 JUMPI JUMPDEST POP DUP2 ISZERO PUSH2 0x4E7E JUMPI JUMPDEST POP DUP1 ISZERO PUSH2 0x4E6A JUMPI JUMPDEST PUSH2 0x479C SWAP1 PUSH2 0x73B4 JUMP JUMPDEST PUSH1 0x40 MLOAD SWAP5 PUSH2 0x47A9 DUP7 PUSH2 0x6ED8 JUMP JUMPDEST PUSH1 0x3 DUP7 MSTORE CALLER PUSH1 0x20 DUP8 ADD MSTORE TIMESTAMP PUSH1 0x40 DUP8 ADD MSTORE PUSH1 0x60 DUP7 ADD MSTORE PUSH1 0x80 DUP6 ADD MSTORE PUSH1 0xA0 DUP5 ADD MSTORE PUSH1 0xC0 DUP4 ADD MSTORE PUSH1 0xE0 DUP3 ADD MSTORE DUP2 PUSH1 0x0 MSTORE PUSH1 0x2 PUSH1 0x20 MSTORE PUSH1 0x40 PUSH1 0x0 KECCAK256 DUP1 SLOAD PUSH1 0x1 PUSH1 0x40 SHL DUP2 LT ISZERO PUSH2 0xB82 JUMPI PUSH2 0x47FD SWAP2 PUSH1 0x1 DUP3 ADD DUP2 SSTORE PUSH2 0x70F7 JUMP JUMPDEST SWAP2 SWAP1 SWAP2 PUSH2 0xF44 JUMPI DUP1 MLOAD PUSH1 0x7 DUP2 LT ISZERO PUSH2 0xF2E JUMPI DUP3 SLOAD PUSH1 0x20 DUP4 ADD MLOAD PUSH2 0x100 PUSH1 0x1 PUSH1 0xA8 SHL SUB PUSH1 0x8 SWAP2 SWAP1 SWAP2 SHL AND PUSH1 0xFF SWAP3 SWAP1 SWAP3 AND PUSH1 0x1 PUSH1 0x1 PUSH1 0xA8 SHL SUB NOT SWAP1 SWAP2 AND OR OR DUP3 SSTORE PUSH1 0x40 DUP2 ADD MLOAD PUSH1 0x1 DUP4 ADD SSTORE PUSH1 0x60 DUP2 ADD MLOAD DUP1 MLOAD SWAP1 SWAP4 SWAP1 PUSH1 0x1 PUSH1 0x1 PUSH1 0x40 SHL SUB DUP2 GT PUSH2 0xB82 JUMPI PUSH2 0x486B PUSH1 0x2 DUP6 ADD SLOAD PUSH2 0x7129 JUMP JUMPDEST PUSH1 0x1F DUP2 GT PUSH2 0x4E35 JUMPI JUMPDEST POP PUSH1 0x20 PUSH1 0x1F DUP3 GT PUSH1 0x1 EQ PUSH2 0x4DC6 JUMPI DUP2 SWAP3 SWAP4 SWAP5 SWAP6 PUSH1 0x0 SWAP3 PUSH2 0x4DBB JUMPI JUMPDEST POP POP DUP2 PUSH1 0x1 SHL SWAP2 PUSH1 0x0 NOT SWAP1 PUSH1 0x3 SHL SHR NOT AND OR PUSH1 0x2 DUP5 ADD SSTORE JUMPDEST PUSH1 0x80 DUP3 ADD MLOAD SWAP3 DUP4 MLOAD PUSH1 0x1 PUSH1 0x1 PUSH1 0x40 SHL SUB DUP2 GT PUSH2 0xB82 JUMPI PUSH2 0x48CA PUSH1 0x3 DUP4 ADD SLOAD PUSH2 0x7129 JUMP JUMPDEST PUSH1 0x1F DUP2 GT PUSH2 0x4D86 JUMPI JUMPDEST POP PUSH1 0x20 PUSH1 0x1F DUP3 GT PUSH1 0x1 EQ PUSH2 0x4D17 JUMPI DUP2 SWAP3 SWAP4 SWAP5 SWAP6 PUSH1 0x0 SWAP3 PUSH2 0x4D0C JUMPI JUMPDEST POP POP DUP2 PUSH1 0x1 SHL SWAP2 PUSH1 0x0 NOT SWAP1 PUSH1 0x3 SHL SHR NOT AND OR PUSH1 0x3 DUP3 ADD SSTORE JUMPDEST PUSH1 0xA0 DUP4 ADD MLOAD DUP1 MLOAD SWAP1 PUSH1 0x1 PUSH1 0x40 SHL DUP3 GT PUSH2 0xB82 JUMPI PUSH1 0x4 DUP4 ADD SLOAD DUP3 PUSH1 0x4 DUP6 ADD SSTORE DUP1 DUP4 LT PUSH2 0x4C94 JUMPI JUMPDEST POP PUSH1 0x20 ADD SWAP1 PUSH1 0x4 DUP4 ADD PUSH1 0x0 MSTORE PUSH1 0x20 PUSH1 0x0 KECCAK256 SWAP2 PUSH1 0x0 SWAP1 JUMPDEST DUP3 DUP3 LT PUSH2 0x4B7F JUMPI POP POP POP POP PUSH1 0xC0 DUP4 ADD MLOAD DUP1 MLOAD SWAP1 PUSH1 0x1 PUSH1 0x1 PUSH1 0x40 SHL SUB DUP3 GT PUSH2 0xB82 JUMPI PUSH2 0x4970 PUSH1 0x5 DUP5 ADD SLOAD PUSH2 0x7129 JUMP JUMPDEST PUSH1 0x1F DUP2 GT PUSH2 0x4B4A JUMPI JUMPDEST POP PUSH1 0x20 SWAP1 PUSH1 0x1F DUP4 GT PUSH1 0x1 EQ PUSH2 0x4AD5 JUMPI SWAP2 DUP1 PUSH1 0xE0 SWAP5 SWAP3 PUSH1 0x6 SWAP5 PUSH1 0x0 SWAP3 PUSH2 0x4ACA JUMPI JUMPDEST POP POP DUP2 PUSH1 0x1 SHL SWAP2 PUSH1 0x0 NOT SWAP1 PUSH1 0x3 SHL SHR NOT AND OR PUSH1 0x5 DUP3 ADD SSTORE JUMPDEST ADD SWAP3 ADD MLOAD SWAP2 DUP3 MLOAD PUSH1 0x1 PUSH1 0x1 PUSH1 0x40 SHL SUB DUP2 GT PUSH2 0xB82 JUMPI PUSH2 0x49D0 DUP3 SLOAD PUSH2 0x7129 JUMP JUMPDEST PUSH1 0x1F DUP2 GT PUSH2 0x4A98 JUMPI JUMPDEST POP PUSH1 0x20 PUSH1 0x1F DUP3 GT PUSH1 0x1 EQ PUSH2 0x4A32 JUMPI DUP2 SWAP3 SWAP4 SWAP5 PUSH1 0x0 SWAP3 PUSH2 0x4A27 JUMPI JUMPDEST POP POP DUP2 PUSH1 0x1 SHL SWAP2 PUSH1 0x0 NOT SWAP1 PUSH1 0x3 SHL SHR NOT AND OR SWAP1 SSTORE JUMPDEST PUSH1 0x3 PUSH1 0x40 MLOAD SWAP2 TIMESTAMP DUP4 MSTORE PUSH1 0x0 DUP1 MLOAD PUSH1 0x20 PUSH2 0x76D4 DUP4 CODECOPY DUP2 MLOAD SWAP2 MSTORE PUSH1 0x20 CALLER SWAP5 LOG4 STOP JUMPDEST ADD MLOAD SWAP1 POP DUP5 DUP1 PUSH2 0x49F3 JUMP JUMPDEST PUSH1 0x1F NOT DUP3 AND SWAP1 DUP4 PUSH1 0x0 MSTORE PUSH1 0x20 PUSH1 0x0 KECCAK256 SWAP2 PUSH1 0x0 JUMPDEST DUP2 DUP2 LT PUSH2 0x4A80 JUMPI POP SWAP6 DUP4 PUSH1 0x1 SWAP6 SWAP7 SWAP8 LT PUSH2 0x4A67 JUMPI JUMPDEST POP POP POP DUP2 SHL ADD SWAP1 SSTORE PUSH2 0x4A08 JUMP JUMPDEST ADD MLOAD PUSH1 0x0 NOT PUSH1 0xF8 DUP5 PUSH1 0x3 SHL AND SHR NOT AND SWAP1 SSTORE DUP5 DUP1 DUP1 PUSH2 0x4A5A JUMP JUMPDEST SWAP2 SWAP3 PUSH1 0x20 PUSH1 0x1 DUP2 SWAP3 DUP7 DUP12 ADD MLOAD DUP2 SSTORE ADD SWAP5 ADD SWAP3 ADD PUSH2 0x4A45 JUMP JUMPDEST PUSH2 0x4AC4 SWAP1 DUP4 PUSH1 0x0 MSTORE PUSH1 0x20 PUSH1 0x0 KECCAK256 PUSH1 0x1F DUP5 ADD PUSH1 0x5 SHR DUP2 ADD SWAP2 PUSH1 0x20 DUP6 LT PUSH2 0xB78 JUMPI PUSH1 0x1F ADD PUSH1 0x5 SHR ADD SWAP1 PUSH2 0x72CE JUMP JUMPDEST DUP5 PUSH2 0x49D9 JUMP JUMPDEST ADD MLOAD SWAP1 POP DUP8 DUP1 PUSH2 0x4999 JUMP JUMPDEST SWAP1 PUSH1 0x5 DUP5 ADD PUSH1 0x0 MSTORE PUSH1 0x20 PUSH1 0x0 KECCAK256 SWAP2 PUSH1 0x0 JUMPDEST PUSH1 0x1F NOT DUP6 AND DUP2 LT PUSH2 0x4B32 JUMPI POP SWAP3 PUSH1 0xE0 SWAP5 SWAP3 PUSH1 0x1 SWAP3 PUSH1 0x6 SWAP6 DUP4 PUSH1 0x1F NOT DUP2 AND LT PUSH2 0x4B19 JUMPI JUMPDEST POP POP POP DUP2 SHL ADD PUSH1 0x5 DUP3 ADD SSTORE PUSH2 0x49B1 JUMP JUMPDEST ADD MLOAD PUSH1 0x0 NOT PUSH1 0xF8 DUP5 PUSH1 0x3 SHL AND SHR NOT AND SWAP1 SSTORE DUP8 DUP1 DUP1 PUSH2 0x4B09 JUMP JUMPDEST SWAP2 SWAP3 PUSH1 0x20 PUSH1 0x1 DUP2 SWAP3 DUP7 DUP6 ADD MLOAD DUP2 SSTORE ADD SWAP5 ADD SWAP3 ADD PUSH2 0x4AE6 JUMP JUMPDEST PUSH2 0x4B79 SWAP1 PUSH1 0x5 DUP6 ADD PUSH1 0x0 MSTORE PUSH1 0x20 PUSH1 0x0 KECCAK256 PUSH1 0x1F DUP6 ADD PUSH1 0x5 SHR DUP2 ADD SWAP2 PUSH1 0x20 DUP7 LT PUSH2 0xB78 JUMPI PUSH1 0x1F ADD PUSH1 0x5 SHR ADD SWAP1 PUSH2 0x72CE JUMP JUMPDEST DUP6 PUSH2 0x4979 JUMP JUMPDEST DUP1 MLOAD DUP1 MLOAD SWAP1 PUSH1 0x1 PUSH1 0x1 PUSH1 0x40 SHL SUB DUP3 GT PUSH2 0xB82 JUMPI PUSH2 0x4B9C DUP7 SLOAD PUSH2 0x7129 JUMP JUMPDEST PUSH1 0x1F DUP2 GT PUSH2 0x4C62 JUMPI JUMPDEST POP PUSH1 0x20 SWAP1 PUSH1 0x1F DUP4 GT PUSH1 0x1 EQ PUSH2 0x4BF2 JUMPI SWAP3 DUP3 PUSH1 0x1 SWAP5 SWAP4 PUSH1 0x20 SWAP4 DUP7 SWAP6 PUSH1 0x0 SWAP3 PUSH2 0x4BE7 JUMPI JUMPDEST POP POP PUSH1 0x0 NOT PUSH1 0x3 DUP4 SWAP1 SHL SHR NOT AND SWAP1 DUP5 SHL OR DUP8 SSTORE JUMPDEST ADD SWAP5 ADD SWAP2 ADD SWAP1 SWAP3 PUSH2 0x4942 JUMP JUMPDEST ADD MLOAD SWAP1 POP DUP13 DUP1 PUSH2 0x4BC7 JUMP JUMPDEST SWAP1 DUP7 PUSH1 0x0 MSTORE PUSH1 0x20 PUSH1 0x0 KECCAK256 SWAP2 PUSH1 0x0 JUMPDEST PUSH1 0x1F NOT DUP6 AND DUP2 LT PUSH2 0x4C4A JUMPI POP DUP4 PUSH1 0x20 SWAP4 PUSH1 0x1 SWAP7 SWAP4 DUP8 SWAP7 SWAP4 DUP8 SWAP5 PUSH1 0x1F NOT DUP2 AND LT PUSH2 0x4C31 JUMPI JUMPDEST POP POP POP DUP2 SHL ADD DUP8 SSTORE PUSH2 0x4BDB JUMP JUMPDEST ADD MLOAD PUSH1 0x0 NOT PUSH1 0xF8 DUP5 PUSH1 0x3 SHL AND SHR NOT AND SWAP1 SSTORE DUP13 DUP1 DUP1 PUSH2 0x4C24 JUMP JUMPDEST SWAP2 SWAP3 PUSH1 0x20 PUSH1 0x1 DUP2 SWAP3 DUP7 DUP6 ADD MLOAD DUP2 SSTORE ADD SWAP5 ADD SWAP3 ADD PUSH2 0x4C00 JUMP JUMPDEST PUSH2 0x4C8E SWAP1 DUP8 PUSH1 0x0 MSTORE PUSH1 0x20 PUSH1 0x0 KECCAK256 PUSH1 0x1F DUP6 ADD PUSH1 0x5 SHR DUP2 ADD SWAP2 PUSH1 0x20 DUP7 LT PUSH2 0xB78 JUMPI PUSH1 0x1F ADD PUSH1 0x5 SHR ADD SWAP1 PUSH2 0x72CE JUMP JUMPDEST DUP10 PUSH2 0x4BA5 JUMP JUMPDEST PUSH1 0x4 DUP5 ADD PUSH1 0x0 MSTORE PUSH1 0x20 PUSH1 0x0 KECCAK256 SWAP1 DUP4 DUP3 ADD JUMPDEST DUP2 DUP4 ADD DUP2 LT PUSH2 0x4CB5 JUMPI POP POP PUSH2 0x492C JUMP JUMPDEST DUP1 PUSH2 0x4CC2 PUSH1 0x1 SWAP3 SLOAD PUSH2 0x7129 JUMP JUMPDEST DUP1 PUSH2 0x4CCF JUMPI JUMPDEST POP ADD PUSH2 0x4CA5 JUMP JUMPDEST PUSH1 0x1F DUP2 GT DUP4 EQ PUSH2 0x4CE5 JUMPI POP PUSH1 0x0 DUP2 SSTORE JUMPDEST DUP10 PUSH2 0x4CC8 JUMP JUMPDEST PUSH1 0x0 SWAP1 DUP3 DUP3 MSTORE PUSH2 0x4D03 PUSH1 0x1F PUSH1 0x20 DUP5 KECCAK256 SWAP3 ADD PUSH1 0x5 SHR DUP3 ADD DUP6 DUP4 ADD PUSH2 0x72CE JUMP JUMPDEST DUP2 DUP4 SSTORE SSTORE PUSH2 0x4CDF JUMP JUMPDEST ADD MLOAD SWAP1 POP DUP6 DUP1 PUSH2 0x48EE JUMP JUMPDEST PUSH1 0x3 DUP4 ADD PUSH1 0x0 MSTORE PUSH1 0x20 PUSH1 0x0 KECCAK256 SWAP1 PUSH1 0x0 JUMPDEST PUSH1 0x1F NOT DUP5 AND DUP2 LT PUSH2 0x4D6E JUMPI POP PUSH1 0x1 SWAP4 SWAP5 SWAP6 SWAP7 DUP4 PUSH1 0x1F NOT DUP2 AND LT PUSH2 0x4D55 JUMPI JUMPDEST POP POP POP DUP2 SHL ADD PUSH1 0x3 DUP3 ADD SSTORE PUSH2 0x4906 JUMP JUMPDEST ADD MLOAD PUSH1 0x0 NOT PUSH1 0xF8 DUP5 PUSH1 0x3 SHL AND SHR NOT AND SWAP1 SSTORE DUP6 DUP1 DUP1 PUSH2 0x4D45 JUMP JUMPDEST SWAP1 SWAP2 PUSH1 0x20 PUSH1 0x1 DUP2 SWAP3 DUP6 DUP12 ADD MLOAD DUP2 SSTORE ADD SWAP4 ADD SWAP2 ADD PUSH2 0x4D27 JUMP JUMPDEST PUSH2 0x4DB5 SWAP1 PUSH1 0x3 DUP5 ADD PUSH1 0x0 MSTORE PUSH1 0x20 PUSH1 0x0 KECCAK256 PUSH1 0x1F DUP5 ADD PUSH1 0x5 SHR DUP2 ADD SWAP2 PUSH1 0x20 DUP6 LT PUSH2 0xB78 JUMPI PUSH1 0x1F ADD PUSH1 0x5 SHR ADD SWAP1 PUSH2 0x72CE JUMP JUMPDEST DUP6 PUSH2 0x48D3 JUMP JUMPDEST ADD MLOAD SWAP1 POP DUP6 DUP1 PUSH2 0x488F JUMP JUMPDEST PUSH1 0x2 DUP6 ADD PUSH1 0x0 MSTORE PUSH1 0x20 PUSH1 0x0 KECCAK256 SWAP1 PUSH1 0x0 JUMPDEST PUSH1 0x1F NOT DUP5 AND DUP2 LT PUSH2 0x4E1D JUMPI POP PUSH1 0x1 SWAP4 SWAP5 SWAP6 SWAP7 DUP4 PUSH1 0x1F NOT DUP2 AND LT PUSH2 0x4E04 JUMPI JUMPDEST POP POP POP DUP2 SHL ADD PUSH1 0x2 DUP5 ADD SSTORE PUSH2 0x48A7 JUMP JUMPDEST ADD MLOAD PUSH1 0x0 NOT PUSH1 0xF8 DUP5 PUSH1 0x3 SHL AND SHR NOT AND SWAP1 SSTORE DUP6 DUP1 DUP1 PUSH2 0x4DF4 JUMP JUMPDEST SWAP1 SWAP2 PUSH1 0x20 PUSH1 0x1 DUP2 SWAP3 DUP6 DUP12 ADD MLOAD DUP2 SSTORE ADD SWAP4 ADD SWAP2 ADD PUSH2 0x4DD6 JUMP JUMPDEST PUSH2 0x4E64 SWAP1 PUSH1 0x2 DUP7 ADD PUSH1 0x0 MSTORE PUSH1 0x20 PUSH1 0x0 KECCAK256 PUSH1 0x1F DUP5 ADD PUSH1 0x5 SHR DUP2 ADD SWAP2 PUSH1 0x20 DUP6 LT PUSH2 0xB78 JUMPI PUSH1 0x1F ADD PUSH1 0x5 SHR ADD SWAP1 PUSH2 0x72CE JUMP JUMPDEST DUP6 PUSH2 0x4874 JUMP JUMPDEST POP PUSH1 0x0 SLOAD PUSH1 0x1 PUSH1 0x1 PUSH1 0xA0 SHL SUB AND CALLER EQ PUSH2 0x4793 JUMP JUMPDEST MLOAD PUSH1 0x1 PUSH1 0x1 PUSH1 0xA0 SHL SUB AND CALLER EQ SWAP1 POP DUP8 PUSH2 0x478B JUMP JUMPDEST PUSH1 0x80 ADD MLOAD PUSH1 0x1 PUSH1 0x1 PUSH1 0xA0 SHL SUB AND CALLER EQ SWAP2 POP DUP9 PUSH2 0x4783 JUMP JUMPDEST CALLVALUE PUSH2 0x159 JUMPI PUSH1 0x20 CALLDATASIZE PUSH1 0x3 NOT ADD SLT PUSH2 0x159 JUMPI PUSH1 0x20 PUSH2 0x4EC7 PUSH1 0x4 CALLDATALOAD PUSH2 0x7432 JUMP JUMPDEST PUSH2 0x4ED4 PUSH1 0x40 MLOAD DUP1 SWAP3 PUSH2 0x7087 JUMP JUMPDEST RETURN JUMPDEST CALLVALUE PUSH2 0x159 JUMPI PUSH1 0x80 CALLDATASIZE PUSH1 0x3 NOT ADD SLT PUSH2 0x159 JUMPI PUSH2 0x4EEF PUSH2 0x705B JUMP JUMPDEST PUSH1 0x64 CALLDATALOAD PUSH1 0x1 PUSH1 0x1 PUSH1 0x40 SHL SUB DUP2 GT PUSH2 0x159 JUMPI PUSH2 0x4F0E SWAP1 CALLDATASIZE SWAP1 PUSH1 0x4 ADD PUSH2 0x6F4B JUMP JUMPDEST PUSH1 0x4 CALLDATALOAD PUSH1 0x0 MSTORE PUSH1 0x1 PUSH1 0x20 MSTORE PUSH2 0x4F2D PUSH1 0xFF PUSH1 0x10 PUSH1 0x40 PUSH1 0x0 KECCAK256 ADD SLOAD AND PUSH2 0x731A JUMP JUMPDEST PUSH1 0x4 CALLDATALOAD PUSH1 0x0 SWAP1 DUP2 MSTORE PUSH1 0x1 PUSH1 0x20 MSTORE PUSH1 0x40 SWAP1 KECCAK256 PUSH1 0x3 ADD SLOAD PUSH1 0x1 PUSH1 0x1 PUSH1 0xA0 SHL SUB AND CALLER SUB PUSH2 0x58CE JUMPI PUSH1 0x1 PUSH1 0x1 PUSH1 0xA0 SHL SUB DUP3 AND ISZERO PUSH2 0x5889 JUMPI PUSH1 0x4 CALLDATALOAD PUSH1 0x0 MSTORE PUSH1 0x1 PUSH1 0x20 MSTORE PUSH1 0x40 PUSH1 0x0 KECCAK256 PUSH1 0x4 DUP2 ADD PUSH1 0x1 DUP1 PUSH1 0xA0 SHL SUB DUP5 AND PUSH1 0x1 PUSH1 0x1 PUSH1 0x60 SHL SUB PUSH1 0xA0 SHL DUP3 SLOAD AND OR SWAP1 SSTORE PUSH1 0x2 PUSH1 0x44 CALLDATALOAD SWAP2 ADD SSTORE PUSH1 0x1 DUP1 PUSH1 0xA0 SHL SUB DUP3 AND PUSH1 0x0 MSTORE PUSH1 0x4 PUSH1 0x20 MSTORE PUSH2 0x4FB7 PUSH1 0x4 CALLDATALOAD PUSH1 0x40 PUSH1 0x0 KECCAK256 PUSH2 0x72E5 JUMP JUMPDEST PUSH1 0x40 MLOAD SWAP1 PUSH2 0x4FC4 DUP3 PUSH2 0x6F0F JUMP JUMPDEST PUSH1 0x0 DUP3 MSTORE PUSH2 0x4FD0 PUSH2 0x740C JUMP JUMPDEST PUSH1 0x40 MLOAD SWAP2 PUSH2 0x4FDD DUP4 PUSH2 0x6F0F JUMP JUMPDEST PUSH1 0x0 DUP4 MSTORE PUSH1 0x40 MLOAD PUSH2 0x4FED DUP2 PUSH2 0x6F0F JUMP JUMPDEST PUSH1 0x0 DUP2 MSTORE PUSH1 0x4 CALLDATALOAD PUSH1 0x0 MSTORE PUSH1 0x1 PUSH1 0x20 MSTORE PUSH2 0x5010 PUSH1 0xFF PUSH1 0x10 PUSH1 0x40 PUSH1 0x0 KECCAK256 ADD SLOAD AND PUSH2 0x731A JUMP JUMPDEST PUSH1 0x4 CALLDATALOAD PUSH1 0x0 MSTORE PUSH1 0x1 PUSH1 0x20 MSTORE PUSH1 0x40 PUSH1 0x0 KECCAK256 PUSH1 0x40 MLOAD SWAP1 PUSH2 0x502D DUP3 PUSH2 0x6EBC JUMP JUMPDEST DUP1 SLOAD DUP3 MSTORE PUSH1 0x1 DUP2 ADD SLOAD PUSH1 0x20 DUP4 ADD MSTORE PUSH1 0x2 DUP2 ADD SLOAD PUSH1 0x40 DUP4 ADD MSTORE PUSH1 0x3 DUP2 ADD SLOAD PUSH1 0x1 PUSH1 0x1 PUSH1 0xA0 SHL SUB SWAP1 DUP2 AND PUSH1 0x60 DUP5 ADD MSTORE PUSH1 0x4 DUP3 ADD SLOAD DUP2 AND PUSH1 0x80 DUP5 ADD MSTORE PUSH1 0x5 DUP3 ADD SLOAD AND PUSH1 0xA0 DUP4 ADD SWAP1 DUP2 MSTORE SWAP1 PUSH1 0xFF SWAP1 PUSH1 0x10 SWAP1 PUSH2 0x5086 PUSH1 0x6 DUP3 ADD PUSH2 0x7163 JUMP JUMPDEST PUSH1 0xC0 DUP7 ADD MSTORE PUSH2 0x5097 PUSH1 0x7 DUP3 ADD PUSH2 0x7163 JUMP JUMPDEST PUSH1 0xE0 DUP7 ADD MSTORE PUSH1 0x8 DUP2 ADD SLOAD PUSH2 0x100 DUP7 ADD MSTORE PUSH2 0x50B3 PUSH1 0x9 DUP3 ADD PUSH2 0x7163 JUMP JUMPDEST PUSH2 0x120 DUP7 ADD MSTORE PUSH1 0xA DUP2 ADD SLOAD PUSH2 0x140 DUP7 ADD MSTORE PUSH2 0x50D0 PUSH1 0xB DUP3 ADD PUSH2 0x7163 JUMP JUMPDEST PUSH2 0x160 DUP7 ADD MSTORE PUSH1 0xC DUP2 ADD SLOAD PUSH2 0x180 DUP7 ADD MSTORE PUSH1 0xD DUP2 ADD SLOAD PUSH2 0x1A0 DUP7 ADD MSTORE PUSH2 0x50F8 PUSH1 0xE DUP3 ADD PUSH2 0x735F JUMP JUMPDEST PUSH2 0x1C0 DUP7 ADD MSTORE PUSH2 0x510A PUSH1 0xF DUP3 ADD PUSH2 0x7163 JUMP JUMPDEST PUSH2 0x1E0 DUP7 ADD MSTORE ADD SLOAD AND ISZERO ISZERO PUSH2 0x200 DUP4 ADD MSTORE PUSH1 0x60 DUP3 ADD MLOAD PUSH1 0x1 PUSH1 0x1 PUSH1 0xA0 SHL SUB AND CALLER EQ SWAP2 DUP3 ISZERO PUSH2 0x5872 JUMPI JUMPDEST POP DUP2 ISZERO PUSH2 0x585E JUMPI JUMPDEST POP DUP1 ISZERO PUSH2 0x584A JUMPI JUMPDEST PUSH2 0x514C SWAP1 PUSH2 0x73B4 JUMP JUMPDEST PUSH1 0x40 MLOAD SWAP4 PUSH2 0x5159 DUP6 PUSH2 0x6ED8 JUMP JUMPDEST PUSH1 0x4 DUP6 MSTORE PUSH1 0x20 DUP6 ADD SWAP6 CALLER DUP8 MSTORE PUSH1 0x40 DUP7 ADD SWAP4 TIMESTAMP DUP6 MSTORE PUSH1 0x60 DUP8 ADD SWAP6 DUP7 MSTORE PUSH1 0x80 DUP8 ADD MSTORE PUSH1 0xA0 DUP7 ADD MSTORE PUSH1 0xC0 DUP6 ADD MSTORE PUSH1 0xE0 DUP5 ADD MSTORE PUSH1 0x4 CALLDATALOAD PUSH1 0x0 MSTORE PUSH1 0x2 PUSH1 0x20 MSTORE PUSH1 0x40 PUSH1 0x0 KECCAK256 DUP1 SLOAD PUSH1 0x1 PUSH1 0x40 SHL DUP2 LT ISZERO PUSH2 0xB82 JUMPI PUSH2 0x51B5 SWAP2 PUSH1 0x1 DUP3 ADD DUP2 SSTORE PUSH2 0x70F7 JUMP JUMPDEST SWAP5 SWAP1 SWAP5 PUSH2 0xF44 JUMPI DUP4 MLOAD SWAP1 PUSH1 0x7 DUP3 LT ISZERO PUSH2 0xF2E JUMPI DUP6 SLOAD SWAP1 MLOAD PUSH2 0x100 PUSH1 0x1 PUSH1 0xA8 SHL SUB PUSH1 0x8 SWAP2 SWAP1 SWAP2 SHL AND PUSH1 0xFF SWAP3 SWAP1 SWAP3 AND PUSH1 0x1 PUSH1 0x1 PUSH1 0xA8 SHL SUB NOT SWAP1 SWAP2 AND OR OR DUP5 SSTORE MLOAD PUSH1 0x1 DUP5 ADD SSTORE MLOAD DUP1 MLOAD SWAP1 SWAP4 SWAP1 PUSH1 0x1 PUSH1 0x1 PUSH1 0x40 SHL SUB DUP2 GT PUSH2 0xB82 JUMPI PUSH2 0x5219 PUSH1 0x2 DUP6 ADD SLOAD PUSH2 0x7129 JUMP JUMPDEST PUSH1 0x1F DUP2 GT PUSH2 0x5815 JUMPI JUMPDEST POP PUSH1 0x20 PUSH1 0x1F DUP3 GT PUSH1 0x1 EQ PUSH2 0x57A6 JUMPI DUP2 SWAP3 SWAP4 SWAP5 SWAP6 PUSH1 0x0 SWAP3 PUSH2 0x579B JUMPI JUMPDEST POP POP DUP2 PUSH1 0x1 SHL SWAP2 PUSH1 0x0 NOT SWAP1 PUSH1 0x3 SHL SHR NOT AND OR PUSH1 0x2 DUP5 ADD SSTORE JUMPDEST PUSH1 0x80 DUP3 ADD MLOAD SWAP3 DUP4 MLOAD PUSH1 0x1 PUSH1 0x1 PUSH1 0x40 SHL SUB DUP2 GT PUSH2 0xB82 JUMPI PUSH2 0x5278 PUSH1 0x3 DUP4 ADD SLOAD PUSH2 0x7129 JUMP JUMPDEST PUSH1 0x1F DUP2 GT PUSH2 0x5766 JUMPI JUMPDEST POP PUSH1 0x20 PUSH1 0x1F DUP3 GT PUSH1 0x1 EQ PUSH2 0x56F7 JUMPI DUP2 SWAP3 SWAP4 SWAP5 SWAP6 PUSH1 0x0 SWAP3 PUSH2 0x56EC JUMPI JUMPDEST POP POP DUP2 PUSH1 0x1 SHL SWAP2 PUSH1 0x0 NOT SWAP1 PUSH1 0x3 SHL SHR NOT AND OR PUSH1 0x3 DUP3 ADD SSTORE JUMPDEST PUSH1 0xA0 DUP4 ADD MLOAD DUP1 MLOAD SWAP1 PUSH1 0x1 PUSH1 0x40 SHL DUP3 GT PUSH2 0xB82 JUMPI PUSH1 0x4 DUP4 ADD SLOAD DUP3 PUSH1 0x4 DUP6 ADD SSTORE DUP1 DUP4 LT PUSH2 0x5674 JUMPI JUMPDEST POP PUSH1 0x20 ADD SWAP1 PUSH1 0x4 DUP4 ADD PUSH1 0x0 MSTORE PUSH1 0x20 PUSH1 0x0 KECCAK256 SWAP2 PUSH1 0x0 SWAP1 JUMPDEST DUP3 DUP3 LT PUSH2 0x555F JUMPI POP POP POP POP PUSH1 0x5 DUP2 ADD PUSH1 0xC0 DUP5 ADD MLOAD DUP1 MLOAD SWAP1 PUSH1 0x1 PUSH1 0x1 PUSH1 0x40 SHL SUB DUP3 GT PUSH2 0xB82 JUMPI PUSH2 0x531F DUP4 SLOAD PUSH2 0x7129 JUMP JUMPDEST PUSH1 0x1F DUP2 GT PUSH2 0x552D JUMPI JUMPDEST POP PUSH1 0x20 SWAP1 PUSH1 0x1F DUP4 GT PUSH1 0x1 EQ PUSH2 0x54BF JUMPI SWAP2 DUP1 PUSH1 0x6 SWAP5 SWAP3 PUSH1 0xE0 SWAP7 SWAP5 PUSH1 0x0 SWAP3 PUSH2 0x54B4 JUMPI JUMPDEST POP POP DUP2 PUSH1 0x1 SHL SWAP2 PUSH1 0x0 NOT SWAP1 PUSH1 0x3 SHL SHR NOT AND OR SWAP1 SSTORE JUMPDEST ADD SWAP3 ADD MLOAD SWAP2 DUP3 MLOAD PUSH1 0x1 PUSH1 0x1 PUSH1 0x40 SHL SUB DUP2 GT PUSH2 0xB82 JUMPI PUSH2 0x537D DUP3 SLOAD PUSH2 0x7129 JUMP JUMPDEST PUSH1 0x1F DUP2 GT PUSH2 0x5482 JUMPI JUMPDEST POP PUSH1 0x20 PUSH1 0x1F DUP3 GT PUSH1 0x1 EQ PUSH2 0x541C JUMPI DUP2 SWAP3 SWAP4 SWAP5 PUSH1 0x0 SWAP3 PUSH2 0x5411 JUMPI JUMPDEST POP POP DUP2 PUSH1 0x1 SHL SWAP2 PUSH1 0x0 NOT SWAP1 PUSH1 0x3 SHL SHR NOT AND OR SWAP1 SSTORE JUMPDEST PUSH1 0x40 MLOAD TIMESTAMP DUP2 MSTORE PUSH1 0x4 CALLER SWAP2 PUSH1 0x0 DUP1 MLOAD PUSH1 0x20 PUSH2 0x76D4 DUP4 CODECOPY DUP2 MLOAD SWAP2 MSTORE PUSH1 0x20 DUP4 CALLDATALOAD SWAP3 LOG4 PUSH1 0x40 MLOAD SWAP1 PUSH1 0x4 DUP3 MSTORE PUSH1 0x1 DUP1 PUSH1 0xA0 SHL SUB AND SWAP1 CALLER SWAP1 PUSH32 0xD9D3AD1299833596BEC6138AAE47314CBB71FB92C7582ABED06E22840593AD4 PUSH1 0x20 PUSH1 0x4 CALLDATALOAD SWAP3 LOG4 STOP JUMPDEST ADD MLOAD SWAP1 POP DUP5 DUP1 PUSH2 0x53A0 JUMP JUMPDEST PUSH1 0x1F NOT DUP3 AND SWAP1 DUP4 PUSH1 0x0 MSTORE PUSH1 0x20 PUSH1 0x0 KECCAK256 SWAP2 PUSH1 0x0 JUMPDEST DUP2 DUP2 LT PUSH2 0x546A JUMPI POP SWAP6 DUP4 PUSH1 0x1 SWAP6 SWAP7 SWAP8 LT PUSH2 0x5451 JUMPI JUMPDEST POP POP POP DUP2 SHL ADD SWAP1 SSTORE PUSH2 0x53B5 JUMP JUMPDEST ADD MLOAD PUSH1 0x0 NOT PUSH1 0xF8 DUP5 PUSH1 0x3 SHL AND SHR NOT AND SWAP1 SSTORE DUP5 DUP1 DUP1 PUSH2 0x5444 JUMP JUMPDEST SWAP2 SWAP3 PUSH1 0x20 PUSH1 0x1 DUP2 SWAP3 DUP7 DUP12 ADD MLOAD DUP2 SSTORE ADD SWAP5 ADD SWAP3 ADD PUSH2 0x542F JUMP JUMPDEST PUSH2 0x54AE SWAP1 DUP4 PUSH1 0x0 MSTORE PUSH1 0x20 PUSH1 0x0 KECCAK256 PUSH1 0x1F DUP5 ADD PUSH1 0x5 SHR DUP2 ADD SWAP2 PUSH1 0x20 DUP6 LT PUSH2 0xB78 JUMPI PUSH1 0x1F ADD PUSH1 0x5 SHR ADD SWAP1 PUSH2 0x72CE JUMP JUMPDEST DUP5 PUSH2 0x5386 JUMP JUMPDEST ADD MLOAD SWAP1 POP DUP9 DUP1 PUSH2 0x5349 JUMP JUMPDEST SWAP1 PUSH1 0x1F NOT DUP4 AND SWAP2 DUP5 PUSH1 0x0 MSTORE PUSH1 0x20 PUSH1 0x0 KECCAK256 SWAP3 PUSH1 0x0 JUMPDEST DUP2 DUP2 LT PUSH2 0x5515 JUMPI POP SWAP3 PUSH1 0x1 SWAP3 DUP6 SWAP3 PUSH1 0xE0 SWAP9 SWAP7 PUSH1 0x6 SWAP9 SWAP7 LT PUSH2 0x54FC JUMPI JUMPDEST POP POP POP DUP2 SHL ADD SWAP1 SSTORE PUSH2 0x535E JUMP JUMPDEST ADD MLOAD PUSH1 0x0 NOT PUSH1 0xF8 DUP5 PUSH1 0x3 SHL AND SHR NOT AND SWAP1 SSTORE DUP9 DUP1 DUP1 PUSH2 0x54EF JUMP JUMPDEST SWAP3 SWAP4 PUSH1 0x20 PUSH1 0x1 DUP2 SWAP3 DUP8 DUP7 ADD MLOAD DUP2 SSTORE ADD SWAP6 ADD SWAP4 ADD PUSH2 0x54D3 JUMP JUMPDEST PUSH2 0x5559 SWAP1 DUP5 PUSH1 0x0 MSTORE PUSH1 0x20 PUSH1 0x0 KECCAK256 PUSH1 0x1F DUP6 ADD PUSH1 0x5 SHR DUP2 ADD SWAP2 PUSH1 0x20 DUP7 LT PUSH2 0xB78 JUMPI PUSH1 0x1F ADD PUSH1 0x5 SHR ADD SWAP1 PUSH2 0x72CE JUMP JUMPDEST DUP7 PUSH2 0x5328 JUMP JUMPDEST DUP1 MLOAD DUP1 MLOAD SWAP1 PUSH1 0x1 PUSH1 0x1 PUSH1 0x40 SHL SUB DUP3 GT PUSH2 0xB82 JUMPI PUSH2 0x557C DUP7 SLOAD PUSH2 0x7129 JUMP JUMPDEST PUSH1 0x1F DUP2 GT PUSH2 0x5642 JUMPI JUMPDEST POP PUSH1 0x20 SWAP1 PUSH1 0x1F DUP4 GT PUSH1 0x1 EQ PUSH2 0x55D2 JUMPI SWAP3 DUP3 PUSH1 0x1 SWAP5 SWAP4 PUSH1 0x20 SWAP4 DUP7 SWAP6 PUSH1 0x0 SWAP3 PUSH2 0x55C7 JUMPI JUMPDEST POP POP PUSH1 0x0 NOT PUSH1 0x3 DUP4 SWAP1 SHL SHR NOT AND SWAP1 DUP5 SHL OR DUP8 SSTORE JUMPDEST ADD SWAP5 ADD SWAP2 ADD SWAP1 SWAP3 PUSH2 0x52F0 JUMP JUMPDEST ADD MLOAD SWAP1 POP DUP13 DUP1 PUSH2 0x55A7 JUMP JUMPDEST SWAP1 DUP7 PUSH1 0x0 MSTORE PUSH1 0x20 PUSH1 0x0 KECCAK256 SWAP2 PUSH1 0x0 JUMPDEST PUSH1 0x1F NOT DUP6 AND DUP2 LT PUSH2 0x562A JUMPI POP DUP4 PUSH1 0x20 SWAP4 PUSH1 0x1 SWAP7 SWAP4 DUP8 SWAP7 SWAP4 DUP8 SWAP5 PUSH1 0x1F NOT DUP2 AND LT PUSH2 0x5611 JUMPI JUMPDEST POP POP POP DUP2 SHL ADD DUP8 SSTORE PUSH2 0x55BB JUMP JUMPDEST ADD MLOAD PUSH1 0x0 NOT PUSH1 0xF8 DUP5 PUSH1 0x3 SHL AND SHR NOT AND SWAP1 SSTORE DUP13 DUP1 DUP1 PUSH2 0x5604 JUMP JUMPDEST SWAP2 SWAP3 PUSH1 0x20 PUSH1 0x1 DUP2 SWAP3 DUP7 DUP6 ADD MLOAD DUP2 SSTORE ADD SWAP5 ADD SWAP3 ADD PUSH2 0x55E0 JUMP JUMPDEST PUSH2 0x566E SWAP1 DUP8 PUSH1 0x0 MSTORE PUSH1 0x20 PUSH1 0x0 KECCAK256 PUSH1 0x1F DUP6 ADD PUSH1 0x5 SHR DUP2 ADD SWAP2 PUSH1 0x20 DUP7 LT PUSH2 0xB78 JUMPI PUSH1 0x1F ADD PUSH1 0x5 SHR ADD SWAP1 PUSH2 0x72CE JUMP JUMPDEST DUP10 PUSH2 0x5585 JUMP JUMPDEST PUSH1 0x4 DUP5 ADD PUSH1 0x0 MSTORE PUSH1 0x20 PUSH1 0x0 KECCAK256 SWAP1 DUP4 DUP3 ADD JUMPDEST DUP2 DUP4 ADD DUP2 LT PUSH2 0x5695 JUMPI POP POP PUSH2 0x52DA JUMP JUMPDEST DUP1 PUSH2 0x56A2 PUSH1 0x1 SWAP3 SLOAD PUSH2 0x7129 JUMP JUMPDEST DUP1 PUSH2 0x56AF JUMPI JUMPDEST POP ADD PUSH2 0x5685 JUMP JUMPDEST PUSH1 0x1F DUP2 GT DUP4 EQ PUSH2 0x56C5 JUMPI POP PUSH1 0x0 DUP2 SSTORE JUMPDEST DUP10 PUSH2 0x56A8 JUMP JUMPDEST PUSH1 0x0 SWAP1 DUP3 DUP3 MSTORE PUSH2 0x56E3 PUSH1 0x1F PUSH1 0x20 DUP5 KECCAK256 SWAP3 ADD PUSH1 0x5 SHR DUP3 ADD DUP6 DUP4 ADD PUSH2 0x72CE JUMP JUMPDEST DUP2 DUP4 SSTORE SSTORE PUSH2 0x56BF JUMP JUMPDEST ADD MLOAD SWAP1 POP DUP6 DUP1 PUSH2 0x529C JUMP JUMPDEST PUSH1 0x3 DUP4 ADD PUSH1 0x0 MSTORE PUSH1 0x20 PUSH1 0x0 KECCAK256 SWAP1 PUSH1 0x0 JUMPDEST PUSH1 0x1F NOT DUP5 AND DUP2 LT PUSH2 0x574E JUMPI POP PUSH1 0x1 SWAP4 SWAP5 SWAP6 SWAP7 DUP4 PUSH1 0x1F NOT DUP2 AND LT PUSH2 0x5735 JUMPI JUMPDEST POP POP POP DUP2 SHL ADD PUSH1 0x3 DUP3 ADD SSTORE PUSH2 0x52B4 JUMP JUMPDEST ADD MLOAD PUSH1 0x0 NOT PUSH1 0xF8 DUP5 PUSH1 0x3 SHL AND SHR NOT AND SWAP1 SSTORE DUP6 DUP1 DUP1 PUSH2 0x5725 JUMP JUMPDEST SWAP1 SWAP2 PUSH1 0x20 PUSH1 0x1 DUP2 SWAP3 DUP6 DUP12 ADD MLOAD DUP2 SSTORE ADD SWAP4 ADD SWAP2 ADD PUSH2 0x5707 JUMP JUMPDEST PUSH2 0x5795 SWAP1 PUSH1 0x3 DUP5 ADD PUSH1 0x0 MSTORE PUSH1 0x20 PUSH1 0x0 KECCAK256 PUSH1 0x1F DUP5 ADD PUSH1 0x5 SHR DUP2 ADD SWAP2 PUSH1 0x20 DUP6 LT PUSH2 0xB78 JUMPI PUSH1 0x1F ADD PUSH1 0x5 SHR ADD SWAP1 PUSH2 0x72CE JUMP JUMPDEST DUP6 PUSH2 0x5281 JUMP JUMPDEST ADD MLOAD SWAP1 POP DUP6 DUP1 PUSH2 0x523D JUMP JUMPDEST PUSH1 0x2 DUP6 ADD PUSH1 0x0 MSTORE PUSH1 0x20 PUSH1 0x0 KECCAK256 SWAP1 PUSH1 0x0 JUMPDEST PUSH1 0x1F NOT DUP5 AND DUP2 LT PUSH2 0x57FD JUMPI POP PUSH1 0x1 SWAP4 SWAP5 SWAP6 SWAP7 DUP4 PUSH1 0x1F NOT DUP2 AND LT PUSH2 0x57E4 JUMPI JUMPDEST POP POP POP DUP2 SHL ADD PUSH1 0x2 DUP5 ADD SSTORE PUSH2 0x5255 JUMP JUMPDEST ADD MLOAD PUSH1 0x0 NOT PUSH1 0xF8 DUP5 PUSH1 0x3 SHL AND SHR NOT AND SWAP1 SSTORE DUP6 DUP1 DUP1 PUSH2 0x57D4 JUMP JUMPDEST SWAP1 SWAP2 PUSH1 0x20 PUSH1 0x1 DUP2 SWAP3 DUP6 DUP12 ADD MLOAD DUP2 SSTORE ADD SWAP4 ADD SWAP2 ADD PUSH2 0x57B6 JUMP JUMPDEST PUSH2 0x5844 SWAP1 PUSH1 0x2 DUP7 ADD PUSH1 0x0 MSTORE PUSH1 0x20 PUSH1 0x0 KECCAK256 PUSH1 0x1F DUP5 ADD PUSH1 0x5 SHR DUP2 ADD SWAP2 PUSH1 0x20 DUP6 LT PUSH2 0xB78 JUMPI PUSH1 0x1F ADD PUSH1 0x5 SHR ADD SWAP1 PUSH2 0x72CE JUMP JUMPDEST DUP6 PUSH2 0x5222 JUMP JUMPDEST POP PUSH1 0x0 SLOAD PUSH1 0x1 PUSH1 0x1 PUSH1 0xA0 SHL SUB AND CALLER EQ PUSH2 0x5143 JUMP JUMPDEST MLOAD PUSH1 0x1 PUSH1 0x1 PUSH1 0xA0 SHL SUB AND CALLER EQ SWAP1 POP DUP8 PUSH2 0x513B JUMP JUMPDEST PUSH1 0x80 ADD MLOAD PUSH1 0x1 PUSH1 0x1 PUSH1 0xA0 SHL SUB AND CALLER EQ SWAP2 POP DUP9 PUSH2 0x5133 JUMP JUMPDEST PUSH1 0x40 MLOAD PUSH3 0x461BCD PUSH1 0xE5 SHL DUP2 MSTORE PUSH1 0x20 PUSH1 0x4 DUP3 ADD MSTORE PUSH1 0x1B PUSH1 0x24 DUP3 ADD MSTORE PUSH32 0x496E76616C6964206469737472696275746F7220616464726573730000000000 PUSH1 0x44 DUP3 ADD MSTORE PUSH1 0x64 SWAP1 REVERT JUMPDEST PUSH1 0x40 MLOAD PUSH3 0x461BCD PUSH1 0xE5 SHL DUP2 MSTORE PUSH1 0x20 PUSH1 0x4 DUP3 ADD MSTORE PUSH1 0x27 PUSH1 0x24 DUP3 ADD MSTORE PUSH32 0x4F6E6C79206661726D65722063616E207472616E7366657220746F2064697374 PUSH1 0x44 DUP3 ADD MSTORE PUSH7 0x3934B13ABA37B9 PUSH1 0xC9 SHL PUSH1 0x64 DUP3 ADD MSTORE PUSH1 0x84 SWAP1 REVERT JUMPDEST CALLVALUE PUSH2 0x159 JUMPI PUSH1 0xA0 CALLDATASIZE PUSH1 0x3 NOT ADD SLT PUSH2 0x159 JUMPI PUSH1 0x24 CALLDATALOAD PUSH1 0x1 PUSH1 0x1 PUSH1 0x40 SHL SUB DUP2 GT PUSH2 0x159 JUMPI PUSH2 0x5953 SWAP1 CALLDATASIZE SWAP1 PUSH1 0x4 ADD PUSH2 0x6F4B JUMP JUMPDEST PUSH1 0x44 CALLDATALOAD PUSH1 0x1 PUSH1 0x1 PUSH1 0x40 SHL SUB DUP2 GT PUSH2 0x159 JUMPI PUSH2 0x5972 SWAP1 CALLDATASIZE SWAP1 PUSH1 0x4 ADD PUSH2 0x6F4B JUMP JUMPDEST PUSH1 0x64 CALLDATALOAD PUSH1 0x1 PUSH1 0x1 PUSH1 0x40 SHL SUB DUP2 GT PUSH2 0x159 JUMPI PUSH2 0x5991 SWAP1 CALLDATASIZE SWAP1 PUSH1 0x4 ADD PUSH2 0x6FDB JUMP JUMPDEST PUSH1 0x84 CALLDATALOAD PUSH1 0x1 PUSH1 0x1 PUSH1 0x40 SHL SUB DUP2 GT PUSH2 0x159 JUMPI PUSH2 0x59B0 SWAP1 CALLDATASIZE SWAP1 PUSH1 0x4 ADD PUSH2 0x6F4B JUMP JUMPDEST SWAP1 PUSH1 0x40 MLOAD SWAP3 PUSH2 0x59BE DUP5 PUSH2 0x6F0F JUMP JUMPDEST PUSH1 0x0 DUP5 MSTORE PUSH1 0x4 CALLDATALOAD PUSH1 0x0 MSTORE PUSH1 0x1 PUSH1 0x20 MSTORE PUSH2 0x59E1 PUSH1 0xFF PUSH1 0x10 PUSH1 0x40 PUSH1 0x0 KECCAK256 ADD SLOAD AND PUSH2 0x731A JUMP JUMPDEST PUSH1 0x4 CALLDATALOAD PUSH1 0x0 MSTORE PUSH1 0x1 PUSH1 0x20 MSTORE PUSH1 0x40 PUSH1 0x0 KECCAK256 PUSH1 0x40 MLOAD SWAP1 PUSH2 0x59FE DUP3 PUSH2 0x6EBC JUMP JUMPDEST DUP1 SLOAD DUP3 MSTORE PUSH1 0x1 DUP2 ADD SLOAD PUSH1 0x20 DUP4 ADD MSTORE PUSH1 0x2 DUP2 ADD SLOAD PUSH1 0x40 DUP4 ADD MSTORE PUSH1 0x3 DUP2 ADD SLOAD PUSH1 0x1 PUSH1 0x1 PUSH1 0xA0 SHL SUB SWAP1 DUP2 AND PUSH1 0x60 DUP5 ADD MSTORE PUSH1 0x4 DUP3 ADD SLOAD DUP2 AND PUSH1 0x80 DUP5 ADD MSTORE PUSH1 0x5 DUP3 ADD SLOAD AND PUSH1 0xA0 DUP4 ADD SWAP1 DUP2 MSTORE SWAP1 PUSH1 0xFF SWAP1 PUSH1 0x10 SWAP1 PUSH2 0x5A57 PUSH1 0x6 DUP3 ADD PUSH2 0x7163 JUMP JUMPDEST PUSH1 0xC0 DUP7 ADD MSTORE PUSH2 0x5A68 PUSH1 0x7 DUP3 ADD PUSH2 0x7163 JUMP JUMPDEST PUSH1 0xE0 DUP7 ADD MSTORE PUSH1 0x8 DUP2 ADD SLOAD PUSH2 0x100 DUP7 ADD MSTORE PUSH2 0x5A84 PUSH1 0x9 DUP3 ADD PUSH2 0x7163 JUMP JUMPDEST PUSH2 0x120 DUP7 ADD MSTORE PUSH1 0xA DUP2 ADD SLOAD PUSH2 0x140 DUP7 ADD MSTORE PUSH2 0x5AA1 PUSH1 0xB DUP3 ADD PUSH2 0x7163 JUMP JUMPDEST PUSH2 0x160 DUP7 ADD MSTORE PUSH1 0xC DUP2 ADD SLOAD PUSH2 0x180 DUP7 ADD MSTORE PUSH1 0xD DUP2 ADD SLOAD PUSH2 0x1A0 DUP7 ADD MSTORE PUSH2 0x5AC9 PUSH1 0xE DUP3 ADD PUSH2 0x735F JUMP JUMPDEST PUSH2 0x1C0 DUP7 ADD MSTORE PUSH2 0x5ADB PUSH1 0xF DUP3 ADD PUSH2 0x7163 JUMP JUMPDEST PUSH2 0x1E0 DUP7 ADD MSTORE ADD SLOAD AND ISZERO ISZERO PUSH2 0x200 DUP4 ADD MSTORE PUSH1 0x60 DUP3 ADD MLOAD PUSH1 0x1 PUSH1 0x1 PUSH1 0xA0 SHL SUB AND CALLER EQ SWAP2 DUP3 ISZERO PUSH2 0x620E JUMPI JUMPDEST POP DUP2 ISZERO PUSH2 0x61FA JUMPI JUMPDEST POP DUP1 ISZERO PUSH2 0x61E6 JUMPI JUMPDEST PUSH2 0x5B1D SWAP1 PUSH2 0x73B4 JUMP JUMPDEST PUSH1 0x40 MLOAD SWAP5 PUSH2 0x5B2A DUP7 PUSH2 0x6ED8 JUMP JUMPDEST PUSH1 0x2 DUP7 MSTORE CALLER PUSH1 0x20 DUP8 ADD MSTORE TIMESTAMP PUSH1 0x40 DUP8 ADD MSTORE PUSH1 0x60 DUP7 ADD MSTORE PUSH1 0x80 DUP6 ADD MSTORE PUSH1 0xA0 DUP5 ADD MSTORE PUSH1 0xC0 DUP4 ADD MSTORE PUSH1 0xE0 DUP3 ADD MSTORE PUSH1 0x4 CALLDATALOAD PUSH1 0x0 MSTORE PUSH1 0x2 PUSH1 0x20 MSTORE PUSH1 0x40 PUSH1 0x0 KECCAK256 DUP1 SLOAD PUSH1 0x1 PUSH1 0x40 SHL DUP2 LT ISZERO PUSH2 0xB82 JUMPI PUSH2 0x5B80 SWAP2 PUSH1 0x1 DUP3 ADD DUP2 SSTORE PUSH2 0x70F7 JUMP JUMPDEST PUSH2 0xF44 JUMPI DUP2 MLOAD PUSH1 0x7 DUP2 LT ISZERO PUSH2 0xF2E JUMPI DUP2 SLOAD PUSH1 0x20 DUP5 ADD MLOAD PUSH2 0x100 PUSH1 0x1 PUSH1 0xA8 SHL SUB PUSH1 0x8 SWAP2 SWAP1 SWAP2 SHL AND PUSH1 0xFF SWAP3 SWAP1 SWAP3 AND PUSH1 0x1 PUSH1 0x1 PUSH1 0xA8 SHL SUB NOT SWAP1 SWAP2 AND OR OR DUP2 SSTORE PUSH1 0x40 DUP3 ADD MLOAD PUSH1 0x1 DUP3 ADD SSTORE PUSH1 0x60 DUP3 ADD MLOAD DUP1 MLOAD SWAP1 SWAP3 SWAP1 PUSH1 0x1 PUSH1 0x1 PUSH1 0x40 SHL SUB DUP2 GT PUSH2 0xB82 JUMPI PUSH2 0x5BEB PUSH1 0x2 DUP5 ADD SLOAD PUSH2 0x7129 JUMP JUMPDEST PUSH1 0x1F DUP2 GT PUSH2 0x61B1 JUMPI JUMPDEST POP PUSH1 0x20 PUSH1 0x1F DUP3 GT PUSH1 0x1 EQ PUSH2 0x6143 JUMPI DUP2 SWAP3 SWAP4 SWAP5 PUSH1 0x0 SWAP3 PUSH2 0x6138 JUMPI JUMPDEST POP POP DUP2 PUSH1 0x1 SHL SWAP2 PUSH1 0x0 NOT SWAP1 PUSH1 0x3 SHL SHR NOT AND OR PUSH1 0x2 DUP4 ADD SSTORE JUMPDEST PUSH1 0x80 DUP2 ADD MLOAD SWAP2 DUP3 MLOAD PUSH1 0x1 PUSH1 0x1 PUSH1 0x40 SHL SUB DUP2 GT PUSH2 0xB82 JUMPI PUSH2 0x5C49 PUSH1 0x3 DUP4 ADD SLOAD PUSH2 0x7129 JUMP JUMPDEST PUSH1 0x1F DUP2 GT PUSH2 0x6103 JUMPI JUMPDEST POP PUSH1 0x20 PUSH1 0x1F DUP3 GT PUSH1 0x1 EQ PUSH2 0x6095 JUMPI DUP2 SWAP3 SWAP4 SWAP5 PUSH1 0x0 SWAP3 PUSH2 0x608A JUMPI JUMPDEST POP POP DUP2 PUSH1 0x1 SHL SWAP2 PUSH1 0x0 NOT SWAP1 PUSH1 0x3 SHL SHR NOT AND OR PUSH1 0x3 DUP3 ADD SSTORE JUMPDEST PUSH1 0xA0 DUP3 ADD MLOAD DUP1 MLOAD SWAP1 PUSH1 0x1 PUSH1 0x40 SHL DUP3 GT PUSH2 0xB82 JUMPI PUSH1 0x4 DUP4 ADD SLOAD DUP3 PUSH1 0x4 DUP6 ADD SSTORE DUP1 DUP4 LT PUSH2 0x6012 JUMPI JUMPDEST POP PUSH1 0x20 ADD SWAP1 PUSH1 0x4 DUP4 ADD PUSH1 0x0 MSTORE PUSH1 0x20 PUSH1 0x0 KECCAK256 SWAP2 PUSH1 0x0 SWAP1 JUMPDEST DUP3 DUP3 LT PUSH2 0x5EFD JUMPI DUP6 DUP6 PUSH1 0xC0 DUP3 ADD MLOAD DUP1 MLOAD SWAP1 PUSH1 0x1 PUSH1 0x1 PUSH1 0x40 SHL SUB DUP3 GT PUSH2 0xB82 JUMPI PUSH2 0x5CEC PUSH1 0x5 DUP5 ADD SLOAD PUSH2 0x7129 JUMP JUMPDEST PUSH1 0x1F DUP2 GT PUSH2 0x5EC8 JUMPI JUMPDEST POP PUSH1 0x20 SWAP1 PUSH1 0x1F DUP4 GT PUSH1 0x1 EQ PUSH2 0x5E53 JUMPI SWAP2 DUP1 PUSH1 0xE0 SWAP5 SWAP3 PUSH1 0x6 SWAP5 PUSH1 0x0 SWAP3 PUSH2 0x5E48 JUMPI JUMPDEST POP POP DUP2 PUSH1 0x1 SHL SWAP2 PUSH1 0x0 NOT SWAP1 PUSH1 0x3 SHL SHR NOT AND OR PUSH1 0x5 DUP3 ADD SSTORE JUMPDEST ADD SWAP2 ADD MLOAD SWAP1 DUP2 MLOAD PUSH1 0x1 PUSH1 0x1 PUSH1 0x40 SHL SUB DUP2 GT PUSH2 0xB82 JUMPI PUSH2 0x5D4C DUP3 SLOAD PUSH2 0x7129 JUMP JUMPDEST PUSH1 0x1F DUP2 GT PUSH2 0x5E16 JUMPI JUMPDEST POP PUSH1 0x20 SWAP3 PUSH1 0x1F DUP3 GT PUSH1 0x1 EQ PUSH2 0x5DB2 JUMPI SWAP3 DUP2 SWAP3 SWAP4 PUSH1 0x0 SWAP3 PUSH2 0x5DA7 JUMPI JUMPDEST POP POP DUP2 PUSH1 0x1 SHL SWAP2 PUSH1 0x0 NOT SWAP1 PUSH1 0x3 SHL SHR NOT AND OR SWAP1 SSTORE JUMPDEST PUSH1 0x40 MLOAD TIMESTAMP DUP2 MSTORE PUSH1 0x2 CALLER SWAP2 PUSH1 0x0 DUP1 MLOAD PUSH1 0x20 PUSH2 0x76D4 DUP4 CODECOPY DUP2 MLOAD SWAP2 MSTORE PUSH1 0x20 PUSH1 0x4 CALLDATALOAD SWAP3 LOG4 STOP JUMPDEST ADD MLOAD SWAP1 POP DUP4 DUP1 PUSH2 0x5D70 JUMP JUMPDEST PUSH1 0x1F NOT DUP3 AND SWAP4 DUP4 PUSH1 0x0 MSTORE PUSH1 0x20 PUSH1 0x0 KECCAK256 SWAP2 PUSH1 0x0 JUMPDEST DUP7 DUP2 LT PUSH2 0x5DFE JUMPI POP DUP4 PUSH1 0x1 SWAP6 SWAP7 LT PUSH2 0x5DE5 JUMPI JUMPDEST POP POP POP DUP2 SHL ADD SWAP1 SSTORE PUSH2 0x5D85 JUMP JUMPDEST ADD MLOAD PUSH1 0x0 NOT PUSH1 0xF8 DUP5 PUSH1 0x3 SHL AND SHR NOT AND SWAP1 SSTORE DUP4 DUP1 DUP1 PUSH2 0x5DD8 JUMP JUMPDEST SWAP2 SWAP3 PUSH1 0x20 PUSH1 0x1 DUP2 SWAP3 DUP7 DUP6 ADD MLOAD DUP2 SSTORE ADD SWAP5 ADD SWAP3 ADD PUSH2 0x5DC5 JUMP JUMPDEST PUSH2 0x5E42 SWAP1 DUP4 PUSH1 0x0 MSTORE PUSH1 0x20 PUSH1 0x0 KECCAK256 PUSH1 0x1F DUP5 ADD PUSH1 0x5 SHR DUP2 ADD SWAP2 PUSH1 0x20 DUP6 LT PUSH2 0xB78 JUMPI PUSH1 0x1F ADD PUSH1 0x5 SHR ADD SWAP1 PUSH2 0x72CE JUMP JUMPDEST DUP4 PUSH2 0x5D55 JUMP JUMPDEST ADD MLOAD SWAP1 POP DUP7 DUP1 PUSH2 0x5D15 JUMP JUMPDEST SWAP1 PUSH1 0x5 DUP5 ADD PUSH1 0x0 MSTORE PUSH1 0x20 PUSH1 0x0 KECCAK256 SWAP2 PUSH1 0x0 JUMPDEST PUSH1 0x1F NOT DUP6 AND DUP2 LT PUSH2 0x5EB0 JUMPI POP SWAP3 PUSH1 0xE0 SWAP5 SWAP3 PUSH1 0x1 SWAP3 PUSH1 0x6 SWAP6 DUP4 PUSH1 0x1F NOT DUP2 AND LT PUSH2 0x5E97 JUMPI JUMPDEST POP POP POP DUP2 SHL ADD PUSH1 0x5 DUP3 ADD SSTORE PUSH2 0x5D2D JUMP JUMPDEST ADD MLOAD PUSH1 0x0 NOT PUSH1 0xF8 DUP5 PUSH1 0x3 SHL AND SHR NOT AND SWAP1 SSTORE DUP7 DUP1 DUP1 PUSH2 0x5E87 JUMP JUMPDEST SWAP2 SWAP3 PUSH1 0x20 PUSH1 0x1 DUP2 SWAP3 DUP7 DUP6 ADD MLOAD DUP2 SSTORE ADD SWAP5 ADD SWAP3 ADD PUSH2 0x5E64 JUMP JUMPDEST PUSH2 0x5EF7 SWAP1 PUSH1 0x5 DUP6 ADD PUSH1 0x0 MSTORE PUSH1 0x20 PUSH1 0x0 KECCAK256 PUSH1 0x1F DUP6 ADD PUSH1 0x5 SHR DUP2 ADD SWAP2 PUSH1 0x20 DUP7 LT PUSH2 0xB78 JUMPI PUSH1 0x1F ADD PUSH1 0x5 SHR ADD SWAP1 PUSH2 0x72CE JUMP JUMPDEST DUP5 PUSH2 0x5CF5 JUMP JUMPDEST DUP1 MLOAD DUP1 MLOAD SWAP1 PUSH1 0x1 PUSH1 0x1 PUSH1 0x40 SHL SUB DUP3 GT PUSH2 0xB82 JUMPI PUSH2 0x5F1A DUP7 SLOAD PUSH2 0x7129 JUMP JUMPDEST PUSH1 0x1F DUP2 GT PUSH2 0x5FE0 JUMPI JUMPDEST POP PUSH1 0x20 SWAP1 PUSH1 0x1F DUP4 GT PUSH1 0x1 EQ PUSH2 0x5F70 JUMPI SWAP3 DUP3 PUSH1 0x1 SWAP5 SWAP4 PUSH1 0x20 SWAP4 DUP7 SWAP6 PUSH1 0x0 SWAP3 PUSH2 0x5F65 JUMPI JUMPDEST POP POP PUSH1 0x0 NOT PUSH1 0x3 DUP4 SWAP1 SHL SHR NOT AND SWAP1 DUP5 SHL OR DUP8 SSTORE JUMPDEST ADD SWAP5 ADD SWAP2 ADD SWAP1 SWAP3 PUSH2 0x5CC0 JUMP JUMPDEST ADD MLOAD SWAP1 POP DUP12 DUP1 PUSH2 0x5F45 JUMP JUMPDEST SWAP1 DUP7 PUSH1 0x0 MSTORE PUSH1 0x20 PUSH1 0x0 KECCAK256 SWAP2 PUSH1 0x0 JUMPDEST PUSH1 0x1F NOT DUP6 AND DUP2 LT PUSH2 0x5FC8 JUMPI POP DUP4 PUSH1 0x20 SWAP4 PUSH1 0x1 SWAP7 SWAP4 DUP8 SWAP7 SWAP4 DUP8 SWAP5 PUSH1 0x1F NOT DUP2 AND LT PUSH2 0x5FAF JUMPI JUMPDEST POP POP POP DUP2 SHL ADD DUP8 SSTORE PUSH2 0x5F59 JUMP JUMPDEST ADD MLOAD PUSH1 0x0 NOT PUSH1 0xF8 DUP5 PUSH1 0x3 SHL AND SHR NOT AND SWAP1 SSTORE DUP12 DUP1 DUP1 PUSH2 0x5FA2 JUMP JUMPDEST SWAP2 SWAP3 PUSH1 0x20 PUSH1 0x1 DUP2 SWAP3 DUP7 DUP6 ADD MLOAD DUP2 SSTORE ADD SWAP5 ADD SWAP3 ADD PUSH2 0x5F7E JUMP JUMPDEST PUSH2 0x600C SWAP1 DUP8 PUSH1 0x0 MSTORE PUSH1 0x20 PUSH1 0x0 KECCAK256 PUSH1 0x1F DUP6 ADD PUSH1 0x5 SHR DUP2 ADD SWAP2 PUSH1 0x20 DUP7 LT PUSH2 0xB78 JUMPI PUSH1 0x1F ADD PUSH1 0x5 SHR ADD SWAP1 PUSH2 0x72CE JUMP JUMPDEST DUP9 PUSH2 0x5F23 JUMP JUMPDEST PUSH1 0x4 DUP5 ADD PUSH1 0x0 MSTORE PUSH1 0x20 PUSH1 0x0 KECCAK256 SWAP1 DUP4 DUP3 ADD JUMPDEST DUP2 DUP4 ADD DUP2 LT PUSH2 0x6033 JUMPI POP POP PUSH2 0x5CAA JUMP JUMPDEST DUP1 PUSH2 0x6040 PUSH1 0x1 SWAP3 SLOAD PUSH2 0x7129 JUMP JUMPDEST DUP1 PUSH2 0x604D JUMPI JUMPDEST POP ADD PUSH2 0x6023 JUMP JUMPDEST PUSH1 0x1F DUP2 GT DUP4 EQ PUSH2 0x6063 JUMPI POP PUSH1 0x0 DUP2 SSTORE JUMPDEST DUP9 PUSH2 0x6046 JUMP JUMPDEST PUSH1 0x0 SWAP1 DUP3 DUP3 MSTORE PUSH2 0x6081 PUSH1 0x1F PUSH1 0x20 DUP5 KECCAK256 SWAP3 ADD PUSH1 0x5 SHR DUP3 ADD DUP6 DUP4 ADD PUSH2 0x72CE JUMP JUMPDEST DUP2 DUP4 SSTORE SSTORE PUSH2 0x605D JUMP JUMPDEST ADD MLOAD SWAP1 POP DUP5 DUP1 PUSH2 0x5C6C JUMP JUMPDEST PUSH1 0x3 DUP4 ADD PUSH1 0x0 MSTORE PUSH1 0x20 PUSH1 0x0 KECCAK256 SWAP1 PUSH1 0x0 JUMPDEST PUSH1 0x1F NOT DUP5 AND DUP2 LT PUSH2 0x60EB JUMPI POP PUSH1 0x1 SWAP4 SWAP5 SWAP6 DUP4 PUSH1 0x1F NOT DUP2 AND LT PUSH2 0x60D2 JUMPI JUMPDEST POP POP POP DUP2 SHL ADD PUSH1 0x3 DUP3 ADD SSTORE PUSH2 0x5C84 JUMP JUMPDEST ADD MLOAD PUSH1 0x0 NOT PUSH1 0xF8 DUP5 PUSH1 0x3 SHL AND SHR NOT AND SWAP1 SSTORE DUP5 DUP1 DUP1 PUSH2 0x60C2 JUMP JUMPDEST SWAP1 SWAP2 PUSH1 0x20 PUSH1 0x1 DUP2 SWAP3 DUP6 DUP11 ADD MLOAD DUP2 SSTORE ADD SWAP4 ADD SWAP2 ADD PUSH2 0x60A5 JUMP JUMPDEST PUSH2 0x6132 SWAP1 PUSH1 0x3 DUP5 ADD PUSH1 0x0 MSTORE PUSH1 0x20 PUSH1 0x0 KECCAK256 PUSH1 0x1F DUP5 ADD PUSH1 0x5 SHR DUP2 ADD SWAP2 PUSH1 0x20 DUP6 LT PUSH2 0xB78 JUMPI PUSH1 0x1F ADD PUSH1 0x5 SHR ADD SWAP1 PUSH2 0x72CE JUMP JUMPDEST DUP5 PUSH2 0x5C52 JUMP JUMPDEST ADD MLOAD SWAP1 POP DUP5 DUP1 PUSH2 0x5C0E JUMP JUMPDEST PUSH1 0x2 DUP5 ADD PUSH1 0x0 MSTORE PUSH1 0x20 PUSH1 0x0 KECCAK256 SWAP1 PUSH1 0x0 JUMPDEST PUSH1 0x1F NOT DUP5 AND DUP2 LT PUSH2 0x6199 JUMPI POP PUSH1 0x1 SWAP4 SWAP5 SWAP6 DUP4 PUSH1 0x1F NOT DUP2 AND LT PUSH2 0x6180 JUMPI JUMPDEST POP POP POP DUP2 SHL ADD PUSH1 0x2 DUP4 ADD SSTORE PUSH2 0x5C26 JUMP JUMPDEST ADD MLOAD PUSH1 0x0 NOT PUSH1 0xF8 DUP5 PUSH1 0x3 SHL AND SHR NOT AND SWAP1 SSTORE DUP5 DUP1 DUP1 PUSH2 0x6170 JUMP JUMPDEST SWAP1 SWAP2 PUSH1 0x20 PUSH1 0x1 DUP2 SWAP3 DUP6 DUP11 ADD MLOAD DUP2 SSTORE ADD SWAP4 ADD SWAP2 ADD PUSH2 0x6153 JUMP JUMPDEST PUSH2 0x61E0 SWAP1 PUSH1 0x2 DUP6 ADD PUSH1 0x0 MSTORE PUSH1 0x20 PUSH1 0x0 KECCAK256 PUSH1 0x1F DUP5 ADD PUSH1 0x5 SHR DUP2 ADD SWAP2 PUSH1 0x20 DUP6 LT PUSH2 0xB78 JUMPI PUSH1 0x1F ADD PUSH1 0x5 SHR ADD SWAP1 PUSH2 0x72CE JUMP JUMPDEST DUP5 PUSH2 0x5BF4 JUMP JUMPDEST POP PUSH1 0x0 SLOAD PUSH1 0x1 PUSH1 0x1 PUSH1 0xA0 SHL SUB AND CALLER EQ PUSH2 0x5B14 JUMP JUMPDEST MLOAD PUSH1 0x1 PUSH1 0x1 PUSH1 0xA0 SHL SUB AND CALLER EQ SWAP1 POP DUP7 PUSH2 0x5B0C JUMP JUMPDEST PUSH1 0x80 ADD MLOAD PUSH1 0x1 PUSH1 0x1 PUSH1 0xA0 SHL SUB AND CALLER EQ SWAP2 POP DUP8 PUSH2 0x5B04 JUMP JUMPDEST CALLVALUE PUSH2 0x159 JUMPI PUSH1 0x20 CALLDATASIZE PUSH1 0x3 NOT ADD SLT PUSH2 0x159 JUMPI PUSH1 0x4 CALLDATALOAD PUSH1 0x1 PUSH1 0x1 PUSH1 0x40 SHL SUB DUP2 GT PUSH2 0x159 JUMPI PUSH2 0x626E PUSH1 0x20 PUSH2 0x625B DUP2 SWAP4 CALLDATASIZE SWAP1 PUSH1 0x4 ADD PUSH2 0x6F4B JUMP JUMPDEST DUP2 PUSH1 0x40 MLOAD SWAP4 DUP3 DUP6 DUP1 SWAP5 MLOAD SWAP4 DUP5 SWAP3 ADD PUSH2 0x6FA1 JUMP JUMPDEST DUP2 ADD PUSH1 0x3 DUP2 MSTORE SUB ADD SWAP1 KECCAK256 SLOAD PUSH1 0x40 MLOAD SWAP1 DUP2 MSTORE RETURN JUMPDEST CALLVALUE PUSH2 0x159 JUMPI PUSH1 0x80 CALLDATASIZE PUSH1 0x3 NOT ADD SLT PUSH2 0x159 JUMPI PUSH1 0x24 CALLDATALOAD PUSH1 0x1 PUSH1 0x1 PUSH1 0x40 SHL SUB DUP2 GT PUSH2 0x159 JUMPI PUSH2 0x62B1 SWAP1 CALLDATASIZE SWAP1 PUSH1 0x4 ADD PUSH2 0x6F4B JUMP JUMPDEST PUSH1 0x64 CALLDATALOAD PUSH1 0x1 PUSH1 0x1 PUSH1 0x40 SHL SUB DUP2 GT PUSH2 0x159 JUMPI PUSH2 0x62D0 SWAP1 CALLDATASIZE SWAP1 PUSH1 0x4 ADD PUSH2 0x6F4B JUMP JUMPDEST PUSH1 0x4 CALLDATALOAD PUSH1 0x0 MSTORE PUSH1 0x1 PUSH1 0x20 MSTORE PUSH2 0x62EF PUSH1 0xFF PUSH1 0x10 PUSH1 0x40 PUSH1 0x0 KECCAK256 ADD SLOAD AND PUSH2 0x731A JUMP JUMPDEST PUSH1 0x4 CALLDATALOAD PUSH1 0x0 MSTORE PUSH1 0x1 PUSH1 0x20 MSTORE PUSH1 0x40 PUSH1 0x0 KECCAK256 PUSH1 0xFF PUSH1 0x10 PUSH1 0x40 MLOAD SWAP3 PUSH2 0x6310 DUP5 PUSH2 0x6EBC JUMP JUMPDEST DUP1 SLOAD DUP5 MSTORE PUSH1 0x1 DUP2 ADD SLOAD PUSH1 0x20 DUP6 ADD MSTORE PUSH1 0x2 DUP2 ADD SLOAD PUSH1 0x40 DUP6 ADD MSTORE PUSH1 0x3 DUP2 ADD SLOAD PUSH1 0x1 PUSH1 0x1 PUSH1 0xA0 SHL SUB SWAP1 DUP2 AND PUSH1 0x60 DUP7 ADD MSTORE PUSH1 0x4 DUP3 ADD SLOAD DUP2 AND PUSH1 0x80 DUP7 ADD MSTORE PUSH1 0x5 DUP3 ADD SLOAD AND PUSH1 0xA0 DUP6 ADD MSTORE PUSH2 0x6360 PUSH1 0x6 DUP3 ADD PUSH2 0x7163 JUMP JUMPDEST PUSH1 0xC0 DUP6 ADD MSTORE PUSH2 0x6371 PUSH1 0x7 DUP3 ADD PUSH2 0x7163 JUMP JUMPDEST PUSH1 0xE0 DUP6 ADD MSTORE PUSH1 0x8 DUP2 ADD SLOAD PUSH2 0x100 DUP6 ADD MSTORE PUSH2 0x638D PUSH1 0x9 DUP3 ADD PUSH2 0x7163 JUMP JUMPDEST PUSH2 0x120 DUP6 ADD MSTORE PUSH1 0xA DUP2 ADD SLOAD PUSH2 0x140 DUP6 ADD MSTORE PUSH2 0x63AA PUSH1 0xB DUP3 ADD PUSH2 0x7163 JUMP JUMPDEST PUSH2 0x160 DUP6 ADD MSTORE PUSH1 0xC DUP2 ADD SLOAD PUSH2 0x180 DUP6 ADD MSTORE PUSH1 0xD DUP2 ADD SLOAD PUSH2 0x1A0 DUP6 ADD MSTORE PUSH2 0x63D2 PUSH1 0xE DUP3 ADD PUSH2 0x735F JUMP JUMPDEST PUSH2 0x1C0 DUP6 ADD MSTORE PUSH2 0x63E4 PUSH1 0xF DUP3 ADD PUSH2 0x7163 JUMP JUMPDEST PUSH2 0x1E0 DUP6 ADD MSTORE ADD SLOAD AND ISZERO ISZERO PUSH2 0x200 DUP3 ADD MSTORE PUSH1 0x60 DUP2 ADD MLOAD PUSH1 0x1 PUSH1 0x1 PUSH1 0xA0 SHL SUB AND CALLER EQ SWAP1 DUP2 ISZERO PUSH2 0x6EA5 JUMPI JUMPDEST DUP2 ISZERO PUSH2 0x6E8E JUMPI JUMPDEST POP DUP1 ISZERO PUSH2 0x6E7A JUMPI JUMPDEST PUSH2 0x6425 SWAP1 PUSH2 0x73B4 JUMP JUMPDEST PUSH1 0x4 CALLDATALOAD PUSH1 0x0 MSTORE PUSH1 0x1 PUSH1 0x20 MSTORE PUSH1 0x9 PUSH1 0x40 PUSH1 0x0 KECCAK256 ADD SWAP2 DUP1 MLOAD SWAP3 PUSH1 0x1 PUSH1 0x1 PUSH1 0x40 SHL SUB DUP5 GT PUSH2 0xB82 JUMPI PUSH2 0x6454 DUP2 SLOAD PUSH2 0x7129 JUMP JUMPDEST PUSH1 0x1F DUP2 GT PUSH2 0x6E48 JUMPI JUMPDEST POP PUSH1 0x20 SWAP4 PUSH1 0x1F DUP2 GT PUSH1 0x1 EQ PUSH2 0x6DE1 JUMPI DUP1 SWAP2 SWAP3 SWAP4 SWAP5 PUSH1 0x0 SWAP2 PUSH2 0x6DD6 JUMPI JUMPDEST POP DUP2 PUSH1 0x1 SHL SWAP2 PUSH1 0x0 NOT SWAP1 PUSH1 0x3 SHL SHR NOT AND OR SWAP1 SSTORE JUMPDEST PUSH1 0x4 CALLDATALOAD PUSH1 0x0 MSTORE PUSH1 0x1 PUSH1 0x20 MSTORE PUSH1 0x44 CALLDATALOAD PUSH1 0xA PUSH1 0x40 PUSH1 0x0 KECCAK256 ADD SSTORE PUSH1 0x40 MLOAD SWAP2 PUSH2 0x64B1 DUP4 PUSH2 0x6F0F JUMP JUMPDEST PUSH1 0x0 DUP4 MSTORE PUSH2 0x64C0 PUSH1 0x4 CALLDATALOAD PUSH2 0x7432 JUMP JUMPDEST SWAP1 PUSH1 0x40 MLOAD SWAP4 PUSH2 0x64CE DUP6 PUSH2 0x6EF4 JUMP JUMPDEST PUSH1 0x14 DUP6 MSTORE PUSH20 0x28BAB0B634BA3C902B32B934B334B1B0BA34B7B7 PUSH1 0x61 SHL PUSH1 0x20 DUP7 ADD MSTORE PUSH1 0x40 MLOAD SWAP1 PUSH2 0x64FC DUP3 PUSH2 0x6F0F JUMP JUMPDEST PUSH1 0x0 DUP3 MSTORE PUSH1 0x40 MLOAD SWAP3 PUSH2 0x650D DUP5 PUSH2 0x6F0F JUMP JUMPDEST PUSH1 0x0 DUP5 MSTORE PUSH1 0x4 CALLDATALOAD PUSH1 0x0 MSTORE PUSH1 0x1 PUSH1 0x20 MSTORE PUSH2 0x6530 PUSH1 0xFF PUSH1 0x10 PUSH1 0x40 PUSH1 0x0 KECCAK256 ADD SLOAD AND PUSH2 0x731A JUMP JUMPDEST PUSH1 0x4 CALLDATALOAD PUSH1 0x0 MSTORE PUSH1 0x1 PUSH1 0x20 MSTORE PUSH1 0x40 PUSH1 0x0 KECCAK256 PUSH1 0xFF PUSH1 0x10 PUSH1 0x40 MLOAD SWAP3 PUSH2 0x6551 DUP5 PUSH2 0x6EBC JUMP JUMPDEST DUP1 SLOAD DUP5 MSTORE PUSH1 0x1 DUP2 ADD SLOAD PUSH1 0x20 DUP6 ADD MSTORE PUSH1 0x2 DUP2 ADD SLOAD PUSH1 0x40 DUP6 ADD MSTORE PUSH1 0x3 DUP2 ADD SLOAD PUSH1 0x1 PUSH1 0x1 PUSH1 0xA0 SHL SUB SWAP1 DUP2 AND PUSH1 0x60 DUP7 ADD MSTORE PUSH1 0x4 DUP3 ADD SLOAD DUP2 AND PUSH1 0x80 DUP7 ADD MSTORE PUSH1 0x5 DUP3 ADD SLOAD AND PUSH1 0xA0 DUP6 ADD MSTORE PUSH2 0x65A1 PUSH1 0x6 DUP3 ADD PUSH2 0x7163 JUMP JUMPDEST PUSH1 0xC0 DUP6 ADD MSTORE PUSH2 0x65B2 PUSH1 0x7 DUP3 ADD PUSH2 0x7163 JUMP JUMPDEST PUSH1 0xE0 DUP6 ADD MSTORE PUSH1 0x8 DUP2 ADD SLOAD PUSH2 0x100 DUP6 ADD MSTORE PUSH2 0x65CE PUSH1 0x9 DUP3 ADD PUSH2 0x7163 JUMP JUMPDEST PUSH2 0x120 DUP6 ADD MSTORE PUSH1 0xA DUP2 ADD SLOAD PUSH2 0x140 DUP6 ADD MSTORE PUSH2 0x65EB PUSH1 0xB DUP3 ADD PUSH2 0x7163 JUMP JUMPDEST PUSH2 0x160 DUP6 ADD MSTORE PUSH1 0xC DUP2 ADD SLOAD PUSH2 0x180 DUP6 ADD MSTORE PUSH1 0xD DUP2 ADD SLOAD PUSH2 0x1A0 DUP6 ADD MSTORE PUSH2 0x6613 PUSH1 0xE DUP3 ADD PUSH2 0x735F JUMP JUMPDEST PUSH2 0x1C0 DUP6 ADD MSTORE PUSH2 0x6625 PUSH1 0xF DUP3 ADD PUSH2 0x7163 JUMP JUMPDEST PUSH2 0x1E0 DUP6 ADD MSTORE ADD SLOAD AND ISZERO ISZERO PUSH2 0x200 DUP3 ADD MSTORE PUSH1 0x60 DUP2 ADD MLOAD PUSH1 0x1 PUSH1 0x1 PUSH1 0xA0 SHL SUB AND CALLER EQ SWAP1 DUP2 ISZERO PUSH2 0x6DBF JUMPI JUMPDEST DUP2 ISZERO PUSH2 0x6DA8 JUMPI JUMPDEST POP DUP1 ISZERO PUSH2 0x6D94 JUMPI JUMPDEST PUSH2 0x6666 SWAP1 PUSH2 0x73B4 JUMP JUMPDEST PUSH1 0x40 MLOAD SWAP7 PUSH2 0x6673 DUP9 PUSH2 0x6ED8 JUMP JUMPDEST PUSH2 0x667D DUP7 DUP10 PUSH2 0x7400 JUMP JUMPDEST CALLER PUSH1 0x20 DUP10 ADD MSTORE TIMESTAMP PUSH1 0x40 DUP10 ADD MSTORE PUSH1 0x60 DUP9 ADD MSTORE PUSH1 0x80 DUP8 ADD MSTORE PUSH1 0xA0 DUP7 ADD MSTORE PUSH1 0xC0 DUP6 ADD MSTORE PUSH1 0xE0 DUP5 ADD MSTORE PUSH1 0x4 CALLDATALOAD PUSH1 0x0 MSTORE PUSH1 0x2 PUSH1 0x20 MSTORE PUSH1 0x40 PUSH1 0x0 KECCAK256 DUP1 SLOAD PUSH1 0x1 PUSH1 0x40 SHL DUP2 LT ISZERO PUSH2 0xB82 JUMPI PUSH2 0x66CF SWAP2 PUSH1 0x1 DUP3 ADD DUP2 SSTORE PUSH2 0x70F7 JUMP JUMPDEST PUSH2 0xF44 JUMPI DUP4 MLOAD PUSH1 0x7 DUP2 LT ISZERO PUSH2 0xF2E JUMPI DUP2 SLOAD PUSH1 0x20 DUP7 ADD MLOAD PUSH2 0x100 PUSH1 0x1 PUSH1 0xA8 SHL SUB PUSH1 0x8 SWAP2 SWAP1 SWAP2 SHL AND PUSH1 0xFF SWAP3 SWAP1 SWAP3 AND PUSH1 0x1 PUSH1 0x1 PUSH1 0xA8 SHL SUB NOT SWAP1 SWAP2 AND OR OR DUP2 SSTORE PUSH1 0x40 DUP5 ADD MLOAD PUSH1 0x1 DUP3 ADD SSTORE PUSH1 0x60 DUP5 ADD MLOAD DUP1 MLOAD SWAP1 PUSH1 0x1 PUSH1 0x1 PUSH1 0x40 SHL SUB DUP3 GT PUSH2 0xB82 JUMPI DUP2 SWAP1 PUSH2 0x673A PUSH1 0x2 DUP6 ADD SLOAD PUSH2 0x7129 JUMP JUMPDEST PUSH1 0x1F DUP2 GT PUSH2 0x6D5F JUMPI JUMPDEST POP PUSH1 0x20 SWAP1 PUSH1 0x1F DUP4 GT PUSH1 0x1 EQ PUSH2 0x6CED JUMPI PUSH1 0x0 SWAP3 PUSH2 0x6CE2 JUMPI JUMPDEST POP POP DUP2 PUSH1 0x1 SHL SWAP2 PUSH1 0x0 NOT SWAP1 PUSH1 0x3 SHL SHR NOT AND OR PUSH1 0x2 DUP3 ADD SSTORE JUMPDEST PUSH1 0x80 DUP5 ADD MLOAD DUP1 MLOAD SWAP1 PUSH1 0x1 PUSH1 0x1 PUSH1 0x40 SHL SUB DUP3 GT PUSH2 0xB82 JUMPI DUP2 SWAP1 PUSH2 0x6797 PUSH1 0x3 DUP6 ADD SLOAD PUSH2 0x7129 JUMP JUMPDEST PUSH1 0x1F DUP2 GT PUSH2 0x6CAD JUMPI JUMPDEST POP PUSH1 0x20 SWAP1 PUSH1 0x1F DUP4 GT PUSH1 0x1 EQ PUSH2 0x6C3B JUMPI PUSH1 0x0 SWAP3 PUSH2 0x6C30 JUMPI JUMPDEST POP POP DUP2 PUSH1 0x1 SHL SWAP2 PUSH1 0x0 NOT SWAP1 PUSH1 0x3 SHL SHR NOT AND OR PUSH1 0x3 DUP3 ADD SSTORE JUMPDEST PUSH1 0xA0 DUP5 ADD MLOAD DUP1 MLOAD SWAP1 PUSH1 0x1 PUSH1 0x40 SHL DUP3 GT PUSH2 0xB82 JUMPI PUSH1 0x4 DUP4 ADD SLOAD DUP3 PUSH1 0x4 DUP6 ADD SSTORE DUP1 DUP4 LT PUSH2 0x6BB8 JUMPI JUMPDEST POP PUSH1 0x20 ADD SWAP1 PUSH1 0x4 DUP4 ADD PUSH1 0x0 MSTORE PUSH1 0x20 PUSH1 0x0 KECCAK256 SWAP2 PUSH1 0x0 SWAP1 JUMPDEST DUP3 DUP3 LT PUSH2 0x6AA3 JUMPI POP POP POP POP PUSH1 0xC0 DUP5 ADD MLOAD DUP1 MLOAD SWAP1 PUSH1 0x1 PUSH1 0x1 PUSH1 0x40 SHL SUB DUP3 GT PUSH2 0xB82 JUMPI PUSH2 0x6839 PUSH1 0x5 DUP5 ADD SLOAD PUSH2 0x7129 JUMP JUMPDEST PUSH1 0x1F DUP2 GT PUSH2 0x6A6E JUMPI JUMPDEST POP PUSH1 0x20 SWAP1 PUSH1 0x1F DUP4 GT PUSH1 0x1 EQ PUSH2 0x69F9 JUMPI SWAP2 DUP1 PUSH1 0xE0 SWAP5 SWAP3 PUSH1 0x6 SWAP5 PUSH1 0x0 SWAP3 PUSH2 0x69EE JUMPI JUMPDEST POP POP DUP2 PUSH1 0x1 SHL SWAP2 PUSH1 0x0 NOT SWAP1 PUSH1 0x3 SHL SHR NOT AND OR PUSH1 0x5 DUP3 ADD SSTORE JUMPDEST ADD SWAP4 ADD MLOAD SWAP3 DUP4 MLOAD PUSH1 0x1 PUSH1 0x1 PUSH1 0x40 SHL SUB DUP2 GT PUSH2 0xB82 JUMPI PUSH2 0x6899 DUP3 SLOAD PUSH2 0x7129 JUMP JUMPDEST PUSH1 0x1F DUP2 GT PUSH2 0x69BC JUMPI JUMPDEST POP PUSH1 0x20 SWAP5 PUSH1 0x1F DUP3 GT PUSH1 0x1 EQ PUSH2 0x6956 JUMPI SWAP5 DUP2 SWAP3 SWAP4 SWAP5 SWAP6 PUSH1 0x0 SWAP3 PUSH2 0x694B JUMPI JUMPDEST POP POP DUP2 PUSH1 0x1 SHL SWAP2 PUSH1 0x0 NOT SWAP1 PUSH1 0x3 SHL SHR NOT AND OR SWAP1 SSTORE JUMPDEST PUSH1 0x7 DUP2 LT ISZERO PUSH2 0xF2E JUMPI PUSH1 0x40 MLOAD SWAP1 TIMESTAMP DUP3 MSTORE CALLER SWAP2 PUSH1 0x0 DUP1 MLOAD PUSH1 0x20 PUSH2 0x76D4 DUP4 CODECOPY DUP2 MLOAD SWAP2 MSTORE PUSH1 0x20 PUSH1 0x4 CALLDATALOAD SWAP3 LOG4 PUSH32 0x4D755DDFC04CF247B6ACCFADD1C80C5ED9D0483140166C98AE243C3BCB337FBB PUSH2 0x6932 PUSH1 0x40 MLOAD SWAP3 PUSH1 0x60 DUP5 MSTORE PUSH1 0x60 DUP5 ADD SWAP1 PUSH2 0x7209 JUMP JUMPDEST SWAP2 PUSH1 0x44 CALLDATALOAD PUSH1 0x20 DUP3 ADD MSTORE CALLER PUSH1 0x40 DUP3 ADD MSTORE DUP1 PUSH1 0x4 CALLDATALOAD SWAP4 SUB SWAP1 LOG2 STOP JUMPDEST ADD MLOAD SWAP1 POP DUP6 DUP1 PUSH2 0x68BF JUMP JUMPDEST PUSH1 0x1F NOT DUP3 AND SWAP6 DUP4 PUSH1 0x0 MSTORE PUSH1 0x20 PUSH1 0x0 KECCAK256 SWAP2 PUSH1 0x0 JUMPDEST DUP9 DUP2 LT PUSH2 0x69A4 JUMPI POP DUP4 PUSH1 0x1 SWAP6 SWAP7 SWAP8 SWAP9 LT PUSH2 0x698B JUMPI JUMPDEST POP POP POP DUP2 SHL ADD SWAP1 SSTORE PUSH2 0x68D4 JUMP JUMPDEST ADD MLOAD PUSH1 0x0 NOT PUSH1 0xF8 DUP5 PUSH1 0x3 SHL AND SHR NOT AND SWAP1 SSTORE DUP6 DUP1 DUP1 PUSH2 0x697E JUMP JUMPDEST SWAP2 SWAP3 PUSH1 0x20 PUSH1 0x1 DUP2 SWAP3 DUP7 DUP6 ADD MLOAD DUP2 SSTORE ADD SWAP5 ADD SWAP3 ADD PUSH2 0x6969 JUMP JUMPDEST PUSH2 0x69E8 SWAP1 DUP4 PUSH1 0x0 MSTORE PUSH1 0x20 PUSH1 0x0 KECCAK256 PUSH1 0x1F DUP5 ADD PUSH1 0x5 SHR DUP2 ADD SWAP2 PUSH1 0x20 DUP6 LT PUSH2 0xB78 JUMPI PUSH1 0x1F ADD PUSH1 0x5 SHR ADD SWAP1 PUSH2 0x72CE JUMP JUMPDEST DUP6 PUSH2 0x68A2 JUMP JUMPDEST ADD MLOAD SWAP1 POP DUP9 DUP1 PUSH2 0x6862 JUMP JUMPDEST SWAP1 PUSH1 0x5 DUP5 ADD PUSH1 0x0 MSTORE PUSH1 0x20 PUSH1 0x0 KECCAK256 SWAP2 PUSH1 0x0 JUMPDEST PUSH1 0x1F NOT DUP6 AND DUP2 LT PUSH2 0x6A56 JUMPI POP SWAP3 PUSH1 0xE0 SWAP5 SWAP3 PUSH1 0x1 SWAP3 PUSH1 0x6 SWAP6 DUP4 PUSH1 0x1F NOT DUP2 AND LT PUSH2 0x6A3D JUMPI JUMPDEST POP POP POP DUP2 SHL ADD PUSH1 0x5 DUP3 ADD SSTORE PUSH2 0x687A JUMP JUMPDEST ADD MLOAD PUSH1 0x0 NOT PUSH1 0xF8 DUP5 PUSH1 0x3 SHL AND SHR NOT AND SWAP1 SSTORE DUP9 DUP1 DUP1 PUSH2 0x6A2D JUMP JUMPDEST SWAP2 SWAP3 PUSH1 0x20 PUSH1 0x1 DUP2 SWAP3 DUP7 DUP6 ADD MLOAD DUP2 SSTORE ADD SWAP5 ADD SWAP3 ADD PUSH2 0x6A0A JUMP JUMPDEST PUSH2 0x6A9D SWAP1 PUSH1 0x5 DUP6 ADD PUSH1 0x0 MSTORE PUSH1 0x20 PUSH1 0x0 KECCAK256 PUSH1 0x1F DUP6 ADD PUSH1 0x5 SHR DUP2 ADD SWAP2 PUSH1 0x20 DUP7 LT PUSH2 0xB78 JUMPI PUSH1 0x1F ADD PUSH1 0x5 SHR ADD SWAP1 PUSH2 0x72CE JUMP JUMPDEST DUP7 PUSH2 0x6842 JUMP JUMPDEST DUP1 MLOAD DUP1 MLOAD SWAP1 PUSH1 0x1 PUSH1 0x1 PUSH1 0x40 SHL SUB DUP3 GT PUSH2 0xB82 JUMPI PUSH2 0x6AC0 DUP7 SLOAD PUSH2 0x7129 JUMP JUMPDEST PUSH1 0x1F DUP2 GT PUSH2 0x6B86 JUMPI JUMPDEST POP PUSH1 0x20 SWAP1 PUSH1 0x1F DUP4 GT PUSH1 0x1 EQ PUSH2 0x6B16 JUMPI SWAP3 DUP3 PUSH1 0x1 SWAP5 SWAP4 PUSH1 0x20 SWAP4 DUP7 SWAP6 PUSH1 0x0 SWAP3 PUSH2 0x6B0B JUMPI JUMPDEST POP POP PUSH1 0x0 NOT PUSH1 0x3 DUP4 SWAP1 SHL SHR NOT AND SWAP1 DUP5 SHL OR DUP8 SSTORE JUMPDEST ADD SWAP5 ADD SWAP2 ADD SWAP1 SWAP3 PUSH2 0x680B JUMP JUMPDEST ADD MLOAD SWAP1 POP DUP14 DUP1 PUSH2 0x6AEB JUMP JUMPDEST SWAP1 DUP7 PUSH1 0x0 MSTORE PUSH1 0x20 PUSH1 0x0 KECCAK256 SWAP2 PUSH1 0x0 JUMPDEST PUSH1 0x1F NOT DUP6 AND DUP2 LT PUSH2 0x6B6E JUMPI POP DUP4 PUSH1 0x20 SWAP4 PUSH1 0x1 SWAP7 SWAP4 DUP8 SWAP7 SWAP4 DUP8 SWAP5 PUSH1 0x1F NOT DUP2 AND LT PUSH2 0x6B55 JUMPI JUMPDEST POP POP POP DUP2 SHL ADD DUP8 SSTORE PUSH2 0x6AFF JUMP JUMPDEST ADD MLOAD PUSH1 0x0 NOT PUSH1 0xF8 DUP5 PUSH1 0x3 SHL AND SHR NOT AND SWAP1 SSTORE DUP14 DUP1 DUP1 PUSH2 0x6B48 JUMP JUMPDEST SWAP2 SWAP3 PUSH1 0x20 PUSH1 0x1 DUP2 SWAP3 DUP7 DUP6 ADD MLOAD DUP2 SSTORE ADD SWAP5 ADD SWAP3 ADD PUSH2 0x6B24 JUMP JUMPDEST PUSH2 0x6BB2 SWAP1 DUP8 PUSH1 0x0 MSTORE PUSH1 0x20 PUSH1 0x0 KECCAK256 PUSH1 0x1F DUP6 ADD PUSH1 0x5 SHR DUP2 ADD SWAP2 PUSH1 0x20 DUP7 LT PUSH2 0xB78 JUMPI PUSH1 0x1F ADD PUSH1 0x5 SHR ADD SWAP1 PUSH2 0x72CE JUMP JUMPDEST DUP11 PUSH2 0x6AC9 JUMP JUMPDEST PUSH1 0x4 DUP5 ADD PUSH1 0x0 MSTORE PUSH1 0x20 PUSH1 0x0 KECCAK256 SWAP1 DUP4 DUP3 ADD JUMPDEST DUP2 DUP4 ADD DUP2 LT PUSH2 0x6BD9 JUMPI POP POP PUSH2 0x67F5 JUMP JUMPDEST DUP1 PUSH2 0x6BE6 PUSH1 0x1 SWAP3 SLOAD PUSH2 0x7129 JUMP JUMPDEST DUP1 PUSH2 0x6BF3 JUMPI JUMPDEST POP ADD PUSH2 0x6BC9 JUMP JUMPDEST PUSH1 0x1F DUP2 GT DUP4 EQ PUSH2 0x6C09 JUMPI POP PUSH1 0x0 DUP2 SSTORE JUMPDEST DUP11 PUSH2 0x6BEC JUMP JUMPDEST PUSH1 0x0 SWAP1 DUP3 DUP3 MSTORE PUSH2 0x6C27 PUSH1 0x1F PUSH1 0x20 DUP5 KECCAK256 SWAP3 ADD PUSH1 0x5 SHR DUP3 ADD DUP6 DUP4 ADD PUSH2 0x72CE JUMP JUMPDEST DUP2 DUP4 SSTORE SSTORE PUSH2 0x6C03 JUMP JUMPDEST ADD MLOAD SWAP1 POP DUP7 DUP1 PUSH2 0x67B7 JUMP JUMPDEST SWAP3 POP PUSH1 0x3 DUP5 ADD PUSH1 0x0 MSTORE PUSH1 0x20 PUSH1 0x0 KECCAK256 SWAP1 PUSH1 0x0 SWAP4 JUMPDEST PUSH1 0x1F NOT DUP5 AND DUP6 LT PUSH2 0x6C92 JUMPI PUSH1 0x1 SWAP5 POP DUP4 PUSH1 0x1F NOT DUP2 AND LT PUSH2 0x6C79 JUMPI JUMPDEST POP POP POP DUP2 SHL ADD PUSH1 0x3 DUP3 ADD SSTORE PUSH2 0x67CF JUMP JUMPDEST ADD MLOAD PUSH1 0x0 NOT PUSH1 0xF8 DUP5 PUSH1 0x3 SHL AND SHR NOT AND SWAP1 SSTORE DUP7 DUP1 DUP1 PUSH2 0x6C69 JUMP JUMPDEST DUP2 DUP2 ADD MLOAD DUP4 SSTORE PUSH1 0x20 SWAP5 DUP6 ADD SWAP5 PUSH1 0x1 SWAP1 SWAP4 ADD SWAP3 SWAP1 SWAP2 ADD SWAP1 PUSH2 0x6C4E JUMP JUMPDEST PUSH2 0x6CDC SWAP1 PUSH1 0x3 DUP7 ADD PUSH1 0x0 MSTORE PUSH1 0x20 PUSH1 0x0 KECCAK256 PUSH1 0x1F DUP6 ADD PUSH1 0x5 SHR DUP2 ADD SWAP2 PUSH1 0x20 DUP7 LT PUSH2 0xB78 JUMPI PUSH1 0x1F ADD PUSH1 0x5 SHR ADD SWAP1 PUSH2 0x72CE JUMP JUMPDEST DUP8 PUSH2 0x67A0 JUMP JUMPDEST ADD MLOAD SWAP1 POP DUP7 DUP1 PUSH2 0x675A JUMP JUMPDEST SWAP3 POP PUSH1 0x2 DUP5 ADD PUSH1 0x0 MSTORE PUSH1 0x20 PUSH1 0x0 KECCAK256 SWAP1 PUSH1 0x0 SWAP4 JUMPDEST PUSH1 0x1F NOT DUP5 AND DUP6 LT PUSH2 0x6D44 JUMPI PUSH1 0x1 SWAP5 POP DUP4 PUSH1 0x1F NOT DUP2 AND LT PUSH2 0x6D2B JUMPI JUMPDEST POP POP POP DUP2 SHL ADD PUSH1 0x2 DUP3 ADD SSTORE PUSH2 0x6772 JUMP JUMPDEST ADD MLOAD PUSH1 0x0 NOT PUSH1 0xF8 DUP5 PUSH1 0x3 SHL AND SHR NOT AND SWAP1 SSTORE DUP7 DUP1 DUP1 PUSH2 0x6D1B JUMP JUMPDEST DUP2 DUP2 ADD MLOAD DUP4 SSTORE PUSH1 0x20 SWAP5 DUP6 ADD SWAP5 PUSH1 0x1 SWAP1 SWAP4 ADD SWAP3 SWAP1 SWAP2 ADD SWAP1 PUSH2 0x6D00 JUMP JUMPDEST PUSH2 0x6D8E SWAP1 PUSH1 0x2 DUP7 ADD PUSH1 0x0 MSTORE PUSH1 0x20 PUSH1 0x0 KECCAK256 PUSH1 0x1F DUP6 ADD PUSH1 0x5 SHR DUP2 ADD SWAP2 PUSH1 0x20 DUP7 LT PUSH2 0xB78 JUMPI PUSH1 0x1F ADD PUSH1 0x5 SHR ADD SWAP1 PUSH2 0x72CE JUMP JUMPDEST DUP8 PUSH2 0x6743 JUMP JUMPDEST POP PUSH1 0x0 SLOAD PUSH1 0x1 PUSH1 0x1 PUSH1 0xA0 SHL SUB AND CALLER EQ PUSH2 0x665D JUMP JUMPDEST PUSH1 0xA0 ADD MLOAD PUSH1 0x1 PUSH1 0x1 PUSH1 0xA0 SHL SUB AND CALLER EQ SWAP1 POP DUP9 PUSH2 0x6655 JUMP JUMPDEST PUSH1 0x80 DUP2 ADD MLOAD PUSH1 0x1 PUSH1 0x1 PUSH1 0xA0 SHL SUB AND CALLER EQ SWAP2 POP PUSH2 0x664E JUMP JUMPDEST SWAP1 POP DUP4 ADD MLOAD DUP6 PUSH2 0x6479 JUMP JUMPDEST DUP2 PUSH1 0x0 MSTORE PUSH1 0x20 PUSH1 0x0 KECCAK256 PUSH1 0x0 JUMPDEST PUSH1 0x1F NOT DUP4 AND DUP2 LT PUSH2 0x6E30 JUMPI POP PUSH1 0x1 SWAP3 SWAP4 SWAP5 SWAP6 DUP3 PUSH1 0x1F NOT DUP2 AND LT PUSH2 0x6E17 JUMPI JUMPDEST POP POP DUP2 SHL ADD SWAP1 SSTORE PUSH2 0x648D JUMP JUMPDEST DUP6 ADD MLOAD PUSH1 0x0 NOT PUSH1 0xF8 DUP5 PUSH1 0x3 SHL AND SHR NOT AND SWAP1 SSTORE DUP6 DUP1 PUSH2 0x6E0B JUMP JUMPDEST DUP5 DUP8 ADD MLOAD DUP3 SSTORE PUSH1 0x20 SWAP7 DUP8 ADD SWAP7 PUSH1 0x1 SWAP1 SWAP3 ADD SWAP2 ADD PUSH2 0x6DED JUMP JUMPDEST PUSH2 0x6E74 SWAP1 DUP3 PUSH1 0x0 MSTORE PUSH1 0x20 PUSH1 0x0 KECCAK256 PUSH1 0x1F DUP8 ADD PUSH1 0x5 SHR DUP2 ADD SWAP2 PUSH1 0x20 DUP9 LT PUSH2 0xB78 JUMPI PUSH1 0x1F ADD PUSH1 0x5 SHR ADD SWAP1 PUSH2 0x72CE JUMP JUMPDEST DUP5 PUSH2 0x645D JUMP JUMPDEST POP PUSH1 0x0 SLOAD PUSH1 0x1 PUSH1 0x1 PUSH1 0xA0 SHL SUB AND CALLER EQ PUSH2 0x641C JUMP JUMPDEST PUSH1 0xA0 ADD MLOAD PUSH1 0x1 PUSH1 0x1 PUSH1 0xA0 SHL SUB AND CALLER EQ SWAP1 POP DUP4 PUSH2 0x6414 JUMP JUMPDEST PUSH1 0x80 DUP2 ADD MLOAD PUSH1 0x1 PUSH1 0x1 PUSH1 0xA0 SHL SUB AND CALLER EQ SWAP2 POP PUSH2 0x640D JUMP JUMPDEST PUSH2 0x220 DUP2 ADD SWAP1 DUP2 LT PUSH1 0x1 PUSH1 0x1 PUSH1 0x40 SHL SUB DUP3 GT OR PUSH2 0xB82 JUMPI PUSH1 0x40 MSTORE JUMP JUMPDEST PUSH2 0x100 DUP2 ADD SWAP1 DUP2 LT PUSH1 0x1 PUSH1 0x1 PUSH1 0x40 SHL SUB DUP3 GT OR PUSH2 0xB82 JUMPI PUSH1 0x40 MSTORE JUMP JUMPDEST PUSH1 0x40 DUP2 ADD SWAP1 DUP2 LT PUSH1 0x1 PUSH1 0x1 PUSH1 0x40 SHL SUB DUP3 GT OR PUSH2 0xB82 JUMPI PUSH1 0x40 MSTORE JUMP JUMPDEST PUSH1 0x20 DUP2 ADD SWAP1 DUP2 LT PUSH1 0x1 PUSH1 0x1 PUSH1 0x40 SHL SUB DUP3 GT OR PUSH2 0xB82 JUMPI PUSH1 0x40 MSTORE JUMP JUMPDEST SWAP1 PUSH1 0x1F DUP1 NOT SWAP2 ADD AND DUP2 ADD SWAP1 DUP2 LT PUSH1 0x1 PUSH1 0x1 PUSH1 0x40 SHL SUB DUP3 GT OR PUSH2 0xB82 JUMPI PUSH1 0x40 MSTORE JUMP JUMPDEST DUP2 PUSH1 0x1F DUP3 ADD SLT ISZERO PUSH2 0x159 JUMPI DUP1 CALLDATALOAD SWAP1 PUSH1 0x1 PUSH1 0x1 PUSH1 0x40 SHL SUB DUP3 GT PUSH2 0xB82 JUMPI PUSH1 0x40 MLOAD SWAP3 PUSH2 0x6F7F PUSH1 0x1F DUP5 ADD PUSH1 0x1F NOT AND PUSH1 0x20 ADD DUP6 PUSH2 0x6F2A JUMP JUMPDEST DUP3 DUP5 MSTORE PUSH1 0x20 DUP4 DUP4 ADD ADD GT PUSH2 0x159 JUMPI DUP2 PUSH1 0x0 SWAP3 PUSH1 0x20 DUP1 SWAP4 ADD DUP4 DUP7 ADD CALLDATACOPY DUP4 ADD ADD MSTORE SWAP1 JUMP JUMPDEST PUSH1 0x0 JUMPDEST DUP4 DUP2 LT PUSH2 0x6FB4 JUMPI POP POP PUSH1 0x0 SWAP2 ADD MSTORE JUMP JUMPDEST DUP2 DUP2 ADD MLOAD DUP4 DUP3 ADD MSTORE PUSH1 0x20 ADD PUSH2 0x6FA4 JUMP JUMPDEST PUSH1 0x1 PUSH1 0x1 PUSH1 0x40 SHL SUB DUP2 GT PUSH2 0xB82 JUMPI PUSH1 0x5 SHL PUSH1 0x20 ADD SWAP1 JUMP JUMPDEST SWAP1 DUP1 PUSH1 0x1F DUP4 ADD SLT ISZERO PUSH2 0x159 JUMPI DUP2 CALLDATALOAD SWAP1 PUSH2 0x6FF3 DUP3 PUSH2 0x6FC4 JUMP JUMPDEST SWAP3 PUSH2 0x7001 PUSH1 0x40 MLOAD SWAP5 DUP6 PUSH2 0x6F2A JUMP JUMPDEST DUP3 DUP5 MSTORE PUSH1 0x20 SWAP3 DUP4 DUP1 DUP7 ADD SWAP2 PUSH1 0x5 SHL DUP4 ADD ADD SWAP3 DUP1 DUP5 GT PUSH2 0x159 JUMPI DUP5 DUP4 ADD SWAP2 JUMPDEST DUP5 DUP4 LT PUSH2 0x702F JUMPI POP POP POP POP POP POP SWAP1 JUMP JUMPDEST DUP3 CALLDATALOAD PUSH1 0x1 PUSH1 0x1 PUSH1 0x40 SHL SUB DUP2 GT PUSH2 0x159 JUMPI DUP7 SWAP2 PUSH2 0x7050 DUP5 DUP5 DUP1 SWAP5 DUP10 ADD ADD PUSH2 0x6F4B JUMP JUMPDEST DUP2 MSTORE ADD SWAP3 ADD SWAP2 PUSH2 0x701F JUMP JUMPDEST PUSH1 0x24 CALLDATALOAD SWAP1 PUSH1 0x1 PUSH1 0x1 PUSH1 0xA0 SHL SUB DUP3 AND DUP3 SUB PUSH2 0x159 JUMPI JUMP JUMPDEST PUSH1 0x4 CALLDATALOAD SWAP1 PUSH1 0x1 PUSH1 0x1 PUSH1 0xA0 SHL SUB DUP3 AND DUP3 SUB PUSH2 0x159 JUMPI JUMP JUMPDEST SWAP1 PUSH1 0x7 DUP3 LT ISZERO PUSH2 0xF2E JUMPI MSTORE JUMP JUMPDEST SWAP1 PUSH1 0x80 PUSH1 0x3 NOT DUP4 ADD SLT PUSH2 0x159 JUMPI PUSH1 0x4 CALLDATALOAD SWAP2 PUSH1 0x1 PUSH1 0x1 PUSH1 0x40 SHL SUB SWAP2 PUSH1 0x24 CALLDATALOAD DUP4 DUP2 GT PUSH2 0x159 JUMPI DUP3 PUSH2 0x70C5 SWAP2 PUSH1 0x4 ADD PUSH2 0x6F4B JUMP JUMPDEST SWAP3 PUSH1 0x44 CALLDATALOAD DUP2 DUP2 GT PUSH2 0x159 JUMPI DUP4 PUSH2 0x70DD SWAP2 PUSH1 0x4 ADD PUSH2 0x6F4B JUMP JUMPDEST SWAP3 PUSH1 0x64 CALLDATALOAD SWAP2 DUP3 GT PUSH2 0x159 JUMPI PUSH2 0x70F4 SWAP2 PUSH1 0x4 ADD PUSH2 0x6FDB JUMP JUMPDEST SWAP1 JUMP JUMPDEST DUP1 SLOAD DUP3 LT ISZERO PUSH2 0x7113 JUMPI PUSH1 0x0 MSTORE PUSH1 0x7 PUSH1 0x20 PUSH1 0x0 KECCAK256 SWAP2 MUL ADD SWAP1 PUSH1 0x0 SWAP1 JUMP JUMPDEST PUSH4 0x4E487B71 PUSH1 0xE0 SHL PUSH1 0x0 MSTORE PUSH1 0x32 PUSH1 0x4 MSTORE PUSH1 0x24 PUSH1 0x0 REVERT JUMPDEST SWAP1 PUSH1 0x1 DUP3 DUP2 SHR SWAP3 AND DUP1 ISZERO PUSH2 0x7159 JUMPI JUMPDEST PUSH1 0x20 DUP4 LT EQ PUSH2 0x7143 JUMPI JUMP JUMPDEST PUSH4 0x4E487B71 PUSH1 0xE0 SHL PUSH1 0x0 MSTORE PUSH1 0x22 PUSH1 0x4 MSTORE PUSH1 0x24 PUSH1 0x0 REVERT JUMPDEST SWAP2 PUSH1 0x7F AND SWAP2 PUSH2 0x7138 JUMP JUMPDEST SWAP1 PUSH1 0x40 MLOAD SWAP2 DUP3 PUSH1 0x0 DUP3 SLOAD SWAP3 PUSH2 0x7177 DUP5 PUSH2 0x7129 JUMP JUMPDEST SWAP1 DUP2 DUP5 MSTORE PUSH1 0x1 SWAP5 DUP6 DUP2 AND SWAP1 DUP2 PUSH1 0x0 EQ PUSH2 0x71E6 JUMPI POP PUSH1 0x1 EQ PUSH2 0x71A3 JUMPI JUMPDEST POP POP PUSH2 0x71A1 SWAP3 POP SUB DUP4 PUSH2 0x6F2A JUMP JUMPDEST JUMP JUMPDEST SWAP1 SWAP4 SWAP2 POP PUSH1 0x0 MSTORE PUSH1 0x20 SWAP1 DUP2 PUSH1 0x0 KECCAK256 SWAP4 PUSH1 0x0 SWAP2 JUMPDEST DUP2 DUP4 LT PUSH2 0x71CE JUMPI POP POP PUSH2 0x71A1 SWAP4 POP DUP3 ADD ADD CODESIZE DUP1 PUSH2 0x7193 JUMP JUMPDEST DUP6 SLOAD DUP9 DUP5 ADD DUP6 ADD MSTORE SWAP5 DUP6 ADD SWAP5 DUP8 SWAP5 POP SWAP2 DUP4 ADD SWAP2 PUSH2 0x71B6 JUMP JUMPDEST SWAP2 POP POP PUSH2 0x71A1 SWAP5 POP PUSH1 0x20 SWAP3 POP PUSH1 0xFF NOT AND DUP3 DUP5 ADD MSTORE ISZERO ISZERO PUSH1 0x5 SHL DUP3 ADD ADD CODESIZE DUP1 PUSH2 0x7193 JUMP JUMPDEST SWAP1 PUSH1 0x20 SWAP2 PUSH2 0x7222 DUP2 MLOAD DUP1 SWAP3 DUP2 DUP6 MSTORE DUP6 DUP1 DUP7 ADD SWAP2 ADD PUSH2 0x6FA1 JUMP JUMPDEST PUSH1 0x1F ADD PUSH1 0x1F NOT AND ADD ADD SWAP1 JUMP JUMPDEST SWAP1 DUP1 DUP3 MLOAD SWAP1 DUP2 DUP2 MSTORE PUSH1 0x20 DUP1 SWAP2 ADD SWAP3 DUP2 DUP1 DUP5 PUSH1 0x5 SHL DUP4 ADD ADD SWAP6 ADD SWAP4 PUSH1 0x0 SWAP2 JUMPDEST DUP5 DUP4 LT PUSH2 0x725C JUMPI POP POP POP POP POP POP SWAP1 JUMP JUMPDEST SWAP1 SWAP2 SWAP3 SWAP4 SWAP5 SWAP6 DUP5 DUP1 PUSH2 0x727A PUSH1 0x1 SWAP4 PUSH1 0x1F NOT DUP7 DUP3 SUB ADD DUP8 MSTORE DUP11 MLOAD PUSH2 0x7209 JUMP JUMPDEST SWAP9 ADD SWAP4 ADD SWAP4 ADD SWAP2 SWAP5 SWAP4 SWAP3 SWAP1 PUSH2 0x724C JUMP JUMPDEST DUP1 SLOAD DUP3 LT ISZERO PUSH2 0x7113 JUMPI PUSH1 0x0 MSTORE PUSH1 0x20 PUSH1 0x0 KECCAK256 ADD SWAP1 PUSH1 0x0 SWAP1 JUMP JUMPDEST PUSH1 0x0 SLOAD PUSH1 0x1 PUSH1 0x1 PUSH1 0xA0 SHL SUB AND CALLER SUB PUSH2 0x72B6 JUMPI JUMP JUMPDEST PUSH1 0x40 MLOAD PUSH4 0x118CDAA7 PUSH1 0xE0 SHL DUP2 MSTORE CALLER PUSH1 0x4 DUP3 ADD MSTORE PUSH1 0x24 SWAP1 REVERT JUMPDEST DUP2 DUP2 LT PUSH2 0x72D9 JUMPI POP POP JUMP JUMPDEST PUSH1 0x0 DUP2 SSTORE PUSH1 0x1 ADD PUSH2 0x72CE JUMP JUMPDEST DUP1 SLOAD PUSH1 0x1 PUSH1 0x40 SHL DUP2 LT ISZERO PUSH2 0xB82 JUMPI PUSH2 0x7302 SWAP2 PUSH1 0x1 DUP3 ADD DUP2 SSTORE PUSH2 0x728A JUMP JUMPDEST DUP2 SWAP3 SWAP2 SLOAD SWAP1 PUSH1 0x3 SHL SWAP2 DUP3 SHL SWAP2 PUSH1 0x0 NOT SWAP1 SHL NOT AND OR SWAP1 SSTORE JUMP JUMPDEST ISZERO PUSH2 0x7321 JUMPI JUMP JUMPDEST PUSH1 0x40 MLOAD PUSH3 0x461BCD PUSH1 0xE5 SHL DUP2 MSTORE PUSH1 0x20 PUSH1 0x4 DUP3 ADD MSTORE PUSH1 0x16 PUSH1 0x24 DUP3 ADD MSTORE PUSH22 0x141C9BD91D58DD08191BD95CC81B9BDD08195E1A5CDD PUSH1 0x52 SHL PUSH1 0x44 DUP3 ADD MSTORE PUSH1 0x64 SWAP1 REVERT JUMPDEST SWAP1 DUP2 SLOAD PUSH2 0x736B DUP2 PUSH2 0x6FC4 JUMP JUMPDEST SWAP3 PUSH2 0x7379 PUSH1 0x40 MLOAD SWAP5 DUP6 PUSH2 0x6F2A JUMP JUMPDEST DUP2 DUP5 MSTORE PUSH1 0x0 SWAP1 DUP2 MSTORE PUSH1 0x20 DUP1 DUP3 KECCAK256 DUP2 DUP7 ADD JUMPDEST DUP5 DUP5 LT PUSH2 0x7398 JUMPI POP POP POP POP POP JUMP JUMPDEST PUSH1 0x1 DUP4 DUP2 SWAP3 PUSH2 0x73A6 DUP6 PUSH2 0x7163 JUMP JUMPDEST DUP2 MSTORE ADD SWAP3 ADD SWAP4 ADD SWAP3 SWAP1 PUSH2 0x738A JUMP JUMPDEST ISZERO PUSH2 0x73BB JUMPI JUMP JUMPDEST PUSH1 0x40 MLOAD PUSH3 0x461BCD PUSH1 0xE5 SHL DUP2 MSTORE PUSH1 0x20 PUSH1 0x4 DUP3 ADD MSTORE PUSH1 0x1F PUSH1 0x24 DUP3 ADD MSTORE PUSH32 0x4E6F7420617574686F72697A656420666F7220746869732070726F6475637400 PUSH1 0x44 DUP3 ADD MSTORE PUSH1 0x64 SWAP1 REVERT JUMPDEST PUSH1 0x7 DUP3 LT ISZERO PUSH2 0xF2E JUMPI MSTORE JUMP JUMPDEST PUSH1 0x40 MLOAD SWAP1 PUSH2 0x7419 DUP3 PUSH2 0x6EF4 JUMP JUMPDEST PUSH1 0xA DUP3 MSTORE PUSH10 0x125B88151C985B9CDA5D PUSH1 0xB2 SHL PUSH1 0x20 DUP4 ADD MSTORE JUMP JUMPDEST PUSH1 0x0 SWAP1 DUP2 MSTORE PUSH1 0x2 PUSH1 0x20 SWAP1 DUP1 DUP3 MSTORE PUSH1 0x40 SWAP1 DUP2 DUP5 KECCAK256 DUP1 SLOAD SWAP2 PUSH2 0x7451 DUP4 PUSH2 0x6FC4 JUMP JUMPDEST SWAP4 PUSH2 0x745E DUP2 MLOAD SWAP6 DUP7 PUSH2 0x6F2A JUMP JUMPDEST DUP4 DUP6 MSTORE DUP6 DUP6 ADD SWAP3 DUP8 MSTORE DUP6 DUP8 KECCAK256 SWAP2 DUP7 DUP9 SWAP5 JUMPDEST DUP7 DUP7 LT PUSH2 0x74F1 JUMPI POP POP POP POP POP POP POP DUP1 MLOAD DUP1 ISZERO PUSH2 0x74EB JUMPI PUSH1 0x0 NOT DUP2 ADD SWAP1 DUP2 GT PUSH2 0x74D7 JUMPI DUP2 MLOAD DUP2 LT ISZERO PUSH2 0x74C3 JUMPI PUSH1 0x5 SHL ADD ADD MLOAD MLOAD SWAP1 PUSH1 0x7 DUP3 LT ISZERO PUSH2 0x74AF JUMPI POP SWAP1 JUMP JUMPDEST PUSH4 0x4E487B71 PUSH1 0xE0 SHL DUP2 MSTORE PUSH1 0x21 PUSH1 0x4 MSTORE PUSH1 0x24 SWAP1 REVERT JUMPDEST PUSH4 0x4E487B71 PUSH1 0xE0 SHL DUP5 MSTORE PUSH1 0x32 PUSH1 0x4 MSTORE PUSH1 0x24 DUP5 REVERT JUMPDEST PUSH4 0x4E487B71 PUSH1 0xE0 SHL DUP5 MSTORE PUSH1 0x11 PUSH1 0x4 MSTORE PUSH1 0x24 DUP5 REVERT JUMPDEST POP POP POP SWAP1 JUMP JUMPDEST PUSH1 0x1 SWAP2 PUSH1 0x7 SWAP2 DUP6 MLOAD PUSH2 0x7502 DUP2 PUSH2 0x6ED8 JUMP JUMPDEST DUP8 SLOAD PUSH2 0x7511 PUSH1 0xFF DUP3 AND DUP4 PUSH2 0x7400 JUMP JUMPDEST DUP6 DUP1 PUSH1 0xA0 SHL SUB SWAP1 PUSH1 0x8 SHR AND DUP4 DUP3 ADD MSTORE DUP5 DUP9 ADD SLOAD DUP8 DUP3 ADD MSTORE PUSH2 0x7533 DUP7 DUP10 ADD PUSH2 0x7163 JUMP JUMPDEST PUSH1 0x60 DUP3 ADD MSTORE PUSH2 0x7544 PUSH1 0x3 DUP10 ADD PUSH2 0x7163 JUMP JUMPDEST PUSH1 0x80 DUP3 ADD MSTORE PUSH2 0x7555 PUSH1 0x4 DUP10 ADD PUSH2 0x735F JUMP JUMPDEST PUSH1 0xA0 DUP3 ADD MSTORE PUSH2 0x7566 PUSH1 0x5 DUP10 ADD PUSH2 0x7163 JUMP JUMPDEST PUSH1 0xC0 DUP3 ADD MSTORE PUSH2 0x7577 PUSH1 0x6 DUP10 ADD PUSH2 0x7163 JUMP JUMPDEST PUSH1 0xE0 DUP3 ADD MSTORE DUP2 MSTORE ADD SWAP5 ADD SWAP5 ADD SWAP4 SWAP3 DUP8 SWAP1 PUSH2 0x746F JUMP JUMPDEST PUSH1 0x7 DUP2 LT ISZERO PUSH2 0xF2E JUMPI DUP1 ISZERO PUSH2 0x76AF JUMPI PUSH1 0x1 DUP2 EQ PUSH2 0x7689 JUMPI PUSH1 0x2 DUP2 EQ PUSH2 0x7663 JUMPI PUSH1 0x3 DUP2 EQ PUSH2 0x763E JUMPI PUSH1 0x4 DUP2 EQ PUSH2 0x7635 JUMPI PUSH1 0x5 DUP2 EQ PUSH2 0x760F JUMPI PUSH1 0x6 EQ PUSH2 0x75ED JUMPI PUSH1 0x40 MLOAD PUSH2 0x75D6 DUP2 PUSH2 0x6EF4 JUMP JUMPDEST PUSH1 0x7 DUP2 MSTORE PUSH7 0x2AB735B737BBB7 PUSH1 0xC9 SHL PUSH1 0x20 DUP3 ADD MSTORE SWAP1 JUMP JUMPDEST PUSH1 0x40 MLOAD PUSH2 0x75F9 DUP2 PUSH2 0x6EF4 JUMP JUMPDEST PUSH1 0x6 DUP2 MSTORE PUSH6 0x14995D185A5B PUSH1 0xD2 SHL PUSH1 0x20 DUP3 ADD MSTORE SWAP1 JUMP JUMPDEST POP PUSH1 0x40 MLOAD PUSH2 0x761C DUP2 PUSH2 0x6EF4 JUMP JUMPDEST PUSH1 0x9 DUP2 MSTORE PUSH9 0x11195B1A5D995C9959 PUSH1 0xBA SHL PUSH1 0x20 DUP3 ADD MSTORE SWAP1 JUMP JUMPDEST POP PUSH2 0x70F4 PUSH2 0x740C JUMP JUMPDEST POP PUSH1 0x40 MLOAD PUSH2 0x764B DUP2 PUSH2 0x6EF4 JUMP JUMPDEST PUSH1 0x8 DUP2 MSTORE PUSH8 0x141858DAD859D959 PUSH1 0xC2 SHL PUSH1 0x20 DUP3 ADD MSTORE SWAP1 JUMP JUMPDEST POP PUSH1 0x40 MLOAD PUSH2 0x7670 DUP2 PUSH2 0x6EF4 JUMP JUMPDEST PUSH1 0x9 DUP2 MSTORE PUSH9 0x141C9BD8D95CDCD959 PUSH1 0xBA SHL PUSH1 0x20 DUP3 ADD MSTORE SWAP1 JUMP JUMPDEST POP PUSH1 0x40 MLOAD PUSH2 0x7696 DUP2 PUSH2 0x6EF4 JUMP JUMPDEST PUSH1 0x9 DUP2 MSTORE PUSH9 0x12185C9D995CDD1959 PUSH1 0xBA SHL PUSH1 0x20 DUP3 ADD MSTORE SWAP1 JUMP JUMPDEST POP PUSH1 0x40 MLOAD PUSH2 0x76BC DUP2 PUSH2 0x6EF4 JUMP JUMPDEST PUSH1 0x7 DUP2 MSTORE PUSH7 0x4661726D696E67 PUSH1 0xC8 SHL PUSH1 0x20 DUP3 ADD MSTORE SWAP1 JUMP INVALID 0xD3 POP PUSH26 0xBD9F0D87556B38C1165117CCD975A6B3C2DD3C85342D8C02343B 0xDE SAR SWAP16 LOG2 PUSH5 0x6970667358 0x22 SLT KECCAK256 KECCAK256 SWAP9 0xC2 PUSH0 SHL SELFDESTRUCT 0xAF CHAINID 0xB3 0xDA DUP4 0xAA COINBASE PUSH22 0xEC8F54CD10ABB61EB504D3F1661367763A5A64736F6C PUSH4 0x43000814 STOP CALLER "},"methodIdentifiers":{"actorProducts(address,uint256)":"9276ec7d","addStageRecord(uint256,uint8,string,string,string[],string,string)":"54a65e4d","createProduct(uint256,string,string,uint256,string,uint256,string,uint256,uint256,string[],string)":"32b5e93b","getActorProducts(address)":"8a93a6dc","getCurrentStage(uint256)":"2458d472","getProductByQR(string)":"e80e59c8","getProductHistory(uint256)":"57a096a1","getStageString(uint8)":"ffd8ddb0","getTotalProducts()":"570aea8a","isProductExpired(uint256)":"6102b37e","markHarvested(uint256,string,string,string[])":"572a4aff","markPackaged(uint256,string,string,string[])":"2da00e8b","markProcessed(uint256,string,string,string[],string)":"0d4e343e","markRetailAvailable(uint256,string,string)":"70648d27","owner()":"8da5cb5b","productStageHistory(uint256,uint256)":"4af9b89b","products(uint256)":"7acc0b20","qrCodeToProduct(string)":"031c3154","renounceOwnership()":"715018a6","transferOwnership(address)":"f2fde38b","transferToDistributor(uint256,address,uint256,string)":"0d7c2804","transferToRetailer(uint256,address,string,string)":"cc492254","verifyQuality(uint256,string,uint256,string)":"00072172"}}}}}