{"contracts/AuctionContract.sol":{"AuctionContract":{"abi":[{"inputs":[],"stateMutability":"nonpayable","type":"constructor"},{"inputs":[{"internalType":"address","name":"owner","type":"address"}],"name":"OwnableInvalidOwner","type":"error"},{"inputs":[{"internalType":"address","name":"account","type":"address"}],"name":"OwnableUnauthorizedAccount","type":"error"},{"inputs":[],"name":"ReentrancyGuardReentrantCall","type":"error"},{"anonymous":false,"inputs":[{"indexed":true,"internalType":"uint256","name":"auctionId","type":"uint256"}],"name":"AuctionCancelled","type":"event"},{"anonymous":false,"inputs":[{"indexed":true,"internalType":"uint256","name":"auctionId","type":"uint256"},{"indexed":true,"internalType":"address","name":"farmer","type":"address"},{"indexed":false,"internalType":"string","name":"crop","type":"string"},{"indexed":false,"internalType":"uint256","name":"quantity","type":"uint256"},{"indexed":false,"internalType":"uint256","name":"basePrice","type":"uint256"},{"indexed":false,"internalType":"string","name":"qualityGrade","type":"string"}],"name":"AuctionCreated","type":"event"},{"anonymous":false,"inputs":[{"indexed":true,"internalType":"uint256","name":"auctionId","type":"uint256"},{"indexed":true,"internalType":"address","name":"winner","type":"address"},{"indexed":false,"internalType":"uint256","name":"winningBid","type":"uint256"}],"name":"AuctionFinalized","type":"event"},{"anonymous":false,"inputs":[{"indexed":true,"internalType":"uint256","name":"auctionId","type":"uint256"},{"indexed":true,"internalType":"address","name":"bidder","type":"address"},{"indexed":false,"internalType":"uint256","name":"amount","type":"uint256"},{"indexed":false,"internalType":"uint256","name":"timestamp","type":"uint256"}],"name":"BidPlaced","type":"event"},{"anonymous":false,"inputs":[{"indexed":true,"internalType":"address","name":"previousOwner","type":"address"},{"indexed":true,"internalType":"address","name":"newOwner","type":"address"}],"name":"OwnershipTransferred","type":"event"},{"inputs":[],"name":"AUCTION_DURATION","outputs":[{"internalType":"uint256","name":"","type":"uint256"}],"stateMutability":"view","type":"function"},{"inputs":[],"name":"MIN_BID_INCREMENT","outputs":[{"internalType":"uint256","name":"","type":"uint256"}],"stateMutability":"view","type":"function"},{"inputs":[{"internalType":"uint256","name":"","type":"uint256"},{"internalType":"uint256","name":"","type":"uint256"}],"name":"auctionBids","outputs":[{"internalType":"address","name":"bidder","type":"address"},{"internalType":"uint256","name":"amount","type":"uint256"},{"internalType":"uint256","name":"timestamp","type":"uint256"}],"stateMutability":"view","type":"function"},{"inputs":[{"internalType":"uint256","name":"","type":"uint256"}],"name":"auctions","outputs":[{"internalType":"uint256","name":"id","type":"uint256"},{"internalType":"address","name":"farmer","type":"address"},{"internalType":"string","name":"crop","type":"string"},{"internalType":"string","name":"variety","type":"string"},{"internalType":"uint256","name":"quantity","type":"uint256"},{"internalType":"uint256","name":"basePrice","type":"uint256"},{"internalType":"uint256","name":"currentHighestBid","type":"uint256"},{"internalType":"address","name":"currentHighestBidder","type":"address"},{"internalType":"string","name":"qualityGrade","type":"string"},{"internalType":"uint256","name":"qualityConfidence","type":"uint256"},{"internalType":"uint256","name":"startTime","type":"uint256"},{"internalType":"uint256","name":"endTime","type":"uint256"},{"internalType":"bool","name":"isActive","type":"bool"},{"internalType":"bool","name":"isFinalized","type":"bool"},{"internalType":"string","name":"description","type":"string"}],"stateMutability":"view","type":"function"},{"inputs":[{"internalType":"address","name":"","type":"address"},{"internalType":"uint256","name":"","type":"uint256"}],"name":"bidderAuctions","outputs":[{"internalType":"uint256","name":"","type":"uint256"}],"stateMutability":"view","type":"function"},{"inputs":[{"internalType":"uint256","name":"auctionId","type":"uint256"}],"name":"cancelAuction","outputs":[],"stateMutability":"nonpayable","type":"function"},{"inputs":[{"internalType":"string","name":"_crop","type":"string"},{"internalType":"string","name":"_variety","type":"string"},{"internalType":"uint256","name":"_quantity","type":"uint256"},{"internalType":"uint256","name":"_basePrice","type":"uint256"},{"internalType":"string","name":"_qualityGrade","type":"string"},{"internalType":"uint256","name":"_qualityConfidence","type":"uint256"},{"internalType":"string","name":"_description","type":"string"},{"internalType":"string[]","name":"_imageHashes","type":"string[]"}],"name":"createAuction","outputs":[{"internalType":"uint256","name":"","type":"uint256"}],"stateMutability":"nonpayable","type":"function"},{"inputs":[{"internalType":"address","name":"","type":"address"},{"internalType":"uint256","name":"","type":"uint256"}],"name":"farmerAuctions","outputs":[{"internalType":"uint256","name":"","type":"uint256"}],"stateMutability":"view","type":"function"},{"inputs":[{"internalType":"uint256","name":"auctionId","type":"uint256"}],"name":"finalizeAuction","outputs":[],"stateMutability":"nonpayable","type":"function"},{"inputs":[],"name":"getActiveAuctions","outputs":[{"internalType":"uint256[]","name":"","type":"uint256[]"}],"stateMutability":"view","type":"function"},{"inputs":[{"internalType":"uint256","name":"auctionId","type":"uint256"}],"name":"getAuction","outputs":[{"components":[{"internalType":"uint256","name":"id","type":"uint256"},{"internalType":"address","name":"farmer","type":"address"},{"internalType":"string","name":"crop","type":"string"},{"internalType":"string","name":"variety","type":"string"},{"internalType":"uint256","name":"quantity","type":"uint256"},{"internalType":"uint256","name":"basePrice","type":"uint256"},{"internalType":"uint256","name":"currentHighestBid","type":"uint256"},{"internalType":"address","name":"currentHighestBidder","type":"address"},{"internalType":"string","name":"qualityGrade","type":"string"},{"internalType":"uint256","name":"qualityConfidence","type":"uint256"},{"internalType":"uint256","name":"startTime","type":"uint256"},{"internalType":"uint256","name":"endTime","type":"uint256"},{"internalType":"bool","name":"isActive","type":"bool"},{"internalType":"bool","name":"isFinalized","type":"bool"},{"internalType":"string","name":"description","type":"string"},{"internalType":"string[]","name":"imageHashes","type":"string[]"}],"internalType":"struct AuctionContract.Auction","name":"","type":"tuple"}],"stateMutability":"view","type":"function"},{"inputs":[{"internalType":"uint256","name":"auctionId","type":"uint256"}],"name":"getAuctionBids","outputs":[{"components":[{"internalType":"address","name":"bidder","type":"address"},{"internalType":"uint256","name":"amount","type":"uint256"},{"internalType":"uint256","name":"timestamp","type":"uint256"}],"internalType":"struct AuctionContract.Bid[]","name":"","type":"tuple[]"}],"stateMutability":"view","type":"function"},{"inputs":[{"internalType":"address","name":"bidder","type":"address"}],"name":"getBidderAuctions","outputs":[{"internalType":"uint256[]","name":"","type":"uint256[]"}],"stateMutability":"view","type":"function"},{"inputs":[{"internalType":"address","name":"farmer","type":"address"}],"name":"getFarmerAuctions","outputs":[{"internalType":"uint256[]","name":"","type":"uint256[]"}],"stateMutability":"view","type":"function"},{"inputs":[],"name":"getTotalAuctions","outputs":[{"internalType":"uint256","name":"","type":"uint256"}],"stateMutability":"view","type":"function"},{"inputs":[],"name":"owner","outputs":[{"internalType":"address","name":"","type":"address"}],"stateMutability":"view","type":"function"},{"inputs":[{"internalType":"uint256","name":"auctionId","type":"uint256"}],"name":"placeBid","outputs":[],"stateMutability":"payable","type":"function"},{"inputs":[],"name":"renounceOwnership","outputs":[],"stateMutability":"nonpayable","type":"function"},{"inputs":[{"internalType":"address","name":"newOwner","type":"address"}],"name":"transferOwnership","outputs":[],"stateMutability":"nonpayable","type":"function"}],"evm":{"bytecode":{"linkReferences":{},"object":"6080806040523461007e5733156100685760008054336001600160a01b03198216811783556040519290916001600160a01b0316907f8be0079c531659141344cd1fd0a4f28419497f9722a3daafe3b4186f6b6457e09080a360018055611e0190816100848239f35b631e4fbdf760e01b815260006004820152602490fd5b600080fdfe6080604052600436101561001257600080fd5b60003560e01c80631cb8dd1c146119cd5780633ef14cc8146119af578063524b9b6a14610f9f578063571a26a014610e6c5780635f93de4914610e0a57806362910b5914610d9257806370b4768e14610ca7578063715018a614610c4e57806371943bce14610c2c57806378bd7935146108ef5780638da5cb5b146108c657806396b5a755146107895780639979ef45146104bd578063a271e5251461049f578063b030234914610447578063b8c62d32146103c3578063cf44b5d5146102f1578063e80838631461017b5763f2fde38b146100ed57600080fd5b3461017657602036600319011261017657610106611a17565b61010e611c97565b6001600160a01b0390811690811561015d57600054826001600160601b0360a01b821617600055167f8be0079c531659141344cd1fd0a4f28419497f9722a3daafe3b4186f6b6457e0600080a3005b604051631e4fbdf760e01b815260006004820152602490fd5b600080fd5b3461017657602036600319011261017657600435610197611d62565b806000526002602052604060002090600c820180546101b860ff8216611d1e565b600b8401544211156102ac5760ff8160081c166102675761ffff19166101001790556007820180546001600160a01b03919082166101f7575b60018055005b600080808060068660018a01541698019788549082821561025e575bf115610252577f4d9113a1377d665eaa1f9168a9c9080f2e488cb820b10149de3d6d2e0f2780c79160209154169354604051908152a3808080806101f1565b6040513d6000823e3d90fd5b506108fc610213565b60405162461bcd60e51b815260206004820152601960248201527f41756374696f6e20616c72656164792066696e616c697a6564000000000000006044820152606490fd5b60405162461bcd60e51b815260206004820152601960248201527f41756374696f6e20686173206e6f7420656e64656420796574000000000000006044820152606490fd5b346101765760003660031901126101765760065461030e81611d85565b9060009060005b81811061036857505061032781611d85565b9160005b82811061034457604051806103408682611c5c565b0390f35b806103526103639284611db7565b5161035d8287611db7565b52611cc3565b61032b565b806000526002602052604060002060ff600c8201541690816103b4575b50610399575b61039490611cc3565b610315565b916103ac818461035d6103949488611db7565b92905061038b565b600b9150015442111585610385565b3461017657602080600319360112610176576001600160a01b036103e5611a17565b1660005260048152604060002090604051908181845491828152019360005281600020916000905b828210610430576103408561042481890382611a92565b60405191829182611c5c565b83548652948501946001938401939091019061040d565b3461017657604036600319011261017657610460611a17565b6001600160a01b03166000908152600460205260409020805460243591908210156101765760209161049191611a2d565b90546040519160031b1c8152f35b34610176576000366003190112610176576020604051620151808152f35b6020806003193601126101765760043580600052600282526104e960ff600c6040600020015416611d1e565b8060005260028252600b60406000200154421161075057610508611d62565b6000818152600283526040902060018101546001600160a01b0391908216331461070d5760068101805491662386f26fc1000083018084116106735734106106da576007019183835416806106b5575b50503490556001600160601b0360a01b903382825416179055826000526003845260406000206040519161058b83611a77565b3383528583019034825260408401924284528054600160401b81101561069f576105ba91600182018155611c40565b9590956106895760029451169085541617845551600184015551910155336000526005825260406000208054801591821561064a575b505061062f575b6040519134835242908301527f51db8e23b3f4479b162fd48823b8402895442b8f6cfd94f66239391881ec7b6f60403393a360018055005b3360005260058252610645816040600020611ce9565b6105f7565b6000198201925090821161067357829161066391611a2d565b90549060031b1c141583806105f0565b634e487b7160e01b600052601160045260246000fd5b634e487b7160e01b600052600060045260246000fd5b634e487b7160e01b600052604160045260246000fd5b600080809381938282156106d1575bf115610252578580610558565b506108fc6106c4565b60405162461bcd60e51b815260048101879052600b60248201526a42696420746f6f206c6f7760a81b6044820152606490fd5b6064846040519062461bcd60e51b825280600483015260248201527f4661726d65722063616e6e6f7420626964206f6e206f776e2061756374696f6e6044820152fd5b60405162461bcd60e51b8152600481018390526011602482015270105d58dd1a5bdb881a185cc8195b991959607a1b6044820152606490fd5b34610176576020366003190112610176576004356000818152600260205260409020600101546001600160a01b03908116330361086e576107c8611d62565b8160005260026020526040600020600c81019160078354926107ec60ff8516611d1e565b0154166108295761ffff19166101001790557f2809c7e17bf978fbc7194c0a694b638c4215e9140cacc6c38ca36010b45697df600080a260018055005b60405162461bcd60e51b815260206004820152601f60248201527f43616e6e6f742063616e63656c2061756374696f6e20776974682062696473006044820152606490fd5b60405162461bcd60e51b815260206004820152602a60248201527f4f6e6c792061756374696f6e206f776e65722063616e20706572666f726d20746044820152693434b99030b1ba34b7b760b11b6064820152608490fd5b34610176576000366003190112610176576000546040516001600160a01b039091168152602090f35b346101765760203660031901126101765760606101e060405161091181611a5b565b6000815260006020820152826040820152828082015260006080820152600060a0820152600060c0820152600060e082015282610100820152600061012082015260006101408201526000610160820152600061018082015260006101a0820152826101c08201520152600435600052600260205260406000206040519061099882611a5b565b8054825260018101546001600160a01b031660208301526109bb60028201611b5a565b60408301526109cc60038201611b5a565b606083015260048101546080830152600581015460a0830152600681015460c083015260078101546001600160a01b031660e0830152610a0e60088201611b5a565b6101008301526009810154610120830152600a810154610140830152600b81015461016083015260ff600c820154818116151561018085015260081c1615156101a0830152610a5f600d8201611b5a565b6101c0830152600e810154610a7381611b09565b91610a816040519384611a92565b818352600e60208401910160005260206000206000915b838310610c0f5785856101e08201526040518091602082528051602083015260018060a01b0360208201511660408301526101e0610ba5610b4f610b06610af060408601516102006060890152610220880190611c00565b6060860151878203601f19016080890152611c00565b608085015160a087015260a085015160c087015260c085015160e087015260018060a01b0360e086015116610100870152610100850151601f1987830301610120880152611c00565b61012084015161014086015261014084015161016086015261016084015161018086015261018084015115156101a08601526101a084015115156101c08601526101c0840151601f198683030184870152611c00565b91015190601f1983820301610200840152815180825260208201916020808360051b8301019401926000915b838310610bde5786860387f35b919395509193602080610bfd600193601f198682030187528951611c00565b97019301930190928695949293610bd1565b600160208192610c1e85611b5a565b815201920192019190610a98565b34610176576000366003190112610176576020604051662386f26fc100008152f35b3461017657600036600319011261017657610c67611c97565b600080546001600160a01b0319811682556001600160a01b03167f8be0079c531659141344cd1fd0a4f28419497f9722a3daafe3b4186f6b6457e08280a3005b3461017657602080600319360112610176576004356000526003908181526040600020918254610cd681611b09565b91610ce46040519384611a92565b8183528383018095600052846000206000915b848310610d5657604080518881528751818a018190528a928201908a60005b828110610d235784840385f35b855180516001600160a01b0316855280830151858401526040908101519085015294810194606090930192600101610d16565b8387600192604051610d6781611a77565b848060a01b038654168152848601548382015260028601546040820152815201920192019190610cf7565b3461017657602080600319360112610176576001600160a01b03610db4611a17565b1660005260058152604060002090604051908181845491828152019360005281600020916000905b828210610df3576103408561042481890382611a92565b835486529485019460019384019390910190610ddc565b346101765760403660031901126101765760243560043560005260036020526040600020805482101561017657606091610e4391611c40565b5060018060a01b0381541690600260018201549101549060405192835260208301526040820152f35b3461017657602036600319011261017657600435600052600260205260406000208054600160a01b6001900391826001820154169260028201610eae90611b5a565b91610ebb60038201611b5a565b60048201546005830154906006840154946007850154169060088501610ee090611b5a565b91600986015496600a87015494600b88015496600c89015498600d01610f0590611b5a565b9a6040519d8e809e8152602001528c6101e06040819201528d01610f2891611c00565b8c810360608e0152610f3991611c00565b9360808c015260a08b015260c08a015260e0890152878103610100890152610f6091611c00565b9361012087015261014086015261016085015260ff8116151561018085015260081c60ff1615156101a08401528281036101c084015261034091611c00565b3461017657610100366003190112610176576004356001600160401b03811161017657610fd0903690600401611ab3565b6024356001600160401b03811161017657610fef903690600401611ab3565b6084356001600160401b0381116101765761100e903690600401611ab3565b60c4356001600160401b0381116101765761102d903690600401611ab3565b916001600160401b0360e435116101765736602360e4350112156101765760e4356004013561105b81611b09565b906110696040519283611a92565b80825260208201903660248260051b60e43501011161017657602460e43501915b60248260051b60e4350101831061197c5750505084511561193757604435156118f257606435156118a357600654936110c285611cc3565b600655620151804201421161067357604051926110de84611a5b565b8584523360208501528660408501526060840152604435608084015260643560a084015260643560c0840152600060e08401528361010084015260a43561012084015242610140840152620151804201610160840152600161018084015260006101a08401526101c08301526101e0820152826000526002602052604060002090805182556001820160018060a01b036020830151166001600160601b0360a01b82541617905560408101518051906001600160401b03821161069f5781906111aa6002860154611b20565b601f811161186e575b50602090601f83116001146117fc576000926117f1575b50508160011b916000199060031b1c19161760028301555b60608101518051906001600160401b03821161069f5781906112076003860154611b20565b601f81116117bc575b50602090601f831160011461174a5760009261173f575b50508160011b916000199060031b1c19161760038301555b6080810151600483015560a0810151600583015560c081015160068301556007820160018060a01b0360e0830151166001600160601b0360a01b8254161790556101008101518051906001600160401b03821161069f5781906112a56008860154611b20565b601f811161170a575b50602090601f83116001146116985760009261168d575b50508160011b916000199060031b1c19161760088301555b6101208101516009830155610140810151600a830155610160810151600b830155600c82016101808201511515815460ff61ff006101a0860151151560081b1692169061ffff1916171790556101c081015180516001600160401b03811161069f57600d84019161134e8354611b20565b601f811161165b575b50602090601f83116001146115ee576101e094939291600091836115e3575b50508160011b916000199060031b1c19161790555b0151805190600160401b821161069f57600e83015482600e85015580831061156b575b506020600e910192016000526020600020916000905b82821061144b5760208686817f9af75fcee4e7c792ccc7a78a2bee23a0b7c5f7e1929a93bbd95efde5a6794c1d6114228c336000526004875261140b846040600020611ce9565b611440604051928392608084526080840190611c00565b60443589840152606435604084015282810360608401523396611c00565b0390a3604051908152f35b80518051906001600160401b03821161069f576114688654611b20565b601f811161152e575b50602090601f83116001146114be5792826001949360209386956000926114b3575b5050600019600383901b1c191690841b1787555b019401910190926113c4565b015190508c80611493565b908660005260206000209160005b601f1985168110611516575083602093600196938796938794601f198116106114fd575b505050811b0187556114a7565b015160001960f88460031b161c191690558c80806114f0565b919260206001819286850151815501940192016114cc565b61155b90876000526020600020601f850160051c81019160208610611561575b601f0160051c0190611cd2565b89611471565b909150819061154e565b600e84016000526020600020908382015b818301811061158c5750506113ae565b8061159960019254611b20565b806115a6575b500161157c565b601f811183146115bc5750600081555b8a61159f565b6000908282526115da601f60208420920160051c8201858301611cd2565b818355556115b6565b015190508980611376565b90601f198316918460005260206000209260005b81811061164357509160019391856101e0989796941061162a575b505050811b01905561138b565b015160001960f88460031b161c1916905589808061161d565b92936020600181928786015181550195019301611602565b61168790846000526020600020601f850160051c8101916020861061156157601f0160051c0190611cd2565b88611357565b0151905087806112c5565b9250600885016000526020600020906000935b601f19841685106116ef576001945083601f198116106116d6575b505050811b0160088301556112dd565b015160001960f88460031b161c191690558780806116c6565b818101518355602094850194600190930192909101906116ab565b61173990600887016000526020600020601f850160051c8101916020861061156157601f0160051c0190611cd2565b886112ae565b015190508780611227565b9250600385016000526020600020906000935b601f19841685106117a1576001945083601f19811610611788575b505050811b01600383015561123f565b015160001960f88460031b161c19169055878080611778565b8181015183556020948501946001909301929091019061175d565b6117eb90600387016000526020600020601f850160051c8101916020861061156157601f0160051c0190611cd2565b88611210565b0151905087806111ca565b9250600285016000526020600020906000935b601f1984168510611853576001945083601f1981161061183a575b505050811b0160028301556111e2565b015160001960f88460031b161c1916905587808061182a565b8181015183556020948501946001909301929091019061180f565b61189d90600287016000526020600020601f850160051c8101916020861061156157601f0160051c0190611cd2565b886111b3565b60405162461bcd60e51b815260206004820152602160248201527f42617365207072696365206d7573742062652067726561746572207468616e206044820152600360fc1b6064820152608490fd5b60405162461bcd60e51b815260206004820152601f60248201527f5175616e74697479206d7573742062652067726561746572207468616e2030006044820152606490fd5b60405162461bcd60e51b815260206004820152601960248201527f43726f70206e616d652063616e6e6f7420626520656d707479000000000000006044820152606490fd5b6001600160401b03833511610176576020806024926119a23685883560e4350101611ab3565b815201930192905061108a565b34610176576000366003190112610176576020600654604051908152f35b34610176576040366003190112610176576119e6611a17565b6001600160a01b03166000908152600560205260409020805460243591908210156101765760209161049191611a2d565b600435906001600160a01b038216820361017657565b8054821015611a455760005260206000200190600090565b634e487b7160e01b600052603260045260246000fd5b61020081019081106001600160401b0382111761069f57604052565b606081019081106001600160401b0382111761069f57604052565b90601f801991011681019081106001600160401b0382111761069f57604052565b81601f82011215610176578035906001600160401b03821161069f5760405192611ae7601f8401601f191660200185611a92565b8284526020838301011161017657816000926020809301838601378301015290565b6001600160401b03811161069f5760051b60200190565b90600182811c92168015611b50575b6020831014611b3a57565b634e487b7160e01b600052602260045260246000fd5b91607f1691611b2f565b9060405191826000825492611b6e84611b20565b908184526001948581169081600014611bdd5750600114611b9a575b5050611b9892500383611a92565b565b9093915060005260209081600020936000915b818310611bc5575050611b9893508201013880611b8a565b85548884018501529485019487945091830191611bad565b915050611b9894506020925060ff191682840152151560051b8201013880611b8a565b919082519283825260005b848110611c2c575050826000602080949584010152601f8019910116010190565b602081830181015184830182015201611c0b565b8054821015611a45576000526003602060002091020190600090565b6020908160408183019282815285518094520193019160005b828110611c83575050505090565b835185529381019392810192600101611c75565b6000546001600160a01b03163303611cab57565b60405163118cdaa760e01b8152336004820152602490fd5b60001981146106735760010190565b818110611cdd575050565b60008155600101611cd2565b8054600160401b81101561069f57611d0691600182018155611a2d565b819291549060031b91821b91600019901b1916179055565b15611d2557565b60405162461bcd60e51b815260206004820152601560248201527441756374696f6e206973206e6f742061637469766560581b6044820152606490fd5b600260015414611d73576002600155565b604051633ee5aeb560e01b8152600490fd5b90611d8f82611b09565b611d9c6040519182611a92565b8281528092611dad601f1991611b09565b0190602036910137565b8051821015611a455760209160051b01019056fea2646970667358221220b531e7d70d05ead6f84aba48431d3045d6208ccfbe49489c34a345ae2ac61a7264736f6c63430008140033","opcodes":"PUSH1 0x80 DUP1 PUSH1 0x40 MSTORE CALLVALUE PUSH2 0x7E JUMPI CALLER ISZERO PUSH2 0x68 JUMPI PUSH1 0x0 DUP1 SLOAD CALLER PUSH1 0x1 PUSH1 0x1 PUSH1 0xA0 SHL SUB NOT DUP3 AND DUP2 OR DUP4 SSTORE PUSH1 0x40 MLOAD SWAP3 SWAP1 SWAP2 PUSH1 0x1 PUSH1 0x1 PUSH1 0xA0 SHL SUB AND SWAP1 PUSH32 0x8BE0079C531659141344CD1FD0A4F28419497F9722A3DAAFE3B4186F6B6457E0 SWAP1 DUP1 LOG3 PUSH1 0x1 DUP1 SSTORE PUSH2 0x1E01 SWAP1 DUP2 PUSH2 0x84 DUP3 CODECOPY RETURN JUMPDEST PUSH4 0x1E4FBDF7 PUSH1 0xE0 SHL DUP2 MSTORE PUSH1 0x0 PUSH1 0x4 DUP3 ADD MSTORE PUSH1 0x24 SWAP1 REVERT JUMPDEST PUSH1 0x0 DUP1 REVERT INVALID PUSH1 0x80 PUSH1 0x40 MSTORE PUSH1 0x4 CALLDATASIZE LT ISZERO PUSH2 0x12 JUMPI PUSH1 0x0 DUP1 REVERT JUMPDEST PUSH1 0x0 CALLDATALOAD PUSH1 0xE0 SHR DUP1 PUSH4 0x1CB8DD1C EQ PUSH2 0x19CD JUMPI DUP1 PUSH4 0x3EF14CC8 EQ PUSH2 0x19AF JUMPI DUP1 PUSH4 0x524B9B6A EQ PUSH2 0xF9F JUMPI DUP1 PUSH4 0x571A26A0 EQ PUSH2 0xE6C JUMPI DUP1 PUSH4 0x5F93DE49 EQ PUSH2 0xE0A JUMPI DUP1 PUSH4 0x62910B59 EQ PUSH2 0xD92 JUMPI DUP1 PUSH4 0x70B4768E EQ PUSH2 0xCA7 JUMPI DUP1 PUSH4 0x715018A6 EQ PUSH2 0xC4E JUMPI DUP1 PUSH4 0x71943BCE EQ PUSH2 0xC2C JUMPI DUP1 PUSH4 0x78BD7935 EQ PUSH2 0x8EF JUMPI DUP1 PUSH4 0x8DA5CB5B EQ PUSH2 0x8C6 JUMPI DUP1 PUSH4 0x96B5A755 EQ PUSH2 0x789 JUMPI DUP1 PUSH4 0x9979EF45 EQ PUSH2 0x4BD JUMPI DUP1 PUSH4 0xA271E525 EQ PUSH2 0x49F JUMPI DUP1 PUSH4 0xB0302349 EQ PUSH2 0x447 JUMPI DUP1 PUSH4 0xB8C62D32 EQ PUSH2 0x3C3 JUMPI DUP1 PUSH4 0xCF44B5D5 EQ PUSH2 0x2F1 JUMPI DUP1 PUSH4 0xE8083863 EQ PUSH2 0x17B JUMPI PUSH4 0xF2FDE38B EQ PUSH2 0xED JUMPI PUSH1 0x0 DUP1 REVERT JUMPDEST CALLVALUE PUSH2 0x176 JUMPI PUSH1 0x20 CALLDATASIZE PUSH1 0x3 NOT ADD SLT PUSH2 0x176 JUMPI PUSH2 0x106 PUSH2 0x1A17 JUMP JUMPDEST PUSH2 0x10E PUSH2 0x1C97 JUMP JUMPDEST PUSH1 0x1 PUSH1 0x1 PUSH1 0xA0 SHL SUB SWAP1 DUP2 AND SWAP1 DUP2 ISZERO PUSH2 0x15D JUMPI PUSH1 0x0 SLOAD DUP3 PUSH1 0x1 PUSH1 0x1 PUSH1 0x60 SHL SUB PUSH1 0xA0 SHL DUP3 AND OR PUSH1 0x0 SSTORE AND PUSH32 0x8BE0079C531659141344CD1FD0A4F28419497F9722A3DAAFE3B4186F6B6457E0 PUSH1 0x0 DUP1 LOG3 STOP JUMPDEST PUSH1 0x40 MLOAD PUSH4 0x1E4FBDF7 PUSH1 0xE0 SHL DUP2 MSTORE PUSH1 0x0 PUSH1 0x4 DUP3 ADD MSTORE PUSH1 0x24 SWAP1 REVERT JUMPDEST PUSH1 0x0 DUP1 REVERT JUMPDEST CALLVALUE PUSH2 0x176 JUMPI PUSH1 0x20 CALLDATASIZE PUSH1 0x3 NOT ADD SLT PUSH2 0x176 JUMPI PUSH1 0x4 CALLDATALOAD PUSH2 0x197 PUSH2 0x1D62 JUMP JUMPDEST DUP1 PUSH1 0x0 MSTORE PUSH1 0x2 PUSH1 0x20 MSTORE PUSH1 0x40 PUSH1 0x0 KECCAK256 SWAP1 PUSH1 0xC DUP3 ADD DUP1 SLOAD PUSH2 0x1B8 PUSH1 0xFF DUP3 AND PUSH2 0x1D1E JUMP JUMPDEST PUSH1 0xB DUP5 ADD SLOAD TIMESTAMP GT ISZERO PUSH2 0x2AC JUMPI PUSH1 0xFF DUP2 PUSH1 0x8 SHR AND PUSH2 0x267 JUMPI PUSH2 0xFFFF NOT AND PUSH2 0x100 OR SWAP1 SSTORE PUSH1 0x7 DUP3 ADD DUP1 SLOAD PUSH1 0x1 PUSH1 0x1 PUSH1 0xA0 SHL SUB SWAP2 SWAP1 DUP3 AND PUSH2 0x1F7 JUMPI JUMPDEST PUSH1 0x1 DUP1 SSTORE STOP JUMPDEST PUSH1 0x0 DUP1 DUP1 DUP1 PUSH1 0x6 DUP7 PUSH1 0x1 DUP11 ADD SLOAD AND SWAP9 ADD SWAP8 DUP9 SLOAD SWAP1 DUP3 DUP3 ISZERO PUSH2 0x25E JUMPI JUMPDEST CALL ISZERO PUSH2 0x252 JUMPI PUSH32 0x4D9113A1377D665EAA1F9168A9C9080F2E488CB820B10149DE3D6D2E0F2780C7 SWAP2 PUSH1 0x20 SWAP2 SLOAD AND SWAP4 SLOAD PUSH1 0x40 MLOAD SWAP1 DUP2 MSTORE LOG3 DUP1 DUP1 DUP1 DUP1 PUSH2 0x1F1 JUMP JUMPDEST PUSH1 0x40 MLOAD RETURNDATASIZE PUSH1 0x0 DUP3 RETURNDATACOPY RETURNDATASIZE SWAP1 REVERT JUMPDEST POP PUSH2 0x8FC PUSH2 0x213 JUMP JUMPDEST PUSH1 0x40 MLOAD PUSH3 0x461BCD PUSH1 0xE5 SHL DUP2 MSTORE PUSH1 0x20 PUSH1 0x4 DUP3 ADD MSTORE PUSH1 0x19 PUSH1 0x24 DUP3 ADD MSTORE PUSH32 0x41756374696F6E20616C72656164792066696E616C697A656400000000000000 PUSH1 0x44 DUP3 ADD MSTORE PUSH1 0x64 SWAP1 REVERT JUMPDEST PUSH1 0x40 MLOAD PUSH3 0x461BCD PUSH1 0xE5 SHL DUP2 MSTORE PUSH1 0x20 PUSH1 0x4 DUP3 ADD MSTORE PUSH1 0x19 PUSH1 0x24 DUP3 ADD MSTORE PUSH32 0x41756374696F6E20686173206E6F7420656E6465642079657400000000000000 PUSH1 0x44 DUP3 ADD MSTORE PUSH1 0x64 SWAP1 REVERT JUMPDEST CALLVALUE PUSH2 0x176 JUMPI PUSH1 0x0 CALLDATASIZE PUSH1 0x3 NOT ADD SLT PUSH2 0x176 JUMPI PUSH1 0x6 SLOAD PUSH2 0x30E DUP2 PUSH2 0x1D85 JUMP JUMPDEST SWAP1 PUSH1 0x0 SWAP1 PUSH1 0x0 JUMPDEST DUP2 DUP2 LT PUSH2 0x368 JUMPI POP POP PUSH2 0x327 DUP2 PUSH2 0x1D85 JUMP JUMPDEST SWAP2 PUSH1 0x0 JUMPDEST DUP3 DUP2 LT PUSH2 0x344 JUMPI PUSH1 0x40 MLOAD DUP1 PUSH2 0x340 DUP7 DUP3 PUSH2 0x1C5C JUMP JUMPDEST SUB SWAP1 RETURN JUMPDEST DUP1 PUSH2 0x352 PUSH2 0x363 SWAP3 DUP5 PUSH2 0x1DB7 JUMP JUMPDEST MLOAD PUSH2 0x35D DUP3 DUP8 PUSH2 0x1DB7 JUMP JUMPDEST MSTORE PUSH2 0x1CC3 JUMP JUMPDEST PUSH2 0x32B JUMP JUMPDEST DUP1 PUSH1 0x0 MSTORE PUSH1 0x2 PUSH1 0x20 MSTORE PUSH1 0x40 PUSH1 0x0 KECCAK256 PUSH1 0xFF PUSH1 0xC DUP3 ADD SLOAD AND SWAP1 DUP2 PUSH2 0x3B4 JUMPI JUMPDEST POP PUSH2 0x399 JUMPI JUMPDEST PUSH2 0x394 SWAP1 PUSH2 0x1CC3 JUMP JUMPDEST PUSH2 0x315 JUMP JUMPDEST SWAP2 PUSH2 0x3AC DUP2 DUP5 PUSH2 0x35D PUSH2 0x394 SWAP5 DUP9 PUSH2 0x1DB7 JUMP JUMPDEST SWAP3 SWAP1 POP PUSH2 0x38B JUMP JUMPDEST PUSH1 0xB SWAP2 POP ADD SLOAD TIMESTAMP GT ISZERO DUP6 PUSH2 0x385 JUMP JUMPDEST CALLVALUE PUSH2 0x176 JUMPI PUSH1 0x20 DUP1 PUSH1 0x3 NOT CALLDATASIZE ADD SLT PUSH2 0x176 JUMPI PUSH1 0x1 PUSH1 0x1 PUSH1 0xA0 SHL SUB PUSH2 0x3E5 PUSH2 0x1A17 JUMP JUMPDEST AND PUSH1 0x0 MSTORE PUSH1 0x4 DUP2 MSTORE PUSH1 0x40 PUSH1 0x0 KECCAK256 SWAP1 PUSH1 0x40 MLOAD SWAP1 DUP2 DUP2 DUP5 SLOAD SWAP2 DUP3 DUP2 MSTORE ADD SWAP4 PUSH1 0x0 MSTORE DUP2 PUSH1 0x0 KECCAK256 SWAP2 PUSH1 0x0 SWAP1 JUMPDEST DUP3 DUP3 LT PUSH2 0x430 JUMPI PUSH2 0x340 DUP6 PUSH2 0x424 DUP2 DUP10 SUB DUP3 PUSH2 0x1A92 JUMP JUMPDEST PUSH1 0x40 MLOAD SWAP2 DUP3 SWAP2 DUP3 PUSH2 0x1C5C JUMP JUMPDEST DUP4 SLOAD DUP7 MSTORE SWAP5 DUP6 ADD SWAP5 PUSH1 0x1 SWAP4 DUP5 ADD SWAP4 SWAP1 SWAP2 ADD SWAP1 PUSH2 0x40D JUMP JUMPDEST CALLVALUE PUSH2 0x176 JUMPI PUSH1 0x40 CALLDATASIZE PUSH1 0x3 NOT ADD SLT PUSH2 0x176 JUMPI PUSH2 0x460 PUSH2 0x1A17 JUMP JUMPDEST PUSH1 0x1 PUSH1 0x1 PUSH1 0xA0 SHL SUB AND PUSH1 0x0 SWAP1 DUP2 MSTORE PUSH1 0x4 PUSH1 0x20 MSTORE PUSH1 0x40 SWAP1 KECCAK256 DUP1 SLOAD PUSH1 0x24 CALLDATALOAD SWAP2 SWAP1 DUP3 LT ISZERO PUSH2 0x176 JUMPI PUSH1 0x20 SWAP2 PUSH2 0x491 SWAP2 PUSH2 0x1A2D JUMP JUMPDEST SWAP1 SLOAD PUSH1 0x40 MLOAD SWAP2 PUSH1 0x3 SHL SHR DUP2 MSTORE RETURN JUMPDEST CALLVALUE PUSH2 0x176 JUMPI PUSH1 0x0 CALLDATASIZE PUSH1 0x3 NOT ADD SLT PUSH2 0x176 JUMPI PUSH1 0x20 PUSH1 0x40 MLOAD PUSH3 0x15180 DUP2 MSTORE RETURN JUMPDEST PUSH1 0x20 DUP1 PUSH1 0x3 NOT CALLDATASIZE ADD SLT PUSH2 0x176 JUMPI PUSH1 0x4 CALLDATALOAD DUP1 PUSH1 0x0 MSTORE PUSH1 0x2 DUP3 MSTORE PUSH2 0x4E9 PUSH1 0xFF PUSH1 0xC PUSH1 0x40 PUSH1 0x0 KECCAK256 ADD SLOAD AND PUSH2 0x1D1E JUMP JUMPDEST DUP1 PUSH1 0x0 MSTORE PUSH1 0x2 DUP3 MSTORE PUSH1 0xB PUSH1 0x40 PUSH1 0x0 KECCAK256 ADD SLOAD TIMESTAMP GT PUSH2 0x750 JUMPI PUSH2 0x508 PUSH2 0x1D62 JUMP JUMPDEST PUSH1 0x0 DUP2 DUP2 MSTORE PUSH1 0x2 DUP4 MSTORE PUSH1 0x40 SWAP1 KECCAK256 PUSH1 0x1 DUP2 ADD SLOAD PUSH1 0x1 PUSH1 0x1 PUSH1 0xA0 SHL SUB SWAP2 SWAP1 DUP3 AND CALLER EQ PUSH2 0x70D JUMPI PUSH1 0x6 DUP2 ADD DUP1 SLOAD SWAP2 PUSH7 0x2386F26FC10000 DUP4 ADD DUP1 DUP5 GT PUSH2 0x673 JUMPI CALLVALUE LT PUSH2 0x6DA JUMPI PUSH1 0x7 ADD SWAP2 DUP4 DUP4 SLOAD AND DUP1 PUSH2 0x6B5 JUMPI JUMPDEST POP POP CALLVALUE SWAP1 SSTORE PUSH1 0x1 PUSH1 0x1 PUSH1 0x60 SHL SUB PUSH1 0xA0 SHL SWAP1 CALLER DUP3 DUP3 SLOAD AND OR SWAP1 SSTORE DUP3 PUSH1 0x0 MSTORE PUSH1 0x3 DUP5 MSTORE PUSH1 0x40 PUSH1 0x0 KECCAK256 PUSH1 0x40 MLOAD SWAP2 PUSH2 0x58B DUP4 PUSH2 0x1A77 JUMP JUMPDEST CALLER DUP4 MSTORE DUP6 DUP4 ADD SWAP1 CALLVALUE DUP3 MSTORE PUSH1 0x40 DUP5 ADD SWAP3 TIMESTAMP DUP5 MSTORE DUP1 SLOAD PUSH1 0x1 PUSH1 0x40 SHL DUP2 LT ISZERO PUSH2 0x69F JUMPI PUSH2 0x5BA SWAP2 PUSH1 0x1 DUP3 ADD DUP2 SSTORE PUSH2 0x1C40 JUMP JUMPDEST SWAP6 SWAP1 SWAP6 PUSH2 0x689 JUMPI PUSH1 0x2 SWAP5 MLOAD AND SWAP1 DUP6 SLOAD AND OR DUP5 SSTORE MLOAD PUSH1 0x1 DUP5 ADD SSTORE MLOAD SWAP2 ADD SSTORE CALLER PUSH1 0x0 MSTORE PUSH1 0x5 DUP3 MSTORE PUSH1 0x40 PUSH1 0x0 KECCAK256 DUP1 SLOAD DUP1 ISZERO SWAP2 DUP3 ISZERO PUSH2 0x64A JUMPI JUMPDEST POP POP PUSH2 0x62F JUMPI JUMPDEST PUSH1 0x40 MLOAD SWAP2 CALLVALUE DUP4 MSTORE TIMESTAMP SWAP1 DUP4 ADD MSTORE PUSH32 0x51DB8E23B3F4479B162FD48823B8402895442B8F6CFD94F66239391881EC7B6F PUSH1 0x40 CALLER SWAP4 LOG3 PUSH1 0x1 DUP1 SSTORE STOP JUMPDEST CALLER PUSH1 0x0 MSTORE PUSH1 0x5 DUP3 MSTORE PUSH2 0x645 DUP2 PUSH1 0x40 PUSH1 0x0 KECCAK256 PUSH2 0x1CE9 JUMP JUMPDEST PUSH2 0x5F7 JUMP JUMPDEST PUSH1 0x0 NOT DUP3 ADD SWAP3 POP SWAP1 DUP3 GT PUSH2 0x673 JUMPI DUP3 SWAP2 PUSH2 0x663 SWAP2 PUSH2 0x1A2D JUMP JUMPDEST SWAP1 SLOAD SWAP1 PUSH1 0x3 SHL SHR EQ ISZERO DUP4 DUP1 PUSH2 0x5F0 JUMP JUMPDEST PUSH4 0x4E487B71 PUSH1 0xE0 SHL PUSH1 0x0 MSTORE PUSH1 0x11 PUSH1 0x4 MSTORE PUSH1 0x24 PUSH1 0x0 REVERT JUMPDEST PUSH4 0x4E487B71 PUSH1 0xE0 SHL PUSH1 0x0 MSTORE PUSH1 0x0 PUSH1 0x4 MSTORE PUSH1 0x24 PUSH1 0x0 REVERT JUMPDEST PUSH4 0x4E487B71 PUSH1 0xE0 SHL PUSH1 0x0 MSTORE PUSH1 0x41 PUSH1 0x4 MSTORE PUSH1 0x24 PUSH1 0x0 REVERT JUMPDEST PUSH1 0x0 DUP1 DUP1 SWAP4 DUP2 SWAP4 DUP3 DUP3 ISZERO PUSH2 0x6D1 JUMPI JUMPDEST CALL ISZERO PUSH2 0x252 JUMPI DUP6 DUP1 PUSH2 0x558 JUMP JUMPDEST POP PUSH2 0x8FC PUSH2 0x6C4 JUMP JUMPDEST PUSH1 0x40 MLOAD PUSH3 0x461BCD PUSH1 0xE5 SHL DUP2 MSTORE PUSH1 0x4 DUP2 ADD DUP8 SWAP1 MSTORE PUSH1 0xB PUSH1 0x24 DUP3 ADD MSTORE PUSH11 0x42696420746F6F206C6F77 PUSH1 0xA8 SHL PUSH1 0x44 DUP3 ADD MSTORE PUSH1 0x64 SWAP1 REVERT JUMPDEST PUSH1 0x64 DUP5 PUSH1 0x40 MLOAD SWAP1 PUSH3 0x461BCD PUSH1 0xE5 SHL DUP3 MSTORE DUP1 PUSH1 0x4 DUP4 ADD MSTORE PUSH1 0x24 DUP3 ADD MSTORE PUSH32 0x4661726D65722063616E6E6F7420626964206F6E206F776E2061756374696F6E PUSH1 0x44 DUP3 ADD MSTORE REVERT JUMPDEST PUSH1 0x40 MLOAD PUSH3 0x461BCD PUSH1 0xE5 SHL DUP2 MSTORE PUSH1 0x4 DUP2 ADD DUP4 SWAP1 MSTORE PUSH1 0x11 PUSH1 0x24 DUP3 ADD MSTORE PUSH17 0x105D58DD1A5BDB881A185CC8195B991959 PUSH1 0x7A SHL PUSH1 0x44 DUP3 ADD MSTORE PUSH1 0x64 SWAP1 REVERT JUMPDEST CALLVALUE PUSH2 0x176 JUMPI PUSH1 0x20 CALLDATASIZE PUSH1 0x3 NOT ADD SLT PUSH2 0x176 JUMPI PUSH1 0x4 CALLDATALOAD PUSH1 0x0 DUP2 DUP2 MSTORE PUSH1 0x2 PUSH1 0x20 MSTORE PUSH1 0x40 SWAP1 KECCAK256 PUSH1 0x1 ADD SLOAD PUSH1 0x1 PUSH1 0x1 PUSH1 0xA0 SHL SUB SWAP1 DUP2 AND CALLER SUB PUSH2 0x86E JUMPI PUSH2 0x7C8 PUSH2 0x1D62 JUMP JUMPDEST DUP2 PUSH1 0x0 MSTORE PUSH1 0x2 PUSH1 0x20 MSTORE PUSH1 0x40 PUSH1 0x0 KECCAK256 PUSH1 0xC DUP2 ADD SWAP2 PUSH1 0x7 DUP4 SLOAD SWAP3 PUSH2 0x7EC PUSH1 0xFF DUP6 AND PUSH2 0x1D1E JUMP JUMPDEST ADD SLOAD AND PUSH2 0x829 JUMPI PUSH2 0xFFFF NOT AND PUSH2 0x100 OR SWAP1 SSTORE PUSH32 0x2809C7E17BF978FBC7194C0A694B638C4215E9140CACC6C38CA36010B45697DF PUSH1 0x0 DUP1 LOG2 PUSH1 0x1 DUP1 SSTORE STOP JUMPDEST PUSH1 0x40 MLOAD PUSH3 0x461BCD PUSH1 0xE5 SHL DUP2 MSTORE PUSH1 0x20 PUSH1 0x4 DUP3 ADD MSTORE PUSH1 0x1F PUSH1 0x24 DUP3 ADD MSTORE PUSH32 0x43616E6E6F742063616E63656C2061756374696F6E2077697468206269647300 PUSH1 0x44 DUP3 ADD MSTORE PUSH1 0x64 SWAP1 REVERT JUMPDEST PUSH1 0x40 MLOAD PUSH3 0x461BCD PUSH1 0xE5 SHL DUP2 MSTORE PUSH1 0x20 PUSH1 0x4 DUP3 ADD MSTORE PUSH1 0x2A PUSH1 0x24 DUP3 ADD MSTORE PUSH32 0x4F6E6C792061756374696F6E206F776E65722063616E20706572666F726D2074 PUSH1 0x44 DUP3 ADD MSTORE PUSH10 0x3434B99030B1BA34B7B7 PUSH1 0xB1 SHL PUSH1 0x64 DUP3 ADD MSTORE PUSH1 0x84 SWAP1 REVERT JUMPDEST CALLVALUE PUSH2 0x176 JUMPI PUSH1 0x0 CALLDATASIZE PUSH1 0x3 NOT ADD SLT PUSH2 0x176 JUMPI PUSH1 0x0 SLOAD PUSH1 0x40 MLOAD PUSH1 0x1 PUSH1 0x1 PUSH1 0xA0 SHL SUB SWAP1 SWAP2 AND DUP2 MSTORE PUSH1 0x20 SWAP1 RETURN JUMPDEST CALLVALUE PUSH2 0x176 JUMPI PUSH1 0x20 CALLDATASIZE PUSH1 0x3 NOT ADD SLT PUSH2 0x176 JUMPI PUSH1 0x60 PUSH2 0x1E0 PUSH1 0x40 MLOAD PUSH2 0x911 DUP2 PUSH2 0x1A5B JUMP JUMPDEST PUSH1 0x0 DUP2 MSTORE PUSH1 0x0 PUSH1 0x20 DUP3 ADD MSTORE DUP3 PUSH1 0x40 DUP3 ADD MSTORE DUP3 DUP1 DUP3 ADD MSTORE PUSH1 0x0 PUSH1 0x80 DUP3 ADD MSTORE PUSH1 0x0 PUSH1 0xA0 DUP3 ADD MSTORE PUSH1 0x0 PUSH1 0xC0 DUP3 ADD MSTORE PUSH1 0x0 PUSH1 0xE0 DUP3 ADD MSTORE DUP3 PUSH2 0x100 DUP3 ADD MSTORE PUSH1 0x0 PUSH2 0x120 DUP3 ADD MSTORE PUSH1 0x0 PUSH2 0x140 DUP3 ADD MSTORE PUSH1 0x0 PUSH2 0x160 DUP3 ADD MSTORE PUSH1 0x0 PUSH2 0x180 DUP3 ADD MSTORE PUSH1 0x0 PUSH2 0x1A0 DUP3 ADD MSTORE DUP3 PUSH2 0x1C0 DUP3 ADD MSTORE ADD MSTORE PUSH1 0x4 CALLDATALOAD PUSH1 0x0 MSTORE PUSH1 0x2 PUSH1 0x20 MSTORE PUSH1 0x40 PUSH1 0x0 KECCAK256 PUSH1 0x40 MLOAD SWAP1 PUSH2 0x998 DUP3 PUSH2 0x1A5B JUMP JUMPDEST DUP1 SLOAD DUP3 MSTORE PUSH1 0x1 DUP2 ADD SLOAD PUSH1 0x1 PUSH1 0x1 PUSH1 0xA0 SHL SUB AND PUSH1 0x20 DUP4 ADD MSTORE PUSH2 0x9BB PUSH1 0x2 DUP3 ADD PUSH2 0x1B5A JUMP JUMPDEST PUSH1 0x40 DUP4 ADD MSTORE PUSH2 0x9CC PUSH1 0x3 DUP3 ADD PUSH2 0x1B5A JUMP JUMPDEST PUSH1 0x60 DUP4 ADD MSTORE PUSH1 0x4 DUP2 ADD SLOAD PUSH1 0x80 DUP4 ADD MSTORE PUSH1 0x5 DUP2 ADD SLOAD PUSH1 0xA0 DUP4 ADD MSTORE PUSH1 0x6 DUP2 ADD SLOAD PUSH1 0xC0 DUP4 ADD MSTORE PUSH1 0x7 DUP2 ADD SLOAD PUSH1 0x1 PUSH1 0x1 PUSH1 0xA0 SHL SUB AND PUSH1 0xE0 DUP4 ADD MSTORE PUSH2 0xA0E PUSH1 0x8 DUP3 ADD PUSH2 0x1B5A JUMP JUMPDEST PUSH2 0x100 DUP4 ADD MSTORE PUSH1 0x9 DUP2 ADD SLOAD PUSH2 0x120 DUP4 ADD MSTORE PUSH1 0xA DUP2 ADD SLOAD PUSH2 0x140 DUP4 ADD MSTORE PUSH1 0xB DUP2 ADD SLOAD PUSH2 0x160 DUP4 ADD MSTORE PUSH1 0xFF PUSH1 0xC DUP3 ADD SLOAD DUP2 DUP2 AND ISZERO ISZERO PUSH2 0x180 DUP6 ADD MSTORE PUSH1 0x8 SHR AND ISZERO ISZERO PUSH2 0x1A0 DUP4 ADD MSTORE PUSH2 0xA5F PUSH1 0xD DUP3 ADD PUSH2 0x1B5A JUMP JUMPDEST PUSH2 0x1C0 DUP4 ADD MSTORE PUSH1 0xE DUP2 ADD SLOAD PUSH2 0xA73 DUP2 PUSH2 0x1B09 JUMP JUMPDEST SWAP2 PUSH2 0xA81 PUSH1 0x40 MLOAD SWAP4 DUP5 PUSH2 0x1A92 JUMP JUMPDEST DUP2 DUP4 MSTORE PUSH1 0xE PUSH1 0x20 DUP5 ADD SWAP2 ADD PUSH1 0x0 MSTORE PUSH1 0x20 PUSH1 0x0 KECCAK256 PUSH1 0x0 SWAP2 JUMPDEST DUP4 DUP4 LT PUSH2 0xC0F JUMPI DUP6 DUP6 PUSH2 0x1E0 DUP3 ADD MSTORE PUSH1 0x40 MLOAD DUP1 SWAP2 PUSH1 0x20 DUP3 MSTORE DUP1 MLOAD PUSH1 0x20 DUP4 ADD MSTORE PUSH1 0x1 DUP1 PUSH1 0xA0 SHL SUB PUSH1 0x20 DUP3 ADD MLOAD AND PUSH1 0x40 DUP4 ADD MSTORE PUSH2 0x1E0 PUSH2 0xBA5 PUSH2 0xB4F PUSH2 0xB06 PUSH2 0xAF0 PUSH1 0x40 DUP7 ADD MLOAD PUSH2 0x200 PUSH1 0x60 DUP10 ADD MSTORE PUSH2 0x220 DUP9 ADD SWAP1 PUSH2 0x1C00 JUMP JUMPDEST PUSH1 0x60 DUP7 ADD MLOAD DUP8 DUP3 SUB PUSH1 0x1F NOT ADD PUSH1 0x80 DUP10 ADD MSTORE PUSH2 0x1C00 JUMP JUMPDEST PUSH1 0x80 DUP6 ADD MLOAD PUSH1 0xA0 DUP8 ADD MSTORE PUSH1 0xA0 DUP6 ADD MLOAD PUSH1 0xC0 DUP8 ADD MSTORE PUSH1 0xC0 DUP6 ADD MLOAD PUSH1 0xE0 DUP8 ADD MSTORE PUSH1 0x1 DUP1 PUSH1 0xA0 SHL SUB PUSH1 0xE0 DUP7 ADD MLOAD AND PUSH2 0x100 DUP8 ADD MSTORE PUSH2 0x100 DUP6 ADD MLOAD PUSH1 0x1F NOT DUP8 DUP4 SUB ADD PUSH2 0x120 DUP9 ADD MSTORE PUSH2 0x1C00 JUMP JUMPDEST PUSH2 0x120 DUP5 ADD MLOAD PUSH2 0x140 DUP7 ADD MSTORE PUSH2 0x140 DUP5 ADD MLOAD PUSH2 0x160 DUP7 ADD MSTORE PUSH2 0x160 DUP5 ADD MLOAD PUSH2 0x180 DUP7 ADD MSTORE PUSH2 0x180 DUP5 ADD MLOAD ISZERO ISZERO PUSH2 0x1A0 DUP7 ADD MSTORE PUSH2 0x1A0 DUP5 ADD MLOAD ISZERO ISZERO PUSH2 0x1C0 DUP7 ADD MSTORE PUSH2 0x1C0 DUP5 ADD MLOAD PUSH1 0x1F NOT DUP7 DUP4 SUB ADD DUP5 DUP8 ADD MSTORE PUSH2 0x1C00 JUMP JUMPDEST SWAP2 ADD MLOAD SWAP1 PUSH1 0x1F NOT DUP4 DUP3 SUB ADD PUSH2 0x200 DUP5 ADD MSTORE DUP2 MLOAD DUP1 DUP3 MSTORE PUSH1 0x20 DUP3 ADD SWAP2 PUSH1 0x20 DUP1 DUP4 PUSH1 0x5 SHL DUP4 ADD ADD SWAP5 ADD SWAP3 PUSH1 0x0 SWAP2 JUMPDEST DUP4 DUP4 LT PUSH2 0xBDE JUMPI DUP7 DUP7 SUB DUP8 RETURN JUMPDEST SWAP2 SWAP4 SWAP6 POP SWAP2 SWAP4 PUSH1 0x20 DUP1 PUSH2 0xBFD PUSH1 0x1 SWAP4 PUSH1 0x1F NOT DUP7 DUP3 SUB ADD DUP8 MSTORE DUP10 MLOAD PUSH2 0x1C00 JUMP JUMPDEST SWAP8 ADD SWAP4 ADD SWAP4 ADD SWAP1 SWAP3 DUP7 SWAP6 SWAP5 SWAP3 SWAP4 PUSH2 0xBD1 JUMP JUMPDEST PUSH1 0x1 PUSH1 0x20 DUP2 SWAP3 PUSH2 0xC1E DUP6 PUSH2 0x1B5A JUMP JUMPDEST DUP2 MSTORE ADD SWAP3 ADD SWAP3 ADD SWAP2 SWAP1 PUSH2 0xA98 JUMP JUMPDEST CALLVALUE PUSH2 0x176 JUMPI PUSH1 0x0 CALLDATASIZE PUSH1 0x3 NOT ADD SLT PUSH2 0x176 JUMPI PUSH1 0x20 PUSH1 0x40 MLOAD PUSH7 0x2386F26FC10000 DUP2 MSTORE RETURN JUMPDEST CALLVALUE PUSH2 0x176 JUMPI PUSH1 0x0 CALLDATASIZE PUSH1 0x3 NOT ADD SLT PUSH2 0x176 JUMPI PUSH2 0xC67 PUSH2 0x1C97 JUMP JUMPDEST PUSH1 0x0 DUP1 SLOAD PUSH1 0x1 PUSH1 0x1 PUSH1 0xA0 SHL SUB NOT DUP2 AND DUP3 SSTORE PUSH1 0x1 PUSH1 0x1 PUSH1 0xA0 SHL SUB AND PUSH32 0x8BE0079C531659141344CD1FD0A4F28419497F9722A3DAAFE3B4186F6B6457E0 DUP3 DUP1 LOG3 STOP JUMPDEST CALLVALUE PUSH2 0x176 JUMPI PUSH1 0x20 DUP1 PUSH1 0x3 NOT CALLDATASIZE ADD SLT PUSH2 0x176 JUMPI PUSH1 0x4 CALLDATALOAD PUSH1 0x0 MSTORE PUSH1 0x3 SWAP1 DUP2 DUP2 MSTORE PUSH1 0x40 PUSH1 0x0 KECCAK256 SWAP2 DUP3 SLOAD PUSH2 0xCD6 DUP2 PUSH2 0x1B09 JUMP JUMPDEST SWAP2 PUSH2 0xCE4 PUSH1 0x40 MLOAD SWAP4 DUP5 PUSH2 0x1A92 JUMP JUMPDEST DUP2 DUP4 MSTORE DUP4 DUP4 ADD DUP1 SWAP6 PUSH1 0x0 MSTORE DUP5 PUSH1 0x0 KECCAK256 PUSH1 0x0 SWAP2 JUMPDEST DUP5 DUP4 LT PUSH2 0xD56 JUMPI PUSH1 0x40 DUP1 MLOAD DUP9 DUP2 MSTORE DUP8 MLOAD DUP2 DUP11 ADD DUP2 SWAP1 MSTORE DUP11 SWAP3 DUP3 ADD SWAP1 DUP11 PUSH1 0x0 JUMPDEST DUP3 DUP2 LT PUSH2 0xD23 JUMPI DUP5 DUP5 SUB DUP6 RETURN JUMPDEST DUP6 MLOAD DUP1 MLOAD PUSH1 0x1 PUSH1 0x1 PUSH1 0xA0 SHL SUB AND DUP6 MSTORE DUP1 DUP4 ADD MLOAD DUP6 DUP5 ADD MSTORE PUSH1 0x40 SWAP1 DUP2 ADD MLOAD SWAP1 DUP6 ADD MSTORE SWAP5 DUP2 ADD SWAP5 PUSH1 0x60 SWAP1 SWAP4 ADD SWAP3 PUSH1 0x1 ADD PUSH2 0xD16 JUMP JUMPDEST DUP4 DUP8 PUSH1 0x1 SWAP3 PUSH1 0x40 MLOAD PUSH2 0xD67 DUP2 PUSH2 0x1A77 JUMP JUMPDEST DUP5 DUP1 PUSH1 0xA0 SHL SUB DUP7 SLOAD AND DUP2 MSTORE DUP5 DUP7 ADD SLOAD DUP4 DUP3 ADD MSTORE PUSH1 0x2 DUP7 ADD SLOAD PUSH1 0x40 DUP3 ADD MSTORE DUP2 MSTORE ADD SWAP3 ADD SWAP3 ADD SWAP2 SWAP1 PUSH2 0xCF7 JUMP JUMPDEST CALLVALUE PUSH2 0x176 JUMPI PUSH1 0x20 DUP1 PUSH1 0x3 NOT CALLDATASIZE ADD SLT PUSH2 0x176 JUMPI PUSH1 0x1 PUSH1 0x1 PUSH1 0xA0 SHL SUB PUSH2 0xDB4 PUSH2 0x1A17 JUMP JUMPDEST AND PUSH1 0x0 MSTORE PUSH1 0x5 DUP2 MSTORE PUSH1 0x40 PUSH1 0x0 KECCAK256 SWAP1 PUSH1 0x40 MLOAD SWAP1 DUP2 DUP2 DUP5 SLOAD SWAP2 DUP3 DUP2 MSTORE ADD SWAP4 PUSH1 0x0 MSTORE DUP2 PUSH1 0x0 KECCAK256 SWAP2 PUSH1 0x0 SWAP1 JUMPDEST DUP3 DUP3 LT PUSH2 0xDF3 JUMPI PUSH2 0x340 DUP6 PUSH2 0x424 DUP2 DUP10 SUB DUP3 PUSH2 0x1A92 JUMP JUMPDEST DUP4 SLOAD DUP7 MSTORE SWAP5 DUP6 ADD SWAP5 PUSH1 0x1 SWAP4 DUP5 ADD SWAP4 SWAP1 SWAP2 ADD SWAP1 PUSH2 0xDDC JUMP JUMPDEST CALLVALUE PUSH2 0x176 JUMPI PUSH1 0x40 CALLDATASIZE PUSH1 0x3 NOT ADD SLT PUSH2 0x176 JUMPI PUSH1 0x24 CALLDATALOAD PUSH1 0x4 CALLDATALOAD PUSH1 0x0 MSTORE PUSH1 0x3 PUSH1 0x20 MSTORE PUSH1 0x40 PUSH1 0x0 KECCAK256 DUP1 SLOAD DUP3 LT ISZERO PUSH2 0x176 JUMPI PUSH1 0x60 SWAP2 PUSH2 0xE43 SWAP2 PUSH2 0x1C40 JUMP JUMPDEST POP PUSH1 0x1 DUP1 PUSH1 0xA0 SHL SUB DUP2 SLOAD AND SWAP1 PUSH1 0x2 PUSH1 0x1 DUP3 ADD SLOAD SWAP2 ADD SLOAD SWAP1 PUSH1 0x40 MLOAD SWAP3 DUP4 MSTORE PUSH1 0x20 DUP4 ADD MSTORE PUSH1 0x40 DUP3 ADD MSTORE RETURN JUMPDEST CALLVALUE PUSH2 0x176 JUMPI PUSH1 0x20 CALLDATASIZE PUSH1 0x3 NOT ADD SLT PUSH2 0x176 JUMPI PUSH1 0x4 CALLDATALOAD PUSH1 0x0 MSTORE PUSH1 0x2 PUSH1 0x20 MSTORE PUSH1 0x40 PUSH1 0x0 KECCAK256 DUP1 SLOAD PUSH1 0x1 PUSH1 0xA0 SHL PUSH1 0x1 SWAP1 SUB SWAP2 DUP3 PUSH1 0x1 DUP3 ADD SLOAD AND SWAP3 PUSH1 0x2 DUP3 ADD PUSH2 0xEAE SWAP1 PUSH2 0x1B5A JUMP JUMPDEST SWAP2 PUSH2 0xEBB PUSH1 0x3 DUP3 ADD PUSH2 0x1B5A JUMP JUMPDEST PUSH1 0x4 DUP3 ADD SLOAD PUSH1 0x5 DUP4 ADD SLOAD SWAP1 PUSH1 0x6 DUP5 ADD SLOAD SWAP5 PUSH1 0x7 DUP6 ADD SLOAD AND SWAP1 PUSH1 0x8 DUP6 ADD PUSH2 0xEE0 SWAP1 PUSH2 0x1B5A JUMP JUMPDEST SWAP2 PUSH1 0x9 DUP7 ADD SLOAD SWAP7 PUSH1 0xA DUP8 ADD SLOAD SWAP5 PUSH1 0xB DUP9 ADD SLOAD SWAP7 PUSH1 0xC DUP10 ADD SLOAD SWAP9 PUSH1 0xD ADD PUSH2 0xF05 SWAP1 PUSH2 0x1B5A JUMP JUMPDEST SWAP11 PUSH1 0x40 MLOAD SWAP14 DUP15 DUP1 SWAP15 DUP2 MSTORE PUSH1 0x20 ADD MSTORE DUP13 PUSH2 0x1E0 PUSH1 0x40 DUP2 SWAP3 ADD MSTORE DUP14 ADD PUSH2 0xF28 SWAP2 PUSH2 0x1C00 JUMP JUMPDEST DUP13 DUP2 SUB PUSH1 0x60 DUP15 ADD MSTORE PUSH2 0xF39 SWAP2 PUSH2 0x1C00 JUMP JUMPDEST SWAP4 PUSH1 0x80 DUP13 ADD MSTORE PUSH1 0xA0 DUP12 ADD MSTORE PUSH1 0xC0 DUP11 ADD MSTORE PUSH1 0xE0 DUP10 ADD MSTORE DUP8 DUP2 SUB PUSH2 0x100 DUP10 ADD MSTORE PUSH2 0xF60 SWAP2 PUSH2 0x1C00 JUMP JUMPDEST SWAP4 PUSH2 0x120 DUP8 ADD MSTORE PUSH2 0x140 DUP7 ADD MSTORE PUSH2 0x160 DUP6 ADD MSTORE PUSH1 0xFF DUP2 AND ISZERO ISZERO PUSH2 0x180 DUP6 ADD MSTORE PUSH1 0x8 SHR PUSH1 0xFF AND ISZERO ISZERO PUSH2 0x1A0 DUP5 ADD MSTORE DUP3 DUP2 SUB PUSH2 0x1C0 DUP5 ADD MSTORE PUSH2 0x340 SWAP2 PUSH2 0x1C00 JUMP JUMPDEST CALLVALUE PUSH2 0x176 JUMPI PUSH2 0x100 CALLDATASIZE PUSH1 0x3 NOT ADD SLT PUSH2 0x176 JUMPI PUSH1 0x4 CALLDATALOAD PUSH1 0x1 PUSH1 0x1 PUSH1 0x40 SHL SUB DUP2 GT PUSH2 0x176 JUMPI PUSH2 0xFD0 SWAP1 CALLDATASIZE SWAP1 PUSH1 0x4 ADD PUSH2 0x1AB3 JUMP JUMPDEST PUSH1 0x24 CALLDATALOAD PUSH1 0x1 PUSH1 0x1 PUSH1 0x40 SHL SUB DUP2 GT PUSH2 0x176 JUMPI PUSH2 0xFEF SWAP1 CALLDATASIZE SWAP1 PUSH1 0x4 ADD PUSH2 0x1AB3 JUMP JUMPDEST PUSH1 0x84 CALLDATALOAD PUSH1 0x1 PUSH1 0x1 PUSH1 0x40 SHL SUB DUP2 GT PUSH2 0x176 JUMPI PUSH2 0x100E SWAP1 CALLDATASIZE SWAP1 PUSH1 0x4 ADD PUSH2 0x1AB3 JUMP JUMPDEST PUSH1 0xC4 CALLDATALOAD PUSH1 0x1 PUSH1 0x1 PUSH1 0x40 SHL SUB DUP2 GT PUSH2 0x176 JUMPI PUSH2 0x102D SWAP1 CALLDATASIZE SWAP1 PUSH1 0x4 ADD PUSH2 0x1AB3 JUMP JUMPDEST SWAP2 PUSH1 0x1 PUSH1 0x1 PUSH1 0x40 SHL SUB PUSH1 0xE4 CALLDATALOAD GT PUSH2 0x176 JUMPI CALLDATASIZE PUSH1 0x23 PUSH1 0xE4 CALLDATALOAD ADD SLT ISZERO PUSH2 0x176 JUMPI PUSH1 0xE4 CALLDATALOAD PUSH1 0x4 ADD CALLDATALOAD PUSH2 0x105B DUP2 PUSH2 0x1B09 JUMP JUMPDEST SWAP1 PUSH2 0x1069 PUSH1 0x40 MLOAD SWAP3 DUP4 PUSH2 0x1A92 JUMP JUMPDEST DUP1 DUP3 MSTORE PUSH1 0x20 DUP3 ADD SWAP1 CALLDATASIZE PUSH1 0x24 DUP3 PUSH1 0x5 SHL PUSH1 0xE4 CALLDATALOAD ADD ADD GT PUSH2 0x176 JUMPI PUSH1 0x24 PUSH1 0xE4 CALLDATALOAD ADD SWAP2 JUMPDEST PUSH1 0x24 DUP3 PUSH1 0x5 SHL PUSH1 0xE4 CALLDATALOAD ADD ADD DUP4 LT PUSH2 0x197C JUMPI POP POP POP DUP5 MLOAD ISZERO PUSH2 0x1937 JUMPI PUSH1 0x44 CALLDATALOAD ISZERO PUSH2 0x18F2 JUMPI PUSH1 0x64 CALLDATALOAD ISZERO PUSH2 0x18A3 JUMPI PUSH1 0x6 SLOAD SWAP4 PUSH2 0x10C2 DUP6 PUSH2 0x1CC3 JUMP JUMPDEST PUSH1 0x6 SSTORE PUSH3 0x15180 TIMESTAMP ADD TIMESTAMP GT PUSH2 0x673 JUMPI PUSH1 0x40 MLOAD SWAP3 PUSH2 0x10DE DUP5 PUSH2 0x1A5B JUMP JUMPDEST DUP6 DUP5 MSTORE CALLER PUSH1 0x20 DUP6 ADD MSTORE DUP7 PUSH1 0x40 DUP6 ADD MSTORE PUSH1 0x60 DUP5 ADD MSTORE PUSH1 0x44 CALLDATALOAD PUSH1 0x80 DUP5 ADD MSTORE PUSH1 0x64 CALLDATALOAD PUSH1 0xA0 DUP5 ADD MSTORE PUSH1 0x64 CALLDATALOAD PUSH1 0xC0 DUP5 ADD MSTORE PUSH1 0x0 PUSH1 0xE0 DUP5 ADD MSTORE DUP4 PUSH2 0x100 DUP5 ADD MSTORE PUSH1 0xA4 CALLDATALOAD PUSH2 0x120 DUP5 ADD MSTORE TIMESTAMP PUSH2 0x140 DUP5 ADD MSTORE PUSH3 0x15180 TIMESTAMP ADD PUSH2 0x160 DUP5 ADD MSTORE PUSH1 0x1 PUSH2 0x180 DUP5 ADD MSTORE PUSH1 0x0 PUSH2 0x1A0 DUP5 ADD MSTORE PUSH2 0x1C0 DUP4 ADD MSTORE PUSH2 0x1E0 DUP3 ADD MSTORE DUP3 PUSH1 0x0 MSTORE PUSH1 0x2 PUSH1 0x20 MSTORE PUSH1 0x40 PUSH1 0x0 KECCAK256 SWAP1 DUP1 MLOAD DUP3 SSTORE PUSH1 0x1 DUP3 ADD PUSH1 0x1 DUP1 PUSH1 0xA0 SHL SUB PUSH1 0x20 DUP4 ADD MLOAD AND PUSH1 0x1 PUSH1 0x1 PUSH1 0x60 SHL SUB PUSH1 0xA0 SHL DUP3 SLOAD AND OR SWAP1 SSTORE PUSH1 0x40 DUP2 ADD MLOAD DUP1 MLOAD SWAP1 PUSH1 0x1 PUSH1 0x1 PUSH1 0x40 SHL SUB DUP3 GT PUSH2 0x69F JUMPI DUP2 SWAP1 PUSH2 0x11AA PUSH1 0x2 DUP7 ADD SLOAD PUSH2 0x1B20 JUMP JUMPDEST PUSH1 0x1F DUP2 GT PUSH2 0x186E JUMPI JUMPDEST POP PUSH1 0x20 SWAP1 PUSH1 0x1F DUP4 GT PUSH1 0x1 EQ PUSH2 0x17FC JUMPI PUSH1 0x0 SWAP3 PUSH2 0x17F1 JUMPI JUMPDEST POP POP DUP2 PUSH1 0x1 SHL SWAP2 PUSH1 0x0 NOT SWAP1 PUSH1 0x3 SHL SHR NOT AND OR PUSH1 0x2 DUP4 ADD SSTORE JUMPDEST PUSH1 0x60 DUP2 ADD MLOAD DUP1 MLOAD SWAP1 PUSH1 0x1 PUSH1 0x1 PUSH1 0x40 SHL SUB DUP3 GT PUSH2 0x69F JUMPI DUP2 SWAP1 PUSH2 0x1207 PUSH1 0x3 DUP7 ADD SLOAD PUSH2 0x1B20 JUMP JUMPDEST PUSH1 0x1F DUP2 GT PUSH2 0x17BC JUMPI JUMPDEST POP PUSH1 0x20 SWAP1 PUSH1 0x1F DUP4 GT PUSH1 0x1 EQ PUSH2 0x174A JUMPI PUSH1 0x0 SWAP3 PUSH2 0x173F JUMPI JUMPDEST POP POP DUP2 PUSH1 0x1 SHL SWAP2 PUSH1 0x0 NOT SWAP1 PUSH1 0x3 SHL SHR NOT AND OR PUSH1 0x3 DUP4 ADD SSTORE JUMPDEST PUSH1 0x80 DUP2 ADD MLOAD PUSH1 0x4 DUP4 ADD SSTORE PUSH1 0xA0 DUP2 ADD MLOAD PUSH1 0x5 DUP4 ADD SSTORE PUSH1 0xC0 DUP2 ADD MLOAD PUSH1 0x6 DUP4 ADD SSTORE PUSH1 0x7 DUP3 ADD PUSH1 0x1 DUP1 PUSH1 0xA0 SHL SUB PUSH1 0xE0 DUP4 ADD MLOAD AND PUSH1 0x1 PUSH1 0x1 PUSH1 0x60 SHL SUB PUSH1 0xA0 SHL DUP3 SLOAD AND OR SWAP1 SSTORE PUSH2 0x100 DUP2 ADD MLOAD DUP1 MLOAD SWAP1 PUSH1 0x1 PUSH1 0x1 PUSH1 0x40 SHL SUB DUP3 GT PUSH2 0x69F JUMPI DUP2 SWAP1 PUSH2 0x12A5 PUSH1 0x8 DUP7 ADD SLOAD PUSH2 0x1B20 JUMP JUMPDEST PUSH1 0x1F DUP2 GT PUSH2 0x170A JUMPI JUMPDEST POP PUSH1 0x20 SWAP1 PUSH1 0x1F DUP4 GT PUSH1 0x1 EQ PUSH2 0x1698 JUMPI PUSH1 0x0 SWAP3 PUSH2 0x168D JUMPI JUMPDEST POP POP DUP2 PUSH1 0x1 SHL SWAP2 PUSH1 0x0 NOT SWAP1 PUSH1 0x3 SHL SHR NOT AND OR PUSH1 0x8 DUP4 ADD SSTORE JUMPDEST PUSH2 0x120 DUP2 ADD MLOAD PUSH1 0x9 DUP4 ADD SSTORE PUSH2 0x140 DUP2 ADD MLOAD PUSH1 0xA DUP4 ADD SSTORE PUSH2 0x160 DUP2 ADD MLOAD PUSH1 0xB DUP4 ADD SSTORE PUSH1 0xC DUP3 ADD PUSH2 0x180 DUP3 ADD MLOAD ISZERO ISZERO DUP2 SLOAD PUSH1 0xFF PUSH2 0xFF00 PUSH2 0x1A0 DUP7 ADD MLOAD ISZERO ISZERO PUSH1 0x8 SHL AND SWAP3 AND SWAP1 PUSH2 0xFFFF NOT AND OR OR SWAP1 SSTORE PUSH2 0x1C0 DUP2 ADD MLOAD DUP1 MLOAD PUSH1 0x1 PUSH1 0x1 PUSH1 0x40 SHL SUB DUP2 GT PUSH2 0x69F JUMPI PUSH1 0xD DUP5 ADD SWAP2 PUSH2 0x134E DUP4 SLOAD PUSH2 0x1B20 JUMP JUMPDEST PUSH1 0x1F DUP2 GT PUSH2 0x165B JUMPI JUMPDEST POP PUSH1 0x20 SWAP1 PUSH1 0x1F DUP4 GT PUSH1 0x1 EQ PUSH2 0x15EE JUMPI PUSH2 0x1E0 SWAP5 SWAP4 SWAP3 SWAP2 PUSH1 0x0 SWAP2 DUP4 PUSH2 0x15E3 JUMPI JUMPDEST POP POP DUP2 PUSH1 0x1 SHL SWAP2 PUSH1 0x0 NOT SWAP1 PUSH1 0x3 SHL SHR NOT AND OR SWAP1 SSTORE JUMPDEST ADD MLOAD DUP1 MLOAD SWAP1 PUSH1 0x1 PUSH1 0x40 SHL DUP3 GT PUSH2 0x69F JUMPI PUSH1 0xE DUP4 ADD SLOAD DUP3 PUSH1 0xE DUP6 ADD SSTORE DUP1 DUP4 LT PUSH2 0x156B JUMPI JUMPDEST POP PUSH1 0x20 PUSH1 0xE SWAP2 ADD SWAP3 ADD PUSH1 0x0 MSTORE PUSH1 0x20 PUSH1 0x0 KECCAK256 SWAP2 PUSH1 0x0 SWAP1 JUMPDEST DUP3 DUP3 LT PUSH2 0x144B JUMPI PUSH1 0x20 DUP7 DUP7 DUP2 PUSH32 0x9AF75FCEE4E7C792CCC7A78A2BEE23A0B7C5F7E1929A93BBD95EFDE5A6794C1D PUSH2 0x1422 DUP13 CALLER PUSH1 0x0 MSTORE PUSH1 0x4 DUP8 MSTORE PUSH2 0x140B DUP5 PUSH1 0x40 PUSH1 0x0 KECCAK256 PUSH2 0x1CE9 JUMP JUMPDEST PUSH2 0x1440 PUSH1 0x40 MLOAD SWAP3 DUP4 SWAP3 PUSH1 0x80 DUP5 MSTORE PUSH1 0x80 DUP5 ADD SWAP1 PUSH2 0x1C00 JUMP JUMPDEST PUSH1 0x44 CALLDATALOAD DUP10 DUP5 ADD MSTORE PUSH1 0x64 CALLDATALOAD PUSH1 0x40 DUP5 ADD MSTORE DUP3 DUP2 SUB PUSH1 0x60 DUP5 ADD MSTORE CALLER SWAP7 PUSH2 0x1C00 JUMP JUMPDEST SUB SWAP1 LOG3 PUSH1 0x40 MLOAD SWAP1 DUP2 MSTORE RETURN JUMPDEST DUP1 MLOAD DUP1 MLOAD SWAP1 PUSH1 0x1 PUSH1 0x1 PUSH1 0x40 SHL SUB DUP3 GT PUSH2 0x69F JUMPI PUSH2 0x1468 DUP7 SLOAD PUSH2 0x1B20 JUMP JUMPDEST PUSH1 0x1F DUP2 GT PUSH2 0x152E JUMPI JUMPDEST POP PUSH1 0x20 SWAP1 PUSH1 0x1F DUP4 GT PUSH1 0x1 EQ PUSH2 0x14BE JUMPI SWAP3 DUP3 PUSH1 0x1 SWAP5 SWAP4 PUSH1 0x20 SWAP4 DUP7 SWAP6 PUSH1 0x0 SWAP3 PUSH2 0x14B3 JUMPI JUMPDEST POP POP PUSH1 0x0 NOT PUSH1 0x3 DUP4 SWAP1 SHL SHR NOT AND SWAP1 DUP5 SHL OR DUP8 SSTORE JUMPDEST ADD SWAP5 ADD SWAP2 ADD SWAP1 SWAP3 PUSH2 0x13C4 JUMP JUMPDEST ADD MLOAD SWAP1 POP DUP13 DUP1 PUSH2 0x1493 JUMP JUMPDEST SWAP1 DUP7 PUSH1 0x0 MSTORE PUSH1 0x20 PUSH1 0x0 KECCAK256 SWAP2 PUSH1 0x0 JUMPDEST PUSH1 0x1F NOT DUP6 AND DUP2 LT PUSH2 0x1516 JUMPI POP DUP4 PUSH1 0x20 SWAP4 PUSH1 0x1 SWAP7 SWAP4 DUP8 SWAP7 SWAP4 DUP8 SWAP5 PUSH1 0x1F NOT DUP2 AND LT PUSH2 0x14FD JUMPI JUMPDEST POP POP POP DUP2 SHL ADD DUP8 SSTORE PUSH2 0x14A7 JUMP JUMPDEST ADD MLOAD PUSH1 0x0 NOT PUSH1 0xF8 DUP5 PUSH1 0x3 SHL AND SHR NOT AND SWAP1 SSTORE DUP13 DUP1 DUP1 PUSH2 0x14F0 JUMP JUMPDEST SWAP2 SWAP3 PUSH1 0x20 PUSH1 0x1 DUP2 SWAP3 DUP7 DUP6 ADD MLOAD DUP2 SSTORE ADD SWAP5 ADD SWAP3 ADD PUSH2 0x14CC JUMP JUMPDEST PUSH2 0x155B SWAP1 DUP8 PUSH1 0x0 MSTORE PUSH1 0x20 PUSH1 0x0 KECCAK256 PUSH1 0x1F DUP6 ADD PUSH1 0x5 SHR DUP2 ADD SWAP2 PUSH1 0x20 DUP7 LT PUSH2 0x1561 JUMPI JUMPDEST PUSH1 0x1F ADD PUSH1 0x5 SHR ADD SWAP1 PUSH2 0x1CD2 JUMP JUMPDEST DUP10 PUSH2 0x1471 JUMP JUMPDEST SWAP1 SWAP2 POP DUP2 SWAP1 PUSH2 0x154E JUMP JUMPDEST PUSH1 0xE DUP5 ADD PUSH1 0x0 MSTORE PUSH1 0x20 PUSH1 0x0 KECCAK256 SWAP1 DUP4 DUP3 ADD JUMPDEST DUP2 DUP4 ADD DUP2 LT PUSH2 0x158C JUMPI POP POP PUSH2 0x13AE JUMP JUMPDEST DUP1 PUSH2 0x1599 PUSH1 0x1 SWAP3 SLOAD PUSH2 0x1B20 JUMP JUMPDEST DUP1 PUSH2 0x15A6 JUMPI JUMPDEST POP ADD PUSH2 0x157C JUMP JUMPDEST PUSH1 0x1F DUP2 GT DUP4 EQ PUSH2 0x15BC JUMPI POP PUSH1 0x0 DUP2 SSTORE JUMPDEST DUP11 PUSH2 0x159F JUMP JUMPDEST PUSH1 0x0 SWAP1 DUP3 DUP3 MSTORE PUSH2 0x15DA PUSH1 0x1F PUSH1 0x20 DUP5 KECCAK256 SWAP3 ADD PUSH1 0x5 SHR DUP3 ADD DUP6 DUP4 ADD PUSH2 0x1CD2 JUMP JUMPDEST DUP2 DUP4 SSTORE SSTORE PUSH2 0x15B6 JUMP JUMPDEST ADD MLOAD SWAP1 POP DUP10 DUP1 PUSH2 0x1376 JUMP JUMPDEST SWAP1 PUSH1 0x1F NOT DUP4 AND SWAP2 DUP5 PUSH1 0x0 MSTORE PUSH1 0x20 PUSH1 0x0 KECCAK256 SWAP3 PUSH1 0x0 JUMPDEST DUP2 DUP2 LT PUSH2 0x1643 JUMPI POP SWAP2 PUSH1 0x1 SWAP4 SWAP2 DUP6 PUSH2 0x1E0 SWAP9 SWAP8 SWAP7 SWAP5 LT PUSH2 0x162A JUMPI JUMPDEST POP POP POP DUP2 SHL ADD SWAP1 SSTORE PUSH2 0x138B JUMP JUMPDEST ADD MLOAD PUSH1 0x0 NOT PUSH1 0xF8 DUP5 PUSH1 0x3 SHL AND SHR NOT AND SWAP1 SSTORE DUP10 DUP1 DUP1 PUSH2 0x161D JUMP JUMPDEST SWAP3 SWAP4 PUSH1 0x20 PUSH1 0x1 DUP2 SWAP3 DUP8 DUP7 ADD MLOAD DUP2 SSTORE ADD SWAP6 ADD SWAP4 ADD PUSH2 0x1602 JUMP JUMPDEST PUSH2 0x1687 SWAP1 DUP5 PUSH1 0x0 MSTORE PUSH1 0x20 PUSH1 0x0 KECCAK256 PUSH1 0x1F DUP6 ADD PUSH1 0x5 SHR DUP2 ADD SWAP2 PUSH1 0x20 DUP7 LT PUSH2 0x1561 JUMPI PUSH1 0x1F ADD PUSH1 0x5 SHR ADD SWAP1 PUSH2 0x1CD2 JUMP JUMPDEST DUP9 PUSH2 0x1357 JUMP JUMPDEST ADD MLOAD SWAP1 POP DUP8 DUP1 PUSH2 0x12C5 JUMP JUMPDEST SWAP3 POP PUSH1 0x8 DUP6 ADD PUSH1 0x0 MSTORE PUSH1 0x20 PUSH1 0x0 KECCAK256 SWAP1 PUSH1 0x0 SWAP4 JUMPDEST PUSH1 0x1F NOT DUP5 AND DUP6 LT PUSH2 0x16EF JUMPI PUSH1 0x1 SWAP5 POP DUP4 PUSH1 0x1F NOT DUP2 AND LT PUSH2 0x16D6 JUMPI JUMPDEST POP POP POP DUP2 SHL ADD PUSH1 0x8 DUP4 ADD SSTORE PUSH2 0x12DD JUMP JUMPDEST ADD MLOAD PUSH1 0x0 NOT PUSH1 0xF8 DUP5 PUSH1 0x3 SHL AND SHR NOT AND SWAP1 SSTORE DUP8 DUP1 DUP1 PUSH2 0x16C6 JUMP JUMPDEST DUP2 DUP2 ADD MLOAD DUP4 SSTORE PUSH1 0x20 SWAP5 DUP6 ADD SWAP5 PUSH1 0x1 SWAP1 SWAP4 ADD SWAP3 SWAP1 SWAP2 ADD SWAP1 PUSH2 0x16AB JUMP JUMPDEST PUSH2 0x1739 SWAP1 PUSH1 0x8 DUP8 ADD PUSH1 0x0 MSTORE PUSH1 0x20 PUSH1 0x0 KECCAK256 PUSH1 0x1F DUP6 ADD PUSH1 0x5 SHR DUP2 ADD SWAP2 PUSH1 0x20 DUP7 LT PUSH2 0x1561 JUMPI PUSH1 0x1F ADD PUSH1 0x5 SHR ADD SWAP1 PUSH2 0x1CD2 JUMP JUMPDEST DUP9 PUSH2 0x12AE JUMP JUMPDEST ADD MLOAD SWAP1 POP DUP8 DUP1 PUSH2 0x1227 JUMP JUMPDEST SWAP3 POP PUSH1 0x3 DUP6 ADD PUSH1 0x0 MSTORE PUSH1 0x20 PUSH1 0x0 KECCAK256 SWAP1 PUSH1 0x0 SWAP4 JUMPDEST PUSH1 0x1F NOT DUP5 AND DUP6 LT PUSH2 0x17A1 JUMPI PUSH1 0x1 SWAP5 POP DUP4 PUSH1 0x1F NOT DUP2 AND LT PUSH2 0x1788 JUMPI JUMPDEST POP POP POP DUP2 SHL ADD PUSH1 0x3 DUP4 ADD SSTORE PUSH2 0x123F JUMP JUMPDEST ADD MLOAD PUSH1 0x0 NOT PUSH1 0xF8 DUP5 PUSH1 0x3 SHL AND SHR NOT AND SWAP1 SSTORE DUP8 DUP1 DUP1 PUSH2 0x1778 JUMP JUMPDEST DUP2 DUP2 ADD MLOAD DUP4 SSTORE PUSH1 0x20 SWAP5 DUP6 ADD SWAP5 PUSH1 0x1 SWAP1 SWAP4 ADD SWAP3 SWAP1 SWAP2 ADD SWAP1 PUSH2 0x175D JUMP JUMPDEST PUSH2 0x17EB SWAP1 PUSH1 0x3 DUP8 ADD PUSH1 0x0 MSTORE PUSH1 0x20 PUSH1 0x0 KECCAK256 PUSH1 0x1F DUP6 ADD PUSH1 0x5 SHR DUP2 ADD SWAP2 PUSH1 0x20 DUP7 LT PUSH2 0x1561 JUMPI PUSH1 0x1F ADD PUSH1 0x5 SHR ADD SWAP1 PUSH2 0x1CD2 JUMP JUMPDEST DUP9 PUSH2 0x1210 JUMP JUMPDEST ADD MLOAD SWAP1 POP DUP8 DUP1 PUSH2 0x11CA JUMP JUMPDEST SWAP3 POP PUSH1 0x2 DUP6 ADD PUSH1 0x0 MSTORE PUSH1 0x20 PUSH1 0x0 KECCAK256 SWAP1 PUSH1 0x0 SWAP4 JUMPDEST PUSH1 0x1F NOT DUP5 AND DUP6 LT PUSH2 0x1853 JUMPI PUSH1 0x1 SWAP5 POP DUP4 PUSH1 0x1F NOT DUP2 AND LT PUSH2 0x183A JUMPI JUMPDEST POP POP POP DUP2 SHL ADD PUSH1 0x2 DUP4 ADD SSTORE PUSH2 0x11E2 JUMP JUMPDEST ADD MLOAD PUSH1 0x0 NOT PUSH1 0xF8 DUP5 PUSH1 0x3 SHL AND SHR NOT AND SWAP1 SSTORE DUP8 DUP1 DUP1 PUSH2 0x182A JUMP JUMPDEST DUP2 DUP2 ADD MLOAD DUP4 SSTORE PUSH1 0x20 SWAP5 DUP6 ADD SWAP5 PUSH1 0x1 SWAP1 SWAP4 ADD SWAP3 SWAP1 SWAP2 ADD SWAP1 PUSH2 0x180F JUMP JUMPDEST PUSH2 0x189D SWAP1 PUSH1 0x2 DUP8 ADD PUSH1 0x0 MSTORE PUSH1 0x20 PUSH1 0x0 KECCAK256 PUSH1 0x1F DUP6 ADD PUSH1 0x5 SHR DUP2 ADD SWAP2 PUSH1 0x20 DUP7 LT PUSH2 0x1561 JUMPI PUSH1 0x1F ADD PUSH1 0x5 SHR ADD SWAP1 PUSH2 0x1CD2 JUMP JUMPDEST DUP9 PUSH2 0x11B3 JUMP JUMPDEST PUSH1 0x40 MLOAD PUSH3 0x461BCD PUSH1 0xE5 SHL DUP2 MSTORE PUSH1 0x20 PUSH1 0x4 DUP3 ADD MSTORE PUSH1 0x21 PUSH1 0x24 DUP3 ADD MSTORE PUSH32 0x42617365207072696365206D7573742062652067726561746572207468616E20 PUSH1 0x44 DUP3 ADD MSTORE PUSH1 0x3 PUSH1 0xFC SHL PUSH1 0x64 DUP3 ADD MSTORE PUSH1 0x84 SWAP1 REVERT JUMPDEST PUSH1 0x40 MLOAD PUSH3 0x461BCD PUSH1 0xE5 SHL DUP2 MSTORE PUSH1 0x20 PUSH1 0x4 DUP3 ADD MSTORE PUSH1 0x1F PUSH1 0x24 DUP3 ADD MSTORE PUSH32 0x5175616E74697479206D7573742062652067726561746572207468616E203000 PUSH1 0x44 DUP3 ADD MSTORE PUSH1 0x64 SWAP1 REVERT JUMPDEST PUSH1 0x40 MLOAD PUSH3 0x461BCD PUSH1 0xE5 SHL DUP2 MSTORE PUSH1 0x20 PUSH1 0x4 DUP3 ADD MSTORE PUSH1 0x19 PUSH1 0x24 DUP3 ADD MSTORE PUSH32 0x43726F70206E616D652063616E6E6F7420626520656D70747900000000000000 PUSH1 0x44 DUP3 ADD MSTORE PUSH1 0x64 SWAP1 REVERT JUMPDEST PUSH1 0x1 PUSH1 0x1 PUSH1 0x40 SHL SUB DUP4 CALLDATALOAD GT PUSH2 0x176 JUMPI PUSH1 0x20 DUP1 PUSH1 0x24 SWAP3 PUSH2 0x19A2 CALLDATASIZE DUP6 DUP9 CALLDATALOAD PUSH1 0xE4 CALLDATALOAD ADD ADD PUSH2 0x1AB3 JUMP JUMPDEST DUP2 MSTORE ADD SWAP4 ADD SWAP3 SWAP1 POP PUSH2 0x108A JUMP JUMPDEST CALLVALUE PUSH2 0x176 JUMPI PUSH1 0x0 CALLDATASIZE PUSH1 0x3 NOT ADD SLT PUSH2 0x176 JUMPI PUSH1 0x20 PUSH1 0x6 SLOAD PUSH1 0x40 MLOAD SWAP1 DUP2 MSTORE RETURN JUMPDEST CALLVALUE PUSH2 0x176 JUMPI PUSH1 0x40 CALLDATASIZE PUSH1 0x3 NOT ADD SLT PUSH2 0x176 JUMPI PUSH2 0x19E6 PUSH2 0x1A17 JUMP JUMPDEST PUSH1 0x1 PUSH1 0x1 PUSH1 0xA0 SHL SUB AND PUSH1 0x0 SWAP1 DUP2 MSTORE PUSH1 0x5 PUSH1 0x20 MSTORE PUSH1 0x40 SWAP1 KECCAK256 DUP1 SLOAD PUSH1 0x24 CALLDATALOAD SWAP2 SWAP1 DUP3 LT ISZERO PUSH2 0x176 JUMPI PUSH1 0x20 SWAP2 PUSH2 0x491 SWAP2 PUSH2 0x1A2D JUMP JUMPDEST PUSH1 0x4 CALLDATALOAD SWAP1 PUSH1 0x1 PUSH1 0x1 PUSH1 0xA0 SHL SUB DUP3 AND DUP3 SUB PUSH2 0x176 JUMPI JUMP JUMPDEST DUP1 SLOAD DUP3 LT ISZERO PUSH2 0x1A45 JUMPI PUSH1 0x0 MSTORE PUSH1 0x20 PUSH1 0x0 KECCAK256 ADD SWAP1 PUSH1 0x0 SWAP1 JUMP JUMPDEST PUSH4 0x4E487B71 PUSH1 0xE0 SHL PUSH1 0x0 MSTORE PUSH1 0x32 PUSH1 0x4 MSTORE PUSH1 0x24 PUSH1 0x0 REVERT JUMPDEST PUSH2 0x200 DUP2 ADD SWAP1 DUP2 LT PUSH1 0x1 PUSH1 0x1 PUSH1 0x40 SHL SUB DUP3 GT OR PUSH2 0x69F JUMPI PUSH1 0x40 MSTORE JUMP JUMPDEST PUSH1 0x60 DUP2 ADD SWAP1 DUP2 LT PUSH1 0x1 PUSH1 0x1 PUSH1 0x40 SHL SUB DUP3 GT OR PUSH2 0x69F JUMPI PUSH1 0x40 MSTORE JUMP JUMPDEST SWAP1 PUSH1 0x1F DUP1 NOT SWAP2 ADD AND DUP2 ADD SWAP1 DUP2 LT PUSH1 0x1 PUSH1 0x1 PUSH1 0x40 SHL SUB DUP3 GT OR PUSH2 0x69F JUMPI PUSH1 0x40 MSTORE JUMP JUMPDEST DUP2 PUSH1 0x1F DUP3 ADD SLT ISZERO PUSH2 0x176 JUMPI DUP1 CALLDATALOAD SWAP1 PUSH1 0x1 PUSH1 0x1 PUSH1 0x40 SHL SUB DUP3 GT PUSH2 0x69F JUMPI PUSH1 0x40 MLOAD SWAP3 PUSH2 0x1AE7 PUSH1 0x1F DUP5 ADD PUSH1 0x1F NOT AND PUSH1 0x20 ADD DUP6 PUSH2 0x1A92 JUMP JUMPDEST DUP3 DUP5 MSTORE PUSH1 0x20 DUP4 DUP4 ADD ADD GT PUSH2 0x176 JUMPI DUP2 PUSH1 0x0 SWAP3 PUSH1 0x20 DUP1 SWAP4 ADD DUP4 DUP7 ADD CALLDATACOPY DUP4 ADD ADD MSTORE SWAP1 JUMP JUMPDEST PUSH1 0x1 PUSH1 0x1 PUSH1 0x40 SHL SUB DUP2 GT PUSH2 0x69F JUMPI PUSH1 0x5 SHL PUSH1 0x20 ADD SWAP1 JUMP JUMPDEST SWAP1 PUSH1 0x1 DUP3 DUP2 SHR SWAP3 AND DUP1 ISZERO PUSH2 0x1B50 JUMPI JUMPDEST PUSH1 0x20 DUP4 LT EQ PUSH2 0x1B3A JUMPI JUMP JUMPDEST PUSH4 0x4E487B71 PUSH1 0xE0 SHL PUSH1 0x0 MSTORE PUSH1 0x22 PUSH1 0x4 MSTORE PUSH1 0x24 PUSH1 0x0 REVERT JUMPDEST SWAP2 PUSH1 0x7F AND SWAP2 PUSH2 0x1B2F JUMP JUMPDEST SWAP1 PUSH1 0x40 MLOAD SWAP2 DUP3 PUSH1 0x0 DUP3 SLOAD SWAP3 PUSH2 0x1B6E DUP5 PUSH2 0x1B20 JUMP JUMPDEST SWAP1 DUP2 DUP5 MSTORE PUSH1 0x1 SWAP5 DUP6 DUP2 AND SWAP1 DUP2 PUSH1 0x0 EQ PUSH2 0x1BDD JUMPI POP PUSH1 0x1 EQ PUSH2 0x1B9A JUMPI JUMPDEST POP POP PUSH2 0x1B98 SWAP3 POP SUB DUP4 PUSH2 0x1A92 JUMP JUMPDEST JUMP JUMPDEST SWAP1 SWAP4 SWAP2 POP PUSH1 0x0 MSTORE PUSH1 0x20 SWAP1 DUP2 PUSH1 0x0 KECCAK256 SWAP4 PUSH1 0x0 SWAP2 JUMPDEST DUP2 DUP4 LT PUSH2 0x1BC5 JUMPI POP POP PUSH2 0x1B98 SWAP4 POP DUP3 ADD ADD CODESIZE DUP1 PUSH2 0x1B8A JUMP JUMPDEST DUP6 SLOAD DUP9 DUP5 ADD DUP6 ADD MSTORE SWAP5 DUP6 ADD SWAP5 DUP8 SWAP5 POP SWAP2 DUP4 ADD SWAP2 PUSH2 0x1BAD JUMP JUMPDEST SWAP2 POP POP PUSH2 0x1B98 SWAP5 POP PUSH1 0x20 SWAP3 POP PUSH1 0xFF NOT AND DUP3 DUP5 ADD MSTORE ISZERO ISZERO PUSH1 0x5 SHL DUP3 ADD ADD CODESIZE DUP1 PUSH2 0x1B8A JUMP JUMPDEST SWAP2 SWAP1 DUP3 MLOAD SWAP3 DUP4 DUP3 MSTORE PUSH1 0x0 JUMPDEST DUP5 DUP2 LT PUSH2 0x1C2C JUMPI POP POP DUP3 PUSH1 0x0 PUSH1 0x20 DUP1 SWAP5 SWAP6 DUP5 ADD ADD MSTORE PUSH1 0x1F DUP1 NOT SWAP2 ADD AND ADD ADD SWAP1 JUMP JUMPDEST PUSH1 0x20 DUP2 DUP4 ADD DUP2 ADD MLOAD DUP5 DUP4 ADD DUP3 ADD MSTORE ADD PUSH2 0x1C0B JUMP JUMPDEST DUP1 SLOAD DUP3 LT ISZERO PUSH2 0x1A45 JUMPI PUSH1 0x0 MSTORE PUSH1 0x3 PUSH1 0x20 PUSH1 0x0 KECCAK256 SWAP2 MUL ADD SWAP1 PUSH1 0x0 SWAP1 JUMP JUMPDEST PUSH1 0x20 SWAP1 DUP2 PUSH1 0x40 DUP2 DUP4 ADD SWAP3 DUP3 DUP2 MSTORE DUP6 MLOAD DUP1 SWAP5 MSTORE ADD SWAP4 ADD SWAP2 PUSH1 0x0 JUMPDEST DUP3 DUP2 LT PUSH2 0x1C83 JUMPI POP POP POP POP SWAP1 JUMP JUMPDEST DUP4 MLOAD DUP6 MSTORE SWAP4 DUP2 ADD SWAP4 SWAP3 DUP2 ADD SWAP3 PUSH1 0x1 ADD PUSH2 0x1C75 JUMP JUMPDEST PUSH1 0x0 SLOAD PUSH1 0x1 PUSH1 0x1 PUSH1 0xA0 SHL SUB AND CALLER SUB PUSH2 0x1CAB JUMPI JUMP JUMPDEST PUSH1 0x40 MLOAD PUSH4 0x118CDAA7 PUSH1 0xE0 SHL DUP2 MSTORE CALLER PUSH1 0x4 DUP3 ADD MSTORE PUSH1 0x24 SWAP1 REVERT JUMPDEST PUSH1 0x0 NOT DUP2 EQ PUSH2 0x673 JUMPI PUSH1 0x1 ADD SWAP1 JUMP JUMPDEST DUP2 DUP2 LT PUSH2 0x1CDD JUMPI POP POP JUMP JUMPDEST PUSH1 0x0 DUP2 SSTORE PUSH1 0x1 ADD PUSH2 0x1CD2 JUMP JUMPDEST DUP1 SLOAD PUSH1 0x1 PUSH1 0x40 SHL DUP2 LT ISZERO PUSH2 0x69F JUMPI PUSH2 0x1D06 SWAP2 PUSH1 0x1 DUP3 ADD DUP2 SSTORE PUSH2 0x1A2D JUMP JUMPDEST DUP2 SWAP3 SWAP2 SLOAD SWAP1 PUSH1 0x3 SHL SWAP2 DUP3 SHL SWAP2 PUSH1 0x0 NOT SWAP1 SHL NOT AND OR SWAP1 SSTORE JUMP JUMPDEST ISZERO PUSH2 0x1D25 JUMPI JUMP JUMPDEST PUSH1 0x40 MLOAD PUSH3 0x461BCD PUSH1 0xE5 SHL DUP2 MSTORE PUSH1 0x20 PUSH1 0x4 DUP3 ADD MSTORE PUSH1 0x15 PUSH1 0x24 DUP3 ADD MSTORE PUSH21 0x41756374696F6E206973206E6F7420616374697665 PUSH1 0x58 SHL PUSH1 0x44 DUP3 ADD MSTORE PUSH1 0x64 SWAP1 REVERT JUMPDEST PUSH1 0x2 PUSH1 0x1 SLOAD EQ PUSH2 0x1D73 JUMPI PUSH1 0x2 PUSH1 0x1 SSTORE JUMP JUMPDEST PUSH1 0x40 MLOAD PUSH4 0x3EE5AEB5 PUSH1 0xE0 SHL DUP2 MSTORE PUSH1 0x4 SWAP1 REVERT JUMPDEST SWAP1 PUSH2 0x1D8F DUP3 PUSH2 0x1B09 JUMP JUMPDEST PUSH2 0x1D9C PUSH1 0x40 MLOAD SWAP2 DUP3 PUSH2 0x1A92 JUMP JUMPDEST DUP3 DUP2 MSTORE DUP1 SWAP3 PUSH2 0x1DAD PUSH1 0x1F NOT SWAP2 PUSH2 0x1B09 JUMP JUMPDEST ADD SWAP1 PUSH1 0x20 CALLDATASIZE SWAP2 ADD CALLDATACOPY JUMP JUMPDEST DUP1 MLOAD DUP3 LT ISZERO PUSH2 0x1A45 JUMPI PUSH1 0x20 SWAP2 PUSH1 0x5 SHL ADD ADD SWAP1 JUMP INVALID LOG2 PUSH5 0x6970667358 0x22 SLT KECCAK256 0xB5 BALANCE 0xE7 0xD7 0xD SDIV 0xEA 0xD6 0xF8 0x4A 0xBA BASEFEE NUMBER SAR ADDRESS GASLIMIT 0xD6 KECCAK256 DUP13 0xCF 0xBE 0x49 BASEFEE SWAP13 CALLVALUE LOG3 GASLIMIT 0xAE 0x2A 0xC6 BYTE PUSH19 0x64736F6C634300081400330000000000000000 "},"methodIdentifiers":{"AUCTION_DURATION()":"a271e525","MIN_BID_INCREMENT()":"71943bce","auctionBids(uint256,uint256)":"5f93de49","auctions(uint256)":"571a26a0","bidderAuctions(address,uint256)":"1cb8dd1c","cancelAuction(uint256)":"96b5a755","createAuction(string,string,uint256,uint256,string,uint256,string,string[])":"524b9b6a","farmerAuctions(address,uint256)":"b0302349","finalizeAuction(uint256)":"e8083863","getActiveAuctions()":"cf44b5d5","getAuction(uint256)":"78bd7935","getAuctionBids(uint256)":"70b4768e","getBidderAuctions(address)":"62910b59","getFarmerAuctions(address)":"b8c62d32","getTotalAuctions()":"3ef14cc8","owner()":"8da5cb5b","placeBid(uint256)":"9979ef45","renounceOwnership()":"715018a6","transferOwnership(address)":"f2fde38b"}}}}}