{"contracts/ProvenanceContract.sol":{"ProvenanceContract":{"abi":[{"inputs":[],"stateMutability":"nonpayable","type":"constructor"},{"inputs":[{"internalType":"address","name":"owner","type":"address"}],"name":"OwnableInvalidOwner","type":"error"},{"inputs":[{"internalType":"address","name":"account","type":"address"}],"name":"OwnableUnauthorizedAccount","type":"error"},{"anonymous":false,"inputs":[{"indexed":true,"internalType":"address","name":"previousOwner","type":"address"},{"indexed":true,"internalType":"address","name":"newOwner","type":"address"}],"name":"OwnershipTransferred","type":"event"},{"anonymous":false,"inputs":[{"indexed":true,"internalType":"uint256","name":"productId","type":"uint256"},{"indexed":true,"internalType":"address","name":"farmer","type":"address"},{"indexed":false,"internalType":"string","name":"crop","type":"string"},{"indexed":false,"internalType":"string","name":"qrCode","type":"string"}],"name":"ProductCreated","type":"event"},{"anonymous":false,"inputs":[{"indexed":true,"internalType":"uint256","name":"productId","type":"uint256"},{"indexed":false,"internalType":"enum ProvenanceContract.Stage","name":"stage","type":"uint8"},{"indexed":false,"internalType":"address","name":"actor","type":"address"},{"indexed":false,"internalType":"string","name":"location","type":"string"}],"name":"StageAdded","type":"event"},{"inputs":[{"internalType":"uint256","name":"_productId","type":"uint256"},{"internalType":"enum ProvenanceContract.Stage","name":"_stage","type":"uint8"},{"internalType":"string","name":"_location","type":"string"},{"internalType":"string","name":"_notes","type":"string"}],"name":"addStage","outputs":[],"stateMutability":"nonpayable","type":"function"},{"inputs":[{"internalType":"string","name":"_crop","type":"string"},{"internalType":"uint256","name":"_quantity","type":"uint256"},{"internalType":"string","name":"_location","type":"string"},{"internalType":"string","name":"_qrCode","type":"string"}],"name":"createProduct","outputs":[{"internalType":"uint256","name":"","type":"uint256"}],"stateMutability":"nonpayable","type":"function"},{"inputs":[{"internalType":"string","name":"_qrCode","type":"string"}],"name":"getProductByQR","outputs":[{"internalType":"uint256","name":"productId","type":"uint256"},{"internalType":"address","name":"farmer","type":"address"},{"internalType":"string","name":"crop","type":"string"},{"internalType":"uint256","name":"quantity","type":"uint256"},{"internalType":"string","name":"location","type":"string"},{"internalType":"uint256","name":"harvestDate","type":"uint256"}],"stateMutability":"view","type":"function"},{"inputs":[{"internalType":"uint256","name":"_productId","type":"uint256"}],"name":"getProductStages","outputs":[{"components":[{"internalType":"enum ProvenanceContract.Stage","name":"stage","type":"uint8"},{"internalType":"address","name":"actor","type":"address"},{"internalType":"uint256","name":"timestamp","type":"uint256"},{"internalType":"string","name":"location","type":"string"},{"internalType":"string","name":"notes","type":"string"}],"internalType":"struct ProvenanceContract.StageRecord[]","name":"","type":"tuple[]"}],"stateMutability":"view","type":"function"},{"inputs":[],"name":"getTotalProducts","outputs":[{"internalType":"uint256","name":"","type":"uint256"}],"stateMutability":"view","type":"function"},{"inputs":[{"internalType":"address","name":"_user","type":"address"}],"name":"getUserProducts","outputs":[{"internalType":"uint256[]","name":"","type":"uint256[]"}],"stateMutability":"view","type":"function"},{"inputs":[],"name":"owner","outputs":[{"internalType":"address","name":"","type":"address"}],"stateMutability":"view","type":"function"},{"inputs":[{"internalType":"uint256","name":"","type":"uint256"},{"internalType":"uint256","name":"","type":"uint256"}],"name":"productStages","outputs":[{"internalType":"enum ProvenanceContract.Stage","name":"stage","type":"uint8"},{"internalType":"address","name":"actor","type":"address"},{"internalType":"uint256","name":"timestamp","type":"uint256"},{"internalType":"string","name":"location","type":"string"},{"internalType":"string","name":"notes","type":"string"}],"stateMutability":"view","type":"function"},{"inputs":[{"internalType":"uint256","name":"","type":"uint256"}],"name":"products","outputs":[{"internalType":"uint256","name":"productId","type":"uint256"},{"internalType":"address","name":"farmer","type":"address"},{"internalType":"string","name":"crop","type":"string"},{"internalType":"uint256","name":"quantity","type":"uint256"},{"internalType":"string","name":"location","type":"string"},{"internalType":"uint256","name":"harvestDate","type":"uint256"},{"internalType":"string","name":"qrCode","type":"string"},{"internalType":"bool","name":"isActive","type":"bool"}],"stateMutability":"view","type":"function"},{"inputs":[{"internalType":"string","name":"","type":"string"}],"name":"qrCodeToProduct","outputs":[{"internalType":"uint256","name":"","type":"uint256"}],"stateMutability":"view","type":"function"},{"inputs":[],"name":"renounceOwnership","outputs":[],"stateMutability":"nonpayable","type":"function"},{"inputs":[{"internalType":"address","name":"newOwner","type":"address"}],"name":"transferOwnership","outputs":[],"stateMutability":"nonpayable","type":"function"},{"inputs":[{"internalType":"address","name":"","type":"address"},{"internalType":"uint256","name":"","type":"uint256"}],"name":"userProducts","outputs":[{"internalType":"uint256","name":"","type":"uint256"}],"stateMutability":"view","type":"function"}],"evm":{"bytecode":{"linkReferences":{},"object":"6080806040523461007a5733156100645760008054336001600160a01b03198216811783556040519290916001600160a01b0316907f8be0079c531659141344cd1fd0a4f28419497f9722a3daafe3b4186f6b6457e09080a361181d90816100808239f35b631e4fbdf760e01b815260006004820152602490fd5b600080fdfe6080604052600436101561001257600080fd5b60003560e01c8063031c3154146114e357806307877cff14610b655780632a727af1146107925780633d5278831461073a578063570aea8a1461071c578063715018a6146106c35780637acc0b20146105fe5780638da5cb5b146105d5578063bc765f591461052a578063e80e59c8146103b5578063f2fde38b14610327578063f389e477146101645763fee7f53b146100ab57600080fd5b3461015f5760208060031936011261015f576001600160a01b036100cd6115fd565b1660005260048152604060002060405190818382549182815201908192600052846000209060005b8682821061014b57868661010b82880383611563565b604051928392818401908285525180915260408401929160005b82811061013457505050500390f35b835185528695509381019392810192600101610125565b8354855290930192600192830192016100f5565b600080fd5b3461015f5760208060031936011261015f57600435908160005260019182825260ff9061019a826007604060002001541661179b565b6000526002908183526040600020918254906001600160401b038211610311579391604095939551946101d2848460051b0187611563565b82865283860191829760005284600020916000935b85851061029f57505050505050604051928184019082855251809152604084019160408260051b86010195926000905b8382106102245786880387f35b9091929394838061028e839a603f198b82030186528951610246828251611762565b808401516001600160a01b0316828501526040808201519083015260608082015160a091840182905261027b91840190611721565b9160808092015191818403910152611721565b999701959493919091019101610217565b96600487829b9960409b999b516102b581611548565b87546102c3888216836117db565b60081c6001600160a01b0316818401528785015460408201526102e786890161167b565b60608201526102f86003890161167b565b60808201528152019401940193929896989795976101e7565b634e487b7160e01b600052604160045260246000fd5b3461015f57602036600319011261015f576103406115fd565b61034861176f565b6001600160a01b0390811690811561039c57600054826bffffffffffffffffffffffff60a01b821617600055167f8be0079c531659141344cd1fd0a4f28419497f9722a3daafe3b4186f6b6457e0600080a3005b604051631e4fbdf760e01b815260006004820152602490fd5b3461015f5760208060031936011261015f576004356001600160401b03811161015f57816103ea6103fd923690600401611584565b81604051938285809451938492016115da565b810160038152030190205480156104f1576000526001815260406000206040516104268161152c565b8154815260018201546001600160a01b039081168483019081529290916104e7916104d46104566002830161167b565b9460408401958652600383015490606085019182526104776004850161167b565b946080810195865260ff600760058701549660a0840197885261049c6006820161167b565b60c0850152015416151560e082015251975116955190519351925195604051988998895288015260c0604088015260c0870190611721565b9160608601528482036080860152611721565b9060a08301520390f35b60405162461bcd60e51b815260048101839052601160248201527014548818dbd919481b9bdd08199bdd5b99607a1b6044820152606490fd5b3461015f57604036600319011261015f576024356004356000526002602052604060002090815481101561015f5761056191611746565b5080546105d16001830154926105c361058860036105816002850161167b565b930161167b565b91604051958561059c8860ff819916611762565b60081c6001600160a01b03166020870152604086015260a060608601819052850190611721565b908382036080850152611721565b0390f35b3461015f57600036600319011261015f576000546040516001600160a01b039091168152602090f35b3461015f57602036600319011261015f5760043560005260016020526040600020805460018060a01b03600183015416916106b761063e6002830161167b565b916003810154906106a46106546004830161167b565b9260058301549361069160ff600761066e6006880161167b565b96015416976040519a8b9a8b5260208b01526101008060408c01528a0190611721565b9160608901528782036080890152611721565b9160a086015284820360c0860152611721565b90151560e08301520390f35b3461015f57600036600319011261015f576106dc61176f565b600080546001600160a01b0319811682556001600160a01b03167f8be0079c531659141344cd1fd0a4f28419497f9722a3daafe3b4186f6b6457e08280a3005b3461015f57600036600319011261015f576020600554604051908152f35b3461015f57604036600319011261015f576107536115fd565b6001600160a01b031660009081526004602052604090208054602435919082101561015f5760209161078491611613565b90546040519160031b1c8152f35b3461015f57608036600319011261015f576007602435101561015f576044356001600160401b03811161015f576107cd903690600401611584565b6064356001600160401b03811161015f576107ec903690600401611584565b90600435600052600160205261080c60ff6007604060002001541661179b565b600435600052600260205260406000206040519261082984611548565b610835602435856117db565b60208401913383526040850190428252606086019285845260808701528054600160401b8110156103115761086f91600182018155611746565b939093610b4f578551906007821015610b395784549051610100600160a81b0360089190911b1660ff929092166001600160a81b031990911617178355516001830155518051906001600160401b038211610311576108d16002840154611641565b601f8111610af2575b50602090601f8311600114610a8057918060809492600394600092610a75575b50508160011b9160001990851b1c19161760028201555b019201519182516001600160401b038111610311576109308254611641565b601f8111610a2d575b506020601f82116001146109c757819293946000926109bc575b50508160011b916000199060031b1c19161790555b7fac3e7ee33c0dd06bd92a3da6ad28996195b0516b84c127789df70c1760c7754f60405161099881602435611762565b33602082015260606040820152806109b7600435946060830190611721565b0390a2005b015190508480610953565b601f198216908360005260206000209160005b818110610a15575095836001959697106109fc575b505050811b019055610968565b015160001960f88460031b161c191690558480806109ef565b9192602060018192868b0151815501940192016109da565b826000526020600020601f830160051c81019160208410610a6b575b601f0160051c01905b818110610a5f5750610939565b60008155600101610a52565b9091508190610a49565b0151905087806108fa565b90601f198316916002850160005260206000209260005b818110610ada57509260019285926003966080989610610ac2575b505050811b016002820155610911565b015160001983871b60f8161c19169055878080610ab2565b92936020600181928786015181550195019301610a97565b600284016000526020600020601f840160051c810160208510610b32575b601f830160051c82018110610b265750506108da565b60008155600101610b10565b5080610b10565b634e487b7160e01b600052602160045260246000fd5b634e487b7160e01b600052600060045260246000fd5b3461015f57608036600319011261015f576004356001600160401b03811161015f57610b95903690600401611584565b6044356001600160401b03811161015f57610bb4903690600401611584565b906064356001600160401b03811161015f57610bd4903690600401611584565b908051156114a9576024351561146d576040516020818451610bf981838589016115da565b810160038152030190205461142f576005549160001983146114195760018301600555604051610c288161152c565b60018401815233602082015282604082015260243560608201528460808201524260a08201528160c0820152600160e08201526001840160005260016020526040600020815181556001810160018060a01b036020840151166bffffffffffffffffffffffff60a01b82541617905560408201518051906001600160401b038211610311578190610cbc6002850154611641565b601f81116113c6575b50602090601f831160011461135457600092611349575b50508160011b916000199060031b1c19161760028201555b6060820151600382015560808201518051906001600160401b038211610311578190610d236004850154611641565b601f81116112f6575b50602090601f831160011461128457600092611279575b50508160011b916000199060031b1c19161760048201555b60a0820151600582015560c08201518051906001600160401b03821161031157610d886006840154611641565b601f8111611232575b50602090601f83116001146111bd57918060e094926007946000926111b2575b50508160011b916000199060031b1c19161760068201555b01910151151560ff801983541691161790556040518151610dee8183602086016115da565b810190600382526020816001870193030190205533600052600460205260406000208054600160401b81101561031157610e2d91600182018155611613565b81549060031b9060018601821b91600019901b19161790556040518060408101106001600160401b036040830111176103115760408101604052600f81526e141c9bd91d58dd0818dc99585d1959608a1b602082015260018401600052600260205260406000209060405195610ea287611548565b60008752336020880152426040880152606087015260808601528054600160401b81101561031157610ed991600182018155611746565b610b4f5784516007811015610b395781546020870151610100600160a81b0360089190911b1660ff929092166001600160a81b0319909116171781556040850151600182015560608501518051906001600160401b03821161031157610f426002840154611641565b601f811161116b575b50602090601f83116001146110f7579180608094926003946000926110ec575b50508160011b9160001990851b1c19161760028201555b019401519384516001600160401b03811161031157610fa18254611641565b601f81116110a4575b50806020968790601f831160011461104057600092611035575b50508160011b916000199060031b1c19161790555b7f5b6548625353cfbb6de6bbb313a0b1cf8efbb45f2874f24c9d352590e3e366ff61100f60405193604085526040850190611721565b92808403868201528061102733956001880195611721565b0390a3600160405191018152f35b015190508780610fc4565b60008581528981209350601f198516905b81811061108d5750908460019594939210611074575b505050811b019055610fd9565b015160001960f88460031b161c19169055878080611067565b92938a600181928786015181550195019301611051565b826000526020600020601f830160051c810191602084106110e2575b601f0160051c01905b8181106110d65750610faa565b600081556001016110c9565b90915081906110c0565b015190508980610f6b565b906002840160005260206000209160005b601f19851681106111535750926080949260019260039583601f1981161061113b575b505050811b016002820155610f82565b015160001983871b60f8161c1916905589808061112b565b91926020600181928685015181550194019201611108565b600284016000526020600020601f840160051c8101602085106111ab575b601f830160051c8201811061119f575050610f4b565b60008155600101611189565b5080611189565b015190508a80610db1565b906006840160005260206000209160005b601f198516811061121a57509260e0949260019260079583601f19811610611201575b505050811b016006820155610dc9565b015160001960f88460031b161c191690558a80806111f1565b919260206001819286850151815501940192016111ce565b600684016000526020600020601f840160051c810160208510611272575b601f830160051c82018110611266575050610d91565b60008155600101611250565b5080611250565b015190508880610d43565b9250600484016000526020600020906000935b601f19841685106112db576001945083601f198116106112c2575b505050811b016004820155610d5b565b015160001960f88460031b161c191690558880806112b2565b81810151835560209485019460019093019290910190611297565b909150600484016000526020600020601f840160051c810160208510611342575b90849392915b601f830160051c82018110611333575050610d2c565b6000815585945060010161131d565b5080611317565b015190508880610cdc565b9250600284016000526020600020906000935b601f19841685106113ab576001945083601f19811610611392575b505050811b016002820155610cf4565b015160001960f88460031b161c19169055888080611382565b81810151835560209485019460019093019290910190611367565b909150600284016000526020600020601f840160051c810160208510611412575b90849392915b601f830160051c82018110611403575050610cc5565b600081558594506001016113ed565b50806113e7565b634e487b7160e01b600052601160045260246000fd5b60405162461bcd60e51b8152602060048201526016602482015275515220636f646520616c72656164792065786973747360501b6044820152606490fd5b60405162461bcd60e51b815260206004820152601460248201527305175616e74697479206d757374206265203e20360641b6044820152606490fd5b60405162461bcd60e51b815260206004820152601260248201527110dc9bdc081b985b59481c995c5d5a5c995960721b6044820152606490fd5b3461015f57602036600319011261015f576004356001600160401b03811161015f5761151960206103ea81933690600401611584565b8101600381520301902054604051908152f35b61010081019081106001600160401b0382111761031157604052565b60a081019081106001600160401b0382111761031157604052565b90601f801991011681019081106001600160401b0382111761031157604052565b81601f8201121561015f578035906001600160401b03821161031157604051926115b8601f8401601f191660200185611563565b8284526020838301011161015f57816000926020809301838601378301015290565b60005b8381106115ed5750506000910152565b81810151838201526020016115dd565b600435906001600160a01b038216820361015f57565b805482101561162b5760005260206000200190600090565b634e487b7160e01b600052603260045260246000fd5b90600182811c92168015611671575b602083101461165b57565b634e487b7160e01b600052602260045260246000fd5b91607f1691611650565b906040519182600082549261168f84611641565b9081845260019485811690816000146116fe57506001146116bb575b50506116b992500383611563565b565b9093915060005260209081600020936000915b8183106116e65750506116b9935082010138806116ab565b855488840185015294850194879450918301916116ce565b9150506116b994506020925060ff191682840152151560051b82010138806116ab565b9060209161173a815180928185528580860191016115da565b601f01601f1916010190565b805482101561162b5760005260206000209060021b0190600090565b906007821015610b395752565b6000546001600160a01b0316330361178357565b60405163118cdaa760e01b8152336004820152602490fd5b156117a257565b60405162461bcd60e51b8152602060048201526011602482015270141c9bd91d58dd081b9bdd08199bdd5b99607a1b6044820152606490fd5b6007821015610b39575256fea264697066735822122098e0ea19273f2d840b0b523bb69f6726fc2f4c02c1573e353d3015fbad1c43f364736f6c63430008140033","opcodes":"PUSH1 0x80 DUP1 PUSH1 0x40 MSTORE CALLVALUE PUSH2 0x7A JUMPI CALLER ISZERO PUSH2 0x64 JUMPI PUSH1 0x0 DUP1 SLOAD CALLER PUSH1 0x1 PUSH1 0x1 PUSH1 0xA0 SHL SUB NOT DUP3 AND DUP2 OR DUP4 SSTORE PUSH1 0x40 MLOAD SWAP3 SWAP1 SWAP2 PUSH1 0x1 PUSH1 0x1 PUSH1 0xA0 SHL SUB AND SWAP1 PUSH32 0x8BE0079C531659141344CD1FD0A4F28419497F9722A3DAAFE3B4186F6B6457E0 SWAP1 DUP1 LOG3 PUSH2 0x181D SWAP1 DUP2 PUSH2 0x80 DUP3 CODECOPY RETURN JUMPDEST PUSH4 0x1E4FBDF7 PUSH1 0xE0 SHL DUP2 MSTORE PUSH1 0x0 PUSH1 0x4 DUP3 ADD MSTORE PUSH1 0x24 SWAP1 REVERT JUMPDEST PUSH1 0x0 DUP1 REVERT INVALID PUSH1 0x80 PUSH1 0x40 MSTORE PUSH1 0x4 CALLDATASIZE LT ISZERO PUSH2 0x12 JUMPI PUSH1 0x0 DUP1 REVERT JUMPDEST PUSH1 0x0 CALLDATALOAD PUSH1 0xE0 SHR DUP1 PUSH4 0x31C3154 EQ PUSH2 0x14E3 JUMPI DUP1 PUSH4 0x7877CFF EQ PUSH2 0xB65 JUMPI DUP1 PUSH4 0x2A727AF1 EQ PUSH2 0x792 JUMPI DUP1 PUSH4 0x3D527883 EQ PUSH2 0x73A JUMPI DUP1 PUSH4 0x570AEA8A EQ PUSH2 0x71C JUMPI DUP1 PUSH4 0x715018A6 EQ PUSH2 0x6C3 JUMPI DUP1 PUSH4 0x7ACC0B20 EQ PUSH2 0x5FE JUMPI DUP1 PUSH4 0x8DA5CB5B EQ PUSH2 0x5D5 JUMPI DUP1 PUSH4 0xBC765F59 EQ PUSH2 0x52A JUMPI DUP1 PUSH4 0xE80E59C8 EQ PUSH2 0x3B5 JUMPI DUP1 PUSH4 0xF2FDE38B EQ PUSH2 0x327 JUMPI DUP1 PUSH4 0xF389E477 EQ PUSH2 0x164 JUMPI PUSH4 0xFEE7F53B EQ PUSH2 0xAB JUMPI PUSH1 0x0 DUP1 REVERT JUMPDEST CALLVALUE PUSH2 0x15F JUMPI PUSH1 0x20 DUP1 PUSH1 0x3 NOT CALLDATASIZE ADD SLT PUSH2 0x15F JUMPI PUSH1 0x1 PUSH1 0x1 PUSH1 0xA0 SHL SUB PUSH2 0xCD PUSH2 0x15FD JUMP JUMPDEST AND PUSH1 0x0 MSTORE PUSH1 0x4 DUP2 MSTORE PUSH1 0x40 PUSH1 0x0 KECCAK256 PUSH1 0x40 MLOAD SWAP1 DUP2 DUP4 DUP3 SLOAD SWAP2 DUP3 DUP2 MSTORE ADD SWAP1 DUP2 SWAP3 PUSH1 0x0 MSTORE DUP5 PUSH1 0x0 KECCAK256 SWAP1 PUSH1 0x0 JUMPDEST DUP7 DUP3 DUP3 LT PUSH2 0x14B JUMPI DUP7 DUP7 PUSH2 0x10B DUP3 DUP9 SUB DUP4 PUSH2 0x1563 JUMP JUMPDEST PUSH1 0x40 MLOAD SWAP3 DUP4 SWAP3 DUP2 DUP5 ADD SWAP1 DUP3 DUP6 MSTORE MLOAD DUP1 SWAP2 MSTORE PUSH1 0x40 DUP5 ADD SWAP3 SWAP2 PUSH1 0x0 JUMPDEST DUP3 DUP2 LT PUSH2 0x134 JUMPI POP POP POP POP SUB SWAP1 RETURN JUMPDEST DUP4 MLOAD DUP6 MSTORE DUP7 SWAP6 POP SWAP4 DUP2 ADD SWAP4 SWAP3 DUP2 ADD SWAP3 PUSH1 0x1 ADD PUSH2 0x125 JUMP JUMPDEST DUP4 SLOAD DUP6 MSTORE SWAP1 SWAP4 ADD SWAP3 PUSH1 0x1 SWAP3 DUP4 ADD SWAP3 ADD PUSH2 0xF5 JUMP JUMPDEST PUSH1 0x0 DUP1 REVERT JUMPDEST CALLVALUE PUSH2 0x15F JUMPI PUSH1 0x20 DUP1 PUSH1 0x3 NOT CALLDATASIZE ADD SLT PUSH2 0x15F JUMPI PUSH1 0x4 CALLDATALOAD SWAP1 DUP2 PUSH1 0x0 MSTORE PUSH1 0x1 SWAP2 DUP3 DUP3 MSTORE PUSH1 0xFF SWAP1 PUSH2 0x19A DUP3 PUSH1 0x7 PUSH1 0x40 PUSH1 0x0 KECCAK256 ADD SLOAD AND PUSH2 0x179B JUMP JUMPDEST PUSH1 0x0 MSTORE PUSH1 0x2 SWAP1 DUP2 DUP4 MSTORE PUSH1 0x40 PUSH1 0x0 KECCAK256 SWAP2 DUP3 SLOAD SWAP1 PUSH1 0x1 PUSH1 0x1 PUSH1 0x40 SHL SUB DUP3 GT PUSH2 0x311 JUMPI SWAP4 SWAP2 PUSH1 0x40 SWAP6 SWAP4 SWAP6 MLOAD SWAP5 PUSH2 0x1D2 DUP5 DUP5 PUSH1 0x5 SHL ADD DUP8 PUSH2 0x1563 JUMP JUMPDEST DUP3 DUP7 MSTORE DUP4 DUP7 ADD SWAP2 DUP3 SWAP8 PUSH1 0x0 MSTORE DUP5 PUSH1 0x0 KECCAK256 SWAP2 PUSH1 0x0 SWAP4 JUMPDEST DUP6 DUP6 LT PUSH2 0x29F JUMPI POP POP POP POP POP POP PUSH1 0x40 MLOAD SWAP3 DUP2 DUP5 ADD SWAP1 DUP3 DUP6 MSTORE MLOAD DUP1 SWAP2 MSTORE PUSH1 0x40 DUP5 ADD SWAP2 PUSH1 0x40 DUP3 PUSH1 0x5 SHL DUP7 ADD ADD SWAP6 SWAP3 PUSH1 0x0 SWAP1 JUMPDEST DUP4 DUP3 LT PUSH2 0x224 JUMPI DUP7 DUP9 SUB DUP8 RETURN JUMPDEST SWAP1 SWAP2 SWAP3 SWAP4 SWAP5 DUP4 DUP1 PUSH2 0x28E DUP4 SWAP11 PUSH1 0x3F NOT DUP12 DUP3 SUB ADD DUP7 MSTORE DUP10 MLOAD PUSH2 0x246 DUP3 DUP3 MLOAD PUSH2 0x1762 JUMP JUMPDEST DUP1 DUP5 ADD MLOAD PUSH1 0x1 PUSH1 0x1 PUSH1 0xA0 SHL SUB AND DUP3 DUP6 ADD MSTORE PUSH1 0x40 DUP1 DUP3 ADD MLOAD SWAP1 DUP4 ADD MSTORE PUSH1 0x60 DUP1 DUP3 ADD MLOAD PUSH1 0xA0 SWAP2 DUP5 ADD DUP3 SWAP1 MSTORE PUSH2 0x27B SWAP2 DUP5 ADD SWAP1 PUSH2 0x1721 JUMP JUMPDEST SWAP2 PUSH1 0x80 DUP1 SWAP3 ADD MLOAD SWAP2 DUP2 DUP5 SUB SWAP2 ADD MSTORE PUSH2 0x1721 JUMP JUMPDEST SWAP10 SWAP8 ADD SWAP6 SWAP5 SWAP4 SWAP2 SWAP1 SWAP2 ADD SWAP2 ADD PUSH2 0x217 JUMP JUMPDEST SWAP7 PUSH1 0x4 DUP8 DUP3 SWAP12 SWAP10 PUSH1 0x40 SWAP12 SWAP10 SWAP12 MLOAD PUSH2 0x2B5 DUP2 PUSH2 0x1548 JUMP JUMPDEST DUP8 SLOAD PUSH2 0x2C3 DUP9 DUP3 AND DUP4 PUSH2 0x17DB JUMP JUMPDEST PUSH1 0x8 SHR PUSH1 0x1 PUSH1 0x1 PUSH1 0xA0 SHL SUB AND DUP2 DUP5 ADD MSTORE DUP8 DUP6 ADD SLOAD PUSH1 0x40 DUP3 ADD MSTORE PUSH2 0x2E7 DUP7 DUP10 ADD PUSH2 0x167B JUMP JUMPDEST PUSH1 0x60 DUP3 ADD MSTORE PUSH2 0x2F8 PUSH1 0x3 DUP10 ADD PUSH2 0x167B JUMP JUMPDEST PUSH1 0x80 DUP3 ADD MSTORE DUP2 MSTORE ADD SWAP5 ADD SWAP5 ADD SWAP4 SWAP3 SWAP9 SWAP7 SWAP9 SWAP8 SWAP6 SWAP8 PUSH2 0x1E7 JUMP JUMPDEST PUSH4 0x4E487B71 PUSH1 0xE0 SHL PUSH1 0x0 MSTORE PUSH1 0x41 PUSH1 0x4 MSTORE PUSH1 0x24 PUSH1 0x0 REVERT JUMPDEST CALLVALUE PUSH2 0x15F JUMPI PUSH1 0x20 CALLDATASIZE PUSH1 0x3 NOT ADD SLT PUSH2 0x15F JUMPI PUSH2 0x340 PUSH2 0x15FD JUMP JUMPDEST PUSH2 0x348 PUSH2 0x176F JUMP JUMPDEST PUSH1 0x1 PUSH1 0x1 PUSH1 0xA0 SHL SUB SWAP1 DUP2 AND SWAP1 DUP2 ISZERO PUSH2 0x39C JUMPI PUSH1 0x0 SLOAD DUP3 PUSH12 0xFFFFFFFFFFFFFFFFFFFFFFFF PUSH1 0xA0 SHL DUP3 AND OR PUSH1 0x0 SSTORE AND PUSH32 0x8BE0079C531659141344CD1FD0A4F28419497F9722A3DAAFE3B4186F6B6457E0 PUSH1 0x0 DUP1 LOG3 STOP JUMPDEST PUSH1 0x40 MLOAD PUSH4 0x1E4FBDF7 PUSH1 0xE0 SHL DUP2 MSTORE PUSH1 0x0 PUSH1 0x4 DUP3 ADD MSTORE PUSH1 0x24 SWAP1 REVERT JUMPDEST CALLVALUE PUSH2 0x15F JUMPI PUSH1 0x20 DUP1 PUSH1 0x3 NOT CALLDATASIZE ADD SLT PUSH2 0x15F JUMPI PUSH1 0x4 CALLDATALOAD PUSH1 0x1 PUSH1 0x1 PUSH1 0x40 SHL SUB DUP2 GT PUSH2 0x15F JUMPI DUP2 PUSH2 0x3EA PUSH2 0x3FD SWAP3 CALLDATASIZE SWAP1 PUSH1 0x4 ADD PUSH2 0x1584 JUMP JUMPDEST DUP2 PUSH1 0x40 MLOAD SWAP4 DUP3 DUP6 DUP1 SWAP5 MLOAD SWAP4 DUP5 SWAP3 ADD PUSH2 0x15DA JUMP JUMPDEST DUP2 ADD PUSH1 0x3 DUP2 MSTORE SUB ADD SWAP1 KECCAK256 SLOAD DUP1 ISZERO PUSH2 0x4F1 JUMPI PUSH1 0x0 MSTORE PUSH1 0x1 DUP2 MSTORE PUSH1 0x40 PUSH1 0x0 KECCAK256 PUSH1 0x40 MLOAD PUSH2 0x426 DUP2 PUSH2 0x152C JUMP JUMPDEST DUP2 SLOAD DUP2 MSTORE PUSH1 0x1 DUP3 ADD SLOAD PUSH1 0x1 PUSH1 0x1 PUSH1 0xA0 SHL SUB SWAP1 DUP2 AND DUP5 DUP4 ADD SWAP1 DUP2 MSTORE SWAP3 SWAP1 SWAP2 PUSH2 0x4E7 SWAP2 PUSH2 0x4D4 PUSH2 0x456 PUSH1 0x2 DUP4 ADD PUSH2 0x167B JUMP JUMPDEST SWAP5 PUSH1 0x40 DUP5 ADD SWAP6 DUP7 MSTORE PUSH1 0x3 DUP4 ADD SLOAD SWAP1 PUSH1 0x60 DUP6 ADD SWAP2 DUP3 MSTORE PUSH2 0x477 PUSH1 0x4 DUP6 ADD PUSH2 0x167B JUMP JUMPDEST SWAP5 PUSH1 0x80 DUP2 ADD SWAP6 DUP7 MSTORE PUSH1 0xFF PUSH1 0x7 PUSH1 0x5 DUP8 ADD SLOAD SWAP7 PUSH1 0xA0 DUP5 ADD SWAP8 DUP9 MSTORE PUSH2 0x49C PUSH1 0x6 DUP3 ADD PUSH2 0x167B JUMP JUMPDEST PUSH1 0xC0 DUP6 ADD MSTORE ADD SLOAD AND ISZERO ISZERO PUSH1 0xE0 DUP3 ADD MSTORE MLOAD SWAP8 MLOAD AND SWAP6 MLOAD SWAP1 MLOAD SWAP4 MLOAD SWAP3 MLOAD SWAP6 PUSH1 0x40 MLOAD SWAP9 DUP10 SWAP9 DUP10 MSTORE DUP9 ADD MSTORE PUSH1 0xC0 PUSH1 0x40 DUP9 ADD MSTORE PUSH1 0xC0 DUP8 ADD SWAP1 PUSH2 0x1721 JUMP JUMPDEST SWAP2 PUSH1 0x60 DUP7 ADD MSTORE DUP5 DUP3 SUB PUSH1 0x80 DUP7 ADD MSTORE PUSH2 0x1721 JUMP JUMPDEST SWAP1 PUSH1 0xA0 DUP4 ADD MSTORE SUB SWAP1 RETURN JUMPDEST PUSH1 0x40 MLOAD PUSH3 0x461BCD PUSH1 0xE5 SHL DUP2 MSTORE PUSH1 0x4 DUP2 ADD DUP4 SWAP1 MSTORE PUSH1 0x11 PUSH1 0x24 DUP3 ADD MSTORE PUSH17 0x14548818DBD919481B9BDD08199BDD5B99 PUSH1 0x7A SHL PUSH1 0x44 DUP3 ADD MSTORE PUSH1 0x64 SWAP1 REVERT JUMPDEST CALLVALUE PUSH2 0x15F JUMPI PUSH1 0x40 CALLDATASIZE PUSH1 0x3 NOT ADD SLT PUSH2 0x15F JUMPI PUSH1 0x24 CALLDATALOAD PUSH1 0x4 CALLDATALOAD PUSH1 0x0 MSTORE PUSH1 0x2 PUSH1 0x20 MSTORE PUSH1 0x40 PUSH1 0x0 KECCAK256 SWAP1 DUP2 SLOAD DUP2 LT ISZERO PUSH2 0x15F JUMPI PUSH2 0x561 SWAP2 PUSH2 0x1746 JUMP JUMPDEST POP DUP1 SLOAD PUSH2 0x5D1 PUSH1 0x1 DUP4 ADD SLOAD SWAP3 PUSH2 0x5C3 PUSH2 0x588 PUSH1 0x3 PUSH2 0x581 PUSH1 0x2 DUP6 ADD PUSH2 0x167B JUMP JUMPDEST SWAP4 ADD PUSH2 0x167B JUMP JUMPDEST SWAP2 PUSH1 0x40 MLOAD SWAP6 DUP6 PUSH2 0x59C DUP9 PUSH1 0xFF DUP2 SWAP10 AND PUSH2 0x1762 JUMP JUMPDEST PUSH1 0x8 SHR PUSH1 0x1 PUSH1 0x1 PUSH1 0xA0 SHL SUB AND PUSH1 0x20 DUP8 ADD MSTORE PUSH1 0x40 DUP7 ADD MSTORE PUSH1 0xA0 PUSH1 0x60 DUP7 ADD DUP2 SWAP1 MSTORE DUP6 ADD SWAP1 PUSH2 0x1721 JUMP JUMPDEST SWAP1 DUP4 DUP3 SUB PUSH1 0x80 DUP6 ADD MSTORE PUSH2 0x1721 JUMP JUMPDEST SUB SWAP1 RETURN JUMPDEST CALLVALUE PUSH2 0x15F JUMPI PUSH1 0x0 CALLDATASIZE PUSH1 0x3 NOT ADD SLT PUSH2 0x15F JUMPI PUSH1 0x0 SLOAD PUSH1 0x40 MLOAD PUSH1 0x1 PUSH1 0x1 PUSH1 0xA0 SHL SUB SWAP1 SWAP2 AND DUP2 MSTORE PUSH1 0x20 SWAP1 RETURN JUMPDEST CALLVALUE PUSH2 0x15F JUMPI PUSH1 0x20 CALLDATASIZE PUSH1 0x3 NOT ADD SLT PUSH2 0x15F JUMPI PUSH1 0x4 CALLDATALOAD PUSH1 0x0 MSTORE PUSH1 0x1 PUSH1 0x20 MSTORE PUSH1 0x40 PUSH1 0x0 KECCAK256 DUP1 SLOAD PUSH1 0x1 DUP1 PUSH1 0xA0 SHL SUB PUSH1 0x1 DUP4 ADD SLOAD AND SWAP2 PUSH2 0x6B7 PUSH2 0x63E PUSH1 0x2 DUP4 ADD PUSH2 0x167B JUMP JUMPDEST SWAP2 PUSH1 0x3 DUP2 ADD SLOAD SWAP1 PUSH2 0x6A4 PUSH2 0x654 PUSH1 0x4 DUP4 ADD PUSH2 0x167B JUMP JUMPDEST SWAP3 PUSH1 0x5 DUP4 ADD SLOAD SWAP4 PUSH2 0x691 PUSH1 0xFF PUSH1 0x7 PUSH2 0x66E PUSH1 0x6 DUP9 ADD PUSH2 0x167B JUMP JUMPDEST SWAP7 ADD SLOAD AND SWAP8 PUSH1 0x40 MLOAD SWAP11 DUP12 SWAP11 DUP12 MSTORE PUSH1 0x20 DUP12 ADD MSTORE PUSH2 0x100 DUP1 PUSH1 0x40 DUP13 ADD MSTORE DUP11 ADD SWAP1 PUSH2 0x1721 JUMP JUMPDEST SWAP2 PUSH1 0x60 DUP10 ADD MSTORE DUP8 DUP3 SUB PUSH1 0x80 DUP10 ADD MSTORE PUSH2 0x1721 JUMP JUMPDEST SWAP2 PUSH1 0xA0 DUP7 ADD MSTORE DUP5 DUP3 SUB PUSH1 0xC0 DUP7 ADD MSTORE PUSH2 0x1721 JUMP JUMPDEST SWAP1 ISZERO ISZERO PUSH1 0xE0 DUP4 ADD MSTORE SUB SWAP1 RETURN JUMPDEST CALLVALUE PUSH2 0x15F JUMPI PUSH1 0x0 CALLDATASIZE PUSH1 0x3 NOT ADD SLT PUSH2 0x15F JUMPI PUSH2 0x6DC PUSH2 0x176F JUMP JUMPDEST PUSH1 0x0 DUP1 SLOAD PUSH1 0x1 PUSH1 0x1 PUSH1 0xA0 SHL SUB NOT DUP2 AND DUP3 SSTORE PUSH1 0x1 PUSH1 0x1 PUSH1 0xA0 SHL SUB AND PUSH32 0x8BE0079C531659141344CD1FD0A4F28419497F9722A3DAAFE3B4186F6B6457E0 DUP3 DUP1 LOG3 STOP JUMPDEST CALLVALUE PUSH2 0x15F JUMPI PUSH1 0x0 CALLDATASIZE PUSH1 0x3 NOT ADD SLT PUSH2 0x15F JUMPI PUSH1 0x20 PUSH1 0x5 SLOAD PUSH1 0x40 MLOAD SWAP1 DUP2 MSTORE RETURN JUMPDEST CALLVALUE PUSH2 0x15F JUMPI PUSH1 0x40 CALLDATASIZE PUSH1 0x3 NOT ADD SLT PUSH2 0x15F JUMPI PUSH2 0x753 PUSH2 0x15FD JUMP JUMPDEST PUSH1 0x1 PUSH1 0x1 PUSH1 0xA0 SHL SUB AND PUSH1 0x0 SWAP1 DUP2 MSTORE PUSH1 0x4 PUSH1 0x20 MSTORE PUSH1 0x40 SWAP1 KECCAK256 DUP1 SLOAD PUSH1 0x24 CALLDATALOAD SWAP2 SWAP1 DUP3 LT ISZERO PUSH2 0x15F JUMPI PUSH1 0x20 SWAP2 PUSH2 0x784 SWAP2 PUSH2 0x1613 JUMP JUMPDEST SWAP1 SLOAD PUSH1 0x40 MLOAD SWAP2 PUSH1 0x3 SHL SHR DUP2 MSTORE RETURN JUMPDEST CALLVALUE PUSH2 0x15F JUMPI PUSH1 0x80 CALLDATASIZE PUSH1 0x3 NOT ADD SLT PUSH2 0x15F JUMPI PUSH1 0x7 PUSH1 0x24 CALLDATALOAD LT ISZERO PUSH2 0x15F JUMPI PUSH1 0x44 CALLDATALOAD PUSH1 0x1 PUSH1 0x1 PUSH1 0x40 SHL SUB DUP2 GT PUSH2 0x15F JUMPI PUSH2 0x7CD SWAP1 CALLDATASIZE SWAP1 PUSH1 0x4 ADD PUSH2 0x1584 JUMP JUMPDEST PUSH1 0x64 CALLDATALOAD PUSH1 0x1 PUSH1 0x1 PUSH1 0x40 SHL SUB DUP2 GT PUSH2 0x15F JUMPI PUSH2 0x7EC SWAP1 CALLDATASIZE SWAP1 PUSH1 0x4 ADD PUSH2 0x1584 JUMP JUMPDEST SWAP1 PUSH1 0x4 CALLDATALOAD PUSH1 0x0 MSTORE PUSH1 0x1 PUSH1 0x20 MSTORE PUSH2 0x80C PUSH1 0xFF PUSH1 0x7 PUSH1 0x40 PUSH1 0x0 KECCAK256 ADD SLOAD AND PUSH2 0x179B JUMP JUMPDEST PUSH1 0x4 CALLDATALOAD PUSH1 0x0 MSTORE PUSH1 0x2 PUSH1 0x20 MSTORE PUSH1 0x40 PUSH1 0x0 KECCAK256 PUSH1 0x40 MLOAD SWAP3 PUSH2 0x829 DUP5 PUSH2 0x1548 JUMP JUMPDEST PUSH2 0x835 PUSH1 0x24 CALLDATALOAD DUP6 PUSH2 0x17DB JUMP JUMPDEST PUSH1 0x20 DUP5 ADD SWAP2 CALLER DUP4 MSTORE PUSH1 0x40 DUP6 ADD SWAP1 TIMESTAMP DUP3 MSTORE PUSH1 0x60 DUP7 ADD SWAP3 DUP6 DUP5 MSTORE PUSH1 0x80 DUP8 ADD MSTORE DUP1 SLOAD PUSH1 0x1 PUSH1 0x40 SHL DUP2 LT ISZERO PUSH2 0x311 JUMPI PUSH2 0x86F SWAP2 PUSH1 0x1 DUP3 ADD DUP2 SSTORE PUSH2 0x1746 JUMP JUMPDEST SWAP4 SWAP1 SWAP4 PUSH2 0xB4F JUMPI DUP6 MLOAD SWAP1 PUSH1 0x7 DUP3 LT ISZERO PUSH2 0xB39 JUMPI DUP5 SLOAD SWAP1 MLOAD PUSH2 0x100 PUSH1 0x1 PUSH1 0xA8 SHL SUB PUSH1 0x8 SWAP2 SWAP1 SWAP2 SHL AND PUSH1 0xFF SWAP3 SWAP1 SWAP3 AND PUSH1 0x1 PUSH1 0x1 PUSH1 0xA8 SHL SUB NOT SWAP1 SWAP2 AND OR OR DUP4 SSTORE MLOAD PUSH1 0x1 DUP4 ADD SSTORE MLOAD DUP1 MLOAD SWAP1 PUSH1 0x1 PUSH1 0x1 PUSH1 0x40 SHL SUB DUP3 GT PUSH2 0x311 JUMPI PUSH2 0x8D1 PUSH1 0x2 DUP5 ADD SLOAD PUSH2 0x1641 JUMP JUMPDEST PUSH1 0x1F DUP2 GT PUSH2 0xAF2 JUMPI JUMPDEST POP PUSH1 0x20 SWAP1 PUSH1 0x1F DUP4 GT PUSH1 0x1 EQ PUSH2 0xA80 JUMPI SWAP2 DUP1 PUSH1 0x80 SWAP5 SWAP3 PUSH1 0x3 SWAP5 PUSH1 0x0 SWAP3 PUSH2 0xA75 JUMPI JUMPDEST POP POP DUP2 PUSH1 0x1 SHL SWAP2 PUSH1 0x0 NOT SWAP1 DUP6 SHL SHR NOT AND OR PUSH1 0x2 DUP3 ADD SSTORE JUMPDEST ADD SWAP3 ADD MLOAD SWAP2 DUP3 MLOAD PUSH1 0x1 PUSH1 0x1 PUSH1 0x40 SHL SUB DUP2 GT PUSH2 0x311 JUMPI PUSH2 0x930 DUP3 SLOAD PUSH2 0x1641 JUMP JUMPDEST PUSH1 0x1F DUP2 GT PUSH2 0xA2D JUMPI JUMPDEST POP PUSH1 0x20 PUSH1 0x1F DUP3 GT PUSH1 0x1 EQ PUSH2 0x9C7 JUMPI DUP2 SWAP3 SWAP4 SWAP5 PUSH1 0x0 SWAP3 PUSH2 0x9BC JUMPI JUMPDEST POP POP DUP2 PUSH1 0x1 SHL SWAP2 PUSH1 0x0 NOT SWAP1 PUSH1 0x3 SHL SHR NOT AND OR SWAP1 SSTORE JUMPDEST PUSH32 0xAC3E7EE33C0DD06BD92A3DA6AD28996195B0516B84C127789DF70C1760C7754F PUSH1 0x40 MLOAD PUSH2 0x998 DUP2 PUSH1 0x24 CALLDATALOAD PUSH2 0x1762 JUMP JUMPDEST CALLER PUSH1 0x20 DUP3 ADD MSTORE PUSH1 0x60 PUSH1 0x40 DUP3 ADD MSTORE DUP1 PUSH2 0x9B7 PUSH1 0x4 CALLDATALOAD SWAP5 PUSH1 0x60 DUP4 ADD SWAP1 PUSH2 0x1721 JUMP JUMPDEST SUB SWAP1 LOG2 STOP JUMPDEST ADD MLOAD SWAP1 POP DUP5 DUP1 PUSH2 0x953 JUMP JUMPDEST PUSH1 0x1F NOT DUP3 AND SWAP1 DUP4 PUSH1 0x0 MSTORE PUSH1 0x20 PUSH1 0x0 KECCAK256 SWAP2 PUSH1 0x0 JUMPDEST DUP2 DUP2 LT PUSH2 0xA15 JUMPI POP SWAP6 DUP4 PUSH1 0x1 SWAP6 SWAP7 SWAP8 LT PUSH2 0x9FC JUMPI JUMPDEST POP POP POP DUP2 SHL ADD SWAP1 SSTORE PUSH2 0x968 JUMP JUMPDEST ADD MLOAD PUSH1 0x0 NOT PUSH1 0xF8 DUP5 PUSH1 0x3 SHL AND SHR NOT AND SWAP1 SSTORE DUP5 DUP1 DUP1 PUSH2 0x9EF JUMP JUMPDEST SWAP2 SWAP3 PUSH1 0x20 PUSH1 0x1 DUP2 SWAP3 DUP7 DUP12 ADD MLOAD DUP2 SSTORE ADD SWAP5 ADD SWAP3 ADD PUSH2 0x9DA JUMP JUMPDEST DUP3 PUSH1 0x0 MSTORE PUSH1 0x20 PUSH1 0x0 KECCAK256 PUSH1 0x1F DUP4 ADD PUSH1 0x5 SHR DUP2 ADD SWAP2 PUSH1 0x20 DUP5 LT PUSH2 0xA6B JUMPI JUMPDEST PUSH1 0x1F ADD PUSH1 0x5 SHR ADD SWAP1 JUMPDEST DUP2 DUP2 LT PUSH2 0xA5F JUMPI POP PUSH2 0x939 JUMP JUMPDEST PUSH1 0x0 DUP2 SSTORE PUSH1 0x1 ADD PUSH2 0xA52 JUMP JUMPDEST SWAP1 SWAP2 POP DUP2 SWAP1 PUSH2 0xA49 JUMP JUMPDEST ADD MLOAD SWAP1 POP DUP8 DUP1 PUSH2 0x8FA JUMP JUMPDEST SWAP1 PUSH1 0x1F NOT DUP4 AND SWAP2 PUSH1 0x2 DUP6 ADD PUSH1 0x0 MSTORE PUSH1 0x20 PUSH1 0x0 KECCAK256 SWAP3 PUSH1 0x0 JUMPDEST DUP2 DUP2 LT PUSH2 0xADA JUMPI POP SWAP3 PUSH1 0x1 SWAP3 DUP6 SWAP3 PUSH1 0x3 SWAP7 PUSH1 0x80 SWAP9 SWAP7 LT PUSH2 0xAC2 JUMPI JUMPDEST POP POP POP DUP2 SHL ADD PUSH1 0x2 DUP3 ADD SSTORE PUSH2 0x911 JUMP JUMPDEST ADD MLOAD PUSH1 0x0 NOT DUP4 DUP8 SHL PUSH1 0xF8 AND SHR NOT AND SWAP1 SSTORE DUP8 DUP1 DUP1 PUSH2 0xAB2 JUMP JUMPDEST SWAP3 SWAP4 PUSH1 0x20 PUSH1 0x1 DUP2 SWAP3 DUP8 DUP7 ADD MLOAD DUP2 SSTORE ADD SWAP6 ADD SWAP4 ADD PUSH2 0xA97 JUMP JUMPDEST PUSH1 0x2 DUP5 ADD PUSH1 0x0 MSTORE PUSH1 0x20 PUSH1 0x0 KECCAK256 PUSH1 0x1F DUP5 ADD PUSH1 0x5 SHR DUP2 ADD PUSH1 0x20 DUP6 LT PUSH2 0xB32 JUMPI JUMPDEST PUSH1 0x1F DUP4 ADD PUSH1 0x5 SHR DUP3 ADD DUP2 LT PUSH2 0xB26 JUMPI POP POP PUSH2 0x8DA JUMP JUMPDEST PUSH1 0x0 DUP2 SSTORE PUSH1 0x1 ADD PUSH2 0xB10 JUMP JUMPDEST POP DUP1 PUSH2 0xB10 JUMP JUMPDEST PUSH4 0x4E487B71 PUSH1 0xE0 SHL PUSH1 0x0 MSTORE PUSH1 0x21 PUSH1 0x4 MSTORE PUSH1 0x24 PUSH1 0x0 REVERT JUMPDEST PUSH4 0x4E487B71 PUSH1 0xE0 SHL PUSH1 0x0 MSTORE PUSH1 0x0 PUSH1 0x4 MSTORE PUSH1 0x24 PUSH1 0x0 REVERT JUMPDEST CALLVALUE PUSH2 0x15F JUMPI PUSH1 0x80 CALLDATASIZE PUSH1 0x3 NOT ADD SLT PUSH2 0x15F JUMPI PUSH1 0x4 CALLDATALOAD PUSH1 0x1 PUSH1 0x1 PUSH1 0x40 SHL SUB DUP2 GT PUSH2 0x15F JUMPI PUSH2 0xB95 SWAP1 CALLDATASIZE SWAP1 PUSH1 0x4 ADD PUSH2 0x1584 JUMP JUMPDEST PUSH1 0x44 CALLDATALOAD PUSH1 0x1 PUSH1 0x1 PUSH1 0x40 SHL SUB DUP2 GT PUSH2 0x15F JUMPI PUSH2 0xBB4 SWAP1 CALLDATASIZE SWAP1 PUSH1 0x4 ADD PUSH2 0x1584 JUMP JUMPDEST SWAP1 PUSH1 0x64 CALLDATALOAD PUSH1 0x1 PUSH1 0x1 PUSH1 0x40 SHL SUB DUP2 GT PUSH2 0x15F JUMPI PUSH2 0xBD4 SWAP1 CALLDATASIZE SWAP1 PUSH1 0x4 ADD PUSH2 0x1584 JUMP JUMPDEST SWAP1 DUP1 MLOAD ISZERO PUSH2 0x14A9 JUMPI PUSH1 0x24 CALLDATALOAD ISZERO PUSH2 0x146D JUMPI PUSH1 0x40 MLOAD PUSH1 0x20 DUP2 DUP5 MLOAD PUSH2 0xBF9 DUP2 DUP4 DUP6 DUP10 ADD PUSH2 0x15DA JUMP JUMPDEST DUP2 ADD PUSH1 0x3 DUP2 MSTORE SUB ADD SWAP1 KECCAK256 SLOAD PUSH2 0x142F JUMPI PUSH1 0x5 SLOAD SWAP2 PUSH1 0x0 NOT DUP4 EQ PUSH2 0x1419 JUMPI PUSH1 0x1 DUP4 ADD PUSH1 0x5 SSTORE PUSH1 0x40 MLOAD PUSH2 0xC28 DUP2 PUSH2 0x152C JUMP JUMPDEST PUSH1 0x1 DUP5 ADD DUP2 MSTORE CALLER PUSH1 0x20 DUP3 ADD MSTORE DUP3 PUSH1 0x40 DUP3 ADD MSTORE PUSH1 0x24 CALLDATALOAD PUSH1 0x60 DUP3 ADD MSTORE DUP5 PUSH1 0x80 DUP3 ADD MSTORE TIMESTAMP PUSH1 0xA0 DUP3 ADD MSTORE DUP2 PUSH1 0xC0 DUP3 ADD MSTORE PUSH1 0x1 PUSH1 0xE0 DUP3 ADD MSTORE PUSH1 0x1 DUP5 ADD PUSH1 0x0 MSTORE PUSH1 0x1 PUSH1 0x20 MSTORE PUSH1 0x40 PUSH1 0x0 KECCAK256 DUP2 MLOAD DUP2 SSTORE PUSH1 0x1 DUP2 ADD PUSH1 0x1 DUP1 PUSH1 0xA0 SHL SUB PUSH1 0x20 DUP5 ADD MLOAD AND PUSH12 0xFFFFFFFFFFFFFFFFFFFFFFFF PUSH1 0xA0 SHL DUP3 SLOAD AND OR SWAP1 SSTORE PUSH1 0x40 DUP3 ADD MLOAD DUP1 MLOAD SWAP1 PUSH1 0x1 PUSH1 0x1 PUSH1 0x40 SHL SUB DUP3 GT PUSH2 0x311 JUMPI DUP2 SWAP1 PUSH2 0xCBC PUSH1 0x2 DUP6 ADD SLOAD PUSH2 0x1641 JUMP JUMPDEST PUSH1 0x1F DUP2 GT PUSH2 0x13C6 JUMPI JUMPDEST POP PUSH1 0x20 SWAP1 PUSH1 0x1F DUP4 GT PUSH1 0x1 EQ PUSH2 0x1354 JUMPI PUSH1 0x0 SWAP3 PUSH2 0x1349 JUMPI JUMPDEST POP POP DUP2 PUSH1 0x1 SHL SWAP2 PUSH1 0x0 NOT SWAP1 PUSH1 0x3 SHL SHR NOT AND OR PUSH1 0x2 DUP3 ADD SSTORE JUMPDEST PUSH1 0x60 DUP3 ADD MLOAD PUSH1 0x3 DUP3 ADD SSTORE PUSH1 0x80 DUP3 ADD MLOAD DUP1 MLOAD SWAP1 PUSH1 0x1 PUSH1 0x1 PUSH1 0x40 SHL SUB DUP3 GT PUSH2 0x311 JUMPI DUP2 SWAP1 PUSH2 0xD23 PUSH1 0x4 DUP6 ADD SLOAD PUSH2 0x1641 JUMP JUMPDEST PUSH1 0x1F DUP2 GT PUSH2 0x12F6 JUMPI JUMPDEST POP PUSH1 0x20 SWAP1 PUSH1 0x1F DUP4 GT PUSH1 0x1 EQ PUSH2 0x1284 JUMPI PUSH1 0x0 SWAP3 PUSH2 0x1279 JUMPI JUMPDEST POP POP DUP2 PUSH1 0x1 SHL SWAP2 PUSH1 0x0 NOT SWAP1 PUSH1 0x3 SHL SHR NOT AND OR PUSH1 0x4 DUP3 ADD SSTORE JUMPDEST PUSH1 0xA0 DUP3 ADD MLOAD PUSH1 0x5 DUP3 ADD SSTORE PUSH1 0xC0 DUP3 ADD MLOAD DUP1 MLOAD SWAP1 PUSH1 0x1 PUSH1 0x1 PUSH1 0x40 SHL SUB DUP3 GT PUSH2 0x311 JUMPI PUSH2 0xD88 PUSH1 0x6 DUP5 ADD SLOAD PUSH2 0x1641 JUMP JUMPDEST PUSH1 0x1F DUP2 GT PUSH2 0x1232 JUMPI JUMPDEST POP PUSH1 0x20 SWAP1 PUSH1 0x1F DUP4 GT PUSH1 0x1 EQ PUSH2 0x11BD JUMPI SWAP2 DUP1 PUSH1 0xE0 SWAP5 SWAP3 PUSH1 0x7 SWAP5 PUSH1 0x0 SWAP3 PUSH2 0x11B2 JUMPI JUMPDEST POP POP DUP2 PUSH1 0x1 SHL SWAP2 PUSH1 0x0 NOT SWAP1 PUSH1 0x3 SHL SHR NOT AND OR PUSH1 0x6 DUP3 ADD SSTORE JUMPDEST ADD SWAP2 ADD MLOAD ISZERO ISZERO PUSH1 0xFF DUP1 NOT DUP4 SLOAD AND SWAP2 AND OR SWAP1 SSTORE PUSH1 0x40 MLOAD DUP2 MLOAD PUSH2 0xDEE DUP2 DUP4 PUSH1 0x20 DUP7 ADD PUSH2 0x15DA JUMP JUMPDEST DUP2 ADD SWAP1 PUSH1 0x3 DUP3 MSTORE PUSH1 0x20 DUP2 PUSH1 0x1 DUP8 ADD SWAP4 SUB ADD SWAP1 KECCAK256 SSTORE CALLER PUSH1 0x0 MSTORE PUSH1 0x4 PUSH1 0x20 MSTORE PUSH1 0x40 PUSH1 0x0 KECCAK256 DUP1 SLOAD PUSH1 0x1 PUSH1 0x40 SHL DUP2 LT ISZERO PUSH2 0x311 JUMPI PUSH2 0xE2D SWAP2 PUSH1 0x1 DUP3 ADD DUP2 SSTORE PUSH2 0x1613 JUMP JUMPDEST DUP2 SLOAD SWAP1 PUSH1 0x3 SHL SWAP1 PUSH1 0x1 DUP7 ADD DUP3 SHL SWAP2 PUSH1 0x0 NOT SWAP1 SHL NOT AND OR SWAP1 SSTORE PUSH1 0x40 MLOAD DUP1 PUSH1 0x40 DUP2 ADD LT PUSH1 0x1 PUSH1 0x1 PUSH1 0x40 SHL SUB PUSH1 0x40 DUP4 ADD GT OR PUSH2 0x311 JUMPI PUSH1 0x40 DUP2 ADD PUSH1 0x40 MSTORE PUSH1 0xF DUP2 MSTORE PUSH15 0x141C9BD91D58DD0818DC99585D1959 PUSH1 0x8A SHL PUSH1 0x20 DUP3 ADD MSTORE PUSH1 0x1 DUP5 ADD PUSH1 0x0 MSTORE PUSH1 0x2 PUSH1 0x20 MSTORE PUSH1 0x40 PUSH1 0x0 KECCAK256 SWAP1 PUSH1 0x40 MLOAD SWAP6 PUSH2 0xEA2 DUP8 PUSH2 0x1548 JUMP JUMPDEST PUSH1 0x0 DUP8 MSTORE CALLER PUSH1 0x20 DUP9 ADD MSTORE TIMESTAMP PUSH1 0x40 DUP9 ADD MSTORE PUSH1 0x60 DUP8 ADD MSTORE PUSH1 0x80 DUP7 ADD MSTORE DUP1 SLOAD PUSH1 0x1 PUSH1 0x40 SHL DUP2 LT ISZERO PUSH2 0x311 JUMPI PUSH2 0xED9 SWAP2 PUSH1 0x1 DUP3 ADD DUP2 SSTORE PUSH2 0x1746 JUMP JUMPDEST PUSH2 0xB4F JUMPI DUP5 MLOAD PUSH1 0x7 DUP2 LT ISZERO PUSH2 0xB39 JUMPI DUP2 SLOAD PUSH1 0x20 DUP8 ADD MLOAD PUSH2 0x100 PUSH1 0x1 PUSH1 0xA8 SHL SUB PUSH1 0x8 SWAP2 SWAP1 SWAP2 SHL AND PUSH1 0xFF SWAP3 SWAP1 SWAP3 AND PUSH1 0x1 PUSH1 0x1 PUSH1 0xA8 SHL SUB NOT SWAP1 SWAP2 AND OR OR DUP2 SSTORE PUSH1 0x40 DUP6 ADD MLOAD PUSH1 0x1 DUP3 ADD SSTORE PUSH1 0x60 DUP6 ADD MLOAD DUP1 MLOAD SWAP1 PUSH1 0x1 PUSH1 0x1 PUSH1 0x40 SHL SUB DUP3 GT PUSH2 0x311 JUMPI PUSH2 0xF42 PUSH1 0x2 DUP5 ADD SLOAD PUSH2 0x1641 JUMP JUMPDEST PUSH1 0x1F DUP2 GT PUSH2 0x116B JUMPI JUMPDEST POP PUSH1 0x20 SWAP1 PUSH1 0x1F DUP4 GT PUSH1 0x1 EQ PUSH2 0x10F7 JUMPI SWAP2 DUP1 PUSH1 0x80 SWAP5 SWAP3 PUSH1 0x3 SWAP5 PUSH1 0x0 SWAP3 PUSH2 0x10EC JUMPI JUMPDEST POP POP DUP2 PUSH1 0x1 SHL SWAP2 PUSH1 0x0 NOT SWAP1 DUP6 SHL SHR NOT AND OR PUSH1 0x2 DUP3 ADD SSTORE JUMPDEST ADD SWAP5 ADD MLOAD SWAP4 DUP5 MLOAD PUSH1 0x1 PUSH1 0x1 PUSH1 0x40 SHL SUB DUP2 GT PUSH2 0x311 JUMPI PUSH2 0xFA1 DUP3 SLOAD PUSH2 0x1641 JUMP JUMPDEST PUSH1 0x1F DUP2 GT PUSH2 0x10A4 JUMPI JUMPDEST POP DUP1 PUSH1 0x20 SWAP7 DUP8 SWAP1 PUSH1 0x1F DUP4 GT PUSH1 0x1 EQ PUSH2 0x1040 JUMPI PUSH1 0x0 SWAP3 PUSH2 0x1035 JUMPI JUMPDEST POP POP DUP2 PUSH1 0x1 SHL SWAP2 PUSH1 0x0 NOT SWAP1 PUSH1 0x3 SHL SHR NOT AND OR SWAP1 SSTORE JUMPDEST PUSH32 0x5B6548625353CFBB6DE6BBB313A0B1CF8EFBB45F2874F24C9D352590E3E366FF PUSH2 0x100F PUSH1 0x40 MLOAD SWAP4 PUSH1 0x40 DUP6 MSTORE PUSH1 0x40 DUP6 ADD SWAP1 PUSH2 0x1721 JUMP JUMPDEST SWAP3 DUP1 DUP5 SUB DUP7 DUP3 ADD MSTORE DUP1 PUSH2 0x1027 CALLER SWAP6 PUSH1 0x1 DUP9 ADD SWAP6 PUSH2 0x1721 JUMP JUMPDEST SUB SWAP1 LOG3 PUSH1 0x1 PUSH1 0x40 MLOAD SWAP2 ADD DUP2 MSTORE RETURN JUMPDEST ADD MLOAD SWAP1 POP DUP8 DUP1 PUSH2 0xFC4 JUMP JUMPDEST PUSH1 0x0 DUP6 DUP2 MSTORE DUP10 DUP2 KECCAK256 SWAP4 POP PUSH1 0x1F NOT DUP6 AND SWAP1 JUMPDEST DUP2 DUP2 LT PUSH2 0x108D JUMPI POP SWAP1 DUP5 PUSH1 0x1 SWAP6 SWAP5 SWAP4 SWAP3 LT PUSH2 0x1074 JUMPI JUMPDEST POP POP POP DUP2 SHL ADD SWAP1 SSTORE PUSH2 0xFD9 JUMP JUMPDEST ADD MLOAD PUSH1 0x0 NOT PUSH1 0xF8 DUP5 PUSH1 0x3 SHL AND SHR NOT AND SWAP1 SSTORE DUP8 DUP1 DUP1 PUSH2 0x1067 JUMP JUMPDEST SWAP3 SWAP4 DUP11 PUSH1 0x1 DUP2 SWAP3 DUP8 DUP7 ADD MLOAD DUP2 SSTORE ADD SWAP6 ADD SWAP4 ADD PUSH2 0x1051 JUMP JUMPDEST DUP3 PUSH1 0x0 MSTORE PUSH1 0x20 PUSH1 0x0 KECCAK256 PUSH1 0x1F DUP4 ADD PUSH1 0x5 SHR DUP2 ADD SWAP2 PUSH1 0x20 DUP5 LT PUSH2 0x10E2 JUMPI JUMPDEST PUSH1 0x1F ADD PUSH1 0x5 SHR ADD SWAP1 JUMPDEST DUP2 DUP2 LT PUSH2 0x10D6 JUMPI POP PUSH2 0xFAA JUMP JUMPDEST PUSH1 0x0 DUP2 SSTORE PUSH1 0x1 ADD PUSH2 0x10C9 JUMP JUMPDEST SWAP1 SWAP2 POP DUP2 SWAP1 PUSH2 0x10C0 JUMP JUMPDEST ADD MLOAD SWAP1 POP DUP10 DUP1 PUSH2 0xF6B JUMP JUMPDEST SWAP1 PUSH1 0x2 DUP5 ADD PUSH1 0x0 MSTORE PUSH1 0x20 PUSH1 0x0 KECCAK256 SWAP2 PUSH1 0x0 JUMPDEST PUSH1 0x1F NOT DUP6 AND DUP2 LT PUSH2 0x1153 JUMPI POP SWAP3 PUSH1 0x80 SWAP5 SWAP3 PUSH1 0x1 SWAP3 PUSH1 0x3 SWAP6 DUP4 PUSH1 0x1F NOT DUP2 AND LT PUSH2 0x113B JUMPI JUMPDEST POP POP POP DUP2 SHL ADD PUSH1 0x2 DUP3 ADD SSTORE PUSH2 0xF82 JUMP JUMPDEST ADD MLOAD PUSH1 0x0 NOT DUP4 DUP8 SHL PUSH1 0xF8 AND SHR NOT AND SWAP1 SSTORE DUP10 DUP1 DUP1 PUSH2 0x112B JUMP JUMPDEST SWAP2 SWAP3 PUSH1 0x20 PUSH1 0x1 DUP2 SWAP3 DUP7 DUP6 ADD MLOAD DUP2 SSTORE ADD SWAP5 ADD SWAP3 ADD PUSH2 0x1108 JUMP JUMPDEST PUSH1 0x2 DUP5 ADD PUSH1 0x0 MSTORE PUSH1 0x20 PUSH1 0x0 KECCAK256 PUSH1 0x1F DUP5 ADD PUSH1 0x5 SHR DUP2 ADD PUSH1 0x20 DUP6 LT PUSH2 0x11AB JUMPI JUMPDEST PUSH1 0x1F DUP4 ADD PUSH1 0x5 SHR DUP3 ADD DUP2 LT PUSH2 0x119F JUMPI POP POP PUSH2 0xF4B JUMP JUMPDEST PUSH1 0x0 DUP2 SSTORE PUSH1 0x1 ADD PUSH2 0x1189 JUMP JUMPDEST POP DUP1 PUSH2 0x1189 JUMP JUMPDEST ADD MLOAD SWAP1 POP DUP11 DUP1 PUSH2 0xDB1 JUMP JUMPDEST SWAP1 PUSH1 0x6 DUP5 ADD PUSH1 0x0 MSTORE PUSH1 0x20 PUSH1 0x0 KECCAK256 SWAP2 PUSH1 0x0 JUMPDEST PUSH1 0x1F NOT DUP6 AND DUP2 LT PUSH2 0x121A JUMPI POP SWAP3 PUSH1 0xE0 SWAP5 SWAP3 PUSH1 0x1 SWAP3 PUSH1 0x7 SWAP6 DUP4 PUSH1 0x1F NOT DUP2 AND LT PUSH2 0x1201 JUMPI JUMPDEST POP POP POP DUP2 SHL ADD PUSH1 0x6 DUP3 ADD SSTORE PUSH2 0xDC9 JUMP JUMPDEST ADD MLOAD PUSH1 0x0 NOT PUSH1 0xF8 DUP5 PUSH1 0x3 SHL AND SHR NOT AND SWAP1 SSTORE DUP11 DUP1 DUP1 PUSH2 0x11F1 JUMP JUMPDEST SWAP2 SWAP3 PUSH1 0x20 PUSH1 0x1 DUP2 SWAP3 DUP7 DUP6 ADD MLOAD DUP2 SSTORE ADD SWAP5 ADD SWAP3 ADD PUSH2 0x11CE JUMP JUMPDEST PUSH1 0x6 DUP5 ADD PUSH1 0x0 MSTORE PUSH1 0x20 PUSH1 0x0 KECCAK256 PUSH1 0x1F DUP5 ADD PUSH1 0x5 SHR DUP2 ADD PUSH1 0x20 DUP6 LT PUSH2 0x1272 JUMPI JUMPDEST PUSH1 0x1F DUP4 ADD PUSH1 0x5 SHR DUP3 ADD DUP2 LT PUSH2 0x1266 JUMPI POP POP PUSH2 0xD91 JUMP JUMPDEST PUSH1 0x0 DUP2 SSTORE PUSH1 0x1 ADD PUSH2 0x1250 JUMP JUMPDEST POP DUP1 PUSH2 0x1250 JUMP JUMPDEST ADD MLOAD SWAP1 POP DUP9 DUP1 PUSH2 0xD43 JUMP JUMPDEST SWAP3 POP PUSH1 0x4 DUP5 ADD PUSH1 0x0 MSTORE PUSH1 0x20 PUSH1 0x0 KECCAK256 SWAP1 PUSH1 0x0 SWAP4 JUMPDEST PUSH1 0x1F NOT DUP5 AND DUP6 LT PUSH2 0x12DB JUMPI PUSH1 0x1 SWAP5 POP DUP4 PUSH1 0x1F NOT DUP2 AND LT PUSH2 0x12C2 JUMPI JUMPDEST POP POP POP DUP2 SHL ADD PUSH1 0x4 DUP3 ADD SSTORE PUSH2 0xD5B JUMP JUMPDEST ADD MLOAD PUSH1 0x0 NOT PUSH1 0xF8 DUP5 PUSH1 0x3 SHL AND SHR NOT AND SWAP1 SSTORE DUP9 DUP1 DUP1 PUSH2 0x12B2 JUMP JUMPDEST DUP2 DUP2 ADD MLOAD DUP4 SSTORE PUSH1 0x20 SWAP5 DUP6 ADD SWAP5 PUSH1 0x1 SWAP1 SWAP4 ADD SWAP3 SWAP1 SWAP2 ADD SWAP1 PUSH2 0x1297 JUMP JUMPDEST SWAP1 SWAP2 POP PUSH1 0x4 DUP5 ADD PUSH1 0x0 MSTORE PUSH1 0x20 PUSH1 0x0 KECCAK256 PUSH1 0x1F DUP5 ADD PUSH1 0x5 SHR DUP2 ADD PUSH1 0x20 DUP6 LT PUSH2 0x1342 JUMPI JUMPDEST SWAP1 DUP5 SWAP4 SWAP3 SWAP2 JUMPDEST PUSH1 0x1F DUP4 ADD PUSH1 0x5 SHR DUP3 ADD DUP2 LT PUSH2 0x1333 JUMPI POP POP PUSH2 0xD2C JUMP JUMPDEST PUSH1 0x0 DUP2 SSTORE DUP6 SWAP5 POP PUSH1 0x1 ADD PUSH2 0x131D JUMP JUMPDEST POP DUP1 PUSH2 0x1317 JUMP JUMPDEST ADD MLOAD SWAP1 POP DUP9 DUP1 PUSH2 0xCDC JUMP JUMPDEST SWAP3 POP PUSH1 0x2 DUP5 ADD PUSH1 0x0 MSTORE PUSH1 0x20 PUSH1 0x0 KECCAK256 SWAP1 PUSH1 0x0 SWAP4 JUMPDEST PUSH1 0x1F NOT DUP5 AND DUP6 LT PUSH2 0x13AB JUMPI PUSH1 0x1 SWAP5 POP DUP4 PUSH1 0x1F NOT DUP2 AND LT PUSH2 0x1392 JUMPI JUMPDEST POP POP POP DUP2 SHL ADD PUSH1 0x2 DUP3 ADD SSTORE PUSH2 0xCF4 JUMP JUMPDEST ADD MLOAD PUSH1 0x0 NOT PUSH1 0xF8 DUP5 PUSH1 0x3 SHL AND SHR NOT AND SWAP1 SSTORE DUP9 DUP1 DUP1 PUSH2 0x1382 JUMP JUMPDEST DUP2 DUP2 ADD MLOAD DUP4 SSTORE PUSH1 0x20 SWAP5 DUP6 ADD SWAP5 PUSH1 0x1 SWAP1 SWAP4 ADD SWAP3 SWAP1 SWAP2 ADD SWAP1 PUSH2 0x1367 JUMP JUMPDEST SWAP1 SWAP2 POP PUSH1 0x2 DUP5 ADD PUSH1 0x0 MSTORE PUSH1 0x20 PUSH1 0x0 KECCAK256 PUSH1 0x1F DUP5 ADD PUSH1 0x5 SHR DUP2 ADD PUSH1 0x20 DUP6 LT PUSH2 0x1412 JUMPI JUMPDEST SWAP1 DUP5 SWAP4 SWAP3 SWAP2 JUMPDEST PUSH1 0x1F DUP4 ADD PUSH1 0x5 SHR DUP3 ADD DUP2 LT PUSH2 0x1403 JUMPI POP POP PUSH2 0xCC5 JUMP JUMPDEST PUSH1 0x0 DUP2 SSTORE DUP6 SWAP5 POP PUSH1 0x1 ADD PUSH2 0x13ED JUMP JUMPDEST POP DUP1 PUSH2 0x13E7 JUMP JUMPDEST PUSH4 0x4E487B71 PUSH1 0xE0 SHL PUSH1 0x0 MSTORE PUSH1 0x11 PUSH1 0x4 MSTORE PUSH1 0x24 PUSH1 0x0 REVERT JUMPDEST PUSH1 0x40 MLOAD PUSH3 0x461BCD PUSH1 0xE5 SHL DUP2 MSTORE PUSH1 0x20 PUSH1 0x4 DUP3 ADD MSTORE PUSH1 0x16 PUSH1 0x24 DUP3 ADD MSTORE PUSH22 0x515220636F646520616C726561647920657869737473 PUSH1 0x50 SHL PUSH1 0x44 DUP3 ADD MSTORE PUSH1 0x64 SWAP1 REVERT JUMPDEST PUSH1 0x40 MLOAD PUSH3 0x461BCD PUSH1 0xE5 SHL DUP2 MSTORE PUSH1 0x20 PUSH1 0x4 DUP3 ADD MSTORE PUSH1 0x14 PUSH1 0x24 DUP3 ADD MSTORE PUSH20 0x5175616E74697479206D757374206265203E203 PUSH1 0x64 SHL PUSH1 0x44 DUP3 ADD MSTORE PUSH1 0x64 SWAP1 REVERT JUMPDEST PUSH1 0x40 MLOAD PUSH3 0x461BCD PUSH1 0xE5 SHL DUP2 MSTORE PUSH1 0x20 PUSH1 0x4 DUP3 ADD MSTORE PUSH1 0x12 PUSH1 0x24 DUP3 ADD MSTORE PUSH18 0x10DC9BDC081B985B59481C995C5D5A5C9959 PUSH1 0x72 SHL PUSH1 0x44 DUP3 ADD MSTORE PUSH1 0x64 SWAP1 REVERT JUMPDEST CALLVALUE PUSH2 0x15F JUMPI PUSH1 0x20 CALLDATASIZE PUSH1 0x3 NOT ADD SLT PUSH2 0x15F JUMPI PUSH1 0x4 CALLDATALOAD PUSH1 0x1 PUSH1 0x1 PUSH1 0x40 SHL SUB DUP2 GT PUSH2 0x15F JUMPI PUSH2 0x1519 PUSH1 0x20 PUSH2 0x3EA DUP2 SWAP4 CALLDATASIZE SWAP1 PUSH1 0x4 ADD PUSH2 0x1584 JUMP JUMPDEST DUP2 ADD PUSH1 0x3 DUP2 MSTORE SUB ADD SWAP1 KECCAK256 SLOAD PUSH1 0x40 MLOAD SWAP1 DUP2 MSTORE RETURN JUMPDEST PUSH2 0x100 DUP2 ADD SWAP1 DUP2 LT PUSH1 0x1 PUSH1 0x1 PUSH1 0x40 SHL SUB DUP3 GT OR PUSH2 0x311 JUMPI PUSH1 0x40 MSTORE JUMP JUMPDEST PUSH1 0xA0 DUP2 ADD SWAP1 DUP2 LT PUSH1 0x1 PUSH1 0x1 PUSH1 0x40 SHL SUB DUP3 GT OR PUSH2 0x311 JUMPI PUSH1 0x40 MSTORE JUMP JUMPDEST SWAP1 PUSH1 0x1F DUP1 NOT SWAP2 ADD AND DUP2 ADD SWAP1 DUP2 LT PUSH1 0x1 PUSH1 0x1 PUSH1 0x40 SHL SUB DUP3 GT OR PUSH2 0x311 JUMPI PUSH1 0x40 MSTORE JUMP JUMPDEST DUP2 PUSH1 0x1F DUP3 ADD SLT ISZERO PUSH2 0x15F JUMPI DUP1 CALLDATALOAD SWAP1 PUSH1 0x1 PUSH1 0x1 PUSH1 0x40 SHL SUB DUP3 GT PUSH2 0x311 JUMPI PUSH1 0x40 MLOAD SWAP3 PUSH2 0x15B8 PUSH1 0x1F DUP5 ADD PUSH1 0x1F NOT AND PUSH1 0x20 ADD DUP6 PUSH2 0x1563 JUMP JUMPDEST DUP3 DUP5 MSTORE PUSH1 0x20 DUP4 DUP4 ADD ADD GT PUSH2 0x15F JUMPI DUP2 PUSH1 0x0 SWAP3 PUSH1 0x20 DUP1 SWAP4 ADD DUP4 DUP7 ADD CALLDATACOPY DUP4 ADD ADD MSTORE SWAP1 JUMP JUMPDEST PUSH1 0x0 JUMPDEST DUP4 DUP2 LT PUSH2 0x15ED JUMPI POP POP PUSH1 0x0 SWAP2 ADD MSTORE JUMP JUMPDEST DUP2 DUP2 ADD MLOAD DUP4 DUP3 ADD MSTORE PUSH1 0x20 ADD PUSH2 0x15DD JUMP JUMPDEST PUSH1 0x4 CALLDATALOAD SWAP1 PUSH1 0x1 PUSH1 0x1 PUSH1 0xA0 SHL SUB DUP3 AND DUP3 SUB PUSH2 0x15F JUMPI JUMP JUMPDEST DUP1 SLOAD DUP3 LT ISZERO PUSH2 0x162B JUMPI PUSH1 0x0 MSTORE PUSH1 0x20 PUSH1 0x0 KECCAK256 ADD SWAP1 PUSH1 0x0 SWAP1 JUMP JUMPDEST PUSH4 0x4E487B71 PUSH1 0xE0 SHL PUSH1 0x0 MSTORE PUSH1 0x32 PUSH1 0x4 MSTORE PUSH1 0x24 PUSH1 0x0 REVERT JUMPDEST SWAP1 PUSH1 0x1 DUP3 DUP2 SHR SWAP3 AND DUP1 ISZERO PUSH2 0x1671 JUMPI JUMPDEST PUSH1 0x20 DUP4 LT EQ PUSH2 0x165B JUMPI JUMP JUMPDEST PUSH4 0x4E487B71 PUSH1 0xE0 SHL PUSH1 0x0 MSTORE PUSH1 0x22 PUSH1 0x4 MSTORE PUSH1 0x24 PUSH1 0x0 REVERT JUMPDEST SWAP2 PUSH1 0x7F AND SWAP2 PUSH2 0x1650 JUMP JUMPDEST SWAP1 PUSH1 0x40 MLOAD SWAP2 DUP3 PUSH1 0x0 DUP3 SLOAD SWAP3 PUSH2 0x168F DUP5 PUSH2 0x1641 JUMP JUMPDEST SWAP1 DUP2 DUP5 MSTORE PUSH1 0x1 SWAP5 DUP6 DUP2 AND SWAP1 DUP2 PUSH1 0x0 EQ PUSH2 0x16FE JUMPI POP PUSH1 0x1 EQ PUSH2 0x16BB JUMPI JUMPDEST POP POP PUSH2 0x16B9 SWAP3 POP SUB DUP4 PUSH2 0x1563 JUMP JUMPDEST JUMP JUMPDEST SWAP1 SWAP4 SWAP2 POP PUSH1 0x0 MSTORE PUSH1 0x20 SWAP1 DUP2 PUSH1 0x0 KECCAK256 SWAP4 PUSH1 0x0 SWAP2 JUMPDEST DUP2 DUP4 LT PUSH2 0x16E6 JUMPI POP POP PUSH2 0x16B9 SWAP4 POP DUP3 ADD ADD CODESIZE DUP1 PUSH2 0x16AB JUMP JUMPDEST DUP6 SLOAD DUP9 DUP5 ADD DUP6 ADD MSTORE SWAP5 DUP6 ADD SWAP5 DUP8 SWAP5 POP SWAP2 DUP4 ADD SWAP2 PUSH2 0x16CE JUMP JUMPDEST SWAP2 POP POP PUSH2 0x16B9 SWAP5 POP PUSH1 0x20 SWAP3 POP PUSH1 0xFF NOT AND DUP3 DUP5 ADD MSTORE ISZERO ISZERO PUSH1 0x5 SHL DUP3 ADD ADD CODESIZE DUP1 PUSH2 0x16AB JUMP JUMPDEST SWAP1 PUSH1 0x20 SWAP2 PUSH2 0x173A DUP2 MLOAD DUP1 SWAP3 DUP2 DUP6 MSTORE DUP6 DUP1 DUP7 ADD SWAP2 ADD PUSH2 0x15DA JUMP JUMPDEST PUSH1 0x1F ADD PUSH1 0x1F NOT AND ADD ADD SWAP1 JUMP JUMPDEST DUP1 SLOAD DUP3 LT ISZERO PUSH2 0x162B JUMPI PUSH1 0x0 MSTORE PUSH1 0x20 PUSH1 0x0 KECCAK256 SWAP1 PUSH1 0x2 SHL ADD SWAP1 PUSH1 0x0 SWAP1 JUMP JUMPDEST SWAP1 PUSH1 0x7 DUP3 LT ISZERO PUSH2 0xB39 JUMPI MSTORE JUMP JUMPDEST PUSH1 0x0 SLOAD PUSH1 0x1 PUSH1 0x1 PUSH1 0xA0 SHL SUB AND CALLER SUB PUSH2 0x1783 JUMPI JUMP JUMPDEST PUSH1 0x40 MLOAD PUSH4 0x118CDAA7 PUSH1 0xE0 SHL DUP2 MSTORE CALLER PUSH1 0x4 DUP3 ADD MSTORE PUSH1 0x24 SWAP1 REVERT JUMPDEST ISZERO PUSH2 0x17A2 JUMPI JUMP JUMPDEST PUSH1 0x40 MLOAD PUSH3 0x461BCD PUSH1 0xE5 SHL DUP2 MSTORE PUSH1 0x20 PUSH1 0x4 DUP3 ADD MSTORE PUSH1 0x11 PUSH1 0x24 DUP3 ADD MSTORE PUSH17 0x141C9BD91D58DD081B9BDD08199BDD5B99 PUSH1 0x7A SHL PUSH1 0x44 DUP3 ADD MSTORE PUSH1 0x64 SWAP1 REVERT JUMPDEST PUSH1 0x7 DUP3 LT ISZERO PUSH2 0xB39 JUMPI MSTORE JUMP INVALID LOG2 PUSH5 0x6970667358 0x22 SLT KECCAK256 SWAP9 0xE0 0xEA NOT 0x27 EXTCODEHASH 0x2D DUP5 SIGNEXTEND SIGNEXTEND MSTORE EXTCODESIZE 0xB6 SWAP16 PUSH8 0x26FC2F4C02C1573E CALLDATALOAD RETURNDATASIZE ADDRESS ISZERO 0xFB 0xAD SHR NUMBER RETURN PUSH5 0x736F6C6343 STOP ADDMOD EQ STOP CALLER "},"methodIdentifiers":{"addStage(uint256,uint8,string,string)":"2a727af1","createProduct(string,uint256,string,string)":"07877cff","getProductByQR(string)":"e80e59c8","getProductStages(uint256)":"f389e477","getTotalProducts()":"570aea8a","getUserProducts(address)":"fee7f53b","owner()":"8da5cb5b","productStages(uint256,uint256)":"bc765f59","products(uint256)":"7acc0b20","qrCodeToProduct(string)":"031c3154","renounceOwnership()":"715018a6","transferOwnership(address)":"f2fde38b","userProducts(address,uint256)":"3d527883"}}}}}