{
  "_format": "hh-sol-artifact-1",
  "contractName": "TrackingContract",
  "sourceName": "contracts/TrackingContract.sol",
  "abi": [
    {
      "inputs": [],
      "stateMutability": "nonpayable",
      "type": "constructor"
    },
    {
      "inputs": [
        {
          "internalType": "address",
          "name": "owner",
          "type": "address"
        }
      ],
      "name": "OwnableInvalidOwner",
      "type": "error"
    },
    {
      "inputs": [
        {
          "internalType": "address",
          "name": "account",
          "type": "address"
        }
      ],
      "name": "OwnableUnauthorizedAccount",
      "type": "error"
    },
    {
      "anonymous": false,
      "inputs": [
        {
          "indexed": true,
          "internalType": "uint256",
          "name": "shipmentId",
          "type": "uint256"
        },
        {
          "indexed": true,
          "internalType": "string",
          "name": "truckId",
          "type": "string"
        },
        {
          "indexed": false,
          "internalType": "int256",
          "name": "latitude",
          "type": "int256"
        },
        {
          "indexed": false,
          "internalType": "int256",
          "name": "longitude",
          "type": "int256"
        },
        {
          "indexed": false,
          "internalType": "uint256",
          "name": "timestamp",
          "type": "uint256"
        }
      ],
      "name": "EmergencyAlert",
      "type": "event"
    },
    {
      "anonymous": false,
      "inputs": [
        {
          "indexed": true,
          "internalType": "uint256",
          "name": "shipmentId",
          "type": "uint256"
        },
        {
          "indexed": true,
          "internalType": "string",
          "name": "truckId",
          "type": "string"
        },
        {
          "indexed": false,
          "internalType": "int256",
          "name": "latitude",
          "type": "int256"
        },
        {
          "indexed": false,
          "internalType": "int256",
          "name": "longitude",
          "type": "int256"
        },
        {
          "indexed": false,
          "internalType": "uint256",
          "name": "timestamp",
          "type": "uint256"
        }
      ],
      "name": "LocationUpdated",
      "type": "event"
    },
    {
      "anonymous": false,
      "inputs": [
        {
          "indexed": true,
          "internalType": "address",
          "name": "previousOwner",
          "type": "address"
        },
        {
          "indexed": true,
          "internalType": "address",
          "name": "newOwner",
          "type": "address"
        }
      ],
      "name": "OwnershipTransferred",
      "type": "event"
    },
    {
      "anonymous": false,
      "inputs": [
        {
          "indexed": true,
          "internalType": "uint256",
          "name": "shipmentId",
          "type": "uint256"
        },
        {
          "indexed": true,
          "internalType": "uint256",
          "name": "auctionId",
          "type": "uint256"
        },
        {
          "indexed": true,
          "internalType": "address",
          "name": "distributor",
          "type": "address"
        },
        {
          "indexed": false,
          "internalType": "string",
          "name": "truckId",
          "type": "string"
        }
      ],
      "name": "ShipmentCreated",
      "type": "event"
    },
    {
      "anonymous": false,
      "inputs": [
        {
          "indexed": true,
          "internalType": "uint256",
          "name": "shipmentId",
          "type": "uint256"
        },
        {
          "indexed": true,
          "internalType": "address",
          "name": "retailer",
          "type": "address"
        },
        {
          "indexed": false,
          "internalType": "uint256",
          "name": "deliveryTime",
          "type": "uint256"
        }
      ],
      "name": "ShipmentDelivered",
      "type": "event"
    },
    {
      "inputs": [
        {
          "internalType": "uint256",
          "name": "_auctionId",
          "type": "uint256"
        },
        {
          "internalType": "address",
          "name": "_farmer",
          "type": "address"
        },
        {
          "internalType": "address",
          "name": "_retailer",
          "type": "address"
        },
        {
          "internalType": "string",
          "name": "_truckId",
          "type": "string"
        },
        {
          "internalType": "uint256",
          "name": "_expectedDeliveryTime",
          "type": "uint256"
        },
        {
          "internalType": "string",
          "name": "_productDetails",
          "type": "string"
        }
      ],
      "name": "createShipment",
      "outputs": [
        {
          "internalType": "uint256",
          "name": "",
          "type": "uint256"
        }
      ],
      "stateMutability": "nonpayable",
      "type": "function"
    },
    {
      "inputs": [
        {
          "internalType": "address",
          "name": "",
          "type": "address"
        },
        {
          "internalType": "uint256",
          "name": "",
          "type": "uint256"
        }
      ],
      "name": "distributorShipments",
      "outputs": [
        {
          "internalType": "uint256",
          "name": "",
          "type": "uint256"
        }
      ],
      "stateMutability": "view",
      "type": "function"
    },
    {
      "inputs": [
        {
          "internalType": "address",
          "name": "_distributor",
          "type": "address"
        }
      ],
      "name": "getDistributorShipments",
      "outputs": [
        {
          "internalType": "uint256[]",
          "name": "",
          "type": "uint256[]"
        }
      ],
      "stateMutability": "view",
      "type": "function"
    },
    {
      "inputs": [
        {
          "internalType": "uint256",
          "name": "_shipmentId",
          "type": "uint256"
        }
      ],
      "name": "getEstimatedDeliveryTime",
      "outputs": [
        {
          "internalType": "uint256",
          "name": "",
          "type": "uint256"
        }
      ],
      "stateMutability": "view",
      "type": "function"
    },
    {
      "inputs": [
        {
          "internalType": "uint256",
          "name": "_shipmentId",
          "type": "uint256"
        }
      ],
      "name": "getLatestLocation",
      "outputs": [
        {
          "components": [
            {
              "internalType": "uint256",
              "name": "timestamp",
              "type": "uint256"
            },
            {
              "internalType": "int256",
              "name": "latitude",
              "type": "int256"
            },
            {
              "internalType": "int256",
              "name": "longitude",
              "type": "int256"
            },
            {
              "internalType": "uint256",
              "name": "speed",
              "type": "uint256"
            },
            {
              "internalType": "string",
              "name": "location",
              "type": "string"
            },
            {
              "internalType": "bool",
              "name": "emergencyBrake",
              "type": "bool"
            },
            {
              "internalType": "string",
              "name": "additionalData",
              "type": "string"
            }
          ],
          "internalType": "struct TrackingContract.GPSLocation",
          "name": "",
          "type": "tuple"
        }
      ],
      "stateMutability": "view",
      "type": "function"
    },
    {
      "inputs": [
        {
          "internalType": "uint256",
          "name": "_shipmentId",
          "type": "uint256"
        }
      ],
      "name": "getShipment",
      "outputs": [
        {
          "components": [
            {
              "internalType": "uint256",
              "name": "shipmentId",
              "type": "uint256"
            },
            {
              "internalType": "uint256",
              "name": "auctionId",
              "type": "uint256"
            },
            {
              "internalType": "address",
              "name": "farmer",
              "type": "address"
            },
            {
              "internalType": "address",
              "name": "distributor",
              "type": "address"
            },
            {
              "internalType": "address",
              "name": "retailer",
              "type": "address"
            },
            {
              "internalType": "string",
              "name": "truckId",
              "type": "string"
            },
            {
              "internalType": "uint256",
              "name": "startTime",
              "type": "uint256"
            },
            {
              "internalType": "uint256",
              "name": "expectedDeliveryTime",
              "type": "uint256"
            },
            {
              "internalType": "uint256",
              "name": "actualDeliveryTime",
              "type": "uint256"
            },
            {
              "internalType": "bool",
              "name": "isDelivered",
              "type": "bool"
            },
            {
              "internalType": "bool",
              "name": "isActive",
              "type": "bool"
            },
            {
              "internalType": "string",
              "name": "productDetails",
              "type": "string"
            }
          ],
          "internalType": "struct TrackingContract.Shipment",
          "name": "",
          "type": "tuple"
        }
      ],
      "stateMutability": "view",
      "type": "function"
    },
    {
      "inputs": [
        {
          "internalType": "uint256",
          "name": "_auctionId",
          "type": "uint256"
        }
      ],
      "name": "getShipmentByAuction",
      "outputs": [
        {
          "internalType": "uint256[]",
          "name": "",
          "type": "uint256[]"
        }
      ],
      "stateMutability": "view",
      "type": "function"
    },
    {
      "inputs": [],
      "name": "getTotalShipments",
      "outputs": [
        {
          "internalType": "uint256",
          "name": "",
          "type": "uint256"
        }
      ],
      "stateMutability": "view",
      "type": "function"
    },
    {
      "inputs": [
        {
          "internalType": "uint256",
          "name": "_shipmentId",
          "type": "uint256"
        }
      ],
      "name": "getTrackingHistory",
      "outputs": [
        {
          "components": [
            {
              "internalType": "uint256",
              "name": "timestamp",
              "type": "uint256"
            },
            {
              "internalType": "int256",
              "name": "latitude",
              "type": "int256"
            },
            {
              "internalType": "int256",
              "name": "longitude",
              "type": "int256"
            },
            {
              "internalType": "uint256",
              "name": "speed",
              "type": "uint256"
            },
            {
              "internalType": "string",
              "name": "location",
              "type": "string"
            },
            {
              "internalType": "bool",
              "name": "emergencyBrake",
              "type": "bool"
            },
            {
              "internalType": "string",
              "name": "additionalData",
              "type": "string"
            }
          ],
          "internalType": "struct TrackingContract.GPSLocation[]",
          "name": "",
          "type": "tuple[]"
        }
      ],
      "stateMutability": "view",
      "type": "function"
    },
    {
      "inputs": [
        {
          "internalType": "string",
          "name": "_truckId",
          "type": "string"
        }
      ],
      "name": "getTruckShipments",
      "outputs": [
        {
          "internalType": "uint256[]",
          "name": "",
          "type": "uint256[]"
        }
      ],
      "stateMutability": "view",
      "type": "function"
    },
    {
      "inputs": [
        {
          "internalType": "uint256",
          "name": "_shipmentId",
          "type": "uint256"
        }
      ],
      "name": "markDelivered",
      "outputs": [],
      "stateMutability": "nonpayable",
      "type": "function"
    },
    {
      "inputs": [],
      "name": "owner",
      "outputs": [
        {
          "internalType": "address",
          "name": "",
          "type": "address"
        }
      ],
      "stateMutability": "view",
      "type": "function"
    },
    {
      "inputs": [],
      "name": "renounceOwnership",
      "outputs": [],
      "stateMutability": "nonpayable",
      "type": "function"
    },
    {
      "inputs": [
        {
          "internalType": "uint256",
          "name": "",
          "type": "uint256"
        },
        {
          "internalType": "uint256",
          "name": "",
          "type": "uint256"
        }
      ],
      "name": "shipmentTrackingHistory",
      "outputs": [
        {
          "internalType": "uint256",
          "name": "timestamp",
          "type": "uint256"
        },
        {
          "internalType": "int256",
          "name": "latitude",
          "type": "int256"
        },
        {
          "internalType": "int256",
          "name": "longitude",
          "type": "int256"
        },
        {
          "internalType": "uint256",
          "name": "speed",
          "type": "uint256"
        },
        {
          "internalType": "string",
          "name": "location",
          "type": "string"
        },
        {
          "internalType": "bool",
          "name": "emergencyBrake",
          "type": "bool"
        },
        {
          "internalType": "string",
          "name": "additionalData",
          "type": "string"
        }
      ],
      "stateMutability": "view",
      "type": "function"
    },
    {
      "inputs": [
        {
          "internalType": "uint256",
          "name": "",
          "type": "uint256"
        }
      ],
      "name": "shipments",
      "outputs": [
        {
          "internalType": "uint256",
          "name": "shipmentId",
          "type": "uint256"
        },
        {
          "internalType": "uint256",
          "name": "auctionId",
          "type": "uint256"
        },
        {
          "internalType": "address",
          "name": "farmer",
          "type": "address"
        },
        {
          "internalType": "address",
          "name": "distributor",
          "type": "address"
        },
        {
          "internalType": "address",
          "name": "retailer",
          "type": "address"
        },
        {
          "internalType": "string",
          "name": "truckId",
          "type": "string"
        },
        {
          "internalType": "uint256",
          "name": "startTime",
          "type": "uint256"
        },
        {
          "internalType": "uint256",
          "name": "expectedDeliveryTime",
          "type": "uint256"
        },
        {
          "internalType": "uint256",
          "name": "actualDeliveryTime",
          "type": "uint256"
        },
        {
          "internalType": "bool",
          "name": "isDelivered",
          "type": "bool"
        },
        {
          "internalType": "bool",
          "name": "isActive",
          "type": "bool"
        },
        {
          "internalType": "string",
          "name": "productDetails",
          "type": "string"
        }
      ],
      "stateMutability": "view",
      "type": "function"
    },
    {
      "inputs": [
        {
          "internalType": "address",
          "name": "newOwner",
          "type": "address"
        }
      ],
      "name": "transferOwnership",
      "outputs": [],
      "stateMutability": "nonpayable",
      "type": "function"
    },
    {
      "inputs": [
        {
          "internalType": "string",
          "name": "",
          "type": "string"
        },
        {
          "internalType": "uint256",
          "name": "",
          "type": "uint256"
        }
      ],
      "name": "truckShipments",
      "outputs": [
        {
          "internalType": "uint256",
          "name": "",
          "type": "uint256"
        }
      ],
      "stateMutability": "view",
      "type": "function"
    },
    {
      "inputs": [
        {
          "internalType": "uint256",
          "name": "_shipmentId",
          "type": "uint256"
        },
        {
          "internalType": "int256",
          "name": "_latitude",
          "type": "int256"
        },
        {
          "internalType": "int256",
          "name": "_longitude",
          "type": "int256"
        },
        {
          "internalType": "uint256",
          "name": "_speed",
          "type": "uint256"
        },
        {
          "internalType": "string",
          "name": "_location",
          "type": "string"
        },
        {
          "internalType": "bool",
          "name": "_emergencyBrake",
          "type": "bool"
        },
        {
          "internalType": "string",
          "name": "_additionalData",
          "type": "string"
        }
      ],
      "name": "updateLocation",
      "outputs": [],
      "stateMutability": "nonpayable",
      "type": "function"
    }
  ],
  "bytecode": "0x6080806040523461007a5733156100645760008054336001600160a01b03198216811783556040519290916001600160a01b0316907f8be0079c531659141344cd1fd0a4f28419497f9722a3daafe3b4186f6b6457e09080a3611c9c90816100808239f35b631e4fbdf760e01b815260006004820152602490fd5b600080fdfe608080604052600436101561001357600080fd5b60003560e01c908163092b37401461153e575080632738dcbc146110ee5780632ac08a931461100b57806356d762e714610fb357806358247b7914610a175780635c61f40e146108845780636209ef291461080a5780636e10c06f1461075b578063715018a61461070257806379ee4c8b146106dc5780637f28d3e314610664578063885301b2146106465780638da5cb5b1461061d578063c36034e2146104f6578063e37477dd1461043e578063e761fd0914610393578063eb826a5f146101735763f2fde38b146100e557600080fd5b3461016e57602036600319011261016e576100fe6118fa565b6101066119f6565b6001600160a01b0390811690811561015557600054826001600160601b0360a01b821617600055167f8be0079c531659141344cd1fd0a4f28419497f9722a3daafe3b4186f6b6457e0600080a3005b604051631e4fbdf760e01b815260006004820152602490fd5b600080fd5b3461016e5760208060031936011261016e57600435806000526001825260406000206040516101a18161176c565b8154815260018201548482015260018060a01b038281806002819601541660408501908152816003840154169460608101958652610160610240600a8560048801541696608085019788526101f860058201611854565b60a0860152600681015460c0860152600781015460e0860152600881015461010086015260ff6009820154818116151561012088015260081c16151561014086015201611854565b91015251163314928315610386575b508215610378575b5050801561036b575b1561032857816000526001835261028460ff60096040600020015460081c16611a66565b8160005260018352604060002060098101805460ff81166102e3579160049160017f0bde60694aa600ce1f3c57fa1638fb824512cb0680334f137792b9a498ce7082959461ffff191617905542600882015501541692604051428152a3005b60405162461bcd60e51b815260048101879052601a60248201527f536869706d656e7420616c72656164792064656c6976657265640000000000006044820152606490fd5b6064836040519062461bcd60e51b825280600483015260248201527f4e6f7420617574686f72697a656420666f72207468697320736869706d656e746044820152fd5b5080600054163314610260565b909150511633148185610257565b518216331492508661024f565b3461016e5760208060031936011261016e576004356001600160401b03811161016e57816103c86103db9236906004016117c4565b8160405193828580945193849201611724565b8101600381520301902090604051908181845491828152019360005281600020916000905b8282106104275761042385610417818903826117a3565b604051918291826119bb565b0390f35b835486529485019460019384019390910190610400565b3461016e5760208060031936011261016e576004359060055461046081611b5e565b9260009260005b8381106104b657858561047981611b5e565b9160005b828110610492576040518061042386826119bb565b806104a06104b19284611b4a565b516104ab8287611b4a565b52611a22565b61047d565b8060005282600180845260406000200154146104db575b6104d690611a22565b610467565b936104ee81866104ab6104d6948a611b4a565b9490506104cd565b3461016e5760208060031936011261016e576004356000526002908181526040600020805461052481611b33565b9361053260405195866117a3565b81855260009283528383208486019391845b8484106105a757604080518881528951818a01819052600092600582901b83018101918a918c9085015b82871061057b5785850386f35b909192938280610597600193603f198a8203018652885161193e565b960192019601959291909261056e565b60078760019260409a999a516105bc81611788565b865481528487015483820152858701546040820152600387015460608201526105e760048801611854565b608082015260ff600588015416151560a082015261060760068801611854565b60c0820152815201930193019291969596610544565b3461016e57600036600319011261016e576000546040516001600160a01b039091168152602090f35b3461016e57600036600319011261016e576020600554604051908152f35b3461016e5760208060031936011261016e576001600160a01b036106866118fa565b1660005260048152604060002090604051908181845491828152019360005281600020916000905b8282106106c55761042385610417818903826117a3565b8354865294850194600193840193909101906106ae565b3461016e57602036600319011261016e5760206106fa600435611b90565b604051908152f35b3461016e57600036600319011261016e5761071b6119f6565b600080546001600160a01b0319811682556001600160a01b03167f8be0079c531659141344cd1fd0a4f28419497f9722a3daafe3b4186f6b6457e08280a3005b3461016e57604036600319011261016e576024356004356000526002602052604060002090815481101561016e576107929161199f565b50805461042360018301549260028101546107f560038301546107b760048501611854565b906107cc600660ff6005880154169601611854565b93604051988998895260208901526040880152606087015260e0608087015260e0860190611747565b91151560a085015283820360c0850152611747565b3461016e57604036600319011261016e576004356001600160401b03811161016e5761083a9036906004016117c4565b6108566020602435928160405193828580945193849201611724565b81016003815203019020805482101561016e5760209161087591611910565b90549060031b1c604051908152f35b3461016e5760208060031936011261016e57604051906108a382611788565b6000825260008183015260006040830152606091600083820152608090838282015260a0916000838301528460c0809301526004356000526002908185526040600020918254936108f385611b33565b9561090160405197886117a3565b8587526000948552878520938888015b8787106109a9578989805115610964578051600019810190811161094e5761093891611b4a565b519061042360405192828493845283019061193e565b634e487b7160e01b600052601160045260246000fd5b60405162461bcd60e51b815260048101839052601a60248201527f4e6f20747261636b696e67206461746120617661696c61626c650000000000006044820152606490fd5b60078a6001928d604051906109bd82611788565b8a548252858b015484830152898b0154604083015260038b0154908201526109e760048b01611854565b8682015260ff60058b015416151587820152610a0560068b01611854565b88820152815201960196019594610911565b3461016e5760c036600319011261016e576024356001600160a01b038116810361016e576044356001600160a01b038116810361016e576064356001600160401b03811161016e57610a6d9036906004016117c4565b60a4356001600160401b03811161016e57610a8c9036906004016117c4565b6001600160a01b03841615610f75576001600160a01b03831615610f3057815115610eeb5760055492610abe84611a22565b60055560405194610ace8661176c565b848652600435602087015260018060a01b0316604086015233606086015260018060a01b031660808501528160a08501524260c085015260843560e085015260006101008501526000610120850152600161014085015261016084015281600052600160205260406000209280518455602081015160018501556002840160018060a01b036040830151166001600160601b0360a01b8254161790556003840160018060a01b036060830151166001600160601b0360a01b8254161790556004840160018060a01b036080830151166001600160601b0360a01b82541617905560a08101518051906001600160401b038211610e0f57610bd1600587015461181a565b601f8111610ea4575b50602090601f8311600114610e305761016093929160009183610e25575b50508160011b916000199060031b1c19161760058601555b60c0810151600686015560e08101516007860155610100810151600886015560098501610c506101208301511515829060ff801983541691151516179055565b610140820151151561ff0082549160081b169061ff00191617905501519283516001600160401b038111610e0f57610c8b600a83015461181a565b94601f8611610dc4575b602095508590601f8311600114610d5857600a929160009183610d4d575b50508160011b916000199060031b1c1916179101555b610cf08260405185818551610ce18183858a01611724565b81016003815203019020611a31565b3360005260048352610d06826040600020611a31565b60405190838252827f86551f7ab8701c3ba8d0c3b5c564ff4d83c32a4054e616065bda99fbbd265dea339380610d426004359589830190611747565b0390a4604051908152f35b015190508780610cb3565b90601f19831691600a8501600052876000209260005b818110610dad5750916001939185600a969410610d94575b505050811b01910155610cc9565b015160001960f88460031b161c19169055878080610d86565b929389600181928786015181550195019301610d6e565b600a83016000526020600020601f830160051c81019660208410610e05575b601f0160051c01955b868110610df95750610c95565b60008155600101610dec565b9096508690610de3565b634e487b7160e01b600052604160045260246000fd5b015190508780610bf8565b906005870160005260206000209160005b601f1985168110610e8c57509183916001936101609695601f19811610610e73575b505050811b016005860155610c10565b015160001960f88460031b161c19169055878080610e63565b91926020600181928685015181550194019201610e41565b600587016000526020600020601f840160051c810160208510610ee4575b601f830160051c82018110610ed8575050610bda565b60008155600101610ec2565b5080610ec2565b60405162461bcd60e51b815260206004820152601860248201527f547275636b2049442063616e6e6f7420626520656d70747900000000000000006044820152606490fd5b60405162461bcd60e51b815260206004820152601860248201527f496e76616c69642072657461696c6572206164647265737300000000000000006044820152606490fd5b60405162461bcd60e51b8152602060048201526016602482015275496e76616c6964206661726d6572206164647265737360501b6044820152606490fd5b3461016e57604036600319011261016e57610fcc6118fa565b6001600160a01b031660009081526004602052604090208054602435919082101561016e57602091610ffd91611910565b90546040519160031b1c8152f35b3461016e57602036600319011261016e57600435600052600160205260206040600020610423815491600181015460ff60018060a01b0392836002820154168460038301541694600483015416946110b861106860058501611854565b60068501549760078601549360088701549561108b600a60098a01549901611854565b996040519e8f9e8f908152015260408d015260608c015260808b01526101808060a08c01528a0190611747565b9560c089015260e0880152610100870152818116151561012087015260081c161515610140850152838203610160850152611747565b3461016e5760e036600319011261016e576084356001600160401b03811161016e5761111e9036906004016117c4565b60a4351515908160a4350361016e5760c4356001600160401b03811161016e5761114c9036906004016117c4565b90600435600052600160205261116f60ff60096040600020015460081c16611a66565b6040519261117c84611788565b4284526020840192602435845260408501906044358252606086019260643584526080870194855260a087015260c0860152600435600052600260205260406000208054600160401b811015610e0f576111db9160018201815561199f565b9490946115285785518555516001850155516002840155516003830155518051906001600160401b038211610e0f57611217600484015461181a565b601f81116114e1575b50602090601f831160011461146c57918060c09492600694600092611461575b50508160011b916000199060031b1c19161760048201555b61127760a08501511515600583019060ff801983541691151516179055565b019101519081516001600160401b038111610e0f57611296825461181a565b601f8111611419575b50602092601f82116001146113b557928192936000926113aa575b50508160011b916000199060031b1c19161790555b60043560005260016020526112ea6005604060002001611aab565b6040517f21788a28eea86e6e8276531cabf3cdfbbbaa0a6fd0348a4b83ed493b91ff8dfa600435918061133442604435602435846040919493926060820195825260208201520152565b0390a360a43561134057005b600435600052600160205261135b6005604060002001611aab565b6040517f4ad90bc5738ff59fd674445f1063d7f75ca79e5173b85fbdf4923d8b9f717c5460043591806113a542604435602435846040919493926060820195825260208201520152565b0390a3005b0151905083806112ba565b601f198216938360005260206000209160005b86811061140157508360019596106113e8575b505050811b0190556112cf565b015160001960f88460031b161c191690558380806113db565b919260206001819286850151815501940192016113c8565b826000526020600020601f830160051c81019160208410611457575b601f0160051c01905b81811061144b575061129f565b6000815560010161143e565b9091508190611435565b015190508680611240565b906004840160005260206000209160005b601f19851681106114c957509260c0949260019260069583601f198116106114b0575b505050811b016004820155611258565b015160001960f88460031b161c191690558680806114a0565b9192602060018192868501518155019401920161147d565b600484016000526020600020601f840160051c810160208510611521575b601f830160051c82018110611515575050611220565b600081556001016114ff565b50806114ff565b634e487b7160e01b600052600060045260246000fd5b3461016e57602036600319011261016e576101608161155e60609361176c565b600081526000602082015260006040820152600083820152600060808201528260a0820152600060c0820152600060e082015260006101008201526000610120820152600061014082015201526004356000526001602052610423604060002061165e600a604051926115d08461176c565b805484526001810154602085015260028101546001600160a01b039081166040860152600382015481166060860152600482015416608085015261161660058201611854565b60a0850152600681015460c0850152600781015460e0850152600881015461010085015260ff6009820154818116151561012087015260081c16151561014085015201611854565b61016082015260405191829160208352805160208401526020810151604084015260018060a01b03604082015116606084015260018060a01b03606082015116608084015260018060a01b0360808201511660a084015260a08101516101606116d5610180928360c08801526101a0870190611747565b9260c081015160e087015260e08101516101008701526101008101516101208701526101208101511515610140870152610140810151151582870152015190601f198584030190850152611747565b60005b8381106117375750506000910152565b8181015183820152602001611727565b9060209161176081518092818552858086019101611724565b601f01601f1916010190565b61018081019081106001600160401b03821117610e0f57604052565b60e081019081106001600160401b03821117610e0f57604052565b90601f801991011681019081106001600160401b03821117610e0f57604052565b81601f8201121561016e578035906001600160401b038211610e0f57604051926117f8601f8401601f1916602001856117a3565b8284526020838301011161016e57816000926020809301838601378301015290565b90600182811c9216801561184a575b602083101461183457565b634e487b7160e01b600052602260045260246000fd5b91607f1691611829565b90604051918260008254926118688461181a565b9081845260019485811690816000146118d75750600114611894575b5050611892925003836117a3565b565b9093915060005260209081600020936000915b8183106118bf57505061189293508201013880611884565b855488840185015294850194879450918301916118a7565b91505061189294506020925060ff191682840152151560051b8201013880611884565b600435906001600160a01b038216820361016e57565b80548210156119285760005260206000200190600090565b634e487b7160e01b600052603260045260246000fd5b61199c918151815260208201516020820152604082015160408201526060820151606082015260c061197f608084015160e0608085015260e0840190611747565b9260a0810151151560a084015201519060c0818403910152611747565b90565b8054821015611928576000526007602060002091020190600090565b6020908160408183019282815285518094520193019160005b8281106119e2575050505090565b8351855293810193928101926001016119d4565b6000546001600160a01b03163303611a0a57565b60405163118cdaa760e01b8152336004820152602490fd5b600019811461094e5760010190565b8054600160401b811015610e0f57611a4e91600182018155611910565b819291549060031b91821b91600019901b1916179055565b15611a6d57565b60405162461bcd60e51b8152602060048201526016602482015275536869706d656e74206973206e6f742061637469766560501b6044820152606490fd5b60405180916000908054611abe8161181a565b91600191808316908115611b1a5750600114611ade575b50505003902090565b9091925060005260209081600020906000915b848310611b0657505050508101388080611ad5565b805487840152869550918301918101611af1565b60ff191686525050508015150282019050388080611ad5565b6001600160401b038111610e0f5760051b60200190565b80518210156119285760209160051b010190565b90611b6882611b33565b611b7560405191826117a3565b8281528092611b86601f1991611b33565b0190602036910137565b9060008281526002906020828152604092838320805490611bb082611b33565b92611bbd875194856117a3565b82845290855283852085918585015b848410611bf857505050505090600794956001925115611bef5783525220015490565b83525220015490565b6007876001928b51611c0981611788565b865481528487015483820152858701548d82015260038701546060820152611c3360048801611854565b608082015260ff600588015416151560a0820152611c5360068801611854565b60c0820152815201930193019291611bcc56fea264697066735822122079c2b31983dbf8c47f03d63777eb20e546a83e81d6643b48deeed20066be467e64736f6c63430008140033",
  "linkReferences": {},
  "deployedLinkReferences": {}
}